{
	"solidity-fundamentals/contracts/ExampleContract.sol": {
		"ExampleContract": {
			"abi": [
				{
					"inputs": [
						{
							"internalType": "address",
							"name": "initialOwner",
							"type": "address"
						}
					],
					"stateMutability": "nonpayable",
					"type": "constructor"
				},
				{
					"inputs": [
						{
							"internalType": "address",
							"name": "owner",
							"type": "address"
						}
					],
					"name": "OwnableInvalidOwner",
					"type": "error"
				},
				{
					"inputs": [
						{
							"internalType": "address",
							"name": "account",
							"type": "address"
						}
					],
					"name": "OwnableUnauthorizedAccount",
					"type": "error"
				},
				{
					"anonymous": false,
					"inputs": [
						{
							"indexed": true,
							"internalType": "address",
							"name": "previousOwner",
							"type": "address"
						},
						{
							"indexed": true,
							"internalType": "address",
							"name": "newOwner",
							"type": "address"
						}
					],
					"name": "OwnershipTransferred",
					"type": "event"
				},
				{
					"inputs": [
						{
							"internalType": "string",
							"name": "_name",
							"type": "string"
						},
						{
							"internalType": "uint256",
							"name": "_age",
							"type": "uint256"
						}
					],
					"name": "addPerson",
					"outputs": [],
					"stateMutability": "nonpayable",
					"type": "function"
				},
				{
					"inputs": [
						{
							"internalType": "address",
							"name": "_addr",
							"type": "address"
						}
					],
					"name": "checkParticipant",
					"outputs": [
						{
							"internalType": "bool",
							"name": "",
							"type": "bool"
						}
					],
					"stateMutability": "view",
					"type": "function"
				},
				{
					"inputs": [
						{
							"internalType": "address",
							"name": "_addr",
							"type": "address"
						}
					],
					"name": "isAdult",
					"outputs": [
						{
							"internalType": "bool",
							"name": "",
							"type": "bool"
						}
					],
					"stateMutability": "view",
					"type": "function"
				},
				{
					"inputs": [],
					"name": "owner",
					"outputs": [
						{
							"internalType": "address",
							"name": "",
							"type": "address"
						}
					],
					"stateMutability": "view",
					"type": "function"
				},
				{
					"inputs": [
						{
							"internalType": "uint256",
							"name": "",
							"type": "uint256"
						}
					],
					"name": "participants",
					"outputs": [
						{
							"internalType": "address",
							"name": "",
							"type": "address"
						}
					],
					"stateMutability": "view",
					"type": "function"
				},
				{
					"inputs": [
						{
							"internalType": "address",
							"name": "",
							"type": "address"
						}
					],
					"name": "personInfo",
					"outputs": [
						{
							"internalType": "string",
							"name": "name",
							"type": "string"
						},
						{
							"internalType": "uint256",
							"name": "age",
							"type": "uint256"
						}
					],
					"stateMutability": "view",
					"type": "function"
				},
				{
					"inputs": [],
					"name": "renounceOwnership",
					"outputs": [],
					"stateMutability": "nonpayable",
					"type": "function"
				},
				{
					"inputs": [
						{
							"internalType": "address",
							"name": "newOwner",
							"type": "address"
						}
					],
					"name": "transferOwnership",
					"outputs": [],
					"stateMutability": "nonpayable",
					"type": "function"
				}
			],
			"devdoc": {
				"errors": {
					"OwnableInvalidOwner(address)": [
						{
							"details": "The owner is not a valid owner account. (eg. `address(0)`)"
						}
					],
					"OwnableUnauthorizedAccount(address)": [
						{
							"details": "The caller account is not authorized to perform an operation."
						}
					]
				},
				"kind": "dev",
				"methods": {
					"owner()": {
						"details": "Returns the address of the current owner."
					},
					"renounceOwnership()": {
						"details": "Leaves the contract without owner. It will not be possible to call `onlyOwner` functions. Can only be called by the current owner. NOTE: Renouncing ownership will leave the contract without an owner, thereby disabling any functionality that is only available to the owner."
					},
					"transferOwnership(address)": {
						"details": "Transfers ownership of the contract to a new account (`newOwner`). Can only be called by the current owner."
					}
				},
				"version": 1
			},
			"evm": {
				"assembly": "    /* \"solidity-fundamentals/contracts/ExampleContract.sol\":253:1636  contract ExampleContract is Ownable {... */\n  mstore(0x40, 0x80)\n    /* \"solidity-fundamentals/contracts/ExampleContract.sol\":296:354  constructor(address initialOwner) Ownable(initialOwner) {} */\n  callvalue\n  dup1\n  iszero\n  tag_1\n  jumpi\n  0x00\n  dup1\n  revert\ntag_1:\n  pop\n  mload(0x40)\n  sub(codesize, bytecodeSize)\n  dup1\n  bytecodeSize\n  dup4\n  codecopy\n  dup2\n  dup2\n  add\n  0x40\n  mstore\n  dup2\n  add\n  swap1\n  tag_2\n  swap2\n  swap1\n  tag_3\n  jump\t// in\ntag_2:\n    /* \"solidity-fundamentals/contracts/ExampleContract.sol\":338:350  initialOwner */\n  dup1\n    /* \"@openzeppelin/contracts/access/Ownable.sol\":1297:1298  0 */\n  0x00\n    /* \"@openzeppelin/contracts/access/Ownable.sol\":1273:1299  initialOwner == address(0) */\n  0xffffffffffffffffffffffffffffffffffffffff\n  and\n    /* \"@openzeppelin/contracts/access/Ownable.sol\":1273:1285  initialOwner */\n  dup2\n    /* \"@openzeppelin/contracts/access/Ownable.sol\":1273:1299  initialOwner == address(0) */\n  0xffffffffffffffffffffffffffffffffffffffff\n  and\n  sub\n    /* \"@openzeppelin/contracts/access/Ownable.sol\":1269:1364  if (initialOwner == address(0)) {... */\n  tag_7\n  jumpi\n    /* \"@openzeppelin/contracts/access/Ownable.sol\":1350:1351  0 */\n  0x00\n    /* \"@openzeppelin/contracts/access/Ownable.sol\":1322:1353  OwnableInvalidOwner(address(0)) */\n  mload(0x40)\n  0x1e4fbdf700000000000000000000000000000000000000000000000000000000\n  dup2\n  mstore\n  0x04\n  add\n  tag_8\n  swap2\n  swap1\n  tag_9\n  jump\t// in\ntag_8:\n  mload(0x40)\n  dup1\n  swap2\n  sub\n  swap1\n  revert\n    /* \"@openzeppelin/contracts/access/Ownable.sol\":1269:1364  if (initialOwner == address(0)) {... */\ntag_7:\n    /* \"@openzeppelin/contracts/access/Ownable.sol\":1373:1405  _transferOwnership(initialOwner) */\n  tag_10\n    /* \"@openzeppelin/contracts/access/Ownable.sol\":1392:1404  initialOwner */\n  dup2\n    /* \"@openzeppelin/contracts/access/Ownable.sol\":1373:1391  _transferOwnership */\n  shl(0x20, tag_11)\n    /* \"@openzeppelin/contracts/access/Ownable.sol\":1373:1405  _transferOwnership(initialOwner) */\n  0x20\n  shr\n  jump\t// in\ntag_10:\n    /* \"@openzeppelin/contracts/access/Ownable.sol\":1225:1412  constructor(address initialOwner) {... */\n  pop\n    /* \"solidity-fundamentals/contracts/ExampleContract.sol\":296:354  constructor(address initialOwner) Ownable(initialOwner) {} */\n  pop\n    /* \"solidity-fundamentals/contracts/ExampleContract.sol\":253:1636  contract ExampleContract is Ownable {... */\n  jump(tag_13)\n    /* \"@openzeppelin/contracts/access/Ownable.sol\":2912:3099  function _transferOwnership(address newOwner) internal virtual {... */\ntag_11:\n    /* \"@openzeppelin/contracts/access/Ownable.sol\":2985:3001  address oldOwner */\n  0x00\n    /* \"@openzeppelin/contracts/access/Ownable.sol\":3004:3010  _owner */\n  dup1\n  0x00\n  swap1\n  sload\n  swap1\n  0x0100\n  exp\n  swap1\n  div\n  0xffffffffffffffffffffffffffffffffffffffff\n  and\n    /* \"@openzeppelin/contracts/access/Ownable.sol\":2985:3010  address oldOwner = _owner */\n  swap1\n  pop\n    /* \"@openzeppelin/contracts/access/Ownable.sol\":3029:3037  newOwner */\n  dup2\n    /* \"@openzeppelin/contracts/access/Ownable.sol\":3020:3026  _owner */\n  0x00\n  dup1\n    /* \"@openzeppelin/contracts/access/Ownable.sol\":3020:3037  _owner = newOwner */\n  0x0100\n  exp\n  dup2\n  sload\n  dup2\n  0xffffffffffffffffffffffffffffffffffffffff\n  mul\n  not\n  and\n  swap1\n  dup4\n  0xffffffffffffffffffffffffffffffffffffffff\n  and\n  mul\n  or\n  swap1\n  sstore\n  pop\n    /* \"@openzeppelin/contracts/access/Ownable.sol\":3083:3091  newOwner */\n  dup2\n    /* \"@openzeppelin/contracts/access/Ownable.sol\":3052:3092  OwnershipTransferred(oldOwner, newOwner) */\n  0xffffffffffffffffffffffffffffffffffffffff\n  and\n    /* \"@openzeppelin/contracts/access/Ownable.sol\":3073:3081  oldOwner */\n  dup2\n    /* \"@openzeppelin/contracts/access/Ownable.sol\":3052:3092  OwnershipTransferred(oldOwner, newOwner) */\n  0xffffffffffffffffffffffffffffffffffffffff\n  and\n  0x8be0079c531659141344cd1fd0a4f28419497f9722a3daafe3b4186f6b6457e0\n  mload(0x40)\n  mload(0x40)\n  dup1\n  swap2\n  sub\n  swap1\n  log3\n    /* \"@openzeppelin/contracts/access/Ownable.sol\":2975:3099  {... */\n  pop\n    /* \"@openzeppelin/contracts/access/Ownable.sol\":2912:3099  function _transferOwnership(address newOwner) internal virtual {... */\n  pop\n  jump\t// out\n    /* \"#utility.yul\":88:205   */\ntag_16:\n    /* \"#utility.yul\":197:198   */\n  0x00\n    /* \"#utility.yul\":194:195   */\n  dup1\n    /* \"#utility.yul\":187:199   */\n  revert\n    /* \"#utility.yul\":334:460   */\ntag_18:\n    /* \"#utility.yul\":371:378   */\n  0x00\n    /* \"#utility.yul\":411:453   */\n  0xffffffffffffffffffffffffffffffffffffffff\n    /* \"#utility.yul\":404:409   */\n  dup3\n    /* \"#utility.yul\":400:454   */\n  and\n    /* \"#utility.yul\":389:454   */\n  swap1\n  pop\n    /* \"#utility.yul\":334:460   */\n  swap2\n  swap1\n  pop\n  jump\t// out\n    /* \"#utility.yul\":466:562   */\ntag_19:\n    /* \"#utility.yul\":503:510   */\n  0x00\n    /* \"#utility.yul\":532:556   */\n  tag_29\n    /* \"#utility.yul\":550:555   */\n  dup3\n    /* \"#utility.yul\":532:556   */\n  tag_18\n  jump\t// in\ntag_29:\n    /* \"#utility.yul\":521:556   */\n  swap1\n  pop\n    /* \"#utility.yul\":466:562   */\n  swap2\n  swap1\n  pop\n  jump\t// out\n    /* \"#utility.yul\":568:690   */\ntag_20:\n    /* \"#utility.yul\":641:665   */\n  tag_31\n    /* \"#utility.yul\":659:664   */\n  dup2\n    /* \"#utility.yul\":641:665   */\n  tag_19\n  jump\t// in\ntag_31:\n    /* \"#utility.yul\":634:639   */\n  dup2\n    /* \"#utility.yul\":631:666   */\n  eq\n    /* \"#utility.yul\":621:684   */\n  tag_32\n  jumpi\n    /* \"#utility.yul\":680:681   */\n  0x00\n    /* \"#utility.yul\":677:678   */\n  dup1\n    /* \"#utility.yul\":670:682   */\n  revert\n    /* \"#utility.yul\":621:684   */\ntag_32:\n    /* \"#utility.yul\":568:690   */\n  pop\n  jump\t// out\n    /* \"#utility.yul\":696:839   */\ntag_21:\n    /* \"#utility.yul\":753:758   */\n  0x00\n    /* \"#utility.yul\":784:790   */\n  dup2\n    /* \"#utility.yul\":778:791   */\n  mload\n    /* \"#utility.yul\":769:791   */\n  swap1\n  pop\n    /* \"#utility.yul\":800:833   */\n  tag_34\n    /* \"#utility.yul\":827:832   */\n  dup2\n    /* \"#utility.yul\":800:833   */\n  tag_20\n  jump\t// in\ntag_34:\n    /* \"#utility.yul\":696:839   */\n  swap3\n  swap2\n  pop\n  pop\n  jump\t// out\n    /* \"#utility.yul\":845:1196   */\ntag_3:\n    /* \"#utility.yul\":915:921   */\n  0x00\n    /* \"#utility.yul\":964:966   */\n  0x20\n    /* \"#utility.yul\":952:961   */\n  dup3\n    /* \"#utility.yul\":943:950   */\n  dup5\n    /* \"#utility.yul\":939:962   */\n  sub\n    /* \"#utility.yul\":935:967   */\n  slt\n    /* \"#utility.yul\":932:1051   */\n  iszero\n  tag_36\n  jumpi\n    /* \"#utility.yul\":970:1049   */\n  tag_37\n  tag_16\n  jump\t// in\ntag_37:\n    /* \"#utility.yul\":932:1051   */\ntag_36:\n    /* \"#utility.yul\":1090:1091   */\n  0x00\n    /* \"#utility.yul\":1115:1179   */\n  tag_38\n    /* \"#utility.yul\":1171:1178   */\n  dup5\n    /* \"#utility.yul\":1162:1168   */\n  dup3\n    /* \"#utility.yul\":1151:1160   */\n  dup6\n    /* \"#utility.yul\":1147:1169   */\n  add\n    /* \"#utility.yul\":1115:1179   */\n  tag_21\n  jump\t// in\ntag_38:\n    /* \"#utility.yul\":1105:1179   */\n  swap2\n  pop\n    /* \"#utility.yul\":1061:1189   */\n  pop\n    /* \"#utility.yul\":845:1196   */\n  swap3\n  swap2\n  pop\n  pop\n  jump\t// out\n    /* \"#utility.yul\":1202:1320   */\ntag_22:\n    /* \"#utility.yul\":1289:1313   */\n  tag_40\n    /* \"#utility.yul\":1307:1312   */\n  dup2\n    /* \"#utility.yul\":1289:1313   */\n  tag_19\n  jump\t// in\ntag_40:\n    /* \"#utility.yul\":1284:1287   */\n  dup3\n    /* \"#utility.yul\":1277:1314   */\n  mstore\n    /* \"#utility.yul\":1202:1320   */\n  pop\n  pop\n  jump\t// out\n    /* \"#utility.yul\":1326:1548   */\ntag_9:\n    /* \"#utility.yul\":1419:1423   */\n  0x00\n    /* \"#utility.yul\":1457:1459   */\n  0x20\n    /* \"#utility.yul\":1446:1455   */\n  dup3\n    /* \"#utility.yul\":1442:1460   */\n  add\n    /* \"#utility.yul\":1434:1460   */\n  swap1\n  pop\n    /* \"#utility.yul\":1470:1541   */\n  tag_42\n    /* \"#utility.yul\":1538:1539   */\n  0x00\n    /* \"#utility.yul\":1527:1536   */\n  dup4\n    /* \"#utility.yul\":1523:1540   */\n  add\n    /* \"#utility.yul\":1514:1520   */\n  dup5\n    /* \"#utility.yul\":1470:1541   */\n  tag_22\n  jump\t// in\ntag_42:\n    /* \"#utility.yul\":1326:1548   */\n  swap3\n  swap2\n  pop\n  pop\n  jump\t// out\n    /* \"solidity-fundamentals/contracts/ExampleContract.sol\":253:1636  contract ExampleContract is Ownable {... */\ntag_13:\n  dataSize(sub_0)\n  dup1\n  dataOffset(sub_0)\n  0x00\n  codecopy\n  0x00\n  return\nstop\n\nsub_0: assembly {\n        /* \"solidity-fundamentals/contracts/ExampleContract.sol\":253:1636  contract ExampleContract is Ownable {... */\n      mstore(0x40, 0x80)\n      callvalue\n      dup1\n      iszero\n      tag_1\n      jumpi\n      0x00\n      dup1\n      revert\n    tag_1:\n      pop\n      jumpi(tag_2, lt(calldatasize, 0x04))\n      shr(0xe0, calldataload(0x00))\n      dup1\n      0x8da5cb5b\n      gt\n      tag_11\n      jumpi\n      dup1\n      0x8da5cb5b\n      eq\n      tag_7\n      jumpi\n      dup1\n      0xeb13ec86\n      eq\n      tag_8\n      jumpi\n      dup1\n      0xf2fde38b\n      eq\n      tag_9\n      jumpi\n      dup1\n      0xfb113db1\n      eq\n      tag_10\n      jumpi\n      jump(tag_2)\n    tag_11:\n      dup1\n      0x35c1d349\n      eq\n      tag_3\n      jumpi\n      dup1\n      0x5b573186\n      eq\n      tag_4\n      jumpi\n      dup1\n      0x6f760f41\n      eq\n      tag_5\n      jumpi\n      dup1\n      0x715018a6\n      eq\n      tag_6\n      jumpi\n    tag_2:\n      0x00\n      dup1\n      revert\n        /* \"solidity-fundamentals/contracts/ExampleContract.sol\":676:705  address[] public participants */\n    tag_3:\n      tag_12\n      0x04\n      dup1\n      calldatasize\n      sub\n      dup2\n      add\n      swap1\n      tag_13\n      swap2\n      swap1\n      tag_14\n      jump\t// in\n    tag_13:\n      tag_15\n      jump\t// in\n    tag_12:\n      mload(0x40)\n      tag_16\n      swap2\n      swap1\n      tag_17\n      jump\t// in\n    tag_16:\n      mload(0x40)\n      dup1\n      swap2\n      sub\n      swap1\n      return\n        /* \"solidity-fundamentals/contracts/ExampleContract.sol\":1034:1292  function checkParticipant(address _addr) public view onlyOwner returns(bool) {... */\n    tag_4:\n      tag_18\n      0x04\n      dup1\n      calldatasize\n      sub\n      dup2\n      add\n      swap1\n      tag_19\n      swap2\n      swap1\n      tag_20\n      jump\t// in\n    tag_19:\n      tag_21\n      jump\t// in\n    tag_18:\n      mload(0x40)\n      tag_22\n      swap2\n      swap1\n      tag_23\n      jump\t// in\n    tag_22:\n      mload(0x40)\n      dup1\n      swap2\n      sub\n      swap1\n      return\n        /* \"solidity-fundamentals/contracts/ExampleContract.sol\":744:947  function addPerson(string memory _name, uint _age) public {... */\n    tag_5:\n      tag_24\n      0x04\n      dup1\n      calldatasize\n      sub\n      dup2\n      add\n      swap1\n      tag_25\n      swap2\n      swap1\n      tag_26\n      jump\t// in\n    tag_25:\n      tag_27\n      jump\t// in\n    tag_24:\n      stop\n        /* \"@openzeppelin/contracts/access/Ownable.sol\":2293:2394  function renounceOwnership() public virtual onlyOwner {... */\n    tag_6:\n      tag_28\n      tag_29\n      jump\t// in\n    tag_28:\n      stop\n        /* \"@openzeppelin/contracts/access/Ownable.sol\":1638:1723  function owner() public view virtual returns (address) {... */\n    tag_7:\n      tag_30\n      tag_31\n      jump\t// in\n    tag_30:\n      mload(0x40)\n      tag_32\n      swap2\n      swap1\n      tag_17\n      jump\t// in\n    tag_32:\n      mload(0x40)\n      dup1\n      swap2\n      sub\n      swap1\n      return\n        /* \"solidity-fundamentals/contracts/ExampleContract.sol\":1341:1634  function isAdult(address _addr) public view returns (bool) {... */\n    tag_8:\n      tag_33\n      0x04\n      dup1\n      calldatasize\n      sub\n      dup2\n      add\n      swap1\n      tag_34\n      swap2\n      swap1\n      tag_20\n      jump\t// in\n    tag_34:\n      tag_35\n      jump\t// in\n    tag_33:\n      mload(0x40)\n      tag_36\n      swap2\n      swap1\n      tag_23\n      jump\t// in\n    tag_36:\n      mload(0x40)\n      dup1\n      swap2\n      sub\n      swap1\n      return\n        /* \"@openzeppelin/contracts/access/Ownable.sol\":2543:2758  function transferOwnership(address newOwner) public virtual onlyOwner {... */\n    tag_9:\n      tag_37\n      0x04\n      dup1\n      calldatasize\n      sub\n      dup2\n      add\n      swap1\n      tag_38\n      swap2\n      swap1\n      tag_20\n      jump\t// in\n    tag_38:\n      tag_39\n      jump\t// in\n    tag_37:\n      stop\n        /* \"solidity-fundamentals/contracts/ExampleContract.sol\":569:613  mapping(address => Person) public personInfo */\n    tag_10:\n      tag_40\n      0x04\n      dup1\n      calldatasize\n      sub\n      dup2\n      add\n      swap1\n      tag_41\n      swap2\n      swap1\n      tag_20\n      jump\t// in\n    tag_41:\n      tag_42\n      jump\t// in\n    tag_40:\n      mload(0x40)\n      tag_43\n      swap3\n      swap2\n      swap1\n      tag_44\n      jump\t// in\n    tag_43:\n      mload(0x40)\n      dup1\n      swap2\n      sub\n      swap1\n      return\n        /* \"solidity-fundamentals/contracts/ExampleContract.sol\":676:705  address[] public participants */\n    tag_15:\n      0x02\n      dup2\n      dup2\n      sload\n      dup2\n      lt\n      tag_45\n      jumpi\n      0x00\n      dup1\n      revert\n    tag_45:\n      swap1\n      0x00\n      mstore\n      keccak256(0x00, 0x20)\n      add\n      0x00\n      swap2\n      pop\n      sload\n      swap1\n      0x0100\n      exp\n      swap1\n      div\n      0xffffffffffffffffffffffffffffffffffffffff\n      and\n      dup2\n      jump\t// out\n        /* \"solidity-fundamentals/contracts/ExampleContract.sol\":1034:1292  function checkParticipant(address _addr) public view onlyOwner returns(bool) {... */\n    tag_21:\n        /* \"solidity-fundamentals/contracts/ExampleContract.sol\":1105:1109  bool */\n      0x00\n        /* \"@openzeppelin/contracts/access/Ownable.sol\":1531:1544  _checkOwner() */\n      tag_48\n        /* \"@openzeppelin/contracts/access/Ownable.sol\":1531:1542  _checkOwner */\n      tag_49\n        /* \"@openzeppelin/contracts/access/Ownable.sol\":1531:1544  _checkOwner() */\n      jump\t// in\n    tag_48:\n        /* \"solidity-fundamentals/contracts/ExampleContract.sol\":1125:1131  uint i */\n      0x00\n        /* \"solidity-fundamentals/contracts/ExampleContract.sol\":1121:1264  for(uint i = 0; i < participants.length; i++) {... */\n    tag_51:\n        /* \"solidity-fundamentals/contracts/ExampleContract.sol\":1141:1153  participants */\n      0x02\n        /* \"solidity-fundamentals/contracts/ExampleContract.sol\":1141:1160  participants.length */\n      dup1\n      sload\n      swap1\n      pop\n        /* \"solidity-fundamentals/contracts/ExampleContract.sol\":1137:1138  i */\n      dup2\n        /* \"solidity-fundamentals/contracts/ExampleContract.sol\":1137:1160  i < participants.length */\n      lt\n        /* \"solidity-fundamentals/contracts/ExampleContract.sol\":1121:1264  for(uint i = 0; i < participants.length; i++) {... */\n      iszero\n      tag_52\n      jumpi\n        /* \"solidity-fundamentals/contracts/ExampleContract.sol\":1203:1208  _addr */\n      dup3\n        /* \"solidity-fundamentals/contracts/ExampleContract.sol\":1184:1208  participants[i] == _addr */\n      0xffffffffffffffffffffffffffffffffffffffff\n      and\n        /* \"solidity-fundamentals/contracts/ExampleContract.sol\":1184:1196  participants */\n      0x02\n        /* \"solidity-fundamentals/contracts/ExampleContract.sol\":1197:1198  i */\n      dup3\n        /* \"solidity-fundamentals/contracts/ExampleContract.sol\":1184:1199  participants[i] */\n      dup2\n      sload\n      dup2\n      lt\n      tag_54\n      jumpi\n      tag_55\n      tag_56\n      jump\t// in\n    tag_55:\n    tag_54:\n      swap1\n      0x00\n      mstore\n      keccak256(0x00, 0x20)\n      add\n      0x00\n      swap1\n      sload\n      swap1\n      0x0100\n      exp\n      swap1\n      div\n      0xffffffffffffffffffffffffffffffffffffffff\n      and\n        /* \"solidity-fundamentals/contracts/ExampleContract.sol\":1184:1208  participants[i] == _addr */\n      0xffffffffffffffffffffffffffffffffffffffff\n      and\n      sub\n        /* \"solidity-fundamentals/contracts/ExampleContract.sol\":1181:1254  if(participants[i] == _addr) {... */\n      tag_58\n      jumpi\n        /* \"solidity-fundamentals/contracts/ExampleContract.sol\":1235:1239  true */\n      0x01\n        /* \"solidity-fundamentals/contracts/ExampleContract.sol\":1228:1239  return true */\n      swap2\n      pop\n      pop\n      jump(tag_50)\n        /* \"solidity-fundamentals/contracts/ExampleContract.sol\":1181:1254  if(participants[i] == _addr) {... */\n    tag_58:\n        /* \"solidity-fundamentals/contracts/ExampleContract.sol\":1162:1165  i++ */\n      dup1\n      dup1\n      0x01\n      add\n      swap2\n      pop\n      pop\n        /* \"solidity-fundamentals/contracts/ExampleContract.sol\":1121:1264  for(uint i = 0; i < participants.length; i++) {... */\n      jump(tag_51)\n    tag_52:\n      pop\n        /* \"solidity-fundamentals/contracts/ExampleContract.sol\":1280:1285  false */\n      0x00\n        /* \"solidity-fundamentals/contracts/ExampleContract.sol\":1273:1285  return false */\n      swap1\n      pop\n        /* \"@openzeppelin/contracts/access/Ownable.sol\":1554:1555  _ */\n    tag_50:\n        /* \"solidity-fundamentals/contracts/ExampleContract.sol\":1034:1292  function checkParticipant(address _addr) public view onlyOwner returns(bool) {... */\n      swap2\n      swap1\n      pop\n      jump\t// out\n        /* \"solidity-fundamentals/contracts/ExampleContract.sol\":744:947  function addPerson(string memory _name, uint _age) public {... */\n    tag_27:\n        /* \"solidity-fundamentals/contracts/ExampleContract.sol\":812:835  Person memory newPerson */\n      0x00\n        /* \"solidity-fundamentals/contracts/ExampleContract.sol\":838:857  Person(_name, _age) */\n      mload(0x40)\n      dup1\n      0x40\n      add\n      0x40\n      mstore\n      dup1\n        /* \"solidity-fundamentals/contracts/ExampleContract.sol\":845:850  _name */\n      dup5\n        /* \"solidity-fundamentals/contracts/ExampleContract.sol\":838:857  Person(_name, _age) */\n      dup2\n      mstore\n      0x20\n      add\n        /* \"solidity-fundamentals/contracts/ExampleContract.sol\":852:856  _age */\n      dup4\n        /* \"solidity-fundamentals/contracts/ExampleContract.sol\":838:857  Person(_name, _age) */\n      dup2\n      mstore\n      pop\n        /* \"solidity-fundamentals/contracts/ExampleContract.sol\":812:857  Person memory newPerson = Person(_name, _age) */\n      swap1\n      pop\n        /* \"solidity-fundamentals/contracts/ExampleContract.sol\":892:901  newPerson */\n      dup1\n        /* \"solidity-fundamentals/contracts/ExampleContract.sol\":867:877  personInfo */\n      0x01\n        /* \"solidity-fundamentals/contracts/ExampleContract.sol\":867:889  personInfo[msg.sender] */\n      0x00\n        /* \"solidity-fundamentals/contracts/ExampleContract.sol\":878:888  msg.sender */\n      caller\n        /* \"solidity-fundamentals/contracts/ExampleContract.sol\":867:889  personInfo[msg.sender] */\n      0xffffffffffffffffffffffffffffffffffffffff\n      and\n      0xffffffffffffffffffffffffffffffffffffffff\n      and\n      dup2\n      mstore\n      0x20\n      add\n      swap1\n      dup2\n      mstore\n      0x20\n      add\n      0x00\n      keccak256\n        /* \"solidity-fundamentals/contracts/ExampleContract.sol\":867:901  personInfo[msg.sender] = newPerson */\n      0x00\n      dup3\n      add\n      mload\n      dup2\n      0x00\n      add\n      swap1\n      dup2\n      tag_60\n      swap2\n      swap1\n      tag_61\n      jump\t// in\n    tag_60:\n      pop\n      0x20\n      dup3\n      add\n      mload\n      dup2\n      0x01\n      add\n      sstore\n      swap1\n      pop\n      pop\n        /* \"solidity-fundamentals/contracts/ExampleContract.sol\":911:923  participants */\n      0x02\n        /* \"solidity-fundamentals/contracts/ExampleContract.sol\":929:939  msg.sender */\n      caller\n        /* \"solidity-fundamentals/contracts/ExampleContract.sol\":911:940  participants.push(msg.sender) */\n      swap1\n      dup1\n      0x01\n      dup2\n      sload\n      add\n      dup1\n      dup3\n      sstore\n      dup1\n      swap2\n      pop\n      pop\n      0x01\n      swap1\n      sub\n      swap1\n      0x00\n      mstore\n      keccak256(0x00, 0x20)\n      add\n      0x00\n      swap1\n      swap2\n      swap1\n      swap2\n      swap1\n      swap2\n      0x0100\n      exp\n      dup2\n      sload\n      dup2\n      0xffffffffffffffffffffffffffffffffffffffff\n      mul\n      not\n      and\n      swap1\n      dup4\n      0xffffffffffffffffffffffffffffffffffffffff\n      and\n      mul\n      or\n      swap1\n      sstore\n      pop\n        /* \"solidity-fundamentals/contracts/ExampleContract.sol\":802:947  {... */\n      pop\n        /* \"solidity-fundamentals/contracts/ExampleContract.sol\":744:947  function addPerson(string memory _name, uint _age) public {... */\n      pop\n      pop\n      jump\t// out\n        /* \"@openzeppelin/contracts/access/Ownable.sol\":2293:2394  function renounceOwnership() public virtual onlyOwner {... */\n    tag_29:\n        /* \"@openzeppelin/contracts/access/Ownable.sol\":1531:1544  _checkOwner() */\n      tag_64\n        /* \"@openzeppelin/contracts/access/Ownable.sol\":1531:1542  _checkOwner */\n      tag_49\n        /* \"@openzeppelin/contracts/access/Ownable.sol\":1531:1544  _checkOwner() */\n      jump\t// in\n    tag_64:\n        /* \"@openzeppelin/contracts/access/Ownable.sol\":2357:2387  _transferOwnership(address(0)) */\n      tag_66\n        /* \"@openzeppelin/contracts/access/Ownable.sol\":2384:2385  0 */\n      0x00\n        /* \"@openzeppelin/contracts/access/Ownable.sol\":2357:2375  _transferOwnership */\n      tag_67\n        /* \"@openzeppelin/contracts/access/Ownable.sol\":2357:2387  _transferOwnership(address(0)) */\n      jump\t// in\n    tag_66:\n        /* \"@openzeppelin/contracts/access/Ownable.sol\":2293:2394  function renounceOwnership() public virtual onlyOwner {... */\n      jump\t// out\n        /* \"@openzeppelin/contracts/access/Ownable.sol\":1638:1723  function owner() public view virtual returns (address) {... */\n    tag_31:\n        /* \"@openzeppelin/contracts/access/Ownable.sol\":1684:1691  address */\n      0x00\n        /* \"@openzeppelin/contracts/access/Ownable.sol\":1710:1716  _owner */\n      dup1\n      0x00\n      swap1\n      sload\n      swap1\n      0x0100\n      exp\n      swap1\n      div\n      0xffffffffffffffffffffffffffffffffffffffff\n      and\n        /* \"@openzeppelin/contracts/access/Ownable.sol\":1703:1716  return _owner */\n      swap1\n      pop\n        /* \"@openzeppelin/contracts/access/Ownable.sol\":1638:1723  function owner() public view virtual returns (address) {... */\n      swap1\n      jump\t// out\n        /* \"solidity-fundamentals/contracts/ExampleContract.sol\":1341:1634  function isAdult(address _addr) public view returns (bool) {... */\n    tag_35:\n        /* \"solidity-fundamentals/contracts/ExampleContract.sol\":1394:1398  bool */\n      0x00\n        /* \"solidity-fundamentals/contracts/ExampleContract.sol\":1410:1416  uint i */\n      dup1\n        /* \"solidity-fundamentals/contracts/ExampleContract.sol\":1419:1420  0 */\n      0x00\n        /* \"solidity-fundamentals/contracts/ExampleContract.sol\":1410:1420  uint i = 0 */\n      swap1\n      pop\n        /* \"solidity-fundamentals/contracts/ExampleContract.sol\":1430:1606  while(i < participants.length) {... */\n    tag_70:\n        /* \"solidity-fundamentals/contracts/ExampleContract.sol\":1440:1452  participants */\n      0x02\n        /* \"solidity-fundamentals/contracts/ExampleContract.sol\":1440:1459  participants.length */\n      dup1\n      sload\n      swap1\n      pop\n        /* \"solidity-fundamentals/contracts/ExampleContract.sol\":1436:1437  i */\n      dup2\n        /* \"solidity-fundamentals/contracts/ExampleContract.sol\":1436:1459  i < participants.length */\n      lt\n        /* \"solidity-fundamentals/contracts/ExampleContract.sol\":1430:1606  while(i < participants.length) {... */\n      iszero\n      tag_71\n      jumpi\n        /* \"solidity-fundamentals/contracts/ExampleContract.sol\":1497:1502  _addr */\n      dup3\n        /* \"solidity-fundamentals/contracts/ExampleContract.sol\":1478:1502  participants[i] == _addr */\n      0xffffffffffffffffffffffffffffffffffffffff\n      and\n        /* \"solidity-fundamentals/contracts/ExampleContract.sol\":1478:1490  participants */\n      0x02\n        /* \"solidity-fundamentals/contracts/ExampleContract.sol\":1491:1492  i */\n      dup3\n        /* \"solidity-fundamentals/contracts/ExampleContract.sol\":1478:1493  participants[i] */\n      dup2\n      sload\n      dup2\n      lt\n      tag_72\n      jumpi\n      tag_73\n      tag_56\n      jump\t// in\n    tag_73:\n    tag_72:\n      swap1\n      0x00\n      mstore\n      keccak256(0x00, 0x20)\n      add\n      0x00\n      swap1\n      sload\n      swap1\n      0x0100\n      exp\n      swap1\n      div\n      0xffffffffffffffffffffffffffffffffffffffff\n      and\n        /* \"solidity-fundamentals/contracts/ExampleContract.sol\":1478:1502  participants[i] == _addr */\n      0xffffffffffffffffffffffffffffffffffffffff\n      and\n      eq\n        /* \"solidity-fundamentals/contracts/ExampleContract.sol\":1478:1533  participants[i] == _addr && personInfo[_addr].age >= 18 */\n      dup1\n      iszero\n      tag_75\n      jumpi\n      pop\n        /* \"solidity-fundamentals/contracts/ExampleContract.sol\":1531:1533  18 */\n      0x12\n        /* \"solidity-fundamentals/contracts/ExampleContract.sol\":1506:1516  personInfo */\n      0x01\n        /* \"solidity-fundamentals/contracts/ExampleContract.sol\":1506:1523  personInfo[_addr] */\n      0x00\n        /* \"solidity-fundamentals/contracts/ExampleContract.sol\":1517:1522  _addr */\n      dup6\n        /* \"solidity-fundamentals/contracts/ExampleContract.sol\":1506:1523  personInfo[_addr] */\n      0xffffffffffffffffffffffffffffffffffffffff\n      and\n      0xffffffffffffffffffffffffffffffffffffffff\n      and\n      dup2\n      mstore\n      0x20\n      add\n      swap1\n      dup2\n      mstore\n      0x20\n      add\n      0x00\n      keccak256\n        /* \"solidity-fundamentals/contracts/ExampleContract.sol\":1506:1527  personInfo[_addr].age */\n      0x01\n      add\n      sload\n        /* \"solidity-fundamentals/contracts/ExampleContract.sol\":1506:1533  personInfo[_addr].age >= 18 */\n      lt\n      iszero\n        /* \"solidity-fundamentals/contracts/ExampleContract.sol\":1478:1533  participants[i] == _addr && personInfo[_addr].age >= 18 */\n    tag_75:\n        /* \"solidity-fundamentals/contracts/ExampleContract.sol\":1475:1579  if(participants[i] == _addr && personInfo[_addr].age >= 18) {... */\n      iszero\n      tag_76\n      jumpi\n        /* \"solidity-fundamentals/contracts/ExampleContract.sol\":1560:1564  true */\n      0x01\n        /* \"solidity-fundamentals/contracts/ExampleContract.sol\":1553:1564  return true */\n      swap2\n      pop\n      pop\n      jump(tag_69)\n        /* \"solidity-fundamentals/contracts/ExampleContract.sol\":1475:1579  if(participants[i] == _addr && personInfo[_addr].age >= 18) {... */\n    tag_76:\n        /* \"solidity-fundamentals/contracts/ExampleContract.sol\":1592:1595  i++ */\n      dup1\n      dup1\n      tag_77\n      swap1\n      tag_78\n      jump\t// in\n    tag_77:\n      swap2\n      pop\n      pop\n        /* \"solidity-fundamentals/contracts/ExampleContract.sol\":1430:1606  while(i < participants.length) {... */\n      jump(tag_70)\n    tag_71:\n        /* \"solidity-fundamentals/contracts/ExampleContract.sol\":1622:1627  false */\n      0x00\n        /* \"solidity-fundamentals/contracts/ExampleContract.sol\":1615:1627  return false */\n      swap2\n      pop\n      pop\n        /* \"solidity-fundamentals/contracts/ExampleContract.sol\":1341:1634  function isAdult(address _addr) public view returns (bool) {... */\n    tag_69:\n      swap2\n      swap1\n      pop\n      jump\t// out\n        /* \"@openzeppelin/contracts/access/Ownable.sol\":2543:2758  function transferOwnership(address newOwner) public virtual onlyOwner {... */\n    tag_39:\n        /* \"@openzeppelin/contracts/access/Ownable.sol\":1531:1544  _checkOwner() */\n      tag_80\n        /* \"@openzeppelin/contracts/access/Ownable.sol\":1531:1542  _checkOwner */\n      tag_49\n        /* \"@openzeppelin/contracts/access/Ownable.sol\":1531:1544  _checkOwner() */\n      jump\t// in\n    tag_80:\n        /* \"@openzeppelin/contracts/access/Ownable.sol\":2647:2648  0 */\n      0x00\n        /* \"@openzeppelin/contracts/access/Ownable.sol\":2627:2649  newOwner == address(0) */\n      0xffffffffffffffffffffffffffffffffffffffff\n      and\n        /* \"@openzeppelin/contracts/access/Ownable.sol\":2627:2635  newOwner */\n      dup2\n        /* \"@openzeppelin/contracts/access/Ownable.sol\":2627:2649  newOwner == address(0) */\n      0xffffffffffffffffffffffffffffffffffffffff\n      and\n      sub\n        /* \"@openzeppelin/contracts/access/Ownable.sol\":2623:2714  if (newOwner == address(0)) {... */\n      tag_82\n      jumpi\n        /* \"@openzeppelin/contracts/access/Ownable.sol\":2700:2701  0 */\n      0x00\n        /* \"@openzeppelin/contracts/access/Ownable.sol\":2672:2703  OwnableInvalidOwner(address(0)) */\n      mload(0x40)\n      0x1e4fbdf700000000000000000000000000000000000000000000000000000000\n      dup2\n      mstore\n      0x04\n      add\n      tag_83\n      swap2\n      swap1\n      tag_17\n      jump\t// in\n    tag_83:\n      mload(0x40)\n      dup1\n      swap2\n      sub\n      swap1\n      revert\n        /* \"@openzeppelin/contracts/access/Ownable.sol\":2623:2714  if (newOwner == address(0)) {... */\n    tag_82:\n        /* \"@openzeppelin/contracts/access/Ownable.sol\":2723:2751  _transferOwnership(newOwner) */\n      tag_84\n        /* \"@openzeppelin/contracts/access/Ownable.sol\":2742:2750  newOwner */\n      dup2\n        /* \"@openzeppelin/contracts/access/Ownable.sol\":2723:2741  _transferOwnership */\n      tag_67\n        /* \"@openzeppelin/contracts/access/Ownable.sol\":2723:2751  _transferOwnership(newOwner) */\n      jump\t// in\n    tag_84:\n        /* \"@openzeppelin/contracts/access/Ownable.sol\":2543:2758  function transferOwnership(address newOwner) public virtual onlyOwner {... */\n      pop\n      jump\t// out\n        /* \"solidity-fundamentals/contracts/ExampleContract.sol\":569:613  mapping(address => Person) public personInfo */\n    tag_42:\n      mstore(0x20, 0x01)\n      dup1\n      0x00\n      mstore\n      keccak256(0x00, 0x40)\n      0x00\n      swap2\n      pop\n      swap1\n      pop\n      dup1\n      0x00\n      add\n      dup1\n      sload\n      tag_85\n      swap1\n      tag_86\n      jump\t// in\n    tag_85:\n      dup1\n      0x1f\n      add\n      0x20\n      dup1\n      swap2\n      div\n      mul\n      0x20\n      add\n      mload(0x40)\n      swap1\n      dup2\n      add\n      0x40\n      mstore\n      dup1\n      swap3\n      swap2\n      swap1\n      dup2\n      dup2\n      mstore\n      0x20\n      add\n      dup3\n      dup1\n      sload\n      tag_87\n      swap1\n      tag_86\n      jump\t// in\n    tag_87:\n      dup1\n      iszero\n      tag_88\n      jumpi\n      dup1\n      0x1f\n      lt\n      tag_89\n      jumpi\n      0x0100\n      dup1\n      dup4\n      sload\n      div\n      mul\n      dup4\n      mstore\n      swap2\n      0x20\n      add\n      swap2\n      jump(tag_88)\n    tag_89:\n      dup3\n      add\n      swap2\n      swap1\n      0x00\n      mstore\n      keccak256(0x00, 0x20)\n      swap1\n    tag_90:\n      dup2\n      sload\n      dup2\n      mstore\n      swap1\n      0x01\n      add\n      swap1\n      0x20\n      add\n      dup1\n      dup4\n      gt\n      tag_90\n      jumpi\n      dup3\n      swap1\n      sub\n      0x1f\n      and\n      dup3\n      add\n      swap2\n    tag_88:\n      pop\n      pop\n      pop\n      pop\n      pop\n      swap1\n      dup1\n      0x01\n      add\n      sload\n      swap1\n      pop\n      dup3\n      jump\t// out\n        /* \"@openzeppelin/contracts/access/Ownable.sol\":1796:1958  function _checkOwner() internal view virtual {... */\n    tag_49:\n        /* \"@openzeppelin/contracts/access/Ownable.sol\":1866:1878  _msgSender() */\n      tag_92\n        /* \"@openzeppelin/contracts/access/Ownable.sol\":1866:1876  _msgSender */\n      tag_93\n        /* \"@openzeppelin/contracts/access/Ownable.sol\":1866:1878  _msgSender() */\n      jump\t// in\n    tag_92:\n        /* \"@openzeppelin/contracts/access/Ownable.sol\":1855:1878  owner() != _msgSender() */\n      0xffffffffffffffffffffffffffffffffffffffff\n      and\n        /* \"@openzeppelin/contracts/access/Ownable.sol\":1855:1862  owner() */\n      tag_94\n        /* \"@openzeppelin/contracts/access/Ownable.sol\":1855:1860  owner */\n      tag_31\n        /* \"@openzeppelin/contracts/access/Ownable.sol\":1855:1862  owner() */\n      jump\t// in\n    tag_94:\n        /* \"@openzeppelin/contracts/access/Ownable.sol\":1855:1878  owner() != _msgSender() */\n      0xffffffffffffffffffffffffffffffffffffffff\n      and\n      eq\n        /* \"@openzeppelin/contracts/access/Ownable.sol\":1851:1952  if (owner() != _msgSender()) {... */\n      tag_95\n      jumpi\n        /* \"@openzeppelin/contracts/access/Ownable.sol\":1928:1940  _msgSender() */\n      tag_96\n        /* \"@openzeppelin/contracts/access/Ownable.sol\":1928:1938  _msgSender */\n      tag_93\n        /* \"@openzeppelin/contracts/access/Ownable.sol\":1928:1940  _msgSender() */\n      jump\t// in\n    tag_96:\n        /* \"@openzeppelin/contracts/access/Ownable.sol\":1901:1941  OwnableUnauthorizedAccount(_msgSender()) */\n      mload(0x40)\n      0x118cdaa700000000000000000000000000000000000000000000000000000000\n      dup2\n      mstore\n      0x04\n      add\n      tag_97\n      swap2\n      swap1\n      tag_17\n      jump\t// in\n    tag_97:\n      mload(0x40)\n      dup1\n      swap2\n      sub\n      swap1\n      revert\n        /* \"@openzeppelin/contracts/access/Ownable.sol\":1851:1952  if (owner() != _msgSender()) {... */\n    tag_95:\n        /* \"@openzeppelin/contracts/access/Ownable.sol\":1796:1958  function _checkOwner() internal view virtual {... */\n      jump\t// out\n        /* \"@openzeppelin/contracts/access/Ownable.sol\":2912:3099  function _transferOwnership(address newOwner) internal virtual {... */\n    tag_67:\n        /* \"@openzeppelin/contracts/access/Ownable.sol\":2985:3001  address oldOwner */\n      0x00\n        /* \"@openzeppelin/contracts/access/Ownable.sol\":3004:3010  _owner */\n      dup1\n      0x00\n      swap1\n      sload\n      swap1\n      0x0100\n      exp\n      swap1\n      div\n      0xffffffffffffffffffffffffffffffffffffffff\n      and\n        /* \"@openzeppelin/contracts/access/Ownable.sol\":2985:3010  address oldOwner = _owner */\n      swap1\n      pop\n        /* \"@openzeppelin/contracts/access/Ownable.sol\":3029:3037  newOwner */\n      dup2\n        /* \"@openzeppelin/contracts/access/Ownable.sol\":3020:3026  _owner */\n      0x00\n      dup1\n        /* \"@openzeppelin/contracts/access/Ownable.sol\":3020:3037  _owner = newOwner */\n      0x0100\n      exp\n      dup2\n      sload\n      dup2\n      0xffffffffffffffffffffffffffffffffffffffff\n      mul\n      not\n      and\n      swap1\n      dup4\n      0xffffffffffffffffffffffffffffffffffffffff\n      and\n      mul\n      or\n      swap1\n      sstore\n      pop\n        /* \"@openzeppelin/contracts/access/Ownable.sol\":3083:3091  newOwner */\n      dup2\n        /* \"@openzeppelin/contracts/access/Ownable.sol\":3052:3092  OwnershipTransferred(oldOwner, newOwner) */\n      0xffffffffffffffffffffffffffffffffffffffff\n      and\n        /* \"@openzeppelin/contracts/access/Ownable.sol\":3073:3081  oldOwner */\n      dup2\n        /* \"@openzeppelin/contracts/access/Ownable.sol\":3052:3092  OwnershipTransferred(oldOwner, newOwner) */\n      0xffffffffffffffffffffffffffffffffffffffff\n      and\n      0x8be0079c531659141344cd1fd0a4f28419497f9722a3daafe3b4186f6b6457e0\n      mload(0x40)\n      mload(0x40)\n      dup1\n      swap2\n      sub\n      swap1\n      log3\n        /* \"@openzeppelin/contracts/access/Ownable.sol\":2975:3099  {... */\n      pop\n        /* \"@openzeppelin/contracts/access/Ownable.sol\":2912:3099  function _transferOwnership(address newOwner) internal virtual {... */\n      pop\n      jump\t// out\n        /* \"@openzeppelin/contracts/utils/Context.sol\":656:752  function _msgSender() internal view virtual returns (address) {... */\n    tag_93:\n        /* \"@openzeppelin/contracts/utils/Context.sol\":709:716  address */\n      0x00\n        /* \"@openzeppelin/contracts/utils/Context.sol\":735:745  msg.sender */\n      caller\n        /* \"@openzeppelin/contracts/utils/Context.sol\":728:745  return msg.sender */\n      swap1\n      pop\n        /* \"@openzeppelin/contracts/utils/Context.sol\":656:752  function _msgSender() internal view virtual returns (address) {... */\n      swap1\n      jump\t// out\n        /* \"#utility.yul\":7:82   */\n    tag_100:\n        /* \"#utility.yul\":40:46   */\n      0x00\n        /* \"#utility.yul\":73:75   */\n      0x40\n        /* \"#utility.yul\":67:76   */\n      mload\n        /* \"#utility.yul\":57:76   */\n      swap1\n      pop\n        /* \"#utility.yul\":7:82   */\n      swap1\n      jump\t// out\n        /* \"#utility.yul\":88:205   */\n    tag_101:\n        /* \"#utility.yul\":197:198   */\n      0x00\n        /* \"#utility.yul\":194:195   */\n      dup1\n        /* \"#utility.yul\":187:199   */\n      revert\n        /* \"#utility.yul\":211:328   */\n    tag_102:\n        /* \"#utility.yul\":320:321   */\n      0x00\n        /* \"#utility.yul\":317:318   */\n      dup1\n        /* \"#utility.yul\":310:322   */\n      revert\n        /* \"#utility.yul\":334:411   */\n    tag_103:\n        /* \"#utility.yul\":371:378   */\n      0x00\n        /* \"#utility.yul\":400:405   */\n      dup2\n        /* \"#utility.yul\":389:405   */\n      swap1\n      pop\n        /* \"#utility.yul\":334:411   */\n      swap2\n      swap1\n      pop\n      jump\t// out\n        /* \"#utility.yul\":417:539   */\n    tag_104:\n        /* \"#utility.yul\":490:514   */\n      tag_151\n        /* \"#utility.yul\":508:513   */\n      dup2\n        /* \"#utility.yul\":490:514   */\n      tag_103\n      jump\t// in\n    tag_151:\n        /* \"#utility.yul\":483:488   */\n      dup2\n        /* \"#utility.yul\":480:515   */\n      eq\n        /* \"#utility.yul\":470:533   */\n      tag_152\n      jumpi\n        /* \"#utility.yul\":529:530   */\n      0x00\n        /* \"#utility.yul\":526:527   */\n      dup1\n        /* \"#utility.yul\":519:531   */\n      revert\n        /* \"#utility.yul\":470:533   */\n    tag_152:\n        /* \"#utility.yul\":417:539   */\n      pop\n      jump\t// out\n        /* \"#utility.yul\":545:684   */\n    tag_105:\n        /* \"#utility.yul\":591:596   */\n      0x00\n        /* \"#utility.yul\":629:635   */\n      dup2\n        /* \"#utility.yul\":616:636   */\n      calldataload\n        /* \"#utility.yul\":607:636   */\n      swap1\n      pop\n        /* \"#utility.yul\":645:678   */\n      tag_154\n        /* \"#utility.yul\":672:677   */\n      dup2\n        /* \"#utility.yul\":645:678   */\n      tag_104\n      jump\t// in\n    tag_154:\n        /* \"#utility.yul\":545:684   */\n      swap3\n      swap2\n      pop\n      pop\n      jump\t// out\n        /* \"#utility.yul\":690:1019   */\n    tag_14:\n        /* \"#utility.yul\":749:755   */\n      0x00\n        /* \"#utility.yul\":798:800   */\n      0x20\n        /* \"#utility.yul\":786:795   */\n      dup3\n        /* \"#utility.yul\":777:784   */\n      dup5\n        /* \"#utility.yul\":773:796   */\n      sub\n        /* \"#utility.yul\":769:801   */\n      slt\n        /* \"#utility.yul\":766:885   */\n      iszero\n      tag_156\n      jumpi\n        /* \"#utility.yul\":804:883   */\n      tag_157\n      tag_101\n      jump\t// in\n    tag_157:\n        /* \"#utility.yul\":766:885   */\n    tag_156:\n        /* \"#utility.yul\":924:925   */\n      0x00\n        /* \"#utility.yul\":949:1002   */\n      tag_158\n        /* \"#utility.yul\":994:1001   */\n      dup5\n        /* \"#utility.yul\":985:991   */\n      dup3\n        /* \"#utility.yul\":974:983   */\n      dup6\n        /* \"#utility.yul\":970:992   */\n      add\n        /* \"#utility.yul\":949:1002   */\n      tag_105\n      jump\t// in\n    tag_158:\n        /* \"#utility.yul\":939:1002   */\n      swap2\n      pop\n        /* \"#utility.yul\":895:1012   */\n      pop\n        /* \"#utility.yul\":690:1019   */\n      swap3\n      swap2\n      pop\n      pop\n      jump\t// out\n        /* \"#utility.yul\":1025:1151   */\n    tag_106:\n        /* \"#utility.yul\":1062:1069   */\n      0x00\n        /* \"#utility.yul\":1102:1144   */\n      0xffffffffffffffffffffffffffffffffffffffff\n        /* \"#utility.yul\":1095:1100   */\n      dup3\n        /* \"#utility.yul\":1091:1145   */\n      and\n        /* \"#utility.yul\":1080:1145   */\n      swap1\n      pop\n        /* \"#utility.yul\":1025:1151   */\n      swap2\n      swap1\n      pop\n      jump\t// out\n        /* \"#utility.yul\":1157:1253   */\n    tag_107:\n        /* \"#utility.yul\":1194:1201   */\n      0x00\n        /* \"#utility.yul\":1223:1247   */\n      tag_161\n        /* \"#utility.yul\":1241:1246   */\n      dup3\n        /* \"#utility.yul\":1223:1247   */\n      tag_106\n      jump\t// in\n    tag_161:\n        /* \"#utility.yul\":1212:1247   */\n      swap1\n      pop\n        /* \"#utility.yul\":1157:1253   */\n      swap2\n      swap1\n      pop\n      jump\t// out\n        /* \"#utility.yul\":1259:1377   */\n    tag_108:\n        /* \"#utility.yul\":1346:1370   */\n      tag_163\n        /* \"#utility.yul\":1364:1369   */\n      dup2\n        /* \"#utility.yul\":1346:1370   */\n      tag_107\n      jump\t// in\n    tag_163:\n        /* \"#utility.yul\":1341:1344   */\n      dup3\n        /* \"#utility.yul\":1334:1371   */\n      mstore\n        /* \"#utility.yul\":1259:1377   */\n      pop\n      pop\n      jump\t// out\n        /* \"#utility.yul\":1383:1605   */\n    tag_17:\n        /* \"#utility.yul\":1476:1480   */\n      0x00\n        /* \"#utility.yul\":1514:1516   */\n      0x20\n        /* \"#utility.yul\":1503:1512   */\n      dup3\n        /* \"#utility.yul\":1499:1517   */\n      add\n        /* \"#utility.yul\":1491:1517   */\n      swap1\n      pop\n        /* \"#utility.yul\":1527:1598   */\n      tag_165\n        /* \"#utility.yul\":1595:1596   */\n      0x00\n        /* \"#utility.yul\":1584:1593   */\n      dup4\n        /* \"#utility.yul\":1580:1597   */\n      add\n        /* \"#utility.yul\":1571:1577   */\n      dup5\n        /* \"#utility.yul\":1527:1598   */\n      tag_108\n      jump\t// in\n    tag_165:\n        /* \"#utility.yul\":1383:1605   */\n      swap3\n      swap2\n      pop\n      pop\n      jump\t// out\n        /* \"#utility.yul\":1611:1733   */\n    tag_109:\n        /* \"#utility.yul\":1684:1708   */\n      tag_167\n        /* \"#utility.yul\":1702:1707   */\n      dup2\n        /* \"#utility.yul\":1684:1708   */\n      tag_107\n      jump\t// in\n    tag_167:\n        /* \"#utility.yul\":1677:1682   */\n      dup2\n        /* \"#utility.yul\":1674:1709   */\n      eq\n        /* \"#utility.yul\":1664:1727   */\n      tag_168\n      jumpi\n        /* \"#utility.yul\":1723:1724   */\n      0x00\n        /* \"#utility.yul\":1720:1721   */\n      dup1\n        /* \"#utility.yul\":1713:1725   */\n      revert\n        /* \"#utility.yul\":1664:1727   */\n    tag_168:\n        /* \"#utility.yul\":1611:1733   */\n      pop\n      jump\t// out\n        /* \"#utility.yul\":1739:1878   */\n    tag_110:\n        /* \"#utility.yul\":1785:1790   */\n      0x00\n        /* \"#utility.yul\":1823:1829   */\n      dup2\n        /* \"#utility.yul\":1810:1830   */\n      calldataload\n        /* \"#utility.yul\":1801:1830   */\n      swap1\n      pop\n        /* \"#utility.yul\":1839:1872   */\n      tag_170\n        /* \"#utility.yul\":1866:1871   */\n      dup2\n        /* \"#utility.yul\":1839:1872   */\n      tag_109\n      jump\t// in\n    tag_170:\n        /* \"#utility.yul\":1739:1878   */\n      swap3\n      swap2\n      pop\n      pop\n      jump\t// out\n        /* \"#utility.yul\":1884:2213   */\n    tag_20:\n        /* \"#utility.yul\":1943:1949   */\n      0x00\n        /* \"#utility.yul\":1992:1994   */\n      0x20\n        /* \"#utility.yul\":1980:1989   */\n      dup3\n        /* \"#utility.yul\":1971:1978   */\n      dup5\n        /* \"#utility.yul\":1967:1990   */\n      sub\n        /* \"#utility.yul\":1963:1995   */\n      slt\n        /* \"#utility.yul\":1960:2079   */\n      iszero\n      tag_172\n      jumpi\n        /* \"#utility.yul\":1998:2077   */\n      tag_173\n      tag_101\n      jump\t// in\n    tag_173:\n        /* \"#utility.yul\":1960:2079   */\n    tag_172:\n        /* \"#utility.yul\":2118:2119   */\n      0x00\n        /* \"#utility.yul\":2143:2196   */\n      tag_174\n        /* \"#utility.yul\":2188:2195   */\n      dup5\n        /* \"#utility.yul\":2179:2185   */\n      dup3\n        /* \"#utility.yul\":2168:2177   */\n      dup6\n        /* \"#utility.yul\":2164:2186   */\n      add\n        /* \"#utility.yul\":2143:2196   */\n      tag_110\n      jump\t// in\n    tag_174:\n        /* \"#utility.yul\":2133:2196   */\n      swap2\n      pop\n        /* \"#utility.yul\":2089:2206   */\n      pop\n        /* \"#utility.yul\":1884:2213   */\n      swap3\n      swap2\n      pop\n      pop\n      jump\t// out\n        /* \"#utility.yul\":2219:2309   */\n    tag_111:\n        /* \"#utility.yul\":2253:2260   */\n      0x00\n        /* \"#utility.yul\":2296:2301   */\n      dup2\n        /* \"#utility.yul\":2289:2302   */\n      iszero\n        /* \"#utility.yul\":2282:2303   */\n      iszero\n        /* \"#utility.yul\":2271:2303   */\n      swap1\n      pop\n        /* \"#utility.yul\":2219:2309   */\n      swap2\n      swap1\n      pop\n      jump\t// out\n        /* \"#utility.yul\":2315:2424   */\n    tag_112:\n        /* \"#utility.yul\":2396:2417   */\n      tag_177\n        /* \"#utility.yul\":2411:2416   */\n      dup2\n        /* \"#utility.yul\":2396:2417   */\n      tag_111\n      jump\t// in\n    tag_177:\n        /* \"#utility.yul\":2391:2394   */\n      dup3\n        /* \"#utility.yul\":2384:2418   */\n      mstore\n        /* \"#utility.yul\":2315:2424   */\n      pop\n      pop\n      jump\t// out\n        /* \"#utility.yul\":2430:2640   */\n    tag_23:\n        /* \"#utility.yul\":2517:2521   */\n      0x00\n        /* \"#utility.yul\":2555:2557   */\n      0x20\n        /* \"#utility.yul\":2544:2553   */\n      dup3\n        /* \"#utility.yul\":2540:2558   */\n      add\n        /* \"#utility.yul\":2532:2558   */\n      swap1\n      pop\n        /* \"#utility.yul\":2568:2633   */\n      tag_179\n        /* \"#utility.yul\":2630:2631   */\n      0x00\n        /* \"#utility.yul\":2619:2628   */\n      dup4\n        /* \"#utility.yul\":2615:2632   */\n      add\n        /* \"#utility.yul\":2606:2612   */\n      dup5\n        /* \"#utility.yul\":2568:2633   */\n      tag_112\n      jump\t// in\n    tag_179:\n        /* \"#utility.yul\":2430:2640   */\n      swap3\n      swap2\n      pop\n      pop\n      jump\t// out\n        /* \"#utility.yul\":2646:2763   */\n    tag_113:\n        /* \"#utility.yul\":2755:2756   */\n      0x00\n        /* \"#utility.yul\":2752:2753   */\n      dup1\n        /* \"#utility.yul\":2745:2757   */\n      revert\n        /* \"#utility.yul\":2769:2886   */\n    tag_114:\n        /* \"#utility.yul\":2878:2879   */\n      0x00\n        /* \"#utility.yul\":2875:2876   */\n      dup1\n        /* \"#utility.yul\":2868:2880   */\n      revert\n        /* \"#utility.yul\":2892:2994   */\n    tag_115:\n        /* \"#utility.yul\":2933:2939   */\n      0x00\n        /* \"#utility.yul\":2984:2986   */\n      0x1f\n        /* \"#utility.yul\":2980:2987   */\n      not\n        /* \"#utility.yul\":2975:2977   */\n      0x1f\n        /* \"#utility.yul\":2968:2973   */\n      dup4\n        /* \"#utility.yul\":2964:2978   */\n      add\n        /* \"#utility.yul\":2960:2988   */\n      and\n        /* \"#utility.yul\":2950:2988   */\n      swap1\n      pop\n        /* \"#utility.yul\":2892:2994   */\n      swap2\n      swap1\n      pop\n      jump\t// out\n        /* \"#utility.yul\":3000:3180   */\n    tag_116:\n        /* \"#utility.yul\":3048:3125   */\n      0x4e487b7100000000000000000000000000000000000000000000000000000000\n        /* \"#utility.yul\":3045:3046   */\n      0x00\n        /* \"#utility.yul\":3038:3126   */\n      mstore\n        /* \"#utility.yul\":3145:3149   */\n      0x41\n        /* \"#utility.yul\":3142:3143   */\n      0x04\n        /* \"#utility.yul\":3135:3150   */\n      mstore\n        /* \"#utility.yul\":3169:3173   */\n      0x24\n        /* \"#utility.yul\":3166:3167   */\n      0x00\n        /* \"#utility.yul\":3159:3174   */\n      revert\n        /* \"#utility.yul\":3186:3467   */\n    tag_117:\n        /* \"#utility.yul\":3269:3296   */\n      tag_185\n        /* \"#utility.yul\":3291:3295   */\n      dup3\n        /* \"#utility.yul\":3269:3296   */\n      tag_115\n      jump\t// in\n    tag_185:\n        /* \"#utility.yul\":3261:3267   */\n      dup2\n        /* \"#utility.yul\":3257:3297   */\n      add\n        /* \"#utility.yul\":3399:3405   */\n      dup2\n        /* \"#utility.yul\":3387:3397   */\n      dup2\n        /* \"#utility.yul\":3384:3406   */\n      lt\n        /* \"#utility.yul\":3363:3381   */\n      0xffffffffffffffff\n        /* \"#utility.yul\":3351:3361   */\n      dup3\n        /* \"#utility.yul\":3348:3382   */\n      gt\n        /* \"#utility.yul\":3345:3407   */\n      or\n        /* \"#utility.yul\":3342:3430   */\n      iszero\n      tag_186\n      jumpi\n        /* \"#utility.yul\":3410:3428   */\n      tag_187\n      tag_116\n      jump\t// in\n    tag_187:\n        /* \"#utility.yul\":3342:3430   */\n    tag_186:\n        /* \"#utility.yul\":3450:3460   */\n      dup1\n        /* \"#utility.yul\":3446:3448   */\n      0x40\n        /* \"#utility.yul\":3439:3461   */\n      mstore\n        /* \"#utility.yul\":3229:3467   */\n      pop\n        /* \"#utility.yul\":3186:3467   */\n      pop\n      pop\n      jump\t// out\n        /* \"#utility.yul\":3473:3602   */\n    tag_118:\n        /* \"#utility.yul\":3507:3513   */\n      0x00\n        /* \"#utility.yul\":3534:3554   */\n      tag_189\n      tag_100\n      jump\t// in\n    tag_189:\n        /* \"#utility.yul\":3524:3554   */\n      swap1\n      pop\n        /* \"#utility.yul\":3563:3596   */\n      tag_190\n        /* \"#utility.yul\":3591:3595   */\n      dup3\n        /* \"#utility.yul\":3583:3589   */\n      dup3\n        /* \"#utility.yul\":3563:3596   */\n      tag_117\n      jump\t// in\n    tag_190:\n        /* \"#utility.yul\":3473:3602   */\n      swap2\n      swap1\n      pop\n      jump\t// out\n        /* \"#utility.yul\":3608:3916   */\n    tag_119:\n        /* \"#utility.yul\":3670:3674   */\n      0x00\n        /* \"#utility.yul\":3760:3778   */\n      0xffffffffffffffff\n        /* \"#utility.yul\":3752:3758   */\n      dup3\n        /* \"#utility.yul\":3749:3779   */\n      gt\n        /* \"#utility.yul\":3746:3802   */\n      iszero\n      tag_192\n      jumpi\n        /* \"#utility.yul\":3782:3800   */\n      tag_193\n      tag_116\n      jump\t// in\n    tag_193:\n        /* \"#utility.yul\":3746:3802   */\n    tag_192:\n        /* \"#utility.yul\":3820:3849   */\n      tag_194\n        /* \"#utility.yul\":3842:3848   */\n      dup3\n        /* \"#utility.yul\":3820:3849   */\n      tag_115\n      jump\t// in\n    tag_194:\n        /* \"#utility.yul\":3812:3849   */\n      swap1\n      pop\n        /* \"#utility.yul\":3904:3908   */\n      0x20\n        /* \"#utility.yul\":3898:3902   */\n      dup2\n        /* \"#utility.yul\":3894:3909   */\n      add\n        /* \"#utility.yul\":3886:3909   */\n      swap1\n      pop\n        /* \"#utility.yul\":3608:3916   */\n      swap2\n      swap1\n      pop\n      jump\t// out\n        /* \"#utility.yul\":3922:4068   */\n    tag_120:\n        /* \"#utility.yul\":4019:4025   */\n      dup3\n        /* \"#utility.yul\":4014:4017   */\n      dup2\n        /* \"#utility.yul\":4009:4012   */\n      dup4\n        /* \"#utility.yul\":3996:4026   */\n      calldatacopy\n        /* \"#utility.yul\":4060:4061   */\n      0x00\n        /* \"#utility.yul\":4051:4057   */\n      dup4\n        /* \"#utility.yul\":4046:4049   */\n      dup4\n        /* \"#utility.yul\":4042:4058   */\n      add\n        /* \"#utility.yul\":4035:4062   */\n      mstore\n        /* \"#utility.yul\":3922:4068   */\n      pop\n      pop\n      pop\n      jump\t// out\n        /* \"#utility.yul\":4074:4499   */\n    tag_121:\n        /* \"#utility.yul\":4152:4157   */\n      0x00\n        /* \"#utility.yul\":4177:4243   */\n      tag_197\n        /* \"#utility.yul\":4193:4242   */\n      tag_198\n        /* \"#utility.yul\":4235:4241   */\n      dup5\n        /* \"#utility.yul\":4193:4242   */\n      tag_119\n      jump\t// in\n    tag_198:\n        /* \"#utility.yul\":4177:4243   */\n      tag_118\n      jump\t// in\n    tag_197:\n        /* \"#utility.yul\":4168:4243   */\n      swap1\n      pop\n        /* \"#utility.yul\":4266:4272   */\n      dup3\n        /* \"#utility.yul\":4259:4264   */\n      dup2\n        /* \"#utility.yul\":4252:4273   */\n      mstore\n        /* \"#utility.yul\":4304:4308   */\n      0x20\n        /* \"#utility.yul\":4297:4302   */\n      dup2\n        /* \"#utility.yul\":4293:4309   */\n      add\n        /* \"#utility.yul\":4342:4345   */\n      dup5\n        /* \"#utility.yul\":4333:4339   */\n      dup5\n        /* \"#utility.yul\":4328:4331   */\n      dup5\n        /* \"#utility.yul\":4324:4340   */\n      add\n        /* \"#utility.yul\":4321:4346   */\n      gt\n        /* \"#utility.yul\":4318:4430   */\n      iszero\n      tag_199\n      jumpi\n        /* \"#utility.yul\":4349:4428   */\n      tag_200\n      tag_114\n      jump\t// in\n    tag_200:\n        /* \"#utility.yul\":4318:4430   */\n    tag_199:\n        /* \"#utility.yul\":4439:4493   */\n      tag_201\n        /* \"#utility.yul\":4486:4492   */\n      dup5\n        /* \"#utility.yul\":4481:4484   */\n      dup3\n        /* \"#utility.yul\":4476:4479   */\n      dup6\n        /* \"#utility.yul\":4439:4493   */\n      tag_120\n      jump\t// in\n    tag_201:\n        /* \"#utility.yul\":4158:4499   */\n      pop\n        /* \"#utility.yul\":4074:4499   */\n      swap4\n      swap3\n      pop\n      pop\n      pop\n      jump\t// out\n        /* \"#utility.yul\":4519:4859   */\n    tag_122:\n        /* \"#utility.yul\":4575:4580   */\n      0x00\n        /* \"#utility.yul\":4624:4627   */\n      dup3\n        /* \"#utility.yul\":4617:4621   */\n      0x1f\n        /* \"#utility.yul\":4609:4615   */\n      dup4\n        /* \"#utility.yul\":4605:4622   */\n      add\n        /* \"#utility.yul\":4601:4628   */\n      slt\n        /* \"#utility.yul\":4591:4713   */\n      tag_203\n      jumpi\n        /* \"#utility.yul\":4632:4711   */\n      tag_204\n      tag_113\n      jump\t// in\n    tag_204:\n        /* \"#utility.yul\":4591:4713   */\n    tag_203:\n        /* \"#utility.yul\":4749:4755   */\n      dup2\n        /* \"#utility.yul\":4736:4756   */\n      calldataload\n        /* \"#utility.yul\":4774:4853   */\n      tag_205\n        /* \"#utility.yul\":4849:4852   */\n      dup5\n        /* \"#utility.yul\":4841:4847   */\n      dup3\n        /* \"#utility.yul\":4834:4838   */\n      0x20\n        /* \"#utility.yul\":4826:4832   */\n      dup7\n        /* \"#utility.yul\":4822:4839   */\n      add\n        /* \"#utility.yul\":4774:4853   */\n      tag_121\n      jump\t// in\n    tag_205:\n        /* \"#utility.yul\":4765:4853   */\n      swap2\n      pop\n        /* \"#utility.yul\":4581:4859   */\n      pop\n        /* \"#utility.yul\":4519:4859   */\n      swap3\n      swap2\n      pop\n      pop\n      jump\t// out\n        /* \"#utility.yul\":4865:5519   */\n    tag_26:\n        /* \"#utility.yul\":4943:4949   */\n      0x00\n        /* \"#utility.yul\":4951:4957   */\n      dup1\n        /* \"#utility.yul\":5000:5002   */\n      0x40\n        /* \"#utility.yul\":4988:4997   */\n      dup4\n        /* \"#utility.yul\":4979:4986   */\n      dup6\n        /* \"#utility.yul\":4975:4998   */\n      sub\n        /* \"#utility.yul\":4971:5003   */\n      slt\n        /* \"#utility.yul\":4968:5087   */\n      iszero\n      tag_207\n      jumpi\n        /* \"#utility.yul\":5006:5085   */\n      tag_208\n      tag_101\n      jump\t// in\n    tag_208:\n        /* \"#utility.yul\":4968:5087   */\n    tag_207:\n        /* \"#utility.yul\":5154:5155   */\n      0x00\n        /* \"#utility.yul\":5143:5152   */\n      dup4\n        /* \"#utility.yul\":5139:5156   */\n      add\n        /* \"#utility.yul\":5126:5157   */\n      calldataload\n        /* \"#utility.yul\":5184:5202   */\n      0xffffffffffffffff\n        /* \"#utility.yul\":5176:5182   */\n      dup2\n        /* \"#utility.yul\":5173:5203   */\n      gt\n        /* \"#utility.yul\":5170:5287   */\n      iszero\n      tag_209\n      jumpi\n        /* \"#utility.yul\":5206:5285   */\n      tag_210\n      tag_102\n      jump\t// in\n    tag_210:\n        /* \"#utility.yul\":5170:5287   */\n    tag_209:\n        /* \"#utility.yul\":5311:5374   */\n      tag_211\n        /* \"#utility.yul\":5366:5373   */\n      dup6\n        /* \"#utility.yul\":5357:5363   */\n      dup3\n        /* \"#utility.yul\":5346:5355   */\n      dup7\n        /* \"#utility.yul\":5342:5364   */\n      add\n        /* \"#utility.yul\":5311:5374   */\n      tag_122\n      jump\t// in\n    tag_211:\n        /* \"#utility.yul\":5301:5374   */\n      swap3\n      pop\n        /* \"#utility.yul\":5097:5384   */\n      pop\n        /* \"#utility.yul\":5423:5425   */\n      0x20\n        /* \"#utility.yul\":5449:5502   */\n      tag_212\n        /* \"#utility.yul\":5494:5501   */\n      dup6\n        /* \"#utility.yul\":5485:5491   */\n      dup3\n        /* \"#utility.yul\":5474:5483   */\n      dup7\n        /* \"#utility.yul\":5470:5492   */\n      add\n        /* \"#utility.yul\":5449:5502   */\n      tag_105\n      jump\t// in\n    tag_212:\n        /* \"#utility.yul\":5439:5502   */\n      swap2\n      pop\n        /* \"#utility.yul\":5394:5512   */\n      pop\n        /* \"#utility.yul\":4865:5519   */\n      swap3\n      pop\n      swap3\n      swap1\n      pop\n      jump\t// out\n        /* \"#utility.yul\":5525:5624   */\n    tag_123:\n        /* \"#utility.yul\":5577:5583   */\n      0x00\n        /* \"#utility.yul\":5611:5616   */\n      dup2\n        /* \"#utility.yul\":5605:5617   */\n      mload\n        /* \"#utility.yul\":5595:5617   */\n      swap1\n      pop\n        /* \"#utility.yul\":5525:5624   */\n      swap2\n      swap1\n      pop\n      jump\t// out\n        /* \"#utility.yul\":5630:5799   */\n    tag_124:\n        /* \"#utility.yul\":5714:5725   */\n      0x00\n        /* \"#utility.yul\":5748:5754   */\n      dup3\n        /* \"#utility.yul\":5743:5746   */\n      dup3\n        /* \"#utility.yul\":5736:5755   */\n      mstore\n        /* \"#utility.yul\":5788:5792   */\n      0x20\n        /* \"#utility.yul\":5783:5786   */\n      dup3\n        /* \"#utility.yul\":5779:5793   */\n      add\n        /* \"#utility.yul\":5764:5793   */\n      swap1\n      pop\n        /* \"#utility.yul\":5630:5799   */\n      swap3\n      swap2\n      pop\n      pop\n      jump\t// out\n        /* \"#utility.yul\":5805:6051   */\n    tag_125:\n        /* \"#utility.yul\":5886:5887   */\n      0x00\n        /* \"#utility.yul\":5896:6009   */\n    tag_216:\n        /* \"#utility.yul\":5910:5916   */\n      dup4\n        /* \"#utility.yul\":5907:5908   */\n      dup2\n        /* \"#utility.yul\":5904:5917   */\n      lt\n        /* \"#utility.yul\":5896:6009   */\n      iszero\n      tag_218\n      jumpi\n        /* \"#utility.yul\":5995:5996   */\n      dup1\n        /* \"#utility.yul\":5990:5993   */\n      dup3\n        /* \"#utility.yul\":5986:5997   */\n      add\n        /* \"#utility.yul\":5980:5998   */\n      mload\n        /* \"#utility.yul\":5976:5977   */\n      dup2\n        /* \"#utility.yul\":5971:5974   */\n      dup5\n        /* \"#utility.yul\":5967:5978   */\n      add\n        /* \"#utility.yul\":5960:5999   */\n      mstore\n        /* \"#utility.yul\":5932:5934   */\n      0x20\n        /* \"#utility.yul\":5929:5930   */\n      dup2\n        /* \"#utility.yul\":5925:5935   */\n      add\n        /* \"#utility.yul\":5920:5935   */\n      swap1\n      pop\n        /* \"#utility.yul\":5896:6009   */\n      jump(tag_216)\n    tag_218:\n        /* \"#utility.yul\":6043:6044   */\n      0x00\n        /* \"#utility.yul\":6034:6040   */\n      dup5\n        /* \"#utility.yul\":6029:6032   */\n      dup5\n        /* \"#utility.yul\":6025:6041   */\n      add\n        /* \"#utility.yul\":6018:6045   */\n      mstore\n        /* \"#utility.yul\":5867:6051   */\n      pop\n        /* \"#utility.yul\":5805:6051   */\n      pop\n      pop\n      pop\n      jump\t// out\n        /* \"#utility.yul\":6057:6434   */\n    tag_126:\n        /* \"#utility.yul\":6145:6148   */\n      0x00\n        /* \"#utility.yul\":6173:6212   */\n      tag_220\n        /* \"#utility.yul\":6206:6211   */\n      dup3\n        /* \"#utility.yul\":6173:6212   */\n      tag_123\n      jump\t// in\n    tag_220:\n        /* \"#utility.yul\":6228:6299   */\n      tag_221\n        /* \"#utility.yul\":6292:6298   */\n      dup2\n        /* \"#utility.yul\":6287:6290   */\n      dup6\n        /* \"#utility.yul\":6228:6299   */\n      tag_124\n      jump\t// in\n    tag_221:\n        /* \"#utility.yul\":6221:6299   */\n      swap4\n      pop\n        /* \"#utility.yul\":6308:6373   */\n      tag_222\n        /* \"#utility.yul\":6366:6372   */\n      dup2\n        /* \"#utility.yul\":6361:6364   */\n      dup6\n        /* \"#utility.yul\":6354:6358   */\n      0x20\n        /* \"#utility.yul\":6347:6352   */\n      dup7\n        /* \"#utility.yul\":6343:6359   */\n      add\n        /* \"#utility.yul\":6308:6373   */\n      tag_125\n      jump\t// in\n    tag_222:\n        /* \"#utility.yul\":6398:6427   */\n      tag_223\n        /* \"#utility.yul\":6420:6426   */\n      dup2\n        /* \"#utility.yul\":6398:6427   */\n      tag_115\n      jump\t// in\n    tag_223:\n        /* \"#utility.yul\":6393:6396   */\n      dup5\n        /* \"#utility.yul\":6389:6428   */\n      add\n        /* \"#utility.yul\":6382:6428   */\n      swap2\n      pop\n        /* \"#utility.yul\":6149:6434   */\n      pop\n        /* \"#utility.yul\":6057:6434   */\n      swap3\n      swap2\n      pop\n      pop\n      jump\t// out\n        /* \"#utility.yul\":6440:6558   */\n    tag_127:\n        /* \"#utility.yul\":6527:6551   */\n      tag_225\n        /* \"#utility.yul\":6545:6550   */\n      dup2\n        /* \"#utility.yul\":6527:6551   */\n      tag_103\n      jump\t// in\n    tag_225:\n        /* \"#utility.yul\":6522:6525   */\n      dup3\n        /* \"#utility.yul\":6515:6552   */\n      mstore\n        /* \"#utility.yul\":6440:6558   */\n      pop\n      pop\n      jump\t// out\n        /* \"#utility.yul\":6564:6987   */\n    tag_44:\n        /* \"#utility.yul\":6705:6709   */\n      0x00\n        /* \"#utility.yul\":6743:6745   */\n      0x40\n        /* \"#utility.yul\":6732:6741   */\n      dup3\n        /* \"#utility.yul\":6728:6746   */\n      add\n        /* \"#utility.yul\":6720:6746   */\n      swap1\n      pop\n        /* \"#utility.yul\":6792:6801   */\n      dup2\n        /* \"#utility.yul\":6786:6790   */\n      dup2\n        /* \"#utility.yul\":6782:6802   */\n      sub\n        /* \"#utility.yul\":6778:6779   */\n      0x00\n        /* \"#utility.yul\":6767:6776   */\n      dup4\n        /* \"#utility.yul\":6763:6780   */\n      add\n        /* \"#utility.yul\":6756:6803   */\n      mstore\n        /* \"#utility.yul\":6820:6898   */\n      tag_227\n        /* \"#utility.yul\":6893:6897   */\n      dup2\n        /* \"#utility.yul\":6884:6890   */\n      dup6\n        /* \"#utility.yul\":6820:6898   */\n      tag_126\n      jump\t// in\n    tag_227:\n        /* \"#utility.yul\":6812:6898   */\n      swap1\n      pop\n        /* \"#utility.yul\":6908:6980   */\n      tag_228\n        /* \"#utility.yul\":6976:6978   */\n      0x20\n        /* \"#utility.yul\":6965:6974   */\n      dup4\n        /* \"#utility.yul\":6961:6979   */\n      add\n        /* \"#utility.yul\":6952:6958   */\n      dup5\n        /* \"#utility.yul\":6908:6980   */\n      tag_127\n      jump\t// in\n    tag_228:\n        /* \"#utility.yul\":6564:6987   */\n      swap4\n      swap3\n      pop\n      pop\n      pop\n      jump\t// out\n        /* \"#utility.yul\":6993:7173   */\n    tag_56:\n        /* \"#utility.yul\":7041:7118   */\n      0x4e487b7100000000000000000000000000000000000000000000000000000000\n        /* \"#utility.yul\":7038:7039   */\n      0x00\n        /* \"#utility.yul\":7031:7119   */\n      mstore\n        /* \"#utility.yul\":7138:7142   */\n      0x32\n        /* \"#utility.yul\":7135:7136   */\n      0x04\n        /* \"#utility.yul\":7128:7143   */\n      mstore\n        /* \"#utility.yul\":7162:7166   */\n      0x24\n        /* \"#utility.yul\":7159:7160   */\n      0x00\n        /* \"#utility.yul\":7152:7167   */\n      revert\n        /* \"#utility.yul\":7179:7359   */\n    tag_128:\n        /* \"#utility.yul\":7227:7304   */\n      0x4e487b7100000000000000000000000000000000000000000000000000000000\n        /* \"#utility.yul\":7224:7225   */\n      0x00\n        /* \"#utility.yul\":7217:7305   */\n      mstore\n        /* \"#utility.yul\":7324:7328   */\n      0x22\n        /* \"#utility.yul\":7321:7322   */\n      0x04\n        /* \"#utility.yul\":7314:7329   */\n      mstore\n        /* \"#utility.yul\":7348:7352   */\n      0x24\n        /* \"#utility.yul\":7345:7346   */\n      0x00\n        /* \"#utility.yul\":7338:7353   */\n      revert\n        /* \"#utility.yul\":7365:7685   */\n    tag_86:\n        /* \"#utility.yul\":7409:7415   */\n      0x00\n        /* \"#utility.yul\":7446:7447   */\n      0x02\n        /* \"#utility.yul\":7440:7444   */\n      dup3\n        /* \"#utility.yul\":7436:7448   */\n      div\n        /* \"#utility.yul\":7426:7448   */\n      swap1\n      pop\n        /* \"#utility.yul\":7493:7494   */\n      0x01\n        /* \"#utility.yul\":7487:7491   */\n      dup3\n        /* \"#utility.yul\":7483:7495   */\n      and\n        /* \"#utility.yul\":7514:7532   */\n      dup1\n        /* \"#utility.yul\":7504:7585   */\n      tag_232\n      jumpi\n        /* \"#utility.yul\":7570:7574   */\n      0x7f\n        /* \"#utility.yul\":7562:7568   */\n      dup3\n        /* \"#utility.yul\":7558:7575   */\n      and\n        /* \"#utility.yul\":7548:7575   */\n      swap2\n      pop\n        /* \"#utility.yul\":7504:7585   */\n    tag_232:\n        /* \"#utility.yul\":7632:7634   */\n      0x20\n        /* \"#utility.yul\":7624:7630   */\n      dup3\n        /* \"#utility.yul\":7621:7635   */\n      lt\n        /* \"#utility.yul\":7601:7619   */\n      dup2\n        /* \"#utility.yul\":7598:7636   */\n      sub\n        /* \"#utility.yul\":7595:7679   */\n      tag_233\n      jumpi\n        /* \"#utility.yul\":7651:7669   */\n      tag_234\n      tag_128\n      jump\t// in\n    tag_234:\n        /* \"#utility.yul\":7595:7679   */\n    tag_233:\n        /* \"#utility.yul\":7416:7685   */\n      pop\n        /* \"#utility.yul\":7365:7685   */\n      swap2\n      swap1\n      pop\n      jump\t// out\n        /* \"#utility.yul\":7691:7832   */\n    tag_129:\n        /* \"#utility.yul\":7740:7744   */\n      0x00\n        /* \"#utility.yul\":7763:7766   */\n      dup2\n        /* \"#utility.yul\":7755:7766   */\n      swap1\n      pop\n        /* \"#utility.yul\":7786:7789   */\n      dup2\n        /* \"#utility.yul\":7783:7784   */\n      0x00\n        /* \"#utility.yul\":7776:7790   */\n      mstore\n        /* \"#utility.yul\":7820:7824   */\n      0x20\n        /* \"#utility.yul\":7817:7818   */\n      0x00\n        /* \"#utility.yul\":7807:7825   */\n      keccak256\n        /* \"#utility.yul\":7799:7825   */\n      swap1\n      pop\n        /* \"#utility.yul\":7691:7832   */\n      swap2\n      swap1\n      pop\n      jump\t// out\n        /* \"#utility.yul\":7838:7931   */\n    tag_130:\n        /* \"#utility.yul\":7875:7881   */\n      0x00\n        /* \"#utility.yul\":7922:7924   */\n      0x20\n        /* \"#utility.yul\":7917:7919   */\n      0x1f\n        /* \"#utility.yul\":7910:7915   */\n      dup4\n        /* \"#utility.yul\":7906:7920   */\n      add\n        /* \"#utility.yul\":7902:7925   */\n      div\n        /* \"#utility.yul\":7892:7925   */\n      swap1\n      pop\n        /* \"#utility.yul\":7838:7931   */\n      swap2\n      swap1\n      pop\n      jump\t// out\n        /* \"#utility.yul\":7937:8044   */\n    tag_131:\n        /* \"#utility.yul\":7981:7989   */\n      0x00\n        /* \"#utility.yul\":8031:8036   */\n      dup3\n        /* \"#utility.yul\":8025:8029   */\n      dup3\n        /* \"#utility.yul\":8021:8037   */\n      shl\n        /* \"#utility.yul\":8000:8037   */\n      swap1\n      pop\n        /* \"#utility.yul\":7937:8044   */\n      swap3\n      swap2\n      pop\n      pop\n      jump\t// out\n        /* \"#utility.yul\":8050:8443   */\n    tag_132:\n        /* \"#utility.yul\":8119:8125   */\n      0x00\n        /* \"#utility.yul\":8169:8170   */\n      0x08\n        /* \"#utility.yul\":8157:8167   */\n      dup4\n        /* \"#utility.yul\":8153:8171   */\n      mul\n        /* \"#utility.yul\":8192:8289   */\n      tag_239\n        /* \"#utility.yul\":8222:8288   */\n      0xffffffffffffffffffffffffffffffffffffffffffffffffffffffffffffffff\n        /* \"#utility.yul\":8211:8220   */\n      dup3\n        /* \"#utility.yul\":8192:8289   */\n      tag_131\n      jump\t// in\n    tag_239:\n        /* \"#utility.yul\":8310:8349   */\n      tag_240\n        /* \"#utility.yul\":8340:8348   */\n      dup7\n        /* \"#utility.yul\":8329:8338   */\n      dup4\n        /* \"#utility.yul\":8310:8349   */\n      tag_131\n      jump\t// in\n    tag_240:\n        /* \"#utility.yul\":8298:8349   */\n      swap6\n      pop\n        /* \"#utility.yul\":8382:8386   */\n      dup1\n        /* \"#utility.yul\":8378:8387   */\n      not\n        /* \"#utility.yul\":8371:8376   */\n      dup5\n        /* \"#utility.yul\":8367:8388   */\n      and\n        /* \"#utility.yul\":8358:8388   */\n      swap4\n      pop\n        /* \"#utility.yul\":8431:8435   */\n      dup1\n        /* \"#utility.yul\":8421:8429   */\n      dup7\n        /* \"#utility.yul\":8417:8436   */\n      and\n        /* \"#utility.yul\":8410:8415   */\n      dup5\n        /* \"#utility.yul\":8407:8437   */\n      or\n        /* \"#utility.yul\":8397:8437   */\n      swap3\n      pop\n        /* \"#utility.yul\":8126:8443   */\n      pop\n      pop\n        /* \"#utility.yul\":8050:8443   */\n      swap4\n      swap3\n      pop\n      pop\n      pop\n      jump\t// out\n        /* \"#utility.yul\":8449:8509   */\n    tag_133:\n        /* \"#utility.yul\":8477:8480   */\n      0x00\n        /* \"#utility.yul\":8498:8503   */\n      dup2\n        /* \"#utility.yul\":8491:8503   */\n      swap1\n      pop\n        /* \"#utility.yul\":8449:8509   */\n      swap2\n      swap1\n      pop\n      jump\t// out\n        /* \"#utility.yul\":8515:8657   */\n    tag_134:\n        /* \"#utility.yul\":8565:8574   */\n      0x00\n        /* \"#utility.yul\":8598:8651   */\n      tag_243\n        /* \"#utility.yul\":8616:8650   */\n      tag_244\n        /* \"#utility.yul\":8625:8649   */\n      tag_245\n        /* \"#utility.yul\":8643:8648   */\n      dup5\n        /* \"#utility.yul\":8625:8649   */\n      tag_103\n      jump\t// in\n    tag_245:\n        /* \"#utility.yul\":8616:8650   */\n      tag_133\n      jump\t// in\n    tag_244:\n        /* \"#utility.yul\":8598:8651   */\n      tag_103\n      jump\t// in\n    tag_243:\n        /* \"#utility.yul\":8585:8651   */\n      swap1\n      pop\n        /* \"#utility.yul\":8515:8657   */\n      swap2\n      swap1\n      pop\n      jump\t// out\n        /* \"#utility.yul\":8663:8738   */\n    tag_135:\n        /* \"#utility.yul\":8706:8709   */\n      0x00\n        /* \"#utility.yul\":8727:8732   */\n      dup2\n        /* \"#utility.yul\":8720:8732   */\n      swap1\n      pop\n        /* \"#utility.yul\":8663:8738   */\n      swap2\n      swap1\n      pop\n      jump\t// out\n        /* \"#utility.yul\":8744:9013   */\n    tag_136:\n        /* \"#utility.yul\":8854:8893   */\n      tag_248\n        /* \"#utility.yul\":8885:8892   */\n      dup4\n        /* \"#utility.yul\":8854:8893   */\n      tag_134\n      jump\t// in\n    tag_248:\n        /* \"#utility.yul\":8915:9006   */\n      tag_249\n        /* \"#utility.yul\":8964:9005   */\n      tag_250\n        /* \"#utility.yul\":8988:9004   */\n      dup3\n        /* \"#utility.yul\":8964:9005   */\n      tag_135\n      jump\t// in\n    tag_250:\n        /* \"#utility.yul\":8956:8962   */\n      dup5\n        /* \"#utility.yul\":8949:8953   */\n      dup5\n        /* \"#utility.yul\":8943:8954   */\n      sload\n        /* \"#utility.yul\":8915:9006   */\n      tag_132\n      jump\t// in\n    tag_249:\n        /* \"#utility.yul\":8909:8913   */\n      dup3\n        /* \"#utility.yul\":8902:9007   */\n      sstore\n        /* \"#utility.yul\":8820:9013   */\n      pop\n        /* \"#utility.yul\":8744:9013   */\n      pop\n      pop\n      pop\n      jump\t// out\n        /* \"#utility.yul\":9019:9092   */\n    tag_137:\n        /* \"#utility.yul\":9064:9067   */\n      0x00\n        /* \"#utility.yul\":9019:9092   */\n      swap1\n      jump\t// out\n        /* \"#utility.yul\":9098:9287   */\n    tag_138:\n        /* \"#utility.yul\":9175:9207   */\n      tag_253\n      tag_137\n      jump\t// in\n    tag_253:\n        /* \"#utility.yul\":9216:9281   */\n      tag_254\n        /* \"#utility.yul\":9274:9280   */\n      dup2\n        /* \"#utility.yul\":9266:9272   */\n      dup5\n        /* \"#utility.yul\":9260:9264   */\n      dup5\n        /* \"#utility.yul\":9216:9281   */\n      tag_136\n      jump\t// in\n    tag_254:\n        /* \"#utility.yul\":9151:9287   */\n      pop\n        /* \"#utility.yul\":9098:9287   */\n      pop\n      pop\n      jump\t// out\n        /* \"#utility.yul\":9293:9479   */\n    tag_139:\n        /* \"#utility.yul\":9353:9473   */\n    tag_256:\n        /* \"#utility.yul\":9370:9373   */\n      dup2\n        /* \"#utility.yul\":9363:9368   */\n      dup2\n        /* \"#utility.yul\":9360:9374   */\n      lt\n        /* \"#utility.yul\":9353:9473   */\n      iszero\n      tag_258\n      jumpi\n        /* \"#utility.yul\":9424:9463   */\n      tag_259\n        /* \"#utility.yul\":9461:9462   */\n      0x00\n        /* \"#utility.yul\":9454:9459   */\n      dup3\n        /* \"#utility.yul\":9424:9463   */\n      tag_138\n      jump\t// in\n    tag_259:\n        /* \"#utility.yul\":9397:9398   */\n      0x01\n        /* \"#utility.yul\":9390:9395   */\n      dup2\n        /* \"#utility.yul\":9386:9399   */\n      add\n        /* \"#utility.yul\":9377:9399   */\n      swap1\n      pop\n        /* \"#utility.yul\":9353:9473   */\n      jump(tag_256)\n    tag_258:\n        /* \"#utility.yul\":9293:9479   */\n      pop\n      pop\n      jump\t// out\n        /* \"#utility.yul\":9485:10028   */\n    tag_140:\n        /* \"#utility.yul\":9586:9588   */\n      0x1f\n        /* \"#utility.yul\":9581:9584   */\n      dup3\n        /* \"#utility.yul\":9578:9589   */\n      gt\n        /* \"#utility.yul\":9575:10021   */\n      iszero\n      tag_261\n      jumpi\n        /* \"#utility.yul\":9620:9658   */\n      tag_262\n        /* \"#utility.yul\":9652:9657   */\n      dup2\n        /* \"#utility.yul\":9620:9658   */\n      tag_129\n      jump\t// in\n    tag_262:\n        /* \"#utility.yul\":9704:9733   */\n      tag_263\n        /* \"#utility.yul\":9722:9732   */\n      dup5\n        /* \"#utility.yul\":9704:9733   */\n      tag_130\n      jump\t// in\n    tag_263:\n        /* \"#utility.yul\":9694:9702   */\n      dup2\n        /* \"#utility.yul\":9690:9734   */\n      add\n        /* \"#utility.yul\":9887:9889   */\n      0x20\n        /* \"#utility.yul\":9875:9885   */\n      dup6\n        /* \"#utility.yul\":9872:9890   */\n      lt\n        /* \"#utility.yul\":9869:9918   */\n      iszero\n      tag_264\n      jumpi\n        /* \"#utility.yul\":9908:9916   */\n      dup2\n        /* \"#utility.yul\":9893:9916   */\n      swap1\n      pop\n        /* \"#utility.yul\":9869:9918   */\n    tag_264:\n        /* \"#utility.yul\":9931:10011   */\n      tag_265\n        /* \"#utility.yul\":9987:10009   */\n      tag_266\n        /* \"#utility.yul\":10005:10008   */\n      dup6\n        /* \"#utility.yul\":9987:10009   */\n      tag_130\n      jump\t// in\n    tag_266:\n        /* \"#utility.yul\":9977:9985   */\n      dup4\n        /* \"#utility.yul\":9973:10010   */\n      add\n        /* \"#utility.yul\":9960:9971   */\n      dup3\n        /* \"#utility.yul\":9931:10011   */\n      tag_139\n      jump\t// in\n    tag_265:\n        /* \"#utility.yul\":9590:10021   */\n      pop\n      pop\n        /* \"#utility.yul\":9575:10021   */\n    tag_261:\n        /* \"#utility.yul\":9485:10028   */\n      pop\n      pop\n      pop\n      jump\t// out\n        /* \"#utility.yul\":10034:10151   */\n    tag_141:\n        /* \"#utility.yul\":10088:10096   */\n      0x00\n        /* \"#utility.yul\":10138:10143   */\n      dup3\n        /* \"#utility.yul\":10132:10136   */\n      dup3\n        /* \"#utility.yul\":10128:10144   */\n      shr\n        /* \"#utility.yul\":10107:10144   */\n      swap1\n      pop\n        /* \"#utility.yul\":10034:10151   */\n      swap3\n      swap2\n      pop\n      pop\n      jump\t// out\n        /* \"#utility.yul\":10157:10326   */\n    tag_142:\n        /* \"#utility.yul\":10201:10207   */\n      0x00\n        /* \"#utility.yul\":10234:10285   */\n      tag_269\n        /* \"#utility.yul\":10282:10283   */\n      0x00\n        /* \"#utility.yul\":10278:10284   */\n      not\n        /* \"#utility.yul\":10270:10275   */\n      dup5\n        /* \"#utility.yul\":10267:10268   */\n      0x08\n        /* \"#utility.yul\":10263:10276   */\n      mul\n        /* \"#utility.yul\":10234:10285   */\n      tag_141\n      jump\t// in\n    tag_269:\n        /* \"#utility.yul\":10230:10286   */\n      not\n        /* \"#utility.yul\":10315:10319   */\n      dup1\n        /* \"#utility.yul\":10309:10313   */\n      dup4\n        /* \"#utility.yul\":10305:10320   */\n      and\n        /* \"#utility.yul\":10295:10320   */\n      swap2\n      pop\n        /* \"#utility.yul\":10208:10326   */\n      pop\n        /* \"#utility.yul\":10157:10326   */\n      swap3\n      swap2\n      pop\n      pop\n      jump\t// out\n        /* \"#utility.yul\":10331:10626   */\n    tag_143:\n        /* \"#utility.yul\":10407:10411   */\n      0x00\n        /* \"#utility.yul\":10553:10582   */\n      tag_271\n        /* \"#utility.yul\":10578:10581   */\n      dup4\n        /* \"#utility.yul\":10572:10576   */\n      dup4\n        /* \"#utility.yul\":10553:10582   */\n      tag_142\n      jump\t// in\n    tag_271:\n        /* \"#utility.yul\":10545:10582   */\n      swap2\n      pop\n        /* \"#utility.yul\":10615:10618   */\n      dup3\n        /* \"#utility.yul\":10612:10613   */\n      0x02\n        /* \"#utility.yul\":10608:10619   */\n      mul\n        /* \"#utility.yul\":10602:10606   */\n      dup3\n        /* \"#utility.yul\":10599:10620   */\n      or\n        /* \"#utility.yul\":10591:10620   */\n      swap1\n      pop\n        /* \"#utility.yul\":10331:10626   */\n      swap3\n      swap2\n      pop\n      pop\n      jump\t// out\n        /* \"#utility.yul\":10631:12026   */\n    tag_61:\n        /* \"#utility.yul\":10748:10785   */\n      tag_273\n        /* \"#utility.yul\":10781:10784   */\n      dup3\n        /* \"#utility.yul\":10748:10785   */\n      tag_123\n      jump\t// in\n    tag_273:\n        /* \"#utility.yul\":10850:10868   */\n      0xffffffffffffffff\n        /* \"#utility.yul\":10842:10848   */\n      dup2\n        /* \"#utility.yul\":10839:10869   */\n      gt\n        /* \"#utility.yul\":10836:10892   */\n      iszero\n      tag_274\n      jumpi\n        /* \"#utility.yul\":10872:10890   */\n      tag_275\n      tag_116\n      jump\t// in\n    tag_275:\n        /* \"#utility.yul\":10836:10892   */\n    tag_274:\n        /* \"#utility.yul\":10916:10954   */\n      tag_276\n        /* \"#utility.yul\":10948:10952   */\n      dup3\n        /* \"#utility.yul\":10942:10953   */\n      sload\n        /* \"#utility.yul\":10916:10954   */\n      tag_86\n      jump\t// in\n    tag_276:\n        /* \"#utility.yul\":11001:11068   */\n      tag_277\n        /* \"#utility.yul\":11061:11067   */\n      dup3\n        /* \"#utility.yul\":11053:11059   */\n      dup3\n        /* \"#utility.yul\":11047:11051   */\n      dup6\n        /* \"#utility.yul\":11001:11068   */\n      tag_140\n      jump\t// in\n    tag_277:\n        /* \"#utility.yul\":11095:11096   */\n      0x00\n        /* \"#utility.yul\":11119:11123   */\n      0x20\n        /* \"#utility.yul\":11106:11123   */\n      swap1\n      pop\n        /* \"#utility.yul\":11151:11153   */\n      0x1f\n        /* \"#utility.yul\":11143:11149   */\n      dup4\n        /* \"#utility.yul\":11140:11154   */\n      gt\n        /* \"#utility.yul\":11168:11169   */\n      0x01\n        /* \"#utility.yul\":11163:11781   */\n      dup2\n      eq\n      tag_279\n      jumpi\n        /* \"#utility.yul\":11825:11826   */\n      0x00\n        /* \"#utility.yul\":11842:11848   */\n      dup5\n        /* \"#utility.yul\":11839:11916   */\n      iszero\n      tag_280\n      jumpi\n        /* \"#utility.yul\":11891:11900   */\n      dup3\n        /* \"#utility.yul\":11886:11889   */\n      dup8\n        /* \"#utility.yul\":11882:11901   */\n      add\n        /* \"#utility.yul\":11876:11902   */\n      mload\n        /* \"#utility.yul\":11867:11902   */\n      swap1\n      pop\n        /* \"#utility.yul\":11839:11916   */\n    tag_280:\n        /* \"#utility.yul\":11942:12009   */\n      tag_281\n        /* \"#utility.yul\":12002:12008   */\n      dup6\n        /* \"#utility.yul\":11995:12000   */\n      dup3\n        /* \"#utility.yul\":11942:12009   */\n      tag_143\n      jump\t// in\n    tag_281:\n        /* \"#utility.yul\":11936:11940   */\n      dup7\n        /* \"#utility.yul\":11929:12010   */\n      sstore\n        /* \"#utility.yul\":11798:12020   */\n      pop\n        /* \"#utility.yul\":11133:12020   */\n      jump(tag_278)\n        /* \"#utility.yul\":11163:11781   */\n    tag_279:\n        /* \"#utility.yul\":11215:11219   */\n      0x1f\n        /* \"#utility.yul\":11211:11220   */\n      not\n        /* \"#utility.yul\":11203:11209   */\n      dup5\n        /* \"#utility.yul\":11199:11221   */\n      and\n        /* \"#utility.yul\":11249:11286   */\n      tag_282\n        /* \"#utility.yul\":11281:11285   */\n      dup7\n        /* \"#utility.yul\":11249:11286   */\n      tag_129\n      jump\t// in\n    tag_282:\n        /* \"#utility.yul\":11308:11309   */\n      0x00\n        /* \"#utility.yul\":11322:11530   */\n    tag_283:\n        /* \"#utility.yul\":11336:11343   */\n      dup3\n        /* \"#utility.yul\":11333:11334   */\n      dup2\n        /* \"#utility.yul\":11330:11344   */\n      lt\n        /* \"#utility.yul\":11322:11530   */\n      iszero\n      tag_285\n      jumpi\n        /* \"#utility.yul\":11415:11424   */\n      dup5\n        /* \"#utility.yul\":11410:11413   */\n      dup10\n        /* \"#utility.yul\":11406:11425   */\n      add\n        /* \"#utility.yul\":11400:11426   */\n      mload\n        /* \"#utility.yul\":11392:11398   */\n      dup3\n        /* \"#utility.yul\":11385:11427   */\n      sstore\n        /* \"#utility.yul\":11466:11467   */\n      0x01\n        /* \"#utility.yul\":11458:11464   */\n      dup3\n        /* \"#utility.yul\":11454:11468   */\n      add\n        /* \"#utility.yul\":11444:11468   */\n      swap2\n      pop\n        /* \"#utility.yul\":11513:11515   */\n      0x20\n        /* \"#utility.yul\":11502:11511   */\n      dup6\n        /* \"#utility.yul\":11498:11516   */\n      add\n        /* \"#utility.yul\":11485:11516   */\n      swap5\n      pop\n        /* \"#utility.yul\":11359:11363   */\n      0x20\n        /* \"#utility.yul\":11356:11357   */\n      dup2\n        /* \"#utility.yul\":11352:11364   */\n      add\n        /* \"#utility.yul\":11347:11364   */\n      swap1\n      pop\n        /* \"#utility.yul\":11322:11530   */\n      jump(tag_283)\n    tag_285:\n        /* \"#utility.yul\":11558:11564   */\n      dup7\n        /* \"#utility.yul\":11549:11556   */\n      dup4\n        /* \"#utility.yul\":11546:11565   */\n      lt\n        /* \"#utility.yul\":11543:11722   */\n      iszero\n      tag_286\n      jumpi\n        /* \"#utility.yul\":11616:11625   */\n      dup5\n        /* \"#utility.yul\":11611:11614   */\n      dup10\n        /* \"#utility.yul\":11607:11626   */\n      add\n        /* \"#utility.yul\":11601:11627   */\n      mload\n        /* \"#utility.yul\":11659:11707   */\n      tag_287\n        /* \"#utility.yul\":11701:11705   */\n      0x1f\n        /* \"#utility.yul\":11693:11699   */\n      dup10\n        /* \"#utility.yul\":11689:11706   */\n      and\n        /* \"#utility.yul\":11678:11687   */\n      dup3\n        /* \"#utility.yul\":11659:11707   */\n      tag_142\n      jump\t// in\n    tag_287:\n        /* \"#utility.yul\":11651:11657   */\n      dup4\n        /* \"#utility.yul\":11644:11708   */\n      sstore\n        /* \"#utility.yul\":11566:11722   */\n      pop\n        /* \"#utility.yul\":11543:11722   */\n    tag_286:\n        /* \"#utility.yul\":11768:11769   */\n      0x01\n        /* \"#utility.yul\":11764:11765   */\n      0x02\n        /* \"#utility.yul\":11756:11762   */\n      dup9\n        /* \"#utility.yul\":11752:11766   */\n      mul\n        /* \"#utility.yul\":11748:11770   */\n      add\n        /* \"#utility.yul\":11742:11746   */\n      dup9\n        /* \"#utility.yul\":11735:11771   */\n      sstore\n        /* \"#utility.yul\":11170:11781   */\n      pop\n      pop\n      pop\n        /* \"#utility.yul\":11133:12020   */\n    tag_278:\n      pop\n        /* \"#utility.yul\":10723:12026   */\n      pop\n      pop\n      pop\n        /* \"#utility.yul\":10631:12026   */\n      pop\n      pop\n      jump\t// out\n        /* \"#utility.yul\":12032:12212   */\n    tag_144:\n        /* \"#utility.yul\":12080:12157   */\n      0x4e487b7100000000000000000000000000000000000000000000000000000000\n        /* \"#utility.yul\":12077:12078   */\n      0x00\n        /* \"#utility.yul\":12070:12158   */\n      mstore\n        /* \"#utility.yul\":12177:12181   */\n      0x11\n        /* \"#utility.yul\":12174:12175   */\n      0x04\n        /* \"#utility.yul\":12167:12182   */\n      mstore\n        /* \"#utility.yul\":12201:12205   */\n      0x24\n        /* \"#utility.yul\":12198:12199   */\n      0x00\n        /* \"#utility.yul\":12191:12206   */\n      revert\n        /* \"#utility.yul\":12218:12451   */\n    tag_78:\n        /* \"#utility.yul\":12257:12260   */\n      0x00\n        /* \"#utility.yul\":12280:12304   */\n      tag_290\n        /* \"#utility.yul\":12298:12303   */\n      dup3\n        /* \"#utility.yul\":12280:12304   */\n      tag_103\n      jump\t// in\n    tag_290:\n        /* \"#utility.yul\":12271:12304   */\n      swap2\n      pop\n        /* \"#utility.yul\":12326:12392   */\n      0xffffffffffffffffffffffffffffffffffffffffffffffffffffffffffffffff\n        /* \"#utility.yul\":12319:12324   */\n      dup3\n        /* \"#utility.yul\":12316:12393   */\n      sub\n        /* \"#utility.yul\":12313:12416   */\n      tag_291\n      jumpi\n        /* \"#utility.yul\":12396:12414   */\n      tag_292\n      tag_144\n      jump\t// in\n    tag_292:\n        /* \"#utility.yul\":12313:12416   */\n    tag_291:\n        /* \"#utility.yul\":12443:12444   */\n      0x01\n        /* \"#utility.yul\":12436:12441   */\n      dup3\n        /* \"#utility.yul\":12432:12445   */\n      add\n        /* \"#utility.yul\":12425:12445   */\n      swap1\n      pop\n        /* \"#utility.yul\":12218:12451   */\n      swap2\n      swap1\n      pop\n      jump\t// out\n\n    auxdata: 0xa26469706673582212203a790b0b1e290897c12d524af7d110170d56f5045a4277f659cb7e0087f117da64736f6c63430008160033\n}\n",
				"bytecode": {
					"linkReferences": {},
					"object": "608060405234801562000010575f80fd5b50604051620010a1380380620010a18339818101604052810190620000369190620001e9565b805f73ffffffffffffffffffffffffffffffffffffffff168173ffffffffffffffffffffffffffffffffffffffff1603620000aa575f6040517f1e4fbdf7000000000000000000000000000000000000000000000000000000008152600401620000a191906200022a565b60405180910390fd5b620000bb81620000c360201b60201c565b505062000245565b5f805f9054906101000a900473ffffffffffffffffffffffffffffffffffffffff169050815f806101000a81548173ffffffffffffffffffffffffffffffffffffffff021916908373ffffffffffffffffffffffffffffffffffffffff1602179055508173ffffffffffffffffffffffffffffffffffffffff168173ffffffffffffffffffffffffffffffffffffffff167f8be0079c531659141344cd1fd0a4f28419497f9722a3daafe3b4186f6b6457e060405160405180910390a35050565b5f80fd5b5f73ffffffffffffffffffffffffffffffffffffffff82169050919050565b5f620001b38262000188565b9050919050565b620001c581620001a7565b8114620001d0575f80fd5b50565b5f81519050620001e381620001ba565b92915050565b5f6020828403121562000201576200020062000184565b5b5f6200021084828501620001d3565b91505092915050565b6200022481620001a7565b82525050565b5f6020820190506200023f5f83018462000219565b92915050565b610e4e80620002535f395ff3fe608060405234801561000f575f80fd5b5060043610610086575f3560e01c80638da5cb5b116100595780638da5cb5b14610110578063eb13ec861461012e578063f2fde38b1461015e578063fb113db11461017a57610086565b806335c1d3491461008a5780635b573186146100ba5780636f760f41146100ea578063715018a614610106575b5f80fd5b6100a4600480360381019061009f9190610756565b6101ab565b6040516100b191906107c0565b60405180910390f35b6100d460048036038101906100cf9190610803565b6101e6565b6040516100e19190610848565b60405180910390f35b61010460048036038101906100ff919061099d565b61028d565b005b61010e610369565b005b61011861037c565b60405161012591906107c0565b60405180910390f35b61014860048036038101906101439190610803565b6103a3565b6040516101559190610848565b60405180910390f35b61017860048036038101906101739190610803565b610499565b005b610194600480360381019061018f9190610803565b61051d565b6040516101a2929190610a80565b60405180910390f35b600281815481106101ba575f80fd5b905f5260205f20015f915054906101000a900473ffffffffffffffffffffffffffffffffffffffff1681565b5f6101ef6105c3565b5f5b600280549050811015610283578273ffffffffffffffffffffffffffffffffffffffff166002828154811061022957610228610aae565b5b905f5260205f20015f9054906101000a900473ffffffffffffffffffffffffffffffffffffffff1673ffffffffffffffffffffffffffffffffffffffff1603610276576001915050610288565b80806001019150506101f1565b505f90505b919050565b5f60405180604001604052808481526020018381525090508060015f3373ffffffffffffffffffffffffffffffffffffffff1673ffffffffffffffffffffffffffffffffffffffff1681526020019081526020015f205f820151815f0190816102f69190610cd5565b5060208201518160010155905050600233908060018154018082558091505060019003905f5260205f20015f9091909190916101000a81548173ffffffffffffffffffffffffffffffffffffffff021916908373ffffffffffffffffffffffffffffffffffffffff160217905550505050565b6103716105c3565b61037a5f61064a565b565b5f805f9054906101000a900473ffffffffffffffffffffffffffffffffffffffff16905090565b5f805f90505b60028054905081101561048f578273ffffffffffffffffffffffffffffffffffffffff16600282815481106103e1576103e0610aae565b5b905f5260205f20015f9054906101000a900473ffffffffffffffffffffffffffffffffffffffff1673ffffffffffffffffffffffffffffffffffffffff1614801561046d5750601260015f8573ffffffffffffffffffffffffffffffffffffffff1673ffffffffffffffffffffffffffffffffffffffff1681526020019081526020015f206001015410155b1561047c576001915050610494565b808061048790610dd1565b9150506103a9565b5f9150505b919050565b6104a16105c3565b5f73ffffffffffffffffffffffffffffffffffffffff168173ffffffffffffffffffffffffffffffffffffffff1603610511575f6040517f1e4fbdf700000000000000000000000000000000000000000000000000000000815260040161050891906107c0565b60405180910390fd5b61051a8161064a565b50565b6001602052805f5260405f205f91509050805f01805461053c90610b08565b80601f016020809104026020016040519081016040528092919081815260200182805461056890610b08565b80156105b35780601f1061058a576101008083540402835291602001916105b3565b820191905f5260205f20905b81548152906001019060200180831161059657829003601f168201915b5050505050908060010154905082565b6105cb61070b565b73ffffffffffffffffffffffffffffffffffffffff166105e961037c565b73ffffffffffffffffffffffffffffffffffffffff16146106485761060c61070b565b6040517f118cdaa700000000000000000000000000000000000000000000000000000000815260040161063f91906107c0565b60405180910390fd5b565b5f805f9054906101000a900473ffffffffffffffffffffffffffffffffffffffff169050815f806101000a81548173ffffffffffffffffffffffffffffffffffffffff021916908373ffffffffffffffffffffffffffffffffffffffff1602179055508173ffffffffffffffffffffffffffffffffffffffff168173ffffffffffffffffffffffffffffffffffffffff167f8be0079c531659141344cd1fd0a4f28419497f9722a3daafe3b4186f6b6457e060405160405180910390a35050565b5f33905090565b5f604051905090565b5f80fd5b5f80fd5b5f819050919050565b61073581610723565b811461073f575f80fd5b50565b5f813590506107508161072c565b92915050565b5f6020828403121561076b5761076a61071b565b5b5f61077884828501610742565b91505092915050565b5f73ffffffffffffffffffffffffffffffffffffffff82169050919050565b5f6107aa82610781565b9050919050565b6107ba816107a0565b82525050565b5f6020820190506107d35f8301846107b1565b92915050565b6107e2816107a0565b81146107ec575f80fd5b50565b5f813590506107fd816107d9565b92915050565b5f602082840312156108185761081761071b565b5b5f610825848285016107ef565b91505092915050565b5f8115159050919050565b6108428161082e565b82525050565b5f60208201905061085b5f830184610839565b92915050565b5f80fd5b5f80fd5b5f601f19601f8301169050919050565b7f4e487b71000000000000000000000000000000000000000000000000000000005f52604160045260245ffd5b6108af82610869565b810181811067ffffffffffffffff821117156108ce576108cd610879565b5b80604052505050565b5f6108e0610712565b90506108ec82826108a6565b919050565b5f67ffffffffffffffff82111561090b5761090a610879565b5b61091482610869565b9050602081019050919050565b828183375f83830152505050565b5f61094161093c846108f1565b6108d7565b90508281526020810184848401111561095d5761095c610865565b5b610968848285610921565b509392505050565b5f82601f83011261098457610983610861565b5b813561099484826020860161092f565b91505092915050565b5f80604083850312156109b3576109b261071b565b5b5f83013567ffffffffffffffff8111156109d0576109cf61071f565b5b6109dc85828601610970565b92505060206109ed85828601610742565b9150509250929050565b5f81519050919050565b5f82825260208201905092915050565b5f5b83811015610a2e578082015181840152602081019050610a13565b5f8484015250505050565b5f610a43826109f7565b610a4d8185610a01565b9350610a5d818560208601610a11565b610a6681610869565b840191505092915050565b610a7a81610723565b82525050565b5f6040820190508181035f830152610a988185610a39565b9050610aa76020830184610a71565b9392505050565b7f4e487b71000000000000000000000000000000000000000000000000000000005f52603260045260245ffd5b7f4e487b71000000000000000000000000000000000000000000000000000000005f52602260045260245ffd5b5f6002820490506001821680610b1f57607f821691505b602082108103610b3257610b31610adb565b5b50919050565b5f819050815f5260205f209050919050565b5f6020601f8301049050919050565b5f82821b905092915050565b5f60088302610b947fffffffffffffffffffffffffffffffffffffffffffffffffffffffffffffffff82610b59565b610b9e8683610b59565b95508019841693508086168417925050509392505050565b5f819050919050565b5f610bd9610bd4610bcf84610723565b610bb6565b610723565b9050919050565b5f819050919050565b610bf283610bbf565b610c06610bfe82610be0565b848454610b65565b825550505050565b5f90565b610c1a610c0e565b610c25818484610be9565b505050565b5b81811015610c4857610c3d5f82610c12565b600181019050610c2b565b5050565b601f821115610c8d57610c5e81610b38565b610c6784610b4a565b81016020851015610c76578190505b610c8a610c8285610b4a565b830182610c2a565b50505b505050565b5f82821c905092915050565b5f610cad5f1984600802610c92565b1980831691505092915050565b5f610cc58383610c9e565b9150826002028217905092915050565b610cde826109f7565b67ffffffffffffffff811115610cf757610cf6610879565b5b610d018254610b08565b610d0c828285610c4c565b5f60209050601f831160018114610d3d575f8415610d2b578287015190505b610d358582610cba565b865550610d9c565b601f198416610d4b86610b38565b5f5b82811015610d7257848901518255600182019150602085019450602081019050610d4d565b86831015610d8f5784890151610d8b601f891682610c9e565b8355505b6001600288020188555050505b505050505050565b7f4e487b71000000000000000000000000000000000000000000000000000000005f52601160045260245ffd5b5f610ddb82610723565b91507fffffffffffffffffffffffffffffffffffffffffffffffffffffffffffffffff8203610e0d57610e0c610da4565b5b60018201905091905056fea26469706673582212203a790b0b1e290897c12d524af7d110170d56f5045a4277f659cb7e0087f117da64736f6c63430008160033",
					"opcodes": "PUSH1 0x80 PUSH1 0x40 MSTORE CALLVALUE DUP1 ISZERO PUSH3 0x10 JUMPI PUSH0 DUP1 REVERT JUMPDEST POP PUSH1 0x40 MLOAD PUSH3 0x10A1 CODESIZE SUB DUP1 PUSH3 0x10A1 DUP4 CODECOPY DUP2 DUP2 ADD PUSH1 0x40 MSTORE DUP2 ADD SWAP1 PUSH3 0x36 SWAP2 SWAP1 PUSH3 0x1E9 JUMP JUMPDEST DUP1 PUSH0 PUSH20 0xFFFFFFFFFFFFFFFFFFFFFFFFFFFFFFFFFFFFFFFF AND DUP2 PUSH20 0xFFFFFFFFFFFFFFFFFFFFFFFFFFFFFFFFFFFFFFFF AND SUB PUSH3 0xAA JUMPI PUSH0 PUSH1 0x40 MLOAD PUSH32 0x1E4FBDF700000000000000000000000000000000000000000000000000000000 DUP2 MSTORE PUSH1 0x4 ADD PUSH3 0xA1 SWAP2 SWAP1 PUSH3 0x22A JUMP JUMPDEST PUSH1 0x40 MLOAD DUP1 SWAP2 SUB SWAP1 REVERT JUMPDEST PUSH3 0xBB DUP2 PUSH3 0xC3 PUSH1 0x20 SHL PUSH1 0x20 SHR JUMP JUMPDEST POP POP PUSH3 0x245 JUMP JUMPDEST PUSH0 DUP1 PUSH0 SWAP1 SLOAD SWAP1 PUSH2 0x100 EXP SWAP1 DIV PUSH20 0xFFFFFFFFFFFFFFFFFFFFFFFFFFFFFFFFFFFFFFFF AND SWAP1 POP DUP2 PUSH0 DUP1 PUSH2 0x100 EXP DUP2 SLOAD DUP2 PUSH20 0xFFFFFFFFFFFFFFFFFFFFFFFFFFFFFFFFFFFFFFFF MUL NOT AND SWAP1 DUP4 PUSH20 0xFFFFFFFFFFFFFFFFFFFFFFFFFFFFFFFFFFFFFFFF AND MUL OR SWAP1 SSTORE POP DUP2 PUSH20 0xFFFFFFFFFFFFFFFFFFFFFFFFFFFFFFFFFFFFFFFF AND DUP2 PUSH20 0xFFFFFFFFFFFFFFFFFFFFFFFFFFFFFFFFFFFFFFFF AND PUSH32 0x8BE0079C531659141344CD1FD0A4F28419497F9722A3DAAFE3B4186F6B6457E0 PUSH1 0x40 MLOAD PUSH1 0x40 MLOAD DUP1 SWAP2 SUB SWAP1 LOG3 POP POP JUMP JUMPDEST PUSH0 DUP1 REVERT JUMPDEST PUSH0 PUSH20 0xFFFFFFFFFFFFFFFFFFFFFFFFFFFFFFFFFFFFFFFF DUP3 AND SWAP1 POP SWAP2 SWAP1 POP JUMP JUMPDEST PUSH0 PUSH3 0x1B3 DUP3 PUSH3 0x188 JUMP JUMPDEST SWAP1 POP SWAP2 SWAP1 POP JUMP JUMPDEST PUSH3 0x1C5 DUP2 PUSH3 0x1A7 JUMP JUMPDEST DUP2 EQ PUSH3 0x1D0 JUMPI PUSH0 DUP1 REVERT JUMPDEST POP JUMP JUMPDEST PUSH0 DUP2 MLOAD SWAP1 POP PUSH3 0x1E3 DUP2 PUSH3 0x1BA JUMP JUMPDEST SWAP3 SWAP2 POP POP JUMP JUMPDEST PUSH0 PUSH1 0x20 DUP3 DUP5 SUB SLT ISZERO PUSH3 0x201 JUMPI PUSH3 0x200 PUSH3 0x184 JUMP JUMPDEST JUMPDEST PUSH0 PUSH3 0x210 DUP5 DUP3 DUP6 ADD PUSH3 0x1D3 JUMP JUMPDEST SWAP2 POP POP SWAP3 SWAP2 POP POP JUMP JUMPDEST PUSH3 0x224 DUP2 PUSH3 0x1A7 JUMP JUMPDEST DUP3 MSTORE POP POP JUMP JUMPDEST PUSH0 PUSH1 0x20 DUP3 ADD SWAP1 POP PUSH3 0x23F PUSH0 DUP4 ADD DUP5 PUSH3 0x219 JUMP JUMPDEST SWAP3 SWAP2 POP POP JUMP JUMPDEST PUSH2 0xE4E DUP1 PUSH3 0x253 PUSH0 CODECOPY PUSH0 RETURN INVALID PUSH1 0x80 PUSH1 0x40 MSTORE CALLVALUE DUP1 ISZERO PUSH2 0xF JUMPI PUSH0 DUP1 REVERT JUMPDEST POP PUSH1 0x4 CALLDATASIZE LT PUSH2 0x86 JUMPI PUSH0 CALLDATALOAD PUSH1 0xE0 SHR DUP1 PUSH4 0x8DA5CB5B GT PUSH2 0x59 JUMPI DUP1 PUSH4 0x8DA5CB5B EQ PUSH2 0x110 JUMPI DUP1 PUSH4 0xEB13EC86 EQ PUSH2 0x12E JUMPI DUP1 PUSH4 0xF2FDE38B EQ PUSH2 0x15E JUMPI DUP1 PUSH4 0xFB113DB1 EQ PUSH2 0x17A JUMPI PUSH2 0x86 JUMP JUMPDEST DUP1 PUSH4 0x35C1D349 EQ PUSH2 0x8A JUMPI DUP1 PUSH4 0x5B573186 EQ PUSH2 0xBA JUMPI DUP1 PUSH4 0x6F760F41 EQ PUSH2 0xEA JUMPI DUP1 PUSH4 0x715018A6 EQ PUSH2 0x106 JUMPI JUMPDEST PUSH0 DUP1 REVERT JUMPDEST PUSH2 0xA4 PUSH1 0x4 DUP1 CALLDATASIZE SUB DUP2 ADD SWAP1 PUSH2 0x9F SWAP2 SWAP1 PUSH2 0x756 JUMP JUMPDEST PUSH2 0x1AB JUMP JUMPDEST PUSH1 0x40 MLOAD PUSH2 0xB1 SWAP2 SWAP1 PUSH2 0x7C0 JUMP JUMPDEST PUSH1 0x40 MLOAD DUP1 SWAP2 SUB SWAP1 RETURN JUMPDEST PUSH2 0xD4 PUSH1 0x4 DUP1 CALLDATASIZE SUB DUP2 ADD SWAP1 PUSH2 0xCF SWAP2 SWAP1 PUSH2 0x803 JUMP JUMPDEST PUSH2 0x1E6 JUMP JUMPDEST PUSH1 0x40 MLOAD PUSH2 0xE1 SWAP2 SWAP1 PUSH2 0x848 JUMP JUMPDEST PUSH1 0x40 MLOAD DUP1 SWAP2 SUB SWAP1 RETURN JUMPDEST PUSH2 0x104 PUSH1 0x4 DUP1 CALLDATASIZE SUB DUP2 ADD SWAP1 PUSH2 0xFF SWAP2 SWAP1 PUSH2 0x99D JUMP JUMPDEST PUSH2 0x28D JUMP JUMPDEST STOP JUMPDEST PUSH2 0x10E PUSH2 0x369 JUMP JUMPDEST STOP JUMPDEST PUSH2 0x118 PUSH2 0x37C JUMP JUMPDEST PUSH1 0x40 MLOAD PUSH2 0x125 SWAP2 SWAP1 PUSH2 0x7C0 JUMP JUMPDEST PUSH1 0x40 MLOAD DUP1 SWAP2 SUB SWAP1 RETURN JUMPDEST PUSH2 0x148 PUSH1 0x4 DUP1 CALLDATASIZE SUB DUP2 ADD SWAP1 PUSH2 0x143 SWAP2 SWAP1 PUSH2 0x803 JUMP JUMPDEST PUSH2 0x3A3 JUMP JUMPDEST PUSH1 0x40 MLOAD PUSH2 0x155 SWAP2 SWAP1 PUSH2 0x848 JUMP JUMPDEST PUSH1 0x40 MLOAD DUP1 SWAP2 SUB SWAP1 RETURN JUMPDEST PUSH2 0x178 PUSH1 0x4 DUP1 CALLDATASIZE SUB DUP2 ADD SWAP1 PUSH2 0x173 SWAP2 SWAP1 PUSH2 0x803 JUMP JUMPDEST PUSH2 0x499 JUMP JUMPDEST STOP JUMPDEST PUSH2 0x194 PUSH1 0x4 DUP1 CALLDATASIZE SUB DUP2 ADD SWAP1 PUSH2 0x18F SWAP2 SWAP1 PUSH2 0x803 JUMP JUMPDEST PUSH2 0x51D JUMP JUMPDEST PUSH1 0x40 MLOAD PUSH2 0x1A2 SWAP3 SWAP2 SWAP1 PUSH2 0xA80 JUMP JUMPDEST PUSH1 0x40 MLOAD DUP1 SWAP2 SUB SWAP1 RETURN JUMPDEST PUSH1 0x2 DUP2 DUP2 SLOAD DUP2 LT PUSH2 0x1BA JUMPI PUSH0 DUP1 REVERT JUMPDEST SWAP1 PUSH0 MSTORE PUSH1 0x20 PUSH0 KECCAK256 ADD PUSH0 SWAP2 POP SLOAD SWAP1 PUSH2 0x100 EXP SWAP1 DIV PUSH20 0xFFFFFFFFFFFFFFFFFFFFFFFFFFFFFFFFFFFFFFFF AND DUP2 JUMP JUMPDEST PUSH0 PUSH2 0x1EF PUSH2 0x5C3 JUMP JUMPDEST PUSH0 JUMPDEST PUSH1 0x2 DUP1 SLOAD SWAP1 POP DUP2 LT ISZERO PUSH2 0x283 JUMPI DUP3 PUSH20 0xFFFFFFFFFFFFFFFFFFFFFFFFFFFFFFFFFFFFFFFF AND PUSH1 0x2 DUP3 DUP2 SLOAD DUP2 LT PUSH2 0x229 JUMPI PUSH2 0x228 PUSH2 0xAAE JUMP JUMPDEST JUMPDEST SWAP1 PUSH0 MSTORE PUSH1 0x20 PUSH0 KECCAK256 ADD PUSH0 SWAP1 SLOAD SWAP1 PUSH2 0x100 EXP SWAP1 DIV PUSH20 0xFFFFFFFFFFFFFFFFFFFFFFFFFFFFFFFFFFFFFFFF AND PUSH20 0xFFFFFFFFFFFFFFFFFFFFFFFFFFFFFFFFFFFFFFFF AND SUB PUSH2 0x276 JUMPI PUSH1 0x1 SWAP2 POP POP PUSH2 0x288 JUMP JUMPDEST DUP1 DUP1 PUSH1 0x1 ADD SWAP2 POP POP PUSH2 0x1F1 JUMP JUMPDEST POP PUSH0 SWAP1 POP JUMPDEST SWAP2 SWAP1 POP JUMP JUMPDEST PUSH0 PUSH1 0x40 MLOAD DUP1 PUSH1 0x40 ADD PUSH1 0x40 MSTORE DUP1 DUP5 DUP2 MSTORE PUSH1 0x20 ADD DUP4 DUP2 MSTORE POP SWAP1 POP DUP1 PUSH1 0x1 PUSH0 CALLER PUSH20 0xFFFFFFFFFFFFFFFFFFFFFFFFFFFFFFFFFFFFFFFF AND PUSH20 0xFFFFFFFFFFFFFFFFFFFFFFFFFFFFFFFFFFFFFFFF AND DUP2 MSTORE PUSH1 0x20 ADD SWAP1 DUP2 MSTORE PUSH1 0x20 ADD PUSH0 KECCAK256 PUSH0 DUP3 ADD MLOAD DUP2 PUSH0 ADD SWAP1 DUP2 PUSH2 0x2F6 SWAP2 SWAP1 PUSH2 0xCD5 JUMP JUMPDEST POP PUSH1 0x20 DUP3 ADD MLOAD DUP2 PUSH1 0x1 ADD SSTORE SWAP1 POP POP PUSH1 0x2 CALLER SWAP1 DUP1 PUSH1 0x1 DUP2 SLOAD ADD DUP1 DUP3 SSTORE DUP1 SWAP2 POP POP PUSH1 0x1 SWAP1 SUB SWAP1 PUSH0 MSTORE PUSH1 0x20 PUSH0 KECCAK256 ADD PUSH0 SWAP1 SWAP2 SWAP1 SWAP2 SWAP1 SWAP2 PUSH2 0x100 EXP DUP2 SLOAD DUP2 PUSH20 0xFFFFFFFFFFFFFFFFFFFFFFFFFFFFFFFFFFFFFFFF MUL NOT AND SWAP1 DUP4 PUSH20 0xFFFFFFFFFFFFFFFFFFFFFFFFFFFFFFFFFFFFFFFF AND MUL OR SWAP1 SSTORE POP POP POP POP JUMP JUMPDEST PUSH2 0x371 PUSH2 0x5C3 JUMP JUMPDEST PUSH2 0x37A PUSH0 PUSH2 0x64A JUMP JUMPDEST JUMP JUMPDEST PUSH0 DUP1 PUSH0 SWAP1 SLOAD SWAP1 PUSH2 0x100 EXP SWAP1 DIV PUSH20 0xFFFFFFFFFFFFFFFFFFFFFFFFFFFFFFFFFFFFFFFF AND SWAP1 POP SWAP1 JUMP JUMPDEST PUSH0 DUP1 PUSH0 SWAP1 POP JUMPDEST PUSH1 0x2 DUP1 SLOAD SWAP1 POP DUP2 LT ISZERO PUSH2 0x48F JUMPI DUP3 PUSH20 0xFFFFFFFFFFFFFFFFFFFFFFFFFFFFFFFFFFFFFFFF AND PUSH1 0x2 DUP3 DUP2 SLOAD DUP2 LT PUSH2 0x3E1 JUMPI PUSH2 0x3E0 PUSH2 0xAAE JUMP JUMPDEST JUMPDEST SWAP1 PUSH0 MSTORE PUSH1 0x20 PUSH0 KECCAK256 ADD PUSH0 SWAP1 SLOAD SWAP1 PUSH2 0x100 EXP SWAP1 DIV PUSH20 0xFFFFFFFFFFFFFFFFFFFFFFFFFFFFFFFFFFFFFFFF AND PUSH20 0xFFFFFFFFFFFFFFFFFFFFFFFFFFFFFFFFFFFFFFFF AND EQ DUP1 ISZERO PUSH2 0x46D JUMPI POP PUSH1 0x12 PUSH1 0x1 PUSH0 DUP6 PUSH20 0xFFFFFFFFFFFFFFFFFFFFFFFFFFFFFFFFFFFFFFFF AND PUSH20 0xFFFFFFFFFFFFFFFFFFFFFFFFFFFFFFFFFFFFFFFF AND DUP2 MSTORE PUSH1 0x20 ADD SWAP1 DUP2 MSTORE PUSH1 0x20 ADD PUSH0 KECCAK256 PUSH1 0x1 ADD SLOAD LT ISZERO JUMPDEST ISZERO PUSH2 0x47C JUMPI PUSH1 0x1 SWAP2 POP POP PUSH2 0x494 JUMP JUMPDEST DUP1 DUP1 PUSH2 0x487 SWAP1 PUSH2 0xDD1 JUMP JUMPDEST SWAP2 POP POP PUSH2 0x3A9 JUMP JUMPDEST PUSH0 SWAP2 POP POP JUMPDEST SWAP2 SWAP1 POP JUMP JUMPDEST PUSH2 0x4A1 PUSH2 0x5C3 JUMP JUMPDEST PUSH0 PUSH20 0xFFFFFFFFFFFFFFFFFFFFFFFFFFFFFFFFFFFFFFFF AND DUP2 PUSH20 0xFFFFFFFFFFFFFFFFFFFFFFFFFFFFFFFFFFFFFFFF AND SUB PUSH2 0x511 JUMPI PUSH0 PUSH1 0x40 MLOAD PUSH32 0x1E4FBDF700000000000000000000000000000000000000000000000000000000 DUP2 MSTORE PUSH1 0x4 ADD PUSH2 0x508 SWAP2 SWAP1 PUSH2 0x7C0 JUMP JUMPDEST PUSH1 0x40 MLOAD DUP1 SWAP2 SUB SWAP1 REVERT JUMPDEST PUSH2 0x51A DUP2 PUSH2 0x64A JUMP JUMPDEST POP JUMP JUMPDEST PUSH1 0x1 PUSH1 0x20 MSTORE DUP1 PUSH0 MSTORE PUSH1 0x40 PUSH0 KECCAK256 PUSH0 SWAP2 POP SWAP1 POP DUP1 PUSH0 ADD DUP1 SLOAD PUSH2 0x53C SWAP1 PUSH2 0xB08 JUMP JUMPDEST DUP1 PUSH1 0x1F ADD PUSH1 0x20 DUP1 SWAP2 DIV MUL PUSH1 0x20 ADD PUSH1 0x40 MLOAD SWAP1 DUP2 ADD PUSH1 0x40 MSTORE DUP1 SWAP3 SWAP2 SWAP1 DUP2 DUP2 MSTORE PUSH1 0x20 ADD DUP3 DUP1 SLOAD PUSH2 0x568 SWAP1 PUSH2 0xB08 JUMP JUMPDEST DUP1 ISZERO PUSH2 0x5B3 JUMPI DUP1 PUSH1 0x1F LT PUSH2 0x58A JUMPI PUSH2 0x100 DUP1 DUP4 SLOAD DIV MUL DUP4 MSTORE SWAP2 PUSH1 0x20 ADD SWAP2 PUSH2 0x5B3 JUMP JUMPDEST DUP3 ADD SWAP2 SWAP1 PUSH0 MSTORE PUSH1 0x20 PUSH0 KECCAK256 SWAP1 JUMPDEST DUP2 SLOAD DUP2 MSTORE SWAP1 PUSH1 0x1 ADD SWAP1 PUSH1 0x20 ADD DUP1 DUP4 GT PUSH2 0x596 JUMPI DUP3 SWAP1 SUB PUSH1 0x1F AND DUP3 ADD SWAP2 JUMPDEST POP POP POP POP POP SWAP1 DUP1 PUSH1 0x1 ADD SLOAD SWAP1 POP DUP3 JUMP JUMPDEST PUSH2 0x5CB PUSH2 0x70B JUMP JUMPDEST PUSH20 0xFFFFFFFFFFFFFFFFFFFFFFFFFFFFFFFFFFFFFFFF AND PUSH2 0x5E9 PUSH2 0x37C JUMP JUMPDEST PUSH20 0xFFFFFFFFFFFFFFFFFFFFFFFFFFFFFFFFFFFFFFFF AND EQ PUSH2 0x648 JUMPI PUSH2 0x60C PUSH2 0x70B JUMP JUMPDEST PUSH1 0x40 MLOAD PUSH32 0x118CDAA700000000000000000000000000000000000000000000000000000000 DUP2 MSTORE PUSH1 0x4 ADD PUSH2 0x63F SWAP2 SWAP1 PUSH2 0x7C0 JUMP JUMPDEST PUSH1 0x40 MLOAD DUP1 SWAP2 SUB SWAP1 REVERT JUMPDEST JUMP JUMPDEST PUSH0 DUP1 PUSH0 SWAP1 SLOAD SWAP1 PUSH2 0x100 EXP SWAP1 DIV PUSH20 0xFFFFFFFFFFFFFFFFFFFFFFFFFFFFFFFFFFFFFFFF AND SWAP1 POP DUP2 PUSH0 DUP1 PUSH2 0x100 EXP DUP2 SLOAD DUP2 PUSH20 0xFFFFFFFFFFFFFFFFFFFFFFFFFFFFFFFFFFFFFFFF MUL NOT AND SWAP1 DUP4 PUSH20 0xFFFFFFFFFFFFFFFFFFFFFFFFFFFFFFFFFFFFFFFF AND MUL OR SWAP1 SSTORE POP DUP2 PUSH20 0xFFFFFFFFFFFFFFFFFFFFFFFFFFFFFFFFFFFFFFFF AND DUP2 PUSH20 0xFFFFFFFFFFFFFFFFFFFFFFFFFFFFFFFFFFFFFFFF AND PUSH32 0x8BE0079C531659141344CD1FD0A4F28419497F9722A3DAAFE3B4186F6B6457E0 PUSH1 0x40 MLOAD PUSH1 0x40 MLOAD DUP1 SWAP2 SUB SWAP1 LOG3 POP POP JUMP JUMPDEST PUSH0 CALLER SWAP1 POP SWAP1 JUMP JUMPDEST PUSH0 PUSH1 0x40 MLOAD SWAP1 POP SWAP1 JUMP JUMPDEST PUSH0 DUP1 REVERT JUMPDEST PUSH0 DUP1 REVERT JUMPDEST PUSH0 DUP2 SWAP1 POP SWAP2 SWAP1 POP JUMP JUMPDEST PUSH2 0x735 DUP2 PUSH2 0x723 JUMP JUMPDEST DUP2 EQ PUSH2 0x73F JUMPI PUSH0 DUP1 REVERT JUMPDEST POP JUMP JUMPDEST PUSH0 DUP2 CALLDATALOAD SWAP1 POP PUSH2 0x750 DUP2 PUSH2 0x72C JUMP JUMPDEST SWAP3 SWAP2 POP POP JUMP JUMPDEST PUSH0 PUSH1 0x20 DUP3 DUP5 SUB SLT ISZERO PUSH2 0x76B JUMPI PUSH2 0x76A PUSH2 0x71B JUMP JUMPDEST JUMPDEST PUSH0 PUSH2 0x778 DUP5 DUP3 DUP6 ADD PUSH2 0x742 JUMP JUMPDEST SWAP2 POP POP SWAP3 SWAP2 POP POP JUMP JUMPDEST PUSH0 PUSH20 0xFFFFFFFFFFFFFFFFFFFFFFFFFFFFFFFFFFFFFFFF DUP3 AND SWAP1 POP SWAP2 SWAP1 POP JUMP JUMPDEST PUSH0 PUSH2 0x7AA DUP3 PUSH2 0x781 JUMP JUMPDEST SWAP1 POP SWAP2 SWAP1 POP JUMP JUMPDEST PUSH2 0x7BA DUP2 PUSH2 0x7A0 JUMP JUMPDEST DUP3 MSTORE POP POP JUMP JUMPDEST PUSH0 PUSH1 0x20 DUP3 ADD SWAP1 POP PUSH2 0x7D3 PUSH0 DUP4 ADD DUP5 PUSH2 0x7B1 JUMP JUMPDEST SWAP3 SWAP2 POP POP JUMP JUMPDEST PUSH2 0x7E2 DUP2 PUSH2 0x7A0 JUMP JUMPDEST DUP2 EQ PUSH2 0x7EC JUMPI PUSH0 DUP1 REVERT JUMPDEST POP JUMP JUMPDEST PUSH0 DUP2 CALLDATALOAD SWAP1 POP PUSH2 0x7FD DUP2 PUSH2 0x7D9 JUMP JUMPDEST SWAP3 SWAP2 POP POP JUMP JUMPDEST PUSH0 PUSH1 0x20 DUP3 DUP5 SUB SLT ISZERO PUSH2 0x818 JUMPI PUSH2 0x817 PUSH2 0x71B JUMP JUMPDEST JUMPDEST PUSH0 PUSH2 0x825 DUP5 DUP3 DUP6 ADD PUSH2 0x7EF JUMP JUMPDEST SWAP2 POP POP SWAP3 SWAP2 POP POP JUMP JUMPDEST PUSH0 DUP2 ISZERO ISZERO SWAP1 POP SWAP2 SWAP1 POP JUMP JUMPDEST PUSH2 0x842 DUP2 PUSH2 0x82E JUMP JUMPDEST DUP3 MSTORE POP POP JUMP JUMPDEST PUSH0 PUSH1 0x20 DUP3 ADD SWAP1 POP PUSH2 0x85B PUSH0 DUP4 ADD DUP5 PUSH2 0x839 JUMP JUMPDEST SWAP3 SWAP2 POP POP JUMP JUMPDEST PUSH0 DUP1 REVERT JUMPDEST PUSH0 DUP1 REVERT JUMPDEST PUSH0 PUSH1 0x1F NOT PUSH1 0x1F DUP4 ADD AND SWAP1 POP SWAP2 SWAP1 POP JUMP JUMPDEST PUSH32 0x4E487B7100000000000000000000000000000000000000000000000000000000 PUSH0 MSTORE PUSH1 0x41 PUSH1 0x4 MSTORE PUSH1 0x24 PUSH0 REVERT JUMPDEST PUSH2 0x8AF DUP3 PUSH2 0x869 JUMP JUMPDEST DUP2 ADD DUP2 DUP2 LT PUSH8 0xFFFFFFFFFFFFFFFF DUP3 GT OR ISZERO PUSH2 0x8CE JUMPI PUSH2 0x8CD PUSH2 0x879 JUMP JUMPDEST JUMPDEST DUP1 PUSH1 0x40 MSTORE POP POP POP JUMP JUMPDEST PUSH0 PUSH2 0x8E0 PUSH2 0x712 JUMP JUMPDEST SWAP1 POP PUSH2 0x8EC DUP3 DUP3 PUSH2 0x8A6 JUMP JUMPDEST SWAP2 SWAP1 POP JUMP JUMPDEST PUSH0 PUSH8 0xFFFFFFFFFFFFFFFF DUP3 GT ISZERO PUSH2 0x90B JUMPI PUSH2 0x90A PUSH2 0x879 JUMP JUMPDEST JUMPDEST PUSH2 0x914 DUP3 PUSH2 0x869 JUMP JUMPDEST SWAP1 POP PUSH1 0x20 DUP2 ADD SWAP1 POP SWAP2 SWAP1 POP JUMP JUMPDEST DUP3 DUP2 DUP4 CALLDATACOPY PUSH0 DUP4 DUP4 ADD MSTORE POP POP POP JUMP JUMPDEST PUSH0 PUSH2 0x941 PUSH2 0x93C DUP5 PUSH2 0x8F1 JUMP JUMPDEST PUSH2 0x8D7 JUMP JUMPDEST SWAP1 POP DUP3 DUP2 MSTORE PUSH1 0x20 DUP2 ADD DUP5 DUP5 DUP5 ADD GT ISZERO PUSH2 0x95D JUMPI PUSH2 0x95C PUSH2 0x865 JUMP JUMPDEST JUMPDEST PUSH2 0x968 DUP5 DUP3 DUP6 PUSH2 0x921 JUMP JUMPDEST POP SWAP4 SWAP3 POP POP POP JUMP JUMPDEST PUSH0 DUP3 PUSH1 0x1F DUP4 ADD SLT PUSH2 0x984 JUMPI PUSH2 0x983 PUSH2 0x861 JUMP JUMPDEST JUMPDEST DUP2 CALLDATALOAD PUSH2 0x994 DUP5 DUP3 PUSH1 0x20 DUP7 ADD PUSH2 0x92F JUMP JUMPDEST SWAP2 POP POP SWAP3 SWAP2 POP POP JUMP JUMPDEST PUSH0 DUP1 PUSH1 0x40 DUP4 DUP6 SUB SLT ISZERO PUSH2 0x9B3 JUMPI PUSH2 0x9B2 PUSH2 0x71B JUMP JUMPDEST JUMPDEST PUSH0 DUP4 ADD CALLDATALOAD PUSH8 0xFFFFFFFFFFFFFFFF DUP2 GT ISZERO PUSH2 0x9D0 JUMPI PUSH2 0x9CF PUSH2 0x71F JUMP JUMPDEST JUMPDEST PUSH2 0x9DC DUP6 DUP3 DUP7 ADD PUSH2 0x970 JUMP JUMPDEST SWAP3 POP POP PUSH1 0x20 PUSH2 0x9ED DUP6 DUP3 DUP7 ADD PUSH2 0x742 JUMP JUMPDEST SWAP2 POP POP SWAP3 POP SWAP3 SWAP1 POP JUMP JUMPDEST PUSH0 DUP2 MLOAD SWAP1 POP SWAP2 SWAP1 POP JUMP JUMPDEST PUSH0 DUP3 DUP3 MSTORE PUSH1 0x20 DUP3 ADD SWAP1 POP SWAP3 SWAP2 POP POP JUMP JUMPDEST PUSH0 JUMPDEST DUP4 DUP2 LT ISZERO PUSH2 0xA2E JUMPI DUP1 DUP3 ADD MLOAD DUP2 DUP5 ADD MSTORE PUSH1 0x20 DUP2 ADD SWAP1 POP PUSH2 0xA13 JUMP JUMPDEST PUSH0 DUP5 DUP5 ADD MSTORE POP POP POP POP JUMP JUMPDEST PUSH0 PUSH2 0xA43 DUP3 PUSH2 0x9F7 JUMP JUMPDEST PUSH2 0xA4D DUP2 DUP6 PUSH2 0xA01 JUMP JUMPDEST SWAP4 POP PUSH2 0xA5D DUP2 DUP6 PUSH1 0x20 DUP7 ADD PUSH2 0xA11 JUMP JUMPDEST PUSH2 0xA66 DUP2 PUSH2 0x869 JUMP JUMPDEST DUP5 ADD SWAP2 POP POP SWAP3 SWAP2 POP POP JUMP JUMPDEST PUSH2 0xA7A DUP2 PUSH2 0x723 JUMP JUMPDEST DUP3 MSTORE POP POP JUMP JUMPDEST PUSH0 PUSH1 0x40 DUP3 ADD SWAP1 POP DUP2 DUP2 SUB PUSH0 DUP4 ADD MSTORE PUSH2 0xA98 DUP2 DUP6 PUSH2 0xA39 JUMP JUMPDEST SWAP1 POP PUSH2 0xAA7 PUSH1 0x20 DUP4 ADD DUP5 PUSH2 0xA71 JUMP JUMPDEST SWAP4 SWAP3 POP POP POP JUMP JUMPDEST PUSH32 0x4E487B7100000000000000000000000000000000000000000000000000000000 PUSH0 MSTORE PUSH1 0x32 PUSH1 0x4 MSTORE PUSH1 0x24 PUSH0 REVERT JUMPDEST PUSH32 0x4E487B7100000000000000000000000000000000000000000000000000000000 PUSH0 MSTORE PUSH1 0x22 PUSH1 0x4 MSTORE PUSH1 0x24 PUSH0 REVERT JUMPDEST PUSH0 PUSH1 0x2 DUP3 DIV SWAP1 POP PUSH1 0x1 DUP3 AND DUP1 PUSH2 0xB1F JUMPI PUSH1 0x7F DUP3 AND SWAP2 POP JUMPDEST PUSH1 0x20 DUP3 LT DUP2 SUB PUSH2 0xB32 JUMPI PUSH2 0xB31 PUSH2 0xADB JUMP JUMPDEST JUMPDEST POP SWAP2 SWAP1 POP JUMP JUMPDEST PUSH0 DUP2 SWAP1 POP DUP2 PUSH0 MSTORE PUSH1 0x20 PUSH0 KECCAK256 SWAP1 POP SWAP2 SWAP1 POP JUMP JUMPDEST PUSH0 PUSH1 0x20 PUSH1 0x1F DUP4 ADD DIV SWAP1 POP SWAP2 SWAP1 POP JUMP JUMPDEST PUSH0 DUP3 DUP3 SHL SWAP1 POP SWAP3 SWAP2 POP POP JUMP JUMPDEST PUSH0 PUSH1 0x8 DUP4 MUL PUSH2 0xB94 PUSH32 0xFFFFFFFFFFFFFFFFFFFFFFFFFFFFFFFFFFFFFFFFFFFFFFFFFFFFFFFFFFFFFFFF DUP3 PUSH2 0xB59 JUMP JUMPDEST PUSH2 0xB9E DUP7 DUP4 PUSH2 0xB59 JUMP JUMPDEST SWAP6 POP DUP1 NOT DUP5 AND SWAP4 POP DUP1 DUP7 AND DUP5 OR SWAP3 POP POP POP SWAP4 SWAP3 POP POP POP JUMP JUMPDEST PUSH0 DUP2 SWAP1 POP SWAP2 SWAP1 POP JUMP JUMPDEST PUSH0 PUSH2 0xBD9 PUSH2 0xBD4 PUSH2 0xBCF DUP5 PUSH2 0x723 JUMP JUMPDEST PUSH2 0xBB6 JUMP JUMPDEST PUSH2 0x723 JUMP JUMPDEST SWAP1 POP SWAP2 SWAP1 POP JUMP JUMPDEST PUSH0 DUP2 SWAP1 POP SWAP2 SWAP1 POP JUMP JUMPDEST PUSH2 0xBF2 DUP4 PUSH2 0xBBF JUMP JUMPDEST PUSH2 0xC06 PUSH2 0xBFE DUP3 PUSH2 0xBE0 JUMP JUMPDEST DUP5 DUP5 SLOAD PUSH2 0xB65 JUMP JUMPDEST DUP3 SSTORE POP POP POP POP JUMP JUMPDEST PUSH0 SWAP1 JUMP JUMPDEST PUSH2 0xC1A PUSH2 0xC0E JUMP JUMPDEST PUSH2 0xC25 DUP2 DUP5 DUP5 PUSH2 0xBE9 JUMP JUMPDEST POP POP POP JUMP JUMPDEST JUMPDEST DUP2 DUP2 LT ISZERO PUSH2 0xC48 JUMPI PUSH2 0xC3D PUSH0 DUP3 PUSH2 0xC12 JUMP JUMPDEST PUSH1 0x1 DUP2 ADD SWAP1 POP PUSH2 0xC2B JUMP JUMPDEST POP POP JUMP JUMPDEST PUSH1 0x1F DUP3 GT ISZERO PUSH2 0xC8D JUMPI PUSH2 0xC5E DUP2 PUSH2 0xB38 JUMP JUMPDEST PUSH2 0xC67 DUP5 PUSH2 0xB4A JUMP JUMPDEST DUP2 ADD PUSH1 0x20 DUP6 LT ISZERO PUSH2 0xC76 JUMPI DUP2 SWAP1 POP JUMPDEST PUSH2 0xC8A PUSH2 0xC82 DUP6 PUSH2 0xB4A JUMP JUMPDEST DUP4 ADD DUP3 PUSH2 0xC2A JUMP JUMPDEST POP POP JUMPDEST POP POP POP JUMP JUMPDEST PUSH0 DUP3 DUP3 SHR SWAP1 POP SWAP3 SWAP2 POP POP JUMP JUMPDEST PUSH0 PUSH2 0xCAD PUSH0 NOT DUP5 PUSH1 0x8 MUL PUSH2 0xC92 JUMP JUMPDEST NOT DUP1 DUP4 AND SWAP2 POP POP SWAP3 SWAP2 POP POP JUMP JUMPDEST PUSH0 PUSH2 0xCC5 DUP4 DUP4 PUSH2 0xC9E JUMP JUMPDEST SWAP2 POP DUP3 PUSH1 0x2 MUL DUP3 OR SWAP1 POP SWAP3 SWAP2 POP POP JUMP JUMPDEST PUSH2 0xCDE DUP3 PUSH2 0x9F7 JUMP JUMPDEST PUSH8 0xFFFFFFFFFFFFFFFF DUP2 GT ISZERO PUSH2 0xCF7 JUMPI PUSH2 0xCF6 PUSH2 0x879 JUMP JUMPDEST JUMPDEST PUSH2 0xD01 DUP3 SLOAD PUSH2 0xB08 JUMP JUMPDEST PUSH2 0xD0C DUP3 DUP3 DUP6 PUSH2 0xC4C JUMP JUMPDEST PUSH0 PUSH1 0x20 SWAP1 POP PUSH1 0x1F DUP4 GT PUSH1 0x1 DUP2 EQ PUSH2 0xD3D JUMPI PUSH0 DUP5 ISZERO PUSH2 0xD2B JUMPI DUP3 DUP8 ADD MLOAD SWAP1 POP JUMPDEST PUSH2 0xD35 DUP6 DUP3 PUSH2 0xCBA JUMP JUMPDEST DUP7 SSTORE POP PUSH2 0xD9C JUMP JUMPDEST PUSH1 0x1F NOT DUP5 AND PUSH2 0xD4B DUP7 PUSH2 0xB38 JUMP JUMPDEST PUSH0 JUMPDEST DUP3 DUP2 LT ISZERO PUSH2 0xD72 JUMPI DUP5 DUP10 ADD MLOAD DUP3 SSTORE PUSH1 0x1 DUP3 ADD SWAP2 POP PUSH1 0x20 DUP6 ADD SWAP5 POP PUSH1 0x20 DUP2 ADD SWAP1 POP PUSH2 0xD4D JUMP JUMPDEST DUP7 DUP4 LT ISZERO PUSH2 0xD8F JUMPI DUP5 DUP10 ADD MLOAD PUSH2 0xD8B PUSH1 0x1F DUP10 AND DUP3 PUSH2 0xC9E JUMP JUMPDEST DUP4 SSTORE POP JUMPDEST PUSH1 0x1 PUSH1 0x2 DUP9 MUL ADD DUP9 SSTORE POP POP POP JUMPDEST POP POP POP POP POP POP JUMP JUMPDEST PUSH32 0x4E487B7100000000000000000000000000000000000000000000000000000000 PUSH0 MSTORE PUSH1 0x11 PUSH1 0x4 MSTORE PUSH1 0x24 PUSH0 REVERT JUMPDEST PUSH0 PUSH2 0xDDB DUP3 PUSH2 0x723 JUMP JUMPDEST SWAP2 POP PUSH32 0xFFFFFFFFFFFFFFFFFFFFFFFFFFFFFFFFFFFFFFFFFFFFFFFFFFFFFFFFFFFFFFFF DUP3 SUB PUSH2 0xE0D JUMPI PUSH2 0xE0C PUSH2 0xDA4 JUMP JUMPDEST JUMPDEST PUSH1 0x1 DUP3 ADD SWAP1 POP SWAP2 SWAP1 POP JUMP INVALID LOG2 PUSH5 0x6970667358 0x22 SLT KECCAK256 GASPRICE PUSH26 0xB0B1E290897C12D524AF7D110170D56F5045A4277F659CB7E00 DUP8 CALL OR 0xDA PUSH5 0x736F6C6343 STOP ADDMOD AND STOP CALLER "
				},
				"gasEstimates": {
					"creation": {
						"codeDepositCost": "732400",
						"executionCost": "infinite",
						"totalCost": "infinite"
					},
					"external": {
						"addPerson(string,uint256)": "infinite",
						"checkParticipant(address)": "infinite",
						"isAdult(address)": "infinite",
						"owner()": "2515",
						"participants(uint256)": "4945",
						"personInfo(address)": "infinite",
						"renounceOwnership()": "infinite",
						"transferOwnership(address)": "infinite"
					}
				},
				"methodIdentifiers": {
					"addPerson(string,uint256)": "6f760f41",
					"checkParticipant(address)": "5b573186",
					"isAdult(address)": "eb13ec86",
					"owner()": "8da5cb5b",
					"participants(uint256)": "35c1d349",
					"personInfo(address)": "fb113db1",
					"renounceOwnership()": "715018a6",
					"transferOwnership(address)": "f2fde38b"
				}
			},
			"storageLayout": {
				"storage": [
					{
						"astId": 8,
						"contract": "solidity-fundamentals/contracts/ExampleContract.sol:ExampleContract",
						"label": "_owner",
						"offset": 0,
						"slot": "0",
						"type": "t_address"
					},
					{
						"astId": 201,
						"contract": "solidity-fundamentals/contracts/ExampleContract.sol:ExampleContract",
						"label": "personInfo",
						"offset": 0,
						"slot": "1",
						"type": "t_mapping(t_address,t_struct(Person)196_storage)"
					},
					{
						"astId": 204,
						"contract": "solidity-fundamentals/contracts/ExampleContract.sol:ExampleContract",
						"label": "participants",
						"offset": 0,
						"slot": "2",
						"type": "t_array(t_address)dyn_storage"
					}
				],
				"types": {
					"t_address": {
						"encoding": "inplace",
						"label": "address",
						"numberOfBytes": "20"
					},
					"t_array(t_address)dyn_storage": {
						"base": "t_address",
						"encoding": "dynamic_array",
						"label": "address[]",
						"numberOfBytes": "32"
					},
					"t_mapping(t_address,t_struct(Person)196_storage)": {
						"encoding": "mapping",
						"key": "t_address",
						"label": "mapping(address => struct ExampleContract.Person)",
						"numberOfBytes": "32",
						"value": "t_struct(Person)196_storage"
					},
					"t_string_storage": {
						"encoding": "bytes",
						"label": "string",
						"numberOfBytes": "32"
					},
					"t_struct(Person)196_storage": {
						"encoding": "inplace",
						"label": "struct ExampleContract.Person",
						"members": [
							{
								"astId": 193,
								"contract": "solidity-fundamentals/contracts/ExampleContract.sol:ExampleContract",
								"label": "name",
								"offset": 0,
								"slot": "0",
								"type": "t_string_storage"
							},
							{
								"astId": 195,
								"contract": "solidity-fundamentals/contracts/ExampleContract.sol:ExampleContract",
								"label": "age",
								"offset": 0,
								"slot": "1",
								"type": "t_uint256"
							}
						],
						"numberOfBytes": "64"
					},
					"t_uint256": {
						"encoding": "inplace",
						"label": "uint256",
						"numberOfBytes": "32"
					}
				}
			},
			"userdoc": {
				"kind": "user",
				"methods": {},
				"version": 1
			}
		}
	}
}