{
	"solidity-fundamentals/contracts/TokenBasedVoting.sol": {
		"Voting": {
			"abi": [
				{
					"inputs": [
						{
							"internalType": "address",
							"name": "_tokenAddress",
							"type": "address"
						}
					],
					"stateMutability": "nonpayable",
					"type": "constructor"
				},
				{
					"anonymous": false,
					"inputs": [
						{
							"indexed": false,
							"internalType": "address",
							"name": "voter",
							"type": "address"
						},
						{
							"indexed": false,
							"internalType": "enum Voting.Candidate",
							"name": "candidate",
							"type": "uint8"
						}
					],
					"name": "VoteCast",
					"type": "event"
				},
				{
					"inputs": [],
					"name": "displayResults",
					"outputs": [
						{
							"internalType": "uint256",
							"name": "bawumia",
							"type": "uint256"
						},
						{
							"internalType": "uint256",
							"name": "mahama",
							"type": "uint256"
						}
					],
					"stateMutability": "view",
					"type": "function"
				},
				{
					"inputs": [],
					"name": "owner",
					"outputs": [
						{
							"internalType": "address",
							"name": "",
							"type": "address"
						}
					],
					"stateMutability": "view",
					"type": "function"
				},
				{
					"inputs": [],
					"name": "tokenContract",
					"outputs": [
						{
							"internalType": "contract Token",
							"name": "",
							"type": "address"
						}
					],
					"stateMutability": "view",
					"type": "function"
				},
				{
					"inputs": [
						{
							"internalType": "enum Voting.Candidate",
							"name": "_candidate",
							"type": "uint8"
						}
					],
					"name": "vote",
					"outputs": [],
					"stateMutability": "nonpayable",
					"type": "function"
				},
				{
					"inputs": [
						{
							"internalType": "address",
							"name": "",
							"type": "address"
						}
					],
					"name": "votes",
					"outputs": [
						{
							"internalType": "uint256",
							"name": "",
							"type": "uint256"
						}
					],
					"stateMutability": "view",
					"type": "function"
				},
				{
					"inputs": [
						{
							"internalType": "enum Voting.Candidate",
							"name": "",
							"type": "uint8"
						}
					],
					"name": "votingResults",
					"outputs": [
						{
							"internalType": "uint256",
							"name": "",
							"type": "uint256"
						}
					],
					"stateMutability": "view",
					"type": "function"
				}
			],
			"devdoc": {
				"kind": "dev",
				"methods": {},
				"version": 1
			},
			"evm": {
				"assembly": "    /* \"solidity-fundamentals/contracts/TokenBasedVoting.sol\":431:1388  contract Voting {... */\n  mstore(0x40, 0x80)\n    /* \"solidity-fundamentals/contracts/TokenBasedVoting.sol\":712:828  constructor(address _tokenAddress) {... */\n  callvalue\n  dup1\n  iszero\n  tag_1\n  jumpi\n  0x00\n  dup1\n  revert\ntag_1:\n  pop\n  mload(0x40)\n  sub(codesize, bytecodeSize)\n  dup1\n  bytecodeSize\n  dup4\n  codecopy\n  dup2\n  dup2\n  add\n  0x40\n  mstore\n  dup2\n  add\n  swap1\n  tag_2\n  swap2\n  swap1\n  tag_3\n  jump\t// in\ntag_2:\n    /* \"solidity-fundamentals/contracts/TokenBasedVoting.sol\":779:792  _tokenAddress */\n  dup1\n    /* \"solidity-fundamentals/contracts/TokenBasedVoting.sol\":757:770  tokenContract */\n  0x00\n  dup1\n    /* \"solidity-fundamentals/contracts/TokenBasedVoting.sol\":757:793  tokenContract = Token(_tokenAddress) */\n  0x0100\n  exp\n  dup2\n  sload\n  dup2\n  0xffffffffffffffffffffffffffffffffffffffff\n  mul\n  not\n  and\n  swap1\n  dup4\n  0xffffffffffffffffffffffffffffffffffffffff\n  and\n  mul\n  or\n  swap1\n  sstore\n  pop\n    /* \"solidity-fundamentals/contracts/TokenBasedVoting.sol\":811:821  msg.sender */\n  caller\n    /* \"solidity-fundamentals/contracts/TokenBasedVoting.sol\":803:808  owner */\n  0x01\n  0x00\n    /* \"solidity-fundamentals/contracts/TokenBasedVoting.sol\":803:821  owner = msg.sender */\n  0x0100\n  exp\n  dup2\n  sload\n  dup2\n  0xffffffffffffffffffffffffffffffffffffffff\n  mul\n  not\n  and\n  swap1\n  dup4\n  0xffffffffffffffffffffffffffffffffffffffff\n  and\n  mul\n  or\n  swap1\n  sstore\n  pop\n    /* \"solidity-fundamentals/contracts/TokenBasedVoting.sol\":712:828  constructor(address _tokenAddress) {... */\n  pop\n    /* \"solidity-fundamentals/contracts/TokenBasedVoting.sol\":431:1388  contract Voting {... */\n  jump(tag_6)\n    /* \"#utility.yul\":88:205   */\ntag_8:\n    /* \"#utility.yul\":197:198   */\n  0x00\n    /* \"#utility.yul\":194:195   */\n  dup1\n    /* \"#utility.yul\":187:199   */\n  revert\n    /* \"#utility.yul\":334:460   */\ntag_10:\n    /* \"#utility.yul\":371:378   */\n  0x00\n    /* \"#utility.yul\":411:453   */\n  0xffffffffffffffffffffffffffffffffffffffff\n    /* \"#utility.yul\":404:409   */\n  dup3\n    /* \"#utility.yul\":400:454   */\n  and\n    /* \"#utility.yul\":389:454   */\n  swap1\n  pop\n    /* \"#utility.yul\":334:460   */\n  swap2\n  swap1\n  pop\n  jump\t// out\n    /* \"#utility.yul\":466:562   */\ntag_11:\n    /* \"#utility.yul\":503:510   */\n  0x00\n    /* \"#utility.yul\":532:556   */\n  tag_20\n    /* \"#utility.yul\":550:555   */\n  dup3\n    /* \"#utility.yul\":532:556   */\n  tag_10\n  jump\t// in\ntag_20:\n    /* \"#utility.yul\":521:556   */\n  swap1\n  pop\n    /* \"#utility.yul\":466:562   */\n  swap2\n  swap1\n  pop\n  jump\t// out\n    /* \"#utility.yul\":568:690   */\ntag_12:\n    /* \"#utility.yul\":641:665   */\n  tag_22\n    /* \"#utility.yul\":659:664   */\n  dup2\n    /* \"#utility.yul\":641:665   */\n  tag_11\n  jump\t// in\ntag_22:\n    /* \"#utility.yul\":634:639   */\n  dup2\n    /* \"#utility.yul\":631:666   */\n  eq\n    /* \"#utility.yul\":621:684   */\n  tag_23\n  jumpi\n    /* \"#utility.yul\":680:681   */\n  0x00\n    /* \"#utility.yul\":677:678   */\n  dup1\n    /* \"#utility.yul\":670:682   */\n  revert\n    /* \"#utility.yul\":621:684   */\ntag_23:\n    /* \"#utility.yul\":568:690   */\n  pop\n  jump\t// out\n    /* \"#utility.yul\":696:839   */\ntag_13:\n    /* \"#utility.yul\":753:758   */\n  0x00\n    /* \"#utility.yul\":784:790   */\n  dup2\n    /* \"#utility.yul\":778:791   */\n  mload\n    /* \"#utility.yul\":769:791   */\n  swap1\n  pop\n    /* \"#utility.yul\":800:833   */\n  tag_25\n    /* \"#utility.yul\":827:832   */\n  dup2\n    /* \"#utility.yul\":800:833   */\n  tag_12\n  jump\t// in\ntag_25:\n    /* \"#utility.yul\":696:839   */\n  swap3\n  swap2\n  pop\n  pop\n  jump\t// out\n    /* \"#utility.yul\":845:1196   */\ntag_3:\n    /* \"#utility.yul\":915:921   */\n  0x00\n    /* \"#utility.yul\":964:966   */\n  0x20\n    /* \"#utility.yul\":952:961   */\n  dup3\n    /* \"#utility.yul\":943:950   */\n  dup5\n    /* \"#utility.yul\":939:962   */\n  sub\n    /* \"#utility.yul\":935:967   */\n  slt\n    /* \"#utility.yul\":932:1051   */\n  iszero\n  tag_27\n  jumpi\n    /* \"#utility.yul\":970:1049   */\n  tag_28\n  tag_8\n  jump\t// in\ntag_28:\n    /* \"#utility.yul\":932:1051   */\ntag_27:\n    /* \"#utility.yul\":1090:1091   */\n  0x00\n    /* \"#utility.yul\":1115:1179   */\n  tag_29\n    /* \"#utility.yul\":1171:1178   */\n  dup5\n    /* \"#utility.yul\":1162:1168   */\n  dup3\n    /* \"#utility.yul\":1151:1160   */\n  dup6\n    /* \"#utility.yul\":1147:1169   */\n  add\n    /* \"#utility.yul\":1115:1179   */\n  tag_13\n  jump\t// in\ntag_29:\n    /* \"#utility.yul\":1105:1179   */\n  swap2\n  pop\n    /* \"#utility.yul\":1061:1189   */\n  pop\n    /* \"#utility.yul\":845:1196   */\n  swap3\n  swap2\n  pop\n  pop\n  jump\t// out\n    /* \"solidity-fundamentals/contracts/TokenBasedVoting.sol\":431:1388  contract Voting {... */\ntag_6:\n  dataSize(sub_0)\n  dup1\n  dataOffset(sub_0)\n  0x00\n  codecopy\n  0x00\n  return\nstop\n\nsub_0: assembly {\n        /* \"solidity-fundamentals/contracts/TokenBasedVoting.sol\":431:1388  contract Voting {... */\n      mstore(0x40, 0x80)\n      callvalue\n      dup1\n      iszero\n      tag_1\n      jumpi\n      0x00\n      dup1\n      revert\n    tag_1:\n      pop\n      jumpi(tag_2, lt(calldatasize, 0x04))\n      shr(0xe0, calldataload(0x00))\n      dup1\n      0x0aec8360\n      eq\n      tag_3\n      jumpi\n      dup1\n      0x36c6fb72\n      eq\n      tag_4\n      jumpi\n      dup1\n      0x55a373d6\n      eq\n      tag_5\n      jumpi\n      dup1\n      0x8da5cb5b\n      eq\n      tag_6\n      jumpi\n      dup1\n      0xb3f98adc\n      eq\n      tag_7\n      jumpi\n      dup1\n      0xd8bff5a5\n      eq\n      tag_8\n      jumpi\n    tag_2:\n      0x00\n      dup1\n      revert\n        /* \"solidity-fundamentals/contracts/TokenBasedVoting.sol\":1196:1385  function displayResults() public view returns (uint256 bawumia, uint256 mahama) {... */\n    tag_3:\n      tag_9\n      tag_10\n      jump\t// in\n    tag_9:\n      mload(0x40)\n      tag_11\n      swap3\n      swap2\n      swap1\n      tag_12\n      jump\t// in\n    tag_11:\n      mload(0x40)\n      dup1\n      swap2\n      sub\n      swap1\n      return\n        /* \"solidity-fundamentals/contracts/TokenBasedVoting.sol\":598:648  mapping(Candidate => uint256) public votingResults */\n    tag_4:\n      tag_13\n      0x04\n      dup1\n      calldatasize\n      sub\n      dup2\n      add\n      swap1\n      tag_14\n      swap2\n      swap1\n      tag_15\n      jump\t// in\n    tag_14:\n      tag_16\n      jump\t// in\n    tag_13:\n      mload(0x40)\n      tag_17\n      swap2\n      swap1\n      tag_18\n      jump\t// in\n    tag_17:\n      mload(0x40)\n      dup1\n      swap2\n      sub\n      swap1\n      return\n        /* \"solidity-fundamentals/contracts/TokenBasedVoting.sol\":453:479  Token public tokenContract */\n    tag_5:\n      tag_19\n      tag_20\n      jump\t// in\n    tag_19:\n      mload(0x40)\n      tag_21\n      swap2\n      swap1\n      tag_22\n      jump\t// in\n    tag_21:\n      mload(0x40)\n      dup1\n      swap2\n      sub\n      swap1\n      return\n        /* \"solidity-fundamentals/contracts/TokenBasedVoting.sol\":485:505  address public owner */\n    tag_6:\n      tag_23\n      tag_24\n      jump\t// in\n    tag_23:\n      mload(0x40)\n      tag_25\n      swap2\n      swap1\n      tag_26\n      jump\t// in\n    tag_25:\n      mload(0x40)\n      dup1\n      swap2\n      sub\n      swap1\n      return\n        /* \"solidity-fundamentals/contracts/TokenBasedVoting.sol\":834:1190  function vote(Candidate _candidate) public {... */\n    tag_7:\n      tag_27\n      0x04\n      dup1\n      calldatasize\n      sub\n      dup2\n      add\n      swap1\n      tag_28\n      swap2\n      swap1\n      tag_15\n      jump\t// in\n    tag_28:\n      tag_29\n      jump\t// in\n    tag_27:\n      stop\n        /* \"solidity-fundamentals/contracts/TokenBasedVoting.sol\":552:592  mapping(address => uint256) public votes */\n    tag_8:\n      tag_30\n      0x04\n      dup1\n      calldatasize\n      sub\n      dup2\n      add\n      swap1\n      tag_31\n      swap2\n      swap1\n      tag_32\n      jump\t// in\n    tag_31:\n      tag_33\n      jump\t// in\n    tag_30:\n      mload(0x40)\n      tag_34\n      swap2\n      swap1\n      tag_18\n      jump\t// in\n    tag_34:\n      mload(0x40)\n      dup1\n      swap2\n      sub\n      swap1\n      return\n        /* \"solidity-fundamentals/contracts/TokenBasedVoting.sol\":1196:1385  function displayResults() public view returns (uint256 bawumia, uint256 mahama) {... */\n    tag_10:\n        /* \"solidity-fundamentals/contracts/TokenBasedVoting.sol\":1243:1258  uint256 bawumia */\n      0x00\n        /* \"solidity-fundamentals/contracts/TokenBasedVoting.sol\":1260:1274  uint256 mahama */\n      dup1\n        /* \"solidity-fundamentals/contracts/TokenBasedVoting.sol\":1296:1309  votingResults */\n      0x03\n        /* \"solidity-fundamentals/contracts/TokenBasedVoting.sol\":1296:1328  votingResults[Candidate.Bawumia] */\n      0x00\n        /* \"solidity-fundamentals/contracts/TokenBasedVoting.sol\":1310:1327  Candidate.Bawumia */\n      dup1\n        /* \"solidity-fundamentals/contracts/TokenBasedVoting.sol\":1296:1328  votingResults[Candidate.Bawumia] */\n      0x01\n      dup2\n      gt\n      iszero\n      tag_36\n      jumpi\n      tag_37\n      tag_38\n      jump\t// in\n    tag_37:\n    tag_36:\n      0x01\n      dup2\n      gt\n      iszero\n      tag_39\n      jumpi\n      tag_40\n      tag_38\n      jump\t// in\n    tag_40:\n    tag_39:\n      dup2\n      mstore\n      0x20\n      add\n      swap1\n      dup2\n      mstore\n      0x20\n      add\n      0x00\n      keccak256\n      sload\n        /* \"solidity-fundamentals/contracts/TokenBasedVoting.sol\":1286:1328  bawumia = votingResults[Candidate.Bawumia] */\n      swap2\n      pop\n        /* \"solidity-fundamentals/contracts/TokenBasedVoting.sol\":1347:1360  votingResults */\n      0x03\n        /* \"solidity-fundamentals/contracts/TokenBasedVoting.sol\":1347:1378  votingResults[Candidate.Mahama] */\n      0x00\n        /* \"solidity-fundamentals/contracts/TokenBasedVoting.sol\":1361:1377  Candidate.Mahama */\n      0x01\n        /* \"solidity-fundamentals/contracts/TokenBasedVoting.sol\":1347:1378  votingResults[Candidate.Mahama] */\n      dup1\n      dup2\n      gt\n      iszero\n      tag_41\n      jumpi\n      tag_42\n      tag_38\n      jump\t// in\n    tag_42:\n    tag_41:\n      0x01\n      dup2\n      gt\n      iszero\n      tag_43\n      jumpi\n      tag_44\n      tag_38\n      jump\t// in\n    tag_44:\n    tag_43:\n      dup2\n      mstore\n      0x20\n      add\n      swap1\n      dup2\n      mstore\n      0x20\n      add\n      0x00\n      keccak256\n      sload\n        /* \"solidity-fundamentals/contracts/TokenBasedVoting.sol\":1338:1378  mahama = votingResults[Candidate.Mahama] */\n      swap1\n      pop\n        /* \"solidity-fundamentals/contracts/TokenBasedVoting.sol\":1196:1385  function displayResults() public view returns (uint256 bawumia, uint256 mahama) {... */\n      swap1\n      swap2\n      jump\t// out\n        /* \"solidity-fundamentals/contracts/TokenBasedVoting.sol\":598:648  mapping(Candidate => uint256) public votingResults */\n    tag_16:\n      mstore(0x20, 0x03)\n      dup1\n      0x00\n      mstore\n      keccak256(0x00, 0x40)\n      0x00\n      swap2\n      pop\n      swap1\n      pop\n      sload\n      dup2\n      jump\t// out\n        /* \"solidity-fundamentals/contracts/TokenBasedVoting.sol\":453:479  Token public tokenContract */\n    tag_20:\n      0x00\n      dup1\n      sload\n      swap1\n      0x0100\n      exp\n      swap1\n      div\n      0xffffffffffffffffffffffffffffffffffffffff\n      and\n      dup2\n      jump\t// out\n        /* \"solidity-fundamentals/contracts/TokenBasedVoting.sol\":485:505  address public owner */\n    tag_24:\n      0x01\n      0x00\n      swap1\n      sload\n      swap1\n      0x0100\n      exp\n      swap1\n      div\n      0xffffffffffffffffffffffffffffffffffffffff\n      and\n      dup2\n      jump\t// out\n        /* \"solidity-fundamentals/contracts/TokenBasedVoting.sol\":834:1190  function vote(Candidate _candidate) public {... */\n    tag_29:\n        /* \"solidity-fundamentals/contracts/TokenBasedVoting.sol\":933:934  0 */\n      0x00\n        /* \"solidity-fundamentals/contracts/TokenBasedVoting.sol\":895:908  tokenContract */\n      dup1\n      0x00\n      swap1\n      sload\n      swap1\n      0x0100\n      exp\n      swap1\n      div\n      0xffffffffffffffffffffffffffffffffffffffff\n      and\n        /* \"solidity-fundamentals/contracts/TokenBasedVoting.sol\":895:918  tokenContract.balanceOf */\n      0xffffffffffffffffffffffffffffffffffffffff\n      and\n      0x70a08231\n        /* \"solidity-fundamentals/contracts/TokenBasedVoting.sol\":919:929  msg.sender */\n      caller\n        /* \"solidity-fundamentals/contracts/TokenBasedVoting.sol\":895:930  tokenContract.balanceOf(msg.sender) */\n      mload(0x40)\n      dup3\n      0xffffffff\n      and\n      0xe0\n      shl\n      dup2\n      mstore\n      0x04\n      add\n      tag_46\n      swap2\n      swap1\n      tag_26\n      jump\t// in\n    tag_46:\n      0x20\n      mload(0x40)\n      dup1\n      dup4\n      sub\n      dup2\n      dup7\n      gas\n      staticcall\n      iszero\n      dup1\n      iszero\n      tag_48\n      jumpi\n      returndatasize\n      0x00\n      dup1\n      returndatacopy\n      revert(0x00, returndatasize)\n    tag_48:\n      pop\n      pop\n      pop\n      pop\n      mload(0x40)\n      returndatasize\n      not(0x1f)\n      0x1f\n      dup3\n      add\n      and\n      dup3\n      add\n      dup1\n      0x40\n      mstore\n      pop\n      dup2\n      add\n      swap1\n      tag_49\n      swap2\n      swap1\n      tag_50\n      jump\t// in\n    tag_49:\n        /* \"solidity-fundamentals/contracts/TokenBasedVoting.sol\":895:934  tokenContract.balanceOf(msg.sender) > 0 */\n      gt\n        /* \"solidity-fundamentals/contracts/TokenBasedVoting.sol\":887:965  require(tokenContract.balanceOf(msg.sender) > 0, \"You have no tokens to vote\") */\n      tag_51\n      jumpi\n      mload(0x40)\n      0x08c379a000000000000000000000000000000000000000000000000000000000\n      dup2\n      mstore\n      0x04\n      add\n      tag_52\n      swap1\n      tag_53\n      jump\t// in\n    tag_52:\n      mload(0x40)\n      dup1\n      swap2\n      sub\n      swap1\n      revert\n    tag_51:\n        /* \"solidity-fundamentals/contracts/TokenBasedVoting.sol\":997:1014  Candidate.Bawumia */\n      0x00\n        /* \"solidity-fundamentals/contracts/TokenBasedVoting.sol\":983:1014  _candidate == Candidate.Bawumia */\n      0x01\n      dup2\n      gt\n      iszero\n      tag_54\n      jumpi\n      tag_55\n      tag_38\n      jump\t// in\n    tag_55:\n    tag_54:\n        /* \"solidity-fundamentals/contracts/TokenBasedVoting.sol\":983:993  _candidate */\n      dup2\n        /* \"solidity-fundamentals/contracts/TokenBasedVoting.sol\":983:1014  _candidate == Candidate.Bawumia */\n      0x01\n      dup2\n      gt\n      iszero\n      tag_56\n      jumpi\n      tag_57\n      tag_38\n      jump\t// in\n    tag_57:\n    tag_56:\n      eq\n        /* \"solidity-fundamentals/contracts/TokenBasedVoting.sol\":983:1048  _candidate == Candidate.Bawumia || _candidate == Candidate.Mahama */\n      dup1\n      tag_58\n      jumpi\n      pop\n        /* \"solidity-fundamentals/contracts/TokenBasedVoting.sol\":1032:1048  Candidate.Mahama */\n      0x01\n        /* \"solidity-fundamentals/contracts/TokenBasedVoting.sol\":1018:1048  _candidate == Candidate.Mahama */\n      dup1\n      dup2\n      gt\n      iszero\n      tag_59\n      jumpi\n      tag_60\n      tag_38\n      jump\t// in\n    tag_60:\n    tag_59:\n        /* \"solidity-fundamentals/contracts/TokenBasedVoting.sol\":1018:1028  _candidate */\n      dup2\n        /* \"solidity-fundamentals/contracts/TokenBasedVoting.sol\":1018:1048  _candidate == Candidate.Mahama */\n      0x01\n      dup2\n      gt\n      iszero\n      tag_61\n      jumpi\n      tag_62\n      tag_38\n      jump\t// in\n    tag_62:\n    tag_61:\n      eq\n        /* \"solidity-fundamentals/contracts/TokenBasedVoting.sol\":983:1048  _candidate == Candidate.Bawumia || _candidate == Candidate.Mahama */\n    tag_58:\n        /* \"solidity-fundamentals/contracts/TokenBasedVoting.sol\":975:1069  require(_candidate == Candidate.Bawumia || _candidate == Candidate.Mahama, \"Invalid proposal\") */\n      tag_63\n      jumpi\n      mload(0x40)\n      0x08c379a000000000000000000000000000000000000000000000000000000000\n      dup2\n      mstore\n      0x04\n      add\n      tag_64\n      swap1\n      tag_65\n      jump\t// in\n    tag_64:\n      mload(0x40)\n      dup1\n      swap2\n      sub\n      swap1\n      revert\n    tag_63:\n        /* \"solidity-fundamentals/contracts/TokenBasedVoting.sol\":1080:1085  votes */\n      0x02\n        /* \"solidity-fundamentals/contracts/TokenBasedVoting.sol\":1080:1097  votes[msg.sender] */\n      0x00\n        /* \"solidity-fundamentals/contracts/TokenBasedVoting.sol\":1086:1096  msg.sender */\n      caller\n        /* \"solidity-fundamentals/contracts/TokenBasedVoting.sol\":1080:1097  votes[msg.sender] */\n      0xffffffffffffffffffffffffffffffffffffffff\n      and\n      0xffffffffffffffffffffffffffffffffffffffff\n      and\n      dup2\n      mstore\n      0x20\n      add\n      swap1\n      dup2\n      mstore\n      0x20\n      add\n      0x00\n      keccak256\n      0x00\n        /* \"solidity-fundamentals/contracts/TokenBasedVoting.sol\":1080:1099  votes[msg.sender]++ */\n      dup2\n      sload\n      dup1\n      swap3\n      swap2\n      swap1\n      tag_66\n      swap1\n      tag_67\n      jump\t// in\n    tag_66:\n      swap2\n      swap1\n      pop\n      sstore\n      pop\n        /* \"solidity-fundamentals/contracts/TokenBasedVoting.sol\":1109:1122  votingResults */\n      0x03\n        /* \"solidity-fundamentals/contracts/TokenBasedVoting.sol\":1109:1134  votingResults[_candidate] */\n      0x00\n        /* \"solidity-fundamentals/contracts/TokenBasedVoting.sol\":1123:1133  _candidate */\n      dup3\n        /* \"solidity-fundamentals/contracts/TokenBasedVoting.sol\":1109:1134  votingResults[_candidate] */\n      0x01\n      dup2\n      gt\n      iszero\n      tag_68\n      jumpi\n      tag_69\n      tag_38\n      jump\t// in\n    tag_69:\n    tag_68:\n      0x01\n      dup2\n      gt\n      iszero\n      tag_70\n      jumpi\n      tag_71\n      tag_38\n      jump\t// in\n    tag_71:\n    tag_70:\n      dup2\n      mstore\n      0x20\n      add\n      swap1\n      dup2\n      mstore\n      0x20\n      add\n      0x00\n      keccak256\n      0x00\n        /* \"solidity-fundamentals/contracts/TokenBasedVoting.sol\":1109:1136  votingResults[_candidate]++ */\n      dup2\n      sload\n      dup1\n      swap3\n      swap2\n      swap1\n      tag_72\n      swap1\n      tag_67\n      jump\t// in\n    tag_72:\n      swap2\n      swap1\n      pop\n      sstore\n      pop\n        /* \"solidity-fundamentals/contracts/TokenBasedVoting.sol\":1151:1183  VoteCast(msg.sender, _candidate) */\n      0xefffa0c001f10a86d936643c098510eba656ffab1d0c5165822b79d4c895e88f\n        /* \"solidity-fundamentals/contracts/TokenBasedVoting.sol\":1160:1170  msg.sender */\n      caller\n        /* \"solidity-fundamentals/contracts/TokenBasedVoting.sol\":1172:1182  _candidate */\n      dup3\n        /* \"solidity-fundamentals/contracts/TokenBasedVoting.sol\":1151:1183  VoteCast(msg.sender, _candidate) */\n      mload(0x40)\n      tag_73\n      swap3\n      swap2\n      swap1\n      tag_74\n      jump\t// in\n    tag_73:\n      mload(0x40)\n      dup1\n      swap2\n      sub\n      swap1\n      log1\n        /* \"solidity-fundamentals/contracts/TokenBasedVoting.sol\":834:1190  function vote(Candidate _candidate) public {... */\n      pop\n      jump\t// out\n        /* \"solidity-fundamentals/contracts/TokenBasedVoting.sol\":552:592  mapping(address => uint256) public votes */\n    tag_33:\n      mstore(0x20, 0x02)\n      dup1\n      0x00\n      mstore\n      keccak256(0x00, 0x40)\n      0x00\n      swap2\n      pop\n      swap1\n      pop\n      sload\n      dup2\n      jump\t// out\n        /* \"#utility.yul\":7:84   */\n    tag_75:\n        /* \"#utility.yul\":44:51   */\n      0x00\n        /* \"#utility.yul\":73:78   */\n      dup2\n        /* \"#utility.yul\":62:78   */\n      swap1\n      pop\n        /* \"#utility.yul\":7:84   */\n      swap2\n      swap1\n      pop\n      jump\t// out\n        /* \"#utility.yul\":90:208   */\n    tag_76:\n        /* \"#utility.yul\":177:201   */\n      tag_107\n        /* \"#utility.yul\":195:200   */\n      dup2\n        /* \"#utility.yul\":177:201   */\n      tag_75\n      jump\t// in\n    tag_107:\n        /* \"#utility.yul\":172:175   */\n      dup3\n        /* \"#utility.yul\":165:202   */\n      mstore\n        /* \"#utility.yul\":90:208   */\n      pop\n      pop\n      jump\t// out\n        /* \"#utility.yul\":214:546   */\n    tag_12:\n        /* \"#utility.yul\":335:339   */\n      0x00\n        /* \"#utility.yul\":373:375   */\n      0x40\n        /* \"#utility.yul\":362:371   */\n      dup3\n        /* \"#utility.yul\":358:376   */\n      add\n        /* \"#utility.yul\":350:376   */\n      swap1\n      pop\n        /* \"#utility.yul\":386:457   */\n      tag_109\n        /* \"#utility.yul\":454:455   */\n      0x00\n        /* \"#utility.yul\":443:452   */\n      dup4\n        /* \"#utility.yul\":439:456   */\n      add\n        /* \"#utility.yul\":430:436   */\n      dup6\n        /* \"#utility.yul\":386:457   */\n      tag_76\n      jump\t// in\n    tag_109:\n        /* \"#utility.yul\":467:539   */\n      tag_110\n        /* \"#utility.yul\":535:537   */\n      0x20\n        /* \"#utility.yul\":524:533   */\n      dup4\n        /* \"#utility.yul\":520:538   */\n      add\n        /* \"#utility.yul\":511:517   */\n      dup5\n        /* \"#utility.yul\":467:539   */\n      tag_76\n      jump\t// in\n    tag_110:\n        /* \"#utility.yul\":214:546   */\n      swap4\n      swap3\n      pop\n      pop\n      pop\n      jump\t// out\n        /* \"#utility.yul\":633:750   */\n    tag_78:\n        /* \"#utility.yul\":742:743   */\n      0x00\n        /* \"#utility.yul\":739:740   */\n      dup1\n        /* \"#utility.yul\":732:744   */\n      revert\n        /* \"#utility.yul\":879:991   */\n    tag_80:\n        /* \"#utility.yul\":965:966   */\n      0x02\n        /* \"#utility.yul\":958:963   */\n      dup2\n        /* \"#utility.yul\":955:967   */\n      lt\n        /* \"#utility.yul\":945:985   */\n      tag_115\n      jumpi\n        /* \"#utility.yul\":981:982   */\n      0x00\n        /* \"#utility.yul\":978:979   */\n      dup1\n        /* \"#utility.yul\":971:983   */\n      revert\n        /* \"#utility.yul\":945:985   */\n    tag_115:\n        /* \"#utility.yul\":879:991   */\n      pop\n      jump\t// out\n        /* \"#utility.yul\":997:1162   */\n    tag_81:\n        /* \"#utility.yul\":1056:1061   */\n      0x00\n        /* \"#utility.yul\":1094:1100   */\n      dup2\n        /* \"#utility.yul\":1081:1101   */\n      calldataload\n        /* \"#utility.yul\":1072:1101   */\n      swap1\n      pop\n        /* \"#utility.yul\":1110:1156   */\n      tag_117\n        /* \"#utility.yul\":1150:1155   */\n      dup2\n        /* \"#utility.yul\":1110:1156   */\n      tag_80\n      jump\t// in\n    tag_117:\n        /* \"#utility.yul\":997:1162   */\n      swap3\n      swap2\n      pop\n      pop\n      jump\t// out\n        /* \"#utility.yul\":1168:1523   */\n    tag_15:\n        /* \"#utility.yul\":1240:1246   */\n      0x00\n        /* \"#utility.yul\":1289:1291   */\n      0x20\n        /* \"#utility.yul\":1277:1286   */\n      dup3\n        /* \"#utility.yul\":1268:1275   */\n      dup5\n        /* \"#utility.yul\":1264:1287   */\n      sub\n        /* \"#utility.yul\":1260:1292   */\n      slt\n        /* \"#utility.yul\":1257:1376   */\n      iszero\n      tag_119\n      jumpi\n        /* \"#utility.yul\":1295:1374   */\n      tag_120\n      tag_78\n      jump\t// in\n    tag_120:\n        /* \"#utility.yul\":1257:1376   */\n    tag_119:\n        /* \"#utility.yul\":1415:1416   */\n      0x00\n        /* \"#utility.yul\":1440:1506   */\n      tag_121\n        /* \"#utility.yul\":1498:1505   */\n      dup5\n        /* \"#utility.yul\":1489:1495   */\n      dup3\n        /* \"#utility.yul\":1478:1487   */\n      dup6\n        /* \"#utility.yul\":1474:1496   */\n      add\n        /* \"#utility.yul\":1440:1506   */\n      tag_81\n      jump\t// in\n    tag_121:\n        /* \"#utility.yul\":1430:1506   */\n      swap2\n      pop\n        /* \"#utility.yul\":1386:1516   */\n      pop\n        /* \"#utility.yul\":1168:1523   */\n      swap3\n      swap2\n      pop\n      pop\n      jump\t// out\n        /* \"#utility.yul\":1529:1751   */\n    tag_18:\n        /* \"#utility.yul\":1622:1626   */\n      0x00\n        /* \"#utility.yul\":1660:1662   */\n      0x20\n        /* \"#utility.yul\":1649:1658   */\n      dup3\n        /* \"#utility.yul\":1645:1663   */\n      add\n        /* \"#utility.yul\":1637:1663   */\n      swap1\n      pop\n        /* \"#utility.yul\":1673:1744   */\n      tag_123\n        /* \"#utility.yul\":1741:1742   */\n      0x00\n        /* \"#utility.yul\":1730:1739   */\n      dup4\n        /* \"#utility.yul\":1726:1743   */\n      add\n        /* \"#utility.yul\":1717:1723   */\n      dup5\n        /* \"#utility.yul\":1673:1744   */\n      tag_76\n      jump\t// in\n    tag_123:\n        /* \"#utility.yul\":1529:1751   */\n      swap3\n      swap2\n      pop\n      pop\n      jump\t// out\n        /* \"#utility.yul\":1757:1883   */\n    tag_82:\n        /* \"#utility.yul\":1794:1801   */\n      0x00\n        /* \"#utility.yul\":1834:1876   */\n      0xffffffffffffffffffffffffffffffffffffffff\n        /* \"#utility.yul\":1827:1832   */\n      dup3\n        /* \"#utility.yul\":1823:1877   */\n      and\n        /* \"#utility.yul\":1812:1877   */\n      swap1\n      pop\n        /* \"#utility.yul\":1757:1883   */\n      swap2\n      swap1\n      pop\n      jump\t// out\n        /* \"#utility.yul\":1889:1949   */\n    tag_83:\n        /* \"#utility.yul\":1917:1920   */\n      0x00\n        /* \"#utility.yul\":1938:1943   */\n      dup2\n        /* \"#utility.yul\":1931:1943   */\n      swap1\n      pop\n        /* \"#utility.yul\":1889:1949   */\n      swap2\n      swap1\n      pop\n      jump\t// out\n        /* \"#utility.yul\":1955:2097   */\n    tag_84:\n        /* \"#utility.yul\":2005:2014   */\n      0x00\n        /* \"#utility.yul\":2038:2091   */\n      tag_127\n        /* \"#utility.yul\":2056:2090   */\n      tag_128\n        /* \"#utility.yul\":2065:2089   */\n      tag_129\n        /* \"#utility.yul\":2083:2088   */\n      dup5\n        /* \"#utility.yul\":2065:2089   */\n      tag_82\n      jump\t// in\n    tag_129:\n        /* \"#utility.yul\":2056:2090   */\n      tag_83\n      jump\t// in\n    tag_128:\n        /* \"#utility.yul\":2038:2091   */\n      tag_82\n      jump\t// in\n    tag_127:\n        /* \"#utility.yul\":2025:2091   */\n      swap1\n      pop\n        /* \"#utility.yul\":1955:2097   */\n      swap2\n      swap1\n      pop\n      jump\t// out\n        /* \"#utility.yul\":2103:2229   */\n    tag_85:\n        /* \"#utility.yul\":2153:2162   */\n      0x00\n        /* \"#utility.yul\":2186:2223   */\n      tag_131\n        /* \"#utility.yul\":2217:2222   */\n      dup3\n        /* \"#utility.yul\":2186:2223   */\n      tag_84\n      jump\t// in\n    tag_131:\n        /* \"#utility.yul\":2173:2223   */\n      swap1\n      pop\n        /* \"#utility.yul\":2103:2229   */\n      swap2\n      swap1\n      pop\n      jump\t// out\n        /* \"#utility.yul\":2235:2374   */\n    tag_86:\n        /* \"#utility.yul\":2298:2307   */\n      0x00\n        /* \"#utility.yul\":2331:2368   */\n      tag_133\n        /* \"#utility.yul\":2362:2367   */\n      dup3\n        /* \"#utility.yul\":2331:2368   */\n      tag_85\n      jump\t// in\n    tag_133:\n        /* \"#utility.yul\":2318:2368   */\n      swap1\n      pop\n        /* \"#utility.yul\":2235:2374   */\n      swap2\n      swap1\n      pop\n      jump\t// out\n        /* \"#utility.yul\":2380:2537   */\n    tag_87:\n        /* \"#utility.yul\":2480:2530   */\n      tag_135\n        /* \"#utility.yul\":2524:2529   */\n      dup2\n        /* \"#utility.yul\":2480:2530   */\n      tag_86\n      jump\t// in\n    tag_135:\n        /* \"#utility.yul\":2475:2478   */\n      dup3\n        /* \"#utility.yul\":2468:2531   */\n      mstore\n        /* \"#utility.yul\":2380:2537   */\n      pop\n      pop\n      jump\t// out\n        /* \"#utility.yul\":2543:2791   */\n    tag_22:\n        /* \"#utility.yul\":2649:2653   */\n      0x00\n        /* \"#utility.yul\":2687:2689   */\n      0x20\n        /* \"#utility.yul\":2676:2685   */\n      dup3\n        /* \"#utility.yul\":2672:2690   */\n      add\n        /* \"#utility.yul\":2664:2690   */\n      swap1\n      pop\n        /* \"#utility.yul\":2700:2784   */\n      tag_137\n        /* \"#utility.yul\":2781:2782   */\n      0x00\n        /* \"#utility.yul\":2770:2779   */\n      dup4\n        /* \"#utility.yul\":2766:2783   */\n      add\n        /* \"#utility.yul\":2757:2763   */\n      dup5\n        /* \"#utility.yul\":2700:2784   */\n      tag_87\n      jump\t// in\n    tag_137:\n        /* \"#utility.yul\":2543:2791   */\n      swap3\n      swap2\n      pop\n      pop\n      jump\t// out\n        /* \"#utility.yul\":2797:2893   */\n    tag_88:\n        /* \"#utility.yul\":2834:2841   */\n      0x00\n        /* \"#utility.yul\":2863:2887   */\n      tag_139\n        /* \"#utility.yul\":2881:2886   */\n      dup3\n        /* \"#utility.yul\":2863:2887   */\n      tag_82\n      jump\t// in\n    tag_139:\n        /* \"#utility.yul\":2852:2887   */\n      swap1\n      pop\n        /* \"#utility.yul\":2797:2893   */\n      swap2\n      swap1\n      pop\n      jump\t// out\n        /* \"#utility.yul\":2899:3017   */\n    tag_89:\n        /* \"#utility.yul\":2986:3010   */\n      tag_141\n        /* \"#utility.yul\":3004:3009   */\n      dup2\n        /* \"#utility.yul\":2986:3010   */\n      tag_88\n      jump\t// in\n    tag_141:\n        /* \"#utility.yul\":2981:2984   */\n      dup3\n        /* \"#utility.yul\":2974:3011   */\n      mstore\n        /* \"#utility.yul\":2899:3017   */\n      pop\n      pop\n      jump\t// out\n        /* \"#utility.yul\":3023:3245   */\n    tag_26:\n        /* \"#utility.yul\":3116:3120   */\n      0x00\n        /* \"#utility.yul\":3154:3156   */\n      0x20\n        /* \"#utility.yul\":3143:3152   */\n      dup3\n        /* \"#utility.yul\":3139:3157   */\n      add\n        /* \"#utility.yul\":3131:3157   */\n      swap1\n      pop\n        /* \"#utility.yul\":3167:3238   */\n      tag_143\n        /* \"#utility.yul\":3235:3236   */\n      0x00\n        /* \"#utility.yul\":3224:3233   */\n      dup4\n        /* \"#utility.yul\":3220:3237   */\n      add\n        /* \"#utility.yul\":3211:3217   */\n      dup5\n        /* \"#utility.yul\":3167:3238   */\n      tag_89\n      jump\t// in\n    tag_143:\n        /* \"#utility.yul\":3023:3245   */\n      swap3\n      swap2\n      pop\n      pop\n      jump\t// out\n        /* \"#utility.yul\":3251:3373   */\n    tag_90:\n        /* \"#utility.yul\":3324:3348   */\n      tag_145\n        /* \"#utility.yul\":3342:3347   */\n      dup2\n        /* \"#utility.yul\":3324:3348   */\n      tag_88\n      jump\t// in\n    tag_145:\n        /* \"#utility.yul\":3317:3322   */\n      dup2\n        /* \"#utility.yul\":3314:3349   */\n      eq\n        /* \"#utility.yul\":3304:3367   */\n      tag_146\n      jumpi\n        /* \"#utility.yul\":3363:3364   */\n      0x00\n        /* \"#utility.yul\":3360:3361   */\n      dup1\n        /* \"#utility.yul\":3353:3365   */\n      revert\n        /* \"#utility.yul\":3304:3367   */\n    tag_146:\n        /* \"#utility.yul\":3251:3373   */\n      pop\n      jump\t// out\n        /* \"#utility.yul\":3379:3518   */\n    tag_91:\n        /* \"#utility.yul\":3425:3430   */\n      0x00\n        /* \"#utility.yul\":3463:3469   */\n      dup2\n        /* \"#utility.yul\":3450:3470   */\n      calldataload\n        /* \"#utility.yul\":3441:3470   */\n      swap1\n      pop\n        /* \"#utility.yul\":3479:3512   */\n      tag_148\n        /* \"#utility.yul\":3506:3511   */\n      dup2\n        /* \"#utility.yul\":3479:3512   */\n      tag_90\n      jump\t// in\n    tag_148:\n        /* \"#utility.yul\":3379:3518   */\n      swap3\n      swap2\n      pop\n      pop\n      jump\t// out\n        /* \"#utility.yul\":3524:3853   */\n    tag_32:\n        /* \"#utility.yul\":3583:3589   */\n      0x00\n        /* \"#utility.yul\":3632:3634   */\n      0x20\n        /* \"#utility.yul\":3620:3629   */\n      dup3\n        /* \"#utility.yul\":3611:3618   */\n      dup5\n        /* \"#utility.yul\":3607:3630   */\n      sub\n        /* \"#utility.yul\":3603:3635   */\n      slt\n        /* \"#utility.yul\":3600:3719   */\n      iszero\n      tag_150\n      jumpi\n        /* \"#utility.yul\":3638:3717   */\n      tag_151\n      tag_78\n      jump\t// in\n    tag_151:\n        /* \"#utility.yul\":3600:3719   */\n    tag_150:\n        /* \"#utility.yul\":3758:3759   */\n      0x00\n        /* \"#utility.yul\":3783:3836   */\n      tag_152\n        /* \"#utility.yul\":3828:3835   */\n      dup5\n        /* \"#utility.yul\":3819:3825   */\n      dup3\n        /* \"#utility.yul\":3808:3817   */\n      dup6\n        /* \"#utility.yul\":3804:3826   */\n      add\n        /* \"#utility.yul\":3783:3836   */\n      tag_91\n      jump\t// in\n    tag_152:\n        /* \"#utility.yul\":3773:3836   */\n      swap2\n      pop\n        /* \"#utility.yul\":3729:3846   */\n      pop\n        /* \"#utility.yul\":3524:3853   */\n      swap3\n      swap2\n      pop\n      pop\n      jump\t// out\n        /* \"#utility.yul\":3859:4039   */\n    tag_38:\n        /* \"#utility.yul\":3907:3984   */\n      0x4e487b7100000000000000000000000000000000000000000000000000000000\n        /* \"#utility.yul\":3904:3905   */\n      0x00\n        /* \"#utility.yul\":3897:3985   */\n      mstore\n        /* \"#utility.yul\":4004:4008   */\n      0x21\n        /* \"#utility.yul\":4001:4002   */\n      0x04\n        /* \"#utility.yul\":3994:4009   */\n      mstore\n        /* \"#utility.yul\":4028:4032   */\n      0x24\n        /* \"#utility.yul\":4025:4026   */\n      0x00\n        /* \"#utility.yul\":4018:4033   */\n      revert\n        /* \"#utility.yul\":4045:4167   */\n    tag_92:\n        /* \"#utility.yul\":4118:4142   */\n      tag_155\n        /* \"#utility.yul\":4136:4141   */\n      dup2\n        /* \"#utility.yul\":4118:4142   */\n      tag_75\n      jump\t// in\n    tag_155:\n        /* \"#utility.yul\":4111:4116   */\n      dup2\n        /* \"#utility.yul\":4108:4143   */\n      eq\n        /* \"#utility.yul\":4098:4161   */\n      tag_156\n      jumpi\n        /* \"#utility.yul\":4157:4158   */\n      0x00\n        /* \"#utility.yul\":4154:4155   */\n      dup1\n        /* \"#utility.yul\":4147:4159   */\n      revert\n        /* \"#utility.yul\":4098:4161   */\n    tag_156:\n        /* \"#utility.yul\":4045:4167   */\n      pop\n      jump\t// out\n        /* \"#utility.yul\":4173:4316   */\n    tag_93:\n        /* \"#utility.yul\":4230:4235   */\n      0x00\n        /* \"#utility.yul\":4261:4267   */\n      dup2\n        /* \"#utility.yul\":4255:4268   */\n      mload\n        /* \"#utility.yul\":4246:4268   */\n      swap1\n      pop\n        /* \"#utility.yul\":4277:4310   */\n      tag_158\n        /* \"#utility.yul\":4304:4309   */\n      dup2\n        /* \"#utility.yul\":4277:4310   */\n      tag_92\n      jump\t// in\n    tag_158:\n        /* \"#utility.yul\":4173:4316   */\n      swap3\n      swap2\n      pop\n      pop\n      jump\t// out\n        /* \"#utility.yul\":4322:4673   */\n    tag_50:\n        /* \"#utility.yul\":4392:4398   */\n      0x00\n        /* \"#utility.yul\":4441:4443   */\n      0x20\n        /* \"#utility.yul\":4429:4438   */\n      dup3\n        /* \"#utility.yul\":4420:4427   */\n      dup5\n        /* \"#utility.yul\":4416:4439   */\n      sub\n        /* \"#utility.yul\":4412:4444   */\n      slt\n        /* \"#utility.yul\":4409:4528   */\n      iszero\n      tag_160\n      jumpi\n        /* \"#utility.yul\":4447:4526   */\n      tag_161\n      tag_78\n      jump\t// in\n    tag_161:\n        /* \"#utility.yul\":4409:4528   */\n    tag_160:\n        /* \"#utility.yul\":4567:4568   */\n      0x00\n        /* \"#utility.yul\":4592:4656   */\n      tag_162\n        /* \"#utility.yul\":4648:4655   */\n      dup5\n        /* \"#utility.yul\":4639:4645   */\n      dup3\n        /* \"#utility.yul\":4628:4637   */\n      dup6\n        /* \"#utility.yul\":4624:4646   */\n      add\n        /* \"#utility.yul\":4592:4656   */\n      tag_93\n      jump\t// in\n    tag_162:\n        /* \"#utility.yul\":4582:4656   */\n      swap2\n      pop\n        /* \"#utility.yul\":4538:4666   */\n      pop\n        /* \"#utility.yul\":4322:4673   */\n      swap3\n      swap2\n      pop\n      pop\n      jump\t// out\n        /* \"#utility.yul\":4679:4848   */\n    tag_94:\n        /* \"#utility.yul\":4763:4774   */\n      0x00\n        /* \"#utility.yul\":4797:4803   */\n      dup3\n        /* \"#utility.yul\":4792:4795   */\n      dup3\n        /* \"#utility.yul\":4785:4804   */\n      mstore\n        /* \"#utility.yul\":4837:4841   */\n      0x20\n        /* \"#utility.yul\":4832:4835   */\n      dup3\n        /* \"#utility.yul\":4828:4842   */\n      add\n        /* \"#utility.yul\":4813:4842   */\n      swap1\n      pop\n        /* \"#utility.yul\":4679:4848   */\n      swap3\n      swap2\n      pop\n      pop\n      jump\t// out\n        /* \"#utility.yul\":4854:5030   */\n    tag_95:\n        /* \"#utility.yul\":4994:5022   */\n      0x596f752068617665206e6f20746f6b656e7320746f20766f7465000000000000\n        /* \"#utility.yul\":4990:4991   */\n      0x00\n        /* \"#utility.yul\":4982:4988   */\n      dup3\n        /* \"#utility.yul\":4978:4992   */\n      add\n        /* \"#utility.yul\":4971:5023   */\n      mstore\n        /* \"#utility.yul\":4854:5030   */\n      pop\n      jump\t// out\n        /* \"#utility.yul\":5036:5402   */\n    tag_96:\n        /* \"#utility.yul\":5178:5181   */\n      0x00\n        /* \"#utility.yul\":5199:5266   */\n      tag_166\n        /* \"#utility.yul\":5263:5265   */\n      0x1a\n        /* \"#utility.yul\":5258:5261   */\n      dup4\n        /* \"#utility.yul\":5199:5266   */\n      tag_94\n      jump\t// in\n    tag_166:\n        /* \"#utility.yul\":5192:5266   */\n      swap2\n      pop\n        /* \"#utility.yul\":5275:5368   */\n      tag_167\n        /* \"#utility.yul\":5364:5367   */\n      dup3\n        /* \"#utility.yul\":5275:5368   */\n      tag_95\n      jump\t// in\n    tag_167:\n        /* \"#utility.yul\":5393:5395   */\n      0x20\n        /* \"#utility.yul\":5388:5391   */\n      dup3\n        /* \"#utility.yul\":5384:5396   */\n      add\n        /* \"#utility.yul\":5377:5396   */\n      swap1\n      pop\n        /* \"#utility.yul\":5036:5402   */\n      swap2\n      swap1\n      pop\n      jump\t// out\n        /* \"#utility.yul\":5408:5827   */\n    tag_53:\n        /* \"#utility.yul\":5574:5578   */\n      0x00\n        /* \"#utility.yul\":5612:5614   */\n      0x20\n        /* \"#utility.yul\":5601:5610   */\n      dup3\n        /* \"#utility.yul\":5597:5615   */\n      add\n        /* \"#utility.yul\":5589:5615   */\n      swap1\n      pop\n        /* \"#utility.yul\":5661:5670   */\n      dup2\n        /* \"#utility.yul\":5655:5659   */\n      dup2\n        /* \"#utility.yul\":5651:5671   */\n      sub\n        /* \"#utility.yul\":5647:5648   */\n      0x00\n        /* \"#utility.yul\":5636:5645   */\n      dup4\n        /* \"#utility.yul\":5632:5649   */\n      add\n        /* \"#utility.yul\":5625:5672   */\n      mstore\n        /* \"#utility.yul\":5689:5820   */\n      tag_169\n        /* \"#utility.yul\":5815:5819   */\n      dup2\n        /* \"#utility.yul\":5689:5820   */\n      tag_96\n      jump\t// in\n    tag_169:\n        /* \"#utility.yul\":5681:5820   */\n      swap1\n      pop\n        /* \"#utility.yul\":5408:5827   */\n      swap2\n      swap1\n      pop\n      jump\t// out\n        /* \"#utility.yul\":5833:5999   */\n    tag_97:\n        /* \"#utility.yul\":5973:5991   */\n      0x496e76616c69642070726f706f73616c00000000000000000000000000000000\n        /* \"#utility.yul\":5969:5970   */\n      0x00\n        /* \"#utility.yul\":5961:5967   */\n      dup3\n        /* \"#utility.yul\":5957:5971   */\n      add\n        /* \"#utility.yul\":5950:5992   */\n      mstore\n        /* \"#utility.yul\":5833:5999   */\n      pop\n      jump\t// out\n        /* \"#utility.yul\":6005:6371   */\n    tag_98:\n        /* \"#utility.yul\":6147:6150   */\n      0x00\n        /* \"#utility.yul\":6168:6235   */\n      tag_172\n        /* \"#utility.yul\":6232:6234   */\n      0x10\n        /* \"#utility.yul\":6227:6230   */\n      dup4\n        /* \"#utility.yul\":6168:6235   */\n      tag_94\n      jump\t// in\n    tag_172:\n        /* \"#utility.yul\":6161:6235   */\n      swap2\n      pop\n        /* \"#utility.yul\":6244:6337   */\n      tag_173\n        /* \"#utility.yul\":6333:6336   */\n      dup3\n        /* \"#utility.yul\":6244:6337   */\n      tag_97\n      jump\t// in\n    tag_173:\n        /* \"#utility.yul\":6362:6364   */\n      0x20\n        /* \"#utility.yul\":6357:6360   */\n      dup3\n        /* \"#utility.yul\":6353:6365   */\n      add\n        /* \"#utility.yul\":6346:6365   */\n      swap1\n      pop\n        /* \"#utility.yul\":6005:6371   */\n      swap2\n      swap1\n      pop\n      jump\t// out\n        /* \"#utility.yul\":6377:6796   */\n    tag_65:\n        /* \"#utility.yul\":6543:6547   */\n      0x00\n        /* \"#utility.yul\":6581:6583   */\n      0x20\n        /* \"#utility.yul\":6570:6579   */\n      dup3\n        /* \"#utility.yul\":6566:6584   */\n      add\n        /* \"#utility.yul\":6558:6584   */\n      swap1\n      pop\n        /* \"#utility.yul\":6630:6639   */\n      dup2\n        /* \"#utility.yul\":6624:6628   */\n      dup2\n        /* \"#utility.yul\":6620:6640   */\n      sub\n        /* \"#utility.yul\":6616:6617   */\n      0x00\n        /* \"#utility.yul\":6605:6614   */\n      dup4\n        /* \"#utility.yul\":6601:6618   */\n      add\n        /* \"#utility.yul\":6594:6641   */\n      mstore\n        /* \"#utility.yul\":6658:6789   */\n      tag_175\n        /* \"#utility.yul\":6784:6788   */\n      dup2\n        /* \"#utility.yul\":6658:6789   */\n      tag_98\n      jump\t// in\n    tag_175:\n        /* \"#utility.yul\":6650:6789   */\n      swap1\n      pop\n        /* \"#utility.yul\":6377:6796   */\n      swap2\n      swap1\n      pop\n      jump\t// out\n        /* \"#utility.yul\":6802:6982   */\n    tag_99:\n        /* \"#utility.yul\":6850:6927   */\n      0x4e487b7100000000000000000000000000000000000000000000000000000000\n        /* \"#utility.yul\":6847:6848   */\n      0x00\n        /* \"#utility.yul\":6840:6928   */\n      mstore\n        /* \"#utility.yul\":6947:6951   */\n      0x11\n        /* \"#utility.yul\":6944:6945   */\n      0x04\n        /* \"#utility.yul\":6937:6952   */\n      mstore\n        /* \"#utility.yul\":6971:6975   */\n      0x24\n        /* \"#utility.yul\":6968:6969   */\n      0x00\n        /* \"#utility.yul\":6961:6976   */\n      revert\n        /* \"#utility.yul\":6988:7221   */\n    tag_67:\n        /* \"#utility.yul\":7027:7030   */\n      0x00\n        /* \"#utility.yul\":7050:7074   */\n      tag_178\n        /* \"#utility.yul\":7068:7073   */\n      dup3\n        /* \"#utility.yul\":7050:7074   */\n      tag_75\n      jump\t// in\n    tag_178:\n        /* \"#utility.yul\":7041:7074   */\n      swap2\n      pop\n        /* \"#utility.yul\":7096:7162   */\n      0xffffffffffffffffffffffffffffffffffffffffffffffffffffffffffffffff\n        /* \"#utility.yul\":7089:7094   */\n      dup3\n        /* \"#utility.yul\":7086:7163   */\n      sub\n        /* \"#utility.yul\":7083:7186   */\n      tag_179\n      jumpi\n        /* \"#utility.yul\":7166:7184   */\n      tag_180\n      tag_99\n      jump\t// in\n    tag_180:\n        /* \"#utility.yul\":7083:7186   */\n    tag_179:\n        /* \"#utility.yul\":7213:7214   */\n      0x01\n        /* \"#utility.yul\":7206:7211   */\n      dup3\n        /* \"#utility.yul\":7202:7215   */\n      add\n        /* \"#utility.yul\":7195:7215   */\n      swap1\n      pop\n        /* \"#utility.yul\":6988:7221   */\n      swap2\n      swap1\n      pop\n      jump\t// out\n        /* \"#utility.yul\":7227:7345   */\n    tag_100:\n        /* \"#utility.yul\":7313:7314   */\n      0x02\n        /* \"#utility.yul\":7306:7311   */\n      dup2\n        /* \"#utility.yul\":7303:7315   */\n      lt\n        /* \"#utility.yul\":7293:7339   */\n      tag_182\n      jumpi\n        /* \"#utility.yul\":7319:7337   */\n      tag_183\n      tag_38\n      jump\t// in\n    tag_183:\n        /* \"#utility.yul\":7293:7339   */\n    tag_182:\n        /* \"#utility.yul\":7227:7345   */\n      pop\n      jump\t// out\n        /* \"#utility.yul\":7351:7488   */\n    tag_101:\n        /* \"#utility.yul\":7401:7408   */\n      0x00\n        /* \"#utility.yul\":7430:7435   */\n      dup2\n        /* \"#utility.yul\":7419:7435   */\n      swap1\n      pop\n        /* \"#utility.yul\":7436:7482   */\n      tag_185\n        /* \"#utility.yul\":7476:7481   */\n      dup3\n        /* \"#utility.yul\":7436:7482   */\n      tag_100\n      jump\t// in\n    tag_185:\n        /* \"#utility.yul\":7351:7488   */\n      swap2\n      swap1\n      pop\n      jump\t// out\n        /* \"#utility.yul\":7494:7631   */\n    tag_102:\n        /* \"#utility.yul\":7555:7564   */\n      0x00\n        /* \"#utility.yul\":7588:7625   */\n      tag_187\n        /* \"#utility.yul\":7619:7624   */\n      dup3\n        /* \"#utility.yul\":7588:7625   */\n      tag_101\n      jump\t// in\n    tag_187:\n        /* \"#utility.yul\":7575:7625   */\n      swap1\n      pop\n        /* \"#utility.yul\":7494:7631   */\n      swap2\n      swap1\n      pop\n      jump\t// out\n        /* \"#utility.yul\":7637:7790   */\n    tag_103:\n        /* \"#utility.yul\":7735:7783   */\n      tag_189\n        /* \"#utility.yul\":7777:7782   */\n      dup2\n        /* \"#utility.yul\":7735:7783   */\n      tag_102\n      jump\t// in\n    tag_189:\n        /* \"#utility.yul\":7730:7733   */\n      dup3\n        /* \"#utility.yul\":7723:7784   */\n      mstore\n        /* \"#utility.yul\":7637:7790   */\n      pop\n      pop\n      jump\t// out\n        /* \"#utility.yul\":7796:8150   */\n    tag_74:\n        /* \"#utility.yul\":7928:7932   */\n      0x00\n        /* \"#utility.yul\":7966:7968   */\n      0x40\n        /* \"#utility.yul\":7955:7964   */\n      dup3\n        /* \"#utility.yul\":7951:7969   */\n      add\n        /* \"#utility.yul\":7943:7969   */\n      swap1\n      pop\n        /* \"#utility.yul\":7979:8050   */\n      tag_191\n        /* \"#utility.yul\":8047:8048   */\n      0x00\n        /* \"#utility.yul\":8036:8045   */\n      dup4\n        /* \"#utility.yul\":8032:8049   */\n      add\n        /* \"#utility.yul\":8023:8029   */\n      dup6\n        /* \"#utility.yul\":7979:8050   */\n      tag_89\n      jump\t// in\n    tag_191:\n        /* \"#utility.yul\":8060:8143   */\n      tag_192\n        /* \"#utility.yul\":8139:8141   */\n      0x20\n        /* \"#utility.yul\":8128:8137   */\n      dup4\n        /* \"#utility.yul\":8124:8142   */\n      add\n        /* \"#utility.yul\":8115:8121   */\n      dup5\n        /* \"#utility.yul\":8060:8143   */\n      tag_103\n      jump\t// in\n    tag_192:\n        /* \"#utility.yul\":7796:8150   */\n      swap4\n      swap3\n      pop\n      pop\n      pop\n      jump\t// out\n\n    auxdata: 0xa2646970667358221220ec683bbe2ed3aa5362117b7361912892be47c62b129f036a8316a4c675b9362364736f6c63430008160033\n}\n",
				"bytecode": {
					"linkReferences": {},
					"object": "608060405234801561000f575f80fd5b506040516109f83803806109f883398181016040528101906100319190610114565b805f806101000a81548173ffffffffffffffffffffffffffffffffffffffff021916908373ffffffffffffffffffffffffffffffffffffffff1602179055503360015f6101000a81548173ffffffffffffffffffffffffffffffffffffffff021916908373ffffffffffffffffffffffffffffffffffffffff1602179055505061013f565b5f80fd5b5f73ffffffffffffffffffffffffffffffffffffffff82169050919050565b5f6100e3826100ba565b9050919050565b6100f3816100d9565b81146100fd575f80fd5b50565b5f8151905061010e816100ea565b92915050565b5f60208284031215610129576101286100b6565b5b5f61013684828501610100565b91505092915050565b6108ac8061014c5f395ff3fe608060405234801561000f575f80fd5b5060043610610060575f3560e01c80630aec83601461006457806336c6fb721461008357806355a373d6146100b35780638da5cb5b146100d1578063b3f98adc146100ef578063d8bff5a51461010b575b5f80fd5b61006c61013b565b60405161007a929190610480565b60405180910390f35b61009d600480360381019061009891906104ce565b6101b1565b6040516100aa91906104f9565b60405180910390f35b6100bb6101c6565b6040516100c8919061058c565b60405180910390f35b6100d96101e9565b6040516100e691906105c5565b60405180910390f35b610109600480360381019061010491906104ce565b61020e565b005b61012560048036038101906101209190610608565b610453565b60405161013291906104f9565b60405180910390f35b5f8060035f80600181111561015357610152610633565b5b600181111561016557610164610633565b5b81526020019081526020015f2054915060035f60018081111561018b5761018a610633565b5b600181111561019d5761019c610633565b5b81526020019081526020015f205490509091565b6003602052805f5260405f205f915090505481565b5f8054906101000a900473ffffffffffffffffffffffffffffffffffffffff1681565b60015f9054906101000a900473ffffffffffffffffffffffffffffffffffffffff1681565b5f805f9054906101000a900473ffffffffffffffffffffffffffffffffffffffff1673ffffffffffffffffffffffffffffffffffffffff166370a08231336040518263ffffffff1660e01b815260040161026891906105c5565b602060405180830381865afa158015610283573d5f803e3d5ffd5b505050506040513d601f19601f820116820180604052508101906102a7919061068a565b116102e7576040517f08c379a00000000000000000000000000000000000000000000000000000000081526004016102de9061070f565b60405180910390fd5b5f60018111156102fa576102f9610633565b5b81600181111561030d5761030c610633565b5b148061033c575060018081111561032757610326610633565b5b81600181111561033a57610339610633565b5b145b61037b576040517f08c379a000000000000000000000000000000000000000000000000000000000815260040161037290610777565b60405180910390fd5b60025f3373ffffffffffffffffffffffffffffffffffffffff1673ffffffffffffffffffffffffffffffffffffffff1681526020019081526020015f205f8154809291906103c8906107c2565b919050555060035f8260018111156103e3576103e2610633565b5b60018111156103f5576103f4610633565b5b81526020019081526020015f205f815480929190610412906107c2565b91905055507fefffa0c001f10a86d936643c098510eba656ffab1d0c5165822b79d4c895e88f338260405161044892919061084f565b60405180910390a150565b6002602052805f5260405f205f915090505481565b5f819050919050565b61047a81610468565b82525050565b5f6040820190506104935f830185610471565b6104a06020830184610471565b9392505050565b5f80fd5b600281106104b7575f80fd5b50565b5f813590506104c8816104ab565b92915050565b5f602082840312156104e3576104e26104a7565b5b5f6104f0848285016104ba565b91505092915050565b5f60208201905061050c5f830184610471565b92915050565b5f73ffffffffffffffffffffffffffffffffffffffff82169050919050565b5f819050919050565b5f61055461054f61054a84610512565b610531565b610512565b9050919050565b5f6105658261053a565b9050919050565b5f6105768261055b565b9050919050565b6105868161056c565b82525050565b5f60208201905061059f5f83018461057d565b92915050565b5f6105af82610512565b9050919050565b6105bf816105a5565b82525050565b5f6020820190506105d85f8301846105b6565b92915050565b6105e7816105a5565b81146105f1575f80fd5b50565b5f81359050610602816105de565b92915050565b5f6020828403121561061d5761061c6104a7565b5b5f61062a848285016105f4565b91505092915050565b7f4e487b71000000000000000000000000000000000000000000000000000000005f52602160045260245ffd5b61066981610468565b8114610673575f80fd5b50565b5f8151905061068481610660565b92915050565b5f6020828403121561069f5761069e6104a7565b5b5f6106ac84828501610676565b91505092915050565b5f82825260208201905092915050565b7f596f752068617665206e6f20746f6b656e7320746f20766f74650000000000005f82015250565b5f6106f9601a836106b5565b9150610704826106c5565b602082019050919050565b5f6020820190508181035f830152610726816106ed565b9050919050565b7f496e76616c69642070726f706f73616c000000000000000000000000000000005f82015250565b5f6107616010836106b5565b915061076c8261072d565b602082019050919050565b5f6020820190508181035f83015261078e81610755565b9050919050565b7f4e487b71000000000000000000000000000000000000000000000000000000005f52601160045260245ffd5b5f6107cc82610468565b91507fffffffffffffffffffffffffffffffffffffffffffffffffffffffffffffffff82036107fe576107fd610795565b5b600182019050919050565b6002811061081a57610819610633565b5b50565b5f81905061082a82610809565b919050565b5f6108398261081d565b9050919050565b6108498161082f565b82525050565b5f6040820190506108625f8301856105b6565b61086f6020830184610840565b939250505056fea2646970667358221220ec683bbe2ed3aa5362117b7361912892be47c62b129f036a8316a4c675b9362364736f6c63430008160033",
					"opcodes": "PUSH1 0x80 PUSH1 0x40 MSTORE CALLVALUE DUP1 ISZERO PUSH2 0xF JUMPI PUSH0 DUP1 REVERT JUMPDEST POP PUSH1 0x40 MLOAD PUSH2 0x9F8 CODESIZE SUB DUP1 PUSH2 0x9F8 DUP4 CODECOPY DUP2 DUP2 ADD PUSH1 0x40 MSTORE DUP2 ADD SWAP1 PUSH2 0x31 SWAP2 SWAP1 PUSH2 0x114 JUMP JUMPDEST DUP1 PUSH0 DUP1 PUSH2 0x100 EXP DUP2 SLOAD DUP2 PUSH20 0xFFFFFFFFFFFFFFFFFFFFFFFFFFFFFFFFFFFFFFFF MUL NOT AND SWAP1 DUP4 PUSH20 0xFFFFFFFFFFFFFFFFFFFFFFFFFFFFFFFFFFFFFFFF AND MUL OR SWAP1 SSTORE POP CALLER PUSH1 0x1 PUSH0 PUSH2 0x100 EXP DUP2 SLOAD DUP2 PUSH20 0xFFFFFFFFFFFFFFFFFFFFFFFFFFFFFFFFFFFFFFFF MUL NOT AND SWAP1 DUP4 PUSH20 0xFFFFFFFFFFFFFFFFFFFFFFFFFFFFFFFFFFFFFFFF AND MUL OR SWAP1 SSTORE POP POP PUSH2 0x13F JUMP JUMPDEST PUSH0 DUP1 REVERT JUMPDEST PUSH0 PUSH20 0xFFFFFFFFFFFFFFFFFFFFFFFFFFFFFFFFFFFFFFFF DUP3 AND SWAP1 POP SWAP2 SWAP1 POP JUMP JUMPDEST PUSH0 PUSH2 0xE3 DUP3 PUSH2 0xBA JUMP JUMPDEST SWAP1 POP SWAP2 SWAP1 POP JUMP JUMPDEST PUSH2 0xF3 DUP2 PUSH2 0xD9 JUMP JUMPDEST DUP2 EQ PUSH2 0xFD JUMPI PUSH0 DUP1 REVERT JUMPDEST POP JUMP JUMPDEST PUSH0 DUP2 MLOAD SWAP1 POP PUSH2 0x10E DUP2 PUSH2 0xEA JUMP JUMPDEST SWAP3 SWAP2 POP POP JUMP JUMPDEST PUSH0 PUSH1 0x20 DUP3 DUP5 SUB SLT ISZERO PUSH2 0x129 JUMPI PUSH2 0x128 PUSH2 0xB6 JUMP JUMPDEST JUMPDEST PUSH0 PUSH2 0x136 DUP5 DUP3 DUP6 ADD PUSH2 0x100 JUMP JUMPDEST SWAP2 POP POP SWAP3 SWAP2 POP POP JUMP JUMPDEST PUSH2 0x8AC DUP1 PUSH2 0x14C PUSH0 CODECOPY PUSH0 RETURN INVALID PUSH1 0x80 PUSH1 0x40 MSTORE CALLVALUE DUP1 ISZERO PUSH2 0xF JUMPI PUSH0 DUP1 REVERT JUMPDEST POP PUSH1 0x4 CALLDATASIZE LT PUSH2 0x60 JUMPI PUSH0 CALLDATALOAD PUSH1 0xE0 SHR DUP1 PUSH4 0xAEC8360 EQ PUSH2 0x64 JUMPI DUP1 PUSH4 0x36C6FB72 EQ PUSH2 0x83 JUMPI DUP1 PUSH4 0x55A373D6 EQ PUSH2 0xB3 JUMPI DUP1 PUSH4 0x8DA5CB5B EQ PUSH2 0xD1 JUMPI DUP1 PUSH4 0xB3F98ADC EQ PUSH2 0xEF JUMPI DUP1 PUSH4 0xD8BFF5A5 EQ PUSH2 0x10B JUMPI JUMPDEST PUSH0 DUP1 REVERT JUMPDEST PUSH2 0x6C PUSH2 0x13B JUMP JUMPDEST PUSH1 0x40 MLOAD PUSH2 0x7A SWAP3 SWAP2 SWAP1 PUSH2 0x480 JUMP JUMPDEST PUSH1 0x40 MLOAD DUP1 SWAP2 SUB SWAP1 RETURN JUMPDEST PUSH2 0x9D PUSH1 0x4 DUP1 CALLDATASIZE SUB DUP2 ADD SWAP1 PUSH2 0x98 SWAP2 SWAP1 PUSH2 0x4CE JUMP JUMPDEST PUSH2 0x1B1 JUMP JUMPDEST PUSH1 0x40 MLOAD PUSH2 0xAA SWAP2 SWAP1 PUSH2 0x4F9 JUMP JUMPDEST PUSH1 0x40 MLOAD DUP1 SWAP2 SUB SWAP1 RETURN JUMPDEST PUSH2 0xBB PUSH2 0x1C6 JUMP JUMPDEST PUSH1 0x40 MLOAD PUSH2 0xC8 SWAP2 SWAP1 PUSH2 0x58C JUMP JUMPDEST PUSH1 0x40 MLOAD DUP1 SWAP2 SUB SWAP1 RETURN JUMPDEST PUSH2 0xD9 PUSH2 0x1E9 JUMP JUMPDEST PUSH1 0x40 MLOAD PUSH2 0xE6 SWAP2 SWAP1 PUSH2 0x5C5 JUMP JUMPDEST PUSH1 0x40 MLOAD DUP1 SWAP2 SUB SWAP1 RETURN JUMPDEST PUSH2 0x109 PUSH1 0x4 DUP1 CALLDATASIZE SUB DUP2 ADD SWAP1 PUSH2 0x104 SWAP2 SWAP1 PUSH2 0x4CE JUMP JUMPDEST PUSH2 0x20E JUMP JUMPDEST STOP JUMPDEST PUSH2 0x125 PUSH1 0x4 DUP1 CALLDATASIZE SUB DUP2 ADD SWAP1 PUSH2 0x120 SWAP2 SWAP1 PUSH2 0x608 JUMP JUMPDEST PUSH2 0x453 JUMP JUMPDEST PUSH1 0x40 MLOAD PUSH2 0x132 SWAP2 SWAP1 PUSH2 0x4F9 JUMP JUMPDEST PUSH1 0x40 MLOAD DUP1 SWAP2 SUB SWAP1 RETURN JUMPDEST PUSH0 DUP1 PUSH1 0x3 PUSH0 DUP1 PUSH1 0x1 DUP2 GT ISZERO PUSH2 0x153 JUMPI PUSH2 0x152 PUSH2 0x633 JUMP JUMPDEST JUMPDEST PUSH1 0x1 DUP2 GT ISZERO PUSH2 0x165 JUMPI PUSH2 0x164 PUSH2 0x633 JUMP JUMPDEST JUMPDEST DUP2 MSTORE PUSH1 0x20 ADD SWAP1 DUP2 MSTORE PUSH1 0x20 ADD PUSH0 KECCAK256 SLOAD SWAP2 POP PUSH1 0x3 PUSH0 PUSH1 0x1 DUP1 DUP2 GT ISZERO PUSH2 0x18B JUMPI PUSH2 0x18A PUSH2 0x633 JUMP JUMPDEST JUMPDEST PUSH1 0x1 DUP2 GT ISZERO PUSH2 0x19D JUMPI PUSH2 0x19C PUSH2 0x633 JUMP JUMPDEST JUMPDEST DUP2 MSTORE PUSH1 0x20 ADD SWAP1 DUP2 MSTORE PUSH1 0x20 ADD PUSH0 KECCAK256 SLOAD SWAP1 POP SWAP1 SWAP2 JUMP JUMPDEST PUSH1 0x3 PUSH1 0x20 MSTORE DUP1 PUSH0 MSTORE PUSH1 0x40 PUSH0 KECCAK256 PUSH0 SWAP2 POP SWAP1 POP SLOAD DUP2 JUMP JUMPDEST PUSH0 DUP1 SLOAD SWAP1 PUSH2 0x100 EXP SWAP1 DIV PUSH20 0xFFFFFFFFFFFFFFFFFFFFFFFFFFFFFFFFFFFFFFFF AND DUP2 JUMP JUMPDEST PUSH1 0x1 PUSH0 SWAP1 SLOAD SWAP1 PUSH2 0x100 EXP SWAP1 DIV PUSH20 0xFFFFFFFFFFFFFFFFFFFFFFFFFFFFFFFFFFFFFFFF AND DUP2 JUMP JUMPDEST PUSH0 DUP1 PUSH0 SWAP1 SLOAD SWAP1 PUSH2 0x100 EXP SWAP1 DIV PUSH20 0xFFFFFFFFFFFFFFFFFFFFFFFFFFFFFFFFFFFFFFFF AND PUSH20 0xFFFFFFFFFFFFFFFFFFFFFFFFFFFFFFFFFFFFFFFF AND PUSH4 0x70A08231 CALLER PUSH1 0x40 MLOAD DUP3 PUSH4 0xFFFFFFFF AND PUSH1 0xE0 SHL DUP2 MSTORE PUSH1 0x4 ADD PUSH2 0x268 SWAP2 SWAP1 PUSH2 0x5C5 JUMP JUMPDEST PUSH1 0x20 PUSH1 0x40 MLOAD DUP1 DUP4 SUB DUP2 DUP7 GAS STATICCALL ISZERO DUP1 ISZERO PUSH2 0x283 JUMPI RETURNDATASIZE PUSH0 DUP1 RETURNDATACOPY RETURNDATASIZE PUSH0 REVERT JUMPDEST POP POP POP POP PUSH1 0x40 MLOAD RETURNDATASIZE PUSH1 0x1F NOT PUSH1 0x1F DUP3 ADD AND DUP3 ADD DUP1 PUSH1 0x40 MSTORE POP DUP2 ADD SWAP1 PUSH2 0x2A7 SWAP2 SWAP1 PUSH2 0x68A JUMP JUMPDEST GT PUSH2 0x2E7 JUMPI PUSH1 0x40 MLOAD PUSH32 0x8C379A000000000000000000000000000000000000000000000000000000000 DUP2 MSTORE PUSH1 0x4 ADD PUSH2 0x2DE SWAP1 PUSH2 0x70F JUMP JUMPDEST PUSH1 0x40 MLOAD DUP1 SWAP2 SUB SWAP1 REVERT JUMPDEST PUSH0 PUSH1 0x1 DUP2 GT ISZERO PUSH2 0x2FA JUMPI PUSH2 0x2F9 PUSH2 0x633 JUMP JUMPDEST JUMPDEST DUP2 PUSH1 0x1 DUP2 GT ISZERO PUSH2 0x30D JUMPI PUSH2 0x30C PUSH2 0x633 JUMP JUMPDEST JUMPDEST EQ DUP1 PUSH2 0x33C JUMPI POP PUSH1 0x1 DUP1 DUP2 GT ISZERO PUSH2 0x327 JUMPI PUSH2 0x326 PUSH2 0x633 JUMP JUMPDEST JUMPDEST DUP2 PUSH1 0x1 DUP2 GT ISZERO PUSH2 0x33A JUMPI PUSH2 0x339 PUSH2 0x633 JUMP JUMPDEST JUMPDEST EQ JUMPDEST PUSH2 0x37B JUMPI PUSH1 0x40 MLOAD PUSH32 0x8C379A000000000000000000000000000000000000000000000000000000000 DUP2 MSTORE PUSH1 0x4 ADD PUSH2 0x372 SWAP1 PUSH2 0x777 JUMP JUMPDEST PUSH1 0x40 MLOAD DUP1 SWAP2 SUB SWAP1 REVERT JUMPDEST PUSH1 0x2 PUSH0 CALLER PUSH20 0xFFFFFFFFFFFFFFFFFFFFFFFFFFFFFFFFFFFFFFFF AND PUSH20 0xFFFFFFFFFFFFFFFFFFFFFFFFFFFFFFFFFFFFFFFF AND DUP2 MSTORE PUSH1 0x20 ADD SWAP1 DUP2 MSTORE PUSH1 0x20 ADD PUSH0 KECCAK256 PUSH0 DUP2 SLOAD DUP1 SWAP3 SWAP2 SWAP1 PUSH2 0x3C8 SWAP1 PUSH2 0x7C2 JUMP JUMPDEST SWAP2 SWAP1 POP SSTORE POP PUSH1 0x3 PUSH0 DUP3 PUSH1 0x1 DUP2 GT ISZERO PUSH2 0x3E3 JUMPI PUSH2 0x3E2 PUSH2 0x633 JUMP JUMPDEST JUMPDEST PUSH1 0x1 DUP2 GT ISZERO PUSH2 0x3F5 JUMPI PUSH2 0x3F4 PUSH2 0x633 JUMP JUMPDEST JUMPDEST DUP2 MSTORE PUSH1 0x20 ADD SWAP1 DUP2 MSTORE PUSH1 0x20 ADD PUSH0 KECCAK256 PUSH0 DUP2 SLOAD DUP1 SWAP3 SWAP2 SWAP1 PUSH2 0x412 SWAP1 PUSH2 0x7C2 JUMP JUMPDEST SWAP2 SWAP1 POP SSTORE POP PUSH32 0xEFFFA0C001F10A86D936643C098510EBA656FFAB1D0C5165822B79D4C895E88F CALLER DUP3 PUSH1 0x40 MLOAD PUSH2 0x448 SWAP3 SWAP2 SWAP1 PUSH2 0x84F JUMP JUMPDEST PUSH1 0x40 MLOAD DUP1 SWAP2 SUB SWAP1 LOG1 POP JUMP JUMPDEST PUSH1 0x2 PUSH1 0x20 MSTORE DUP1 PUSH0 MSTORE PUSH1 0x40 PUSH0 KECCAK256 PUSH0 SWAP2 POP SWAP1 POP SLOAD DUP2 JUMP JUMPDEST PUSH0 DUP2 SWAP1 POP SWAP2 SWAP1 POP JUMP JUMPDEST PUSH2 0x47A DUP2 PUSH2 0x468 JUMP JUMPDEST DUP3 MSTORE POP POP JUMP JUMPDEST PUSH0 PUSH1 0x40 DUP3 ADD SWAP1 POP PUSH2 0x493 PUSH0 DUP4 ADD DUP6 PUSH2 0x471 JUMP JUMPDEST PUSH2 0x4A0 PUSH1 0x20 DUP4 ADD DUP5 PUSH2 0x471 JUMP JUMPDEST SWAP4 SWAP3 POP POP POP JUMP JUMPDEST PUSH0 DUP1 REVERT JUMPDEST PUSH1 0x2 DUP2 LT PUSH2 0x4B7 JUMPI PUSH0 DUP1 REVERT JUMPDEST POP JUMP JUMPDEST PUSH0 DUP2 CALLDATALOAD SWAP1 POP PUSH2 0x4C8 DUP2 PUSH2 0x4AB JUMP JUMPDEST SWAP3 SWAP2 POP POP JUMP JUMPDEST PUSH0 PUSH1 0x20 DUP3 DUP5 SUB SLT ISZERO PUSH2 0x4E3 JUMPI PUSH2 0x4E2 PUSH2 0x4A7 JUMP JUMPDEST JUMPDEST PUSH0 PUSH2 0x4F0 DUP5 DUP3 DUP6 ADD PUSH2 0x4BA JUMP JUMPDEST SWAP2 POP POP SWAP3 SWAP2 POP POP JUMP JUMPDEST PUSH0 PUSH1 0x20 DUP3 ADD SWAP1 POP PUSH2 0x50C PUSH0 DUP4 ADD DUP5 PUSH2 0x471 JUMP JUMPDEST SWAP3 SWAP2 POP POP JUMP JUMPDEST PUSH0 PUSH20 0xFFFFFFFFFFFFFFFFFFFFFFFFFFFFFFFFFFFFFFFF DUP3 AND SWAP1 POP SWAP2 SWAP1 POP JUMP JUMPDEST PUSH0 DUP2 SWAP1 POP SWAP2 SWAP1 POP JUMP JUMPDEST PUSH0 PUSH2 0x554 PUSH2 0x54F PUSH2 0x54A DUP5 PUSH2 0x512 JUMP JUMPDEST PUSH2 0x531 JUMP JUMPDEST PUSH2 0x512 JUMP JUMPDEST SWAP1 POP SWAP2 SWAP1 POP JUMP JUMPDEST PUSH0 PUSH2 0x565 DUP3 PUSH2 0x53A JUMP JUMPDEST SWAP1 POP SWAP2 SWAP1 POP JUMP JUMPDEST PUSH0 PUSH2 0x576 DUP3 PUSH2 0x55B JUMP JUMPDEST SWAP1 POP SWAP2 SWAP1 POP JUMP JUMPDEST PUSH2 0x586 DUP2 PUSH2 0x56C JUMP JUMPDEST DUP3 MSTORE POP POP JUMP JUMPDEST PUSH0 PUSH1 0x20 DUP3 ADD SWAP1 POP PUSH2 0x59F PUSH0 DUP4 ADD DUP5 PUSH2 0x57D JUMP JUMPDEST SWAP3 SWAP2 POP POP JUMP JUMPDEST PUSH0 PUSH2 0x5AF DUP3 PUSH2 0x512 JUMP JUMPDEST SWAP1 POP SWAP2 SWAP1 POP JUMP JUMPDEST PUSH2 0x5BF DUP2 PUSH2 0x5A5 JUMP JUMPDEST DUP3 MSTORE POP POP JUMP JUMPDEST PUSH0 PUSH1 0x20 DUP3 ADD SWAP1 POP PUSH2 0x5D8 PUSH0 DUP4 ADD DUP5 PUSH2 0x5B6 JUMP JUMPDEST SWAP3 SWAP2 POP POP JUMP JUMPDEST PUSH2 0x5E7 DUP2 PUSH2 0x5A5 JUMP JUMPDEST DUP2 EQ PUSH2 0x5F1 JUMPI PUSH0 DUP1 REVERT JUMPDEST POP JUMP JUMPDEST PUSH0 DUP2 CALLDATALOAD SWAP1 POP PUSH2 0x602 DUP2 PUSH2 0x5DE JUMP JUMPDEST SWAP3 SWAP2 POP POP JUMP JUMPDEST PUSH0 PUSH1 0x20 DUP3 DUP5 SUB SLT ISZERO PUSH2 0x61D JUMPI PUSH2 0x61C PUSH2 0x4A7 JUMP JUMPDEST JUMPDEST PUSH0 PUSH2 0x62A DUP5 DUP3 DUP6 ADD PUSH2 0x5F4 JUMP JUMPDEST SWAP2 POP POP SWAP3 SWAP2 POP POP JUMP JUMPDEST PUSH32 0x4E487B7100000000000000000000000000000000000000000000000000000000 PUSH0 MSTORE PUSH1 0x21 PUSH1 0x4 MSTORE PUSH1 0x24 PUSH0 REVERT JUMPDEST PUSH2 0x669 DUP2 PUSH2 0x468 JUMP JUMPDEST DUP2 EQ PUSH2 0x673 JUMPI PUSH0 DUP1 REVERT JUMPDEST POP JUMP JUMPDEST PUSH0 DUP2 MLOAD SWAP1 POP PUSH2 0x684 DUP2 PUSH2 0x660 JUMP JUMPDEST SWAP3 SWAP2 POP POP JUMP JUMPDEST PUSH0 PUSH1 0x20 DUP3 DUP5 SUB SLT ISZERO PUSH2 0x69F JUMPI PUSH2 0x69E PUSH2 0x4A7 JUMP JUMPDEST JUMPDEST PUSH0 PUSH2 0x6AC DUP5 DUP3 DUP6 ADD PUSH2 0x676 JUMP JUMPDEST SWAP2 POP POP SWAP3 SWAP2 POP POP JUMP JUMPDEST PUSH0 DUP3 DUP3 MSTORE PUSH1 0x20 DUP3 ADD SWAP1 POP SWAP3 SWAP2 POP POP JUMP JUMPDEST PUSH32 0x596F752068617665206E6F20746F6B656E7320746F20766F7465000000000000 PUSH0 DUP3 ADD MSTORE POP JUMP JUMPDEST PUSH0 PUSH2 0x6F9 PUSH1 0x1A DUP4 PUSH2 0x6B5 JUMP JUMPDEST SWAP2 POP PUSH2 0x704 DUP3 PUSH2 0x6C5 JUMP JUMPDEST PUSH1 0x20 DUP3 ADD SWAP1 POP SWAP2 SWAP1 POP JUMP JUMPDEST PUSH0 PUSH1 0x20 DUP3 ADD SWAP1 POP DUP2 DUP2 SUB PUSH0 DUP4 ADD MSTORE PUSH2 0x726 DUP2 PUSH2 0x6ED JUMP JUMPDEST SWAP1 POP SWAP2 SWAP1 POP JUMP JUMPDEST PUSH32 0x496E76616C69642070726F706F73616C00000000000000000000000000000000 PUSH0 DUP3 ADD MSTORE POP JUMP JUMPDEST PUSH0 PUSH2 0x761 PUSH1 0x10 DUP4 PUSH2 0x6B5 JUMP JUMPDEST SWAP2 POP PUSH2 0x76C DUP3 PUSH2 0x72D JUMP JUMPDEST PUSH1 0x20 DUP3 ADD SWAP1 POP SWAP2 SWAP1 POP JUMP JUMPDEST PUSH0 PUSH1 0x20 DUP3 ADD SWAP1 POP DUP2 DUP2 SUB PUSH0 DUP4 ADD MSTORE PUSH2 0x78E DUP2 PUSH2 0x755 JUMP JUMPDEST SWAP1 POP SWAP2 SWAP1 POP JUMP JUMPDEST PUSH32 0x4E487B7100000000000000000000000000000000000000000000000000000000 PUSH0 MSTORE PUSH1 0x11 PUSH1 0x4 MSTORE PUSH1 0x24 PUSH0 REVERT JUMPDEST PUSH0 PUSH2 0x7CC DUP3 PUSH2 0x468 JUMP JUMPDEST SWAP2 POP PUSH32 0xFFFFFFFFFFFFFFFFFFFFFFFFFFFFFFFFFFFFFFFFFFFFFFFFFFFFFFFFFFFFFFFF DUP3 SUB PUSH2 0x7FE JUMPI PUSH2 0x7FD PUSH2 0x795 JUMP JUMPDEST JUMPDEST PUSH1 0x1 DUP3 ADD SWAP1 POP SWAP2 SWAP1 POP JUMP JUMPDEST PUSH1 0x2 DUP2 LT PUSH2 0x81A JUMPI PUSH2 0x819 PUSH2 0x633 JUMP JUMPDEST JUMPDEST POP JUMP JUMPDEST PUSH0 DUP2 SWAP1 POP PUSH2 0x82A DUP3 PUSH2 0x809 JUMP JUMPDEST SWAP2 SWAP1 POP JUMP JUMPDEST PUSH0 PUSH2 0x839 DUP3 PUSH2 0x81D JUMP JUMPDEST SWAP1 POP SWAP2 SWAP1 POP JUMP JUMPDEST PUSH2 0x849 DUP2 PUSH2 0x82F JUMP JUMPDEST DUP3 MSTORE POP POP JUMP JUMPDEST PUSH0 PUSH1 0x40 DUP3 ADD SWAP1 POP PUSH2 0x862 PUSH0 DUP4 ADD DUP6 PUSH2 0x5B6 JUMP JUMPDEST PUSH2 0x86F PUSH1 0x20 DUP4 ADD DUP5 PUSH2 0x840 JUMP JUMPDEST SWAP4 SWAP3 POP POP POP JUMP INVALID LOG2 PUSH5 0x6970667358 0x22 SLT KECCAK256 0xEC PUSH9 0x3BBE2ED3AA5362117B PUSH20 0x61912892BE47C62B129F036A8316A4C675B93623 PUSH5 0x736F6C6343 STOP ADDMOD AND STOP CALLER "
				},
				"gasEstimates": {
					"creation": {
						"codeDepositCost": "444000",
						"executionCost": "infinite",
						"totalCost": "infinite"
					},
					"external": {
						"displayResults()": "infinite",
						"owner()": "2552",
						"tokenContract()": "infinite",
						"vote(uint8)": "infinite",
						"votes(address)": "2890",
						"votingResults(uint8)": "2712"
					}
				},
				"methodIdentifiers": {
					"displayResults()": "0aec8360",
					"owner()": "8da5cb5b",
					"tokenContract()": "55a373d6",
					"vote(uint8)": "b3f98adc",
					"votes(address)": "d8bff5a5",
					"votingResults(uint8)": "36c6fb72"
				}
			},
			"storageLayout": {
				"storage": [
					{
						"astId": 830,
						"contract": "solidity-fundamentals/contracts/TokenBasedVoting.sol:Voting",
						"label": "tokenContract",
						"offset": 0,
						"slot": "0",
						"type": "t_contract(Token)827"
					},
					{
						"astId": 832,
						"contract": "solidity-fundamentals/contracts/TokenBasedVoting.sol:Voting",
						"label": "owner",
						"offset": 0,
						"slot": "1",
						"type": "t_address"
					},
					{
						"astId": 839,
						"contract": "solidity-fundamentals/contracts/TokenBasedVoting.sol:Voting",
						"label": "votes",
						"offset": 0,
						"slot": "2",
						"type": "t_mapping(t_address,t_uint256)"
					},
					{
						"astId": 844,
						"contract": "solidity-fundamentals/contracts/TokenBasedVoting.sol:Voting",
						"label": "votingResults",
						"offset": 0,
						"slot": "3",
						"type": "t_mapping(t_enum(Candidate)835,t_uint256)"
					}
				],
				"types": {
					"t_address": {
						"encoding": "inplace",
						"label": "address",
						"numberOfBytes": "20"
					},
					"t_contract(Token)827": {
						"encoding": "inplace",
						"label": "contract Token",
						"numberOfBytes": "20"
					},
					"t_enum(Candidate)835": {
						"encoding": "inplace",
						"label": "enum Voting.Candidate",
						"numberOfBytes": "1"
					},
					"t_mapping(t_address,t_uint256)": {
						"encoding": "mapping",
						"key": "t_address",
						"label": "mapping(address => uint256)",
						"numberOfBytes": "32",
						"value": "t_uint256"
					},
					"t_mapping(t_enum(Candidate)835,t_uint256)": {
						"encoding": "mapping",
						"key": "t_enum(Candidate)835",
						"label": "mapping(enum Voting.Candidate => uint256)",
						"numberOfBytes": "32",
						"value": "t_uint256"
					},
					"t_uint256": {
						"encoding": "inplace",
						"label": "uint256",
						"numberOfBytes": "32"
					}
				}
			},
			"userdoc": {
				"kind": "user",
				"methods": {},
				"version": 1
			}
		}
	}
}