{
	"solidity-fundamentals/contracts/TimeLockedSavings.sol": {
		"TimeLockedSavings": {
			"abi": [
				{
					"inputs": [],
					"name": "EmptyPurpose",
					"type": "error"
				},
				{
					"inputs": [],
					"name": "InvalidDepositAmount",
					"type": "error"
				},
				{
					"inputs": [],
					"name": "InvalidDuration",
					"type": "error"
				},
				{
					"inputs": [],
					"name": "NotVaultOwner",
					"type": "error"
				},
				{
					"inputs": [],
					"name": "VaultInactive",
					"type": "error"
				},
				{
					"inputs": [],
					"name": "VaultLocked",
					"type": "error"
				},
				{
					"inputs": [],
					"name": "ZeroTargetAmount",
					"type": "error"
				},
				{
					"inputs": [],
					"name": "ZeroValue",
					"type": "error"
				},
				{
					"anonymous": false,
					"inputs": [
						{
							"indexed": false,
							"internalType": "uint256",
							"name": "vaultId",
							"type": "uint256"
						}
					],
					"name": "Deposit",
					"type": "event"
				},
				{
					"anonymous": false,
					"inputs": [
						{
							"indexed": false,
							"internalType": "uint256",
							"name": "vaultId",
							"type": "uint256"
						}
					],
					"name": "VaultCreated",
					"type": "event"
				},
				{
					"anonymous": false,
					"inputs": [
						{
							"indexed": false,
							"internalType": "uint256",
							"name": "vaultId",
							"type": "uint256"
						}
					],
					"name": "Withdrawal",
					"type": "event"
				},
				{
					"inputs": [
						{
							"internalType": "uint256",
							"name": "_targetAmount",
							"type": "uint256"
						},
						{
							"internalType": "uint256",
							"name": "_duration",
							"type": "uint256"
						},
						{
							"internalType": "string",
							"name": "_purpose",
							"type": "string"
						}
					],
					"name": "createVault",
					"outputs": [],
					"stateMutability": "payable",
					"type": "function"
				},
				{
					"inputs": [
						{
							"internalType": "uint256",
							"name": "_vaultId",
							"type": "uint256"
						}
					],
					"name": "depositVault",
					"outputs": [],
					"stateMutability": "payable",
					"type": "function"
				},
				{
					"inputs": [
						{
							"internalType": "uint256",
							"name": "_targetAmount",
							"type": "uint256"
						}
					],
					"name": "minDeposit",
					"outputs": [
						{
							"internalType": "uint256",
							"name": "",
							"type": "uint256"
						}
					],
					"stateMutability": "pure",
					"type": "function"
				},
				{
					"inputs": [],
					"name": "minDuration",
					"outputs": [
						{
							"internalType": "uint256",
							"name": "",
							"type": "uint256"
						}
					],
					"stateMutability": "pure",
					"type": "function"
				},
				{
					"inputs": [
						{
							"internalType": "uint256",
							"name": "",
							"type": "uint256"
						}
					],
					"name": "vaults",
					"outputs": [
						{
							"internalType": "address",
							"name": "owner",
							"type": "address"
						},
						{
							"internalType": "uint256",
							"name": "depositAmount",
							"type": "uint256"
						},
						{
							"internalType": "uint256",
							"name": "targetAmount",
							"type": "uint256"
						},
						{
							"internalType": "uint256",
							"name": "lockEndTime",
							"type": "uint256"
						},
						{
							"internalType": "string",
							"name": "purpose",
							"type": "string"
						},
						{
							"internalType": "bool",
							"name": "withdrawn",
							"type": "bool"
						}
					],
					"stateMutability": "view",
					"type": "function"
				},
				{
					"inputs": [
						{
							"internalType": "uint256",
							"name": "_vaultId",
							"type": "uint256"
						}
					],
					"name": "withdrawVault",
					"outputs": [],
					"stateMutability": "nonpayable",
					"type": "function"
				}
			],
			"devdoc": {
				"kind": "dev",
				"methods": {},
				"version": 1
			},
			"evm": {
				"assembly": "    /* \"solidity-fundamentals/contracts/TimeLockedSavings.sol\":65:2883  contract TimeLockedSavings {... */\n  mstore(0x40, 0x80)\n  callvalue\n  dup1\n  iszero\n  tag_1\n  jumpi\n  0x00\n  dup1\n  revert\ntag_1:\n  pop\n  dataSize(sub_0)\n  dup1\n  dataOffset(sub_0)\n  0x00\n  codecopy\n  0x00\n  return\nstop\n\nsub_0: assembly {\n        /* \"solidity-fundamentals/contracts/TimeLockedSavings.sol\":65:2883  contract TimeLockedSavings {... */\n      mstore(0x40, 0x80)\n      jumpi(tag_1, lt(calldatasize, 0x04))\n      shr(0xe0, calldataload(0x00))\n      dup1\n      0x3ed8a71e\n      eq\n      tag_2\n      jumpi\n      dup1\n      0x40dc8aa8\n      eq\n      tag_3\n      jumpi\n      dup1\n      0x56715761\n      eq\n      tag_4\n      jumpi\n      dup1\n      0x5a02ec19\n      eq\n      tag_5\n      jumpi\n      dup1\n      0x8c64ea4a\n      eq\n      tag_6\n      jumpi\n      dup1\n      0xb40afc1c\n      eq\n      tag_7\n      jumpi\n    tag_1:\n      0x00\n      dup1\n      revert\n        /* \"solidity-fundamentals/contracts/TimeLockedSavings.sol\":1276:2075  function createVault(... */\n    tag_2:\n      tag_8\n      0x04\n      dup1\n      calldatasize\n      sub\n      dup2\n      add\n      swap1\n      tag_9\n      swap2\n      swap1\n      tag_10\n      jump\t// in\n    tag_9:\n      tag_11\n      jump\t// in\n    tag_8:\n      stop\n        /* \"solidity-fundamentals/contracts/TimeLockedSavings.sol\":2766:2881  function minDeposit(uint256 _targetAmount) public pure returns (uint256) {... */\n    tag_3:\n      callvalue\n      dup1\n      iszero\n      tag_12\n      jumpi\n      0x00\n      dup1\n      revert\n    tag_12:\n      pop\n      tag_13\n      0x04\n      dup1\n      calldatasize\n      sub\n      dup2\n      add\n      swap1\n      tag_14\n      swap2\n      swap1\n      tag_15\n      jump\t// in\n    tag_14:\n      tag_16\n      jump\t// in\n    tag_13:\n      mload(0x40)\n      tag_17\n      swap2\n      swap1\n      tag_18\n      jump\t// in\n    tag_17:\n      mload(0x40)\n      dup1\n      swap2\n      sub\n      swap1\n      return\n        /* \"solidity-fundamentals/contracts/TimeLockedSavings.sol\":2677:2760  function minDuration() public pure returns (uint256) {... */\n    tag_4:\n      callvalue\n      dup1\n      iszero\n      tag_19\n      jumpi\n      0x00\n      dup1\n      revert\n    tag_19:\n      pop\n      tag_20\n      tag_21\n      jump\t// in\n    tag_20:\n      mload(0x40)\n      tag_22\n      swap2\n      swap1\n      tag_18\n      jump\t// in\n    tag_22:\n      mload(0x40)\n      dup1\n      swap2\n      sub\n      swap1\n      return\n        /* \"solidity-fundamentals/contracts/TimeLockedSavings.sol\":2081:2279  function depositVault(... */\n    tag_5:\n      tag_23\n      0x04\n      dup1\n      calldatasize\n      sub\n      dup2\n      add\n      swap1\n      tag_24\n      swap2\n      swap1\n      tag_15\n      jump\t// in\n    tag_24:\n      tag_25\n      jump\t// in\n    tag_23:\n      stop\n        /* \"solidity-fundamentals/contracts/TimeLockedSavings.sol\":325:346  Vault[] public vaults */\n    tag_6:\n      callvalue\n      dup1\n      iszero\n      tag_26\n      jumpi\n      0x00\n      dup1\n      revert\n    tag_26:\n      pop\n      tag_27\n      0x04\n      dup1\n      calldatasize\n      sub\n      dup2\n      add\n      swap1\n      tag_28\n      swap2\n      swap1\n      tag_15\n      jump\t// in\n    tag_28:\n      tag_29\n      jump\t// in\n    tag_27:\n      mload(0x40)\n      tag_30\n      swap7\n      swap6\n      swap5\n      swap4\n      swap3\n      swap2\n      swap1\n      tag_31\n      jump\t// in\n    tag_30:\n      mload(0x40)\n      dup1\n      swap2\n      sub\n      swap1\n      return\n        /* \"solidity-fundamentals/contracts/TimeLockedSavings.sol\":2285:2647  function withdrawVault(... */\n    tag_7:\n      callvalue\n      dup1\n      iszero\n      tag_32\n      jumpi\n      0x00\n      dup1\n      revert\n    tag_32:\n      pop\n      tag_33\n      0x04\n      dup1\n      calldatasize\n      sub\n      dup2\n      add\n      swap1\n      tag_34\n      swap2\n      swap1\n      tag_15\n      jump\t// in\n    tag_34:\n      tag_35\n      jump\t// in\n    tag_33:\n      stop\n        /* \"solidity-fundamentals/contracts/TimeLockedSavings.sol\":1276:2075  function createVault(... */\n    tag_11:\n        /* \"solidity-fundamentals/contracts/TimeLockedSavings.sol\":929:930  0 */\n      0x00\n        /* \"solidity-fundamentals/contracts/TimeLockedSavings.sol\":916:925  msg.value */\n      callvalue\n        /* \"solidity-fundamentals/contracts/TimeLockedSavings.sol\":916:930  msg.value == 0 */\n      sub\n        /* \"solidity-fundamentals/contracts/TimeLockedSavings.sol\":912:950  if (msg.value == 0) revert ZeroValue() */\n      tag_37\n      jumpi\n        /* \"solidity-fundamentals/contracts/TimeLockedSavings.sol\":939:950  ZeroValue() */\n      mload(0x40)\n      0x7c946ed700000000000000000000000000000000000000000000000000000000\n      dup2\n      mstore\n      0x04\n      add\n      mload(0x40)\n      dup1\n      swap2\n      sub\n      swap1\n      revert\n        /* \"solidity-fundamentals/contracts/TimeLockedSavings.sol\":912:950  if (msg.value == 0) revert ZeroValue() */\n    tag_37:\n        /* \"solidity-fundamentals/contracts/TimeLockedSavings.sol\":1454:1455  0 */\n      0x00\n        /* \"solidity-fundamentals/contracts/TimeLockedSavings.sol\":1437:1450  _targetAmount */\n      dup4\n        /* \"solidity-fundamentals/contracts/TimeLockedSavings.sol\":1437:1455  _targetAmount == 0 */\n      sub\n        /* \"solidity-fundamentals/contracts/TimeLockedSavings.sol\":1433:1482  if (_targetAmount == 0) revert ZeroTargetAmount() */\n      tag_39\n      jumpi\n        /* \"solidity-fundamentals/contracts/TimeLockedSavings.sol\":1464:1482  ZeroTargetAmount() */\n      mload(0x40)\n      0x748c805600000000000000000000000000000000000000000000000000000000\n      dup2\n      mstore\n      0x04\n      add\n      mload(0x40)\n      dup1\n      swap2\n      sub\n      swap1\n      revert\n        /* \"solidity-fundamentals/contracts/TimeLockedSavings.sol\":1433:1482  if (_targetAmount == 0) revert ZeroTargetAmount() */\n    tag_39:\n        /* \"solidity-fundamentals/contracts/TimeLockedSavings.sol\":1508:1533  minDeposit(_targetAmount) */\n      tag_40\n        /* \"solidity-fundamentals/contracts/TimeLockedSavings.sol\":1519:1532  _targetAmount */\n      dup4\n        /* \"solidity-fundamentals/contracts/TimeLockedSavings.sol\":1508:1518  minDeposit */\n      tag_16\n        /* \"solidity-fundamentals/contracts/TimeLockedSavings.sol\":1508:1533  minDeposit(_targetAmount) */\n      jump\t// in\n    tag_40:\n        /* \"solidity-fundamentals/contracts/TimeLockedSavings.sol\":1496:1505  msg.value */\n      callvalue\n        /* \"solidity-fundamentals/contracts/TimeLockedSavings.sol\":1496:1533  msg.value < minDeposit(_targetAmount) */\n      lt\n        /* \"solidity-fundamentals/contracts/TimeLockedSavings.sol\":1492:1576  if (msg.value < minDeposit(_targetAmount))... */\n      iszero\n      tag_41\n      jumpi\n        /* \"solidity-fundamentals/contracts/TimeLockedSavings.sol\":1554:1576  InvalidDepositAmount() */\n      mload(0x40)\n      0xfe9ba5cd00000000000000000000000000000000000000000000000000000000\n      dup2\n      mstore\n      0x04\n      add\n      mload(0x40)\n      dup1\n      swap2\n      sub\n      swap1\n      revert\n        /* \"solidity-fundamentals/contracts/TimeLockedSavings.sol\":1492:1576  if (msg.value < minDeposit(_targetAmount))... */\n    tag_41:\n        /* \"solidity-fundamentals/contracts/TimeLockedSavings.sol\":1602:1615  minDuration() */\n      tag_42\n        /* \"solidity-fundamentals/contracts/TimeLockedSavings.sol\":1602:1613  minDuration */\n      tag_21\n        /* \"solidity-fundamentals/contracts/TimeLockedSavings.sol\":1602:1615  minDuration() */\n      jump\t// in\n    tag_42:\n        /* \"solidity-fundamentals/contracts/TimeLockedSavings.sol\":1590:1599  _duration */\n      dup3\n        /* \"solidity-fundamentals/contracts/TimeLockedSavings.sol\":1590:1615  _duration < minDuration() */\n      lt\n        /* \"solidity-fundamentals/contracts/TimeLockedSavings.sol\":1586:1641  if (_duration < minDuration()) revert InvalidDuration() */\n      iszero\n      tag_43\n      jumpi\n        /* \"solidity-fundamentals/contracts/TimeLockedSavings.sol\":1624:1641  InvalidDuration() */\n      mload(0x40)\n      0x7616640100000000000000000000000000000000000000000000000000000000\n      dup2\n      mstore\n      0x04\n      add\n      mload(0x40)\n      dup1\n      swap2\n      sub\n      swap1\n      revert\n        /* \"solidity-fundamentals/contracts/TimeLockedSavings.sol\":1586:1641  if (_duration < minDuration()) revert InvalidDuration() */\n    tag_43:\n        /* \"solidity-fundamentals/contracts/TimeLockedSavings.sol\":1681:1682  0 */\n      0x00\n        /* \"solidity-fundamentals/contracts/TimeLockedSavings.sol\":1661:1669  _purpose */\n      dup2\n        /* \"solidity-fundamentals/contracts/TimeLockedSavings.sol\":1655:1677  bytes(_purpose).length */\n      mload\n        /* \"solidity-fundamentals/contracts/TimeLockedSavings.sol\":1655:1682  bytes(_purpose).length == 0 */\n      sub\n        /* \"solidity-fundamentals/contracts/TimeLockedSavings.sol\":1651:1705  if (bytes(_purpose).length == 0) revert EmptyPurpose() */\n      tag_44\n      jumpi\n        /* \"solidity-fundamentals/contracts/TimeLockedSavings.sol\":1691:1705  EmptyPurpose() */\n      mload(0x40)\n      0xdfa03e5000000000000000000000000000000000000000000000000000000000\n      dup2\n      mstore\n      0x04\n      add\n      mload(0x40)\n      dup1\n      swap2\n      sub\n      swap1\n      revert\n        /* \"solidity-fundamentals/contracts/TimeLockedSavings.sol\":1651:1705  if (bytes(_purpose).length == 0) revert EmptyPurpose() */\n    tag_44:\n        /* \"solidity-fundamentals/contracts/TimeLockedSavings.sol\":1716:1722  vaults */\n      0x00\n        /* \"solidity-fundamentals/contracts/TimeLockedSavings.sol\":1741:2011  Vault({... */\n      mload(0x40)\n      dup1\n      0xc0\n      add\n      0x40\n      mstore\n      dup1\n        /* \"solidity-fundamentals/contracts/TimeLockedSavings.sol\":1772:1782  msg.sender */\n      caller\n        /* \"solidity-fundamentals/contracts/TimeLockedSavings.sol\":1741:2011  Vault({... */\n      0xffffffffffffffffffffffffffffffffffffffff\n      and\n      dup2\n      mstore\n      0x20\n      add\n        /* \"solidity-fundamentals/contracts/TimeLockedSavings.sol\":1815:1824  msg.value */\n      callvalue\n        /* \"solidity-fundamentals/contracts/TimeLockedSavings.sol\":1741:2011  Vault({... */\n      dup2\n      mstore\n      0x20\n      add\n        /* \"solidity-fundamentals/contracts/TimeLockedSavings.sol\":1856:1869  _targetAmount */\n      dup6\n        /* \"solidity-fundamentals/contracts/TimeLockedSavings.sol\":1741:2011  Vault({... */\n      dup2\n      mstore\n      0x20\n      add\n        /* \"solidity-fundamentals/contracts/TimeLockedSavings.sol\":1918:1927  _duration */\n      dup5\n        /* \"solidity-fundamentals/contracts/TimeLockedSavings.sol\":1900:1915  block.timestamp */\n      timestamp\n        /* \"solidity-fundamentals/contracts/TimeLockedSavings.sol\":1900:1927  block.timestamp + _duration */\n      tag_45\n      swap2\n      swap1\n      tag_46\n      jump\t// in\n    tag_45:\n        /* \"solidity-fundamentals/contracts/TimeLockedSavings.sol\":1741:2011  Vault({... */\n      dup2\n      mstore\n      0x20\n      add\n        /* \"solidity-fundamentals/contracts/TimeLockedSavings.sol\":1954:1962  _purpose */\n      dup4\n        /* \"solidity-fundamentals/contracts/TimeLockedSavings.sol\":1741:2011  Vault({... */\n      dup2\n      mstore\n      0x20\n      add\n        /* \"solidity-fundamentals/contracts/TimeLockedSavings.sol\":1991:1996  false */\n      0x00\n        /* \"solidity-fundamentals/contracts/TimeLockedSavings.sol\":1741:2011  Vault({... */\n      iszero\n      iszero\n      dup2\n      mstore\n      pop\n        /* \"solidity-fundamentals/contracts/TimeLockedSavings.sol\":1716:2021  vaults.push(... */\n      swap1\n      dup1\n      0x01\n      dup2\n      sload\n      add\n      dup1\n      dup3\n      sstore\n      dup1\n      swap2\n      pop\n      pop\n      0x01\n      swap1\n      sub\n      swap1\n      0x00\n      mstore\n      keccak256(0x00, 0x20)\n      swap1\n      0x06\n      mul\n      add\n      0x00\n      swap1\n      swap2\n      swap1\n      swap2\n      swap1\n      swap2\n      pop\n      0x00\n      dup3\n      add\n      mload\n      dup2\n      0x00\n      add\n      exp(0x0100, 0x00)\n      dup2\n      sload\n      dup2\n      0xffffffffffffffffffffffffffffffffffffffff\n      mul\n      not\n      and\n      swap1\n      dup4\n      0xffffffffffffffffffffffffffffffffffffffff\n      and\n      mul\n      or\n      swap1\n      sstore\n      pop\n      0x20\n      dup3\n      add\n      mload\n      dup2\n      0x01\n      add\n      sstore\n      0x40\n      dup3\n      add\n      mload\n      dup2\n      0x02\n      add\n      sstore\n      0x60\n      dup3\n      add\n      mload\n      dup2\n      0x03\n      add\n      sstore\n      0x80\n      dup3\n      add\n      mload\n      dup2\n      0x04\n      add\n      swap1\n      dup2\n      tag_48\n      swap2\n      swap1\n      tag_49\n      jump\t// in\n    tag_48:\n      pop\n      0xa0\n      dup3\n      add\n      mload\n      dup2\n      0x05\n      add\n      exp(0x0100, 0x00)\n      dup2\n      sload\n      dup2\n      0xff\n      mul\n      not\n      and\n      swap1\n      dup4\n      iszero\n      iszero\n      mul\n      or\n      swap1\n      sstore\n      pop\n      pop\n      pop\n        /* \"solidity-fundamentals/contracts/TimeLockedSavings.sol\":2037:2068  VaultCreated(vaults.length - 1) */\n      0x4111fcee61908834830adf60a520ba26d09f02fa4e00cfe3d2c134e32f3f8696\n        /* \"solidity-fundamentals/contracts/TimeLockedSavings.sol\":2066:2067  1 */\n      0x01\n        /* \"solidity-fundamentals/contracts/TimeLockedSavings.sol\":2050:2056  vaults */\n      0x00\n        /* \"solidity-fundamentals/contracts/TimeLockedSavings.sol\":2050:2063  vaults.length */\n      dup1\n      sload\n      swap1\n      pop\n        /* \"solidity-fundamentals/contracts/TimeLockedSavings.sol\":2050:2067  vaults.length - 1 */\n      tag_50\n      swap2\n      swap1\n      tag_51\n      jump\t// in\n    tag_50:\n        /* \"solidity-fundamentals/contracts/TimeLockedSavings.sol\":2037:2068  VaultCreated(vaults.length - 1) */\n      mload(0x40)\n      tag_52\n      swap2\n      swap1\n      tag_18\n      jump\t// in\n    tag_52:\n      mload(0x40)\n      dup1\n      swap2\n      sub\n      swap1\n      log1\n        /* \"solidity-fundamentals/contracts/TimeLockedSavings.sol\":1276:2075  function createVault(... */\n      pop\n      pop\n      pop\n      jump\t// out\n        /* \"solidity-fundamentals/contracts/TimeLockedSavings.sol\":2766:2881  function minDeposit(uint256 _targetAmount) public pure returns (uint256) {... */\n    tag_16:\n        /* \"solidity-fundamentals/contracts/TimeLockedSavings.sol\":2830:2837  uint256 */\n      0x00\n        /* \"solidity-fundamentals/contracts/TimeLockedSavings.sol\":2872:2874  10 */\n      0x0a\n        /* \"solidity-fundamentals/contracts/TimeLockedSavings.sol\":2856:2869  _targetAmount */\n      dup3\n        /* \"solidity-fundamentals/contracts/TimeLockedSavings.sol\":2856:2874  _targetAmount / 10 */\n      tag_54\n      swap2\n      swap1\n      tag_55\n      jump\t// in\n    tag_54:\n        /* \"solidity-fundamentals/contracts/TimeLockedSavings.sol\":2849:2874  return _targetAmount / 10 */\n      swap1\n      pop\n        /* \"solidity-fundamentals/contracts/TimeLockedSavings.sol\":2766:2881  function minDeposit(uint256 _targetAmount) public pure returns (uint256) {... */\n      swap2\n      swap1\n      pop\n      jump\t// out\n        /* \"solidity-fundamentals/contracts/TimeLockedSavings.sol\":2677:2760  function minDuration() public pure returns (uint256) {... */\n    tag_21:\n        /* \"solidity-fundamentals/contracts/TimeLockedSavings.sol\":2721:2728  uint256 */\n      0x00\n        /* \"solidity-fundamentals/contracts/TimeLockedSavings.sol\":2747:2753  1 days */\n      0x015180\n        /* \"solidity-fundamentals/contracts/TimeLockedSavings.sol\":2740:2753  return 1 days */\n      swap1\n      pop\n        /* \"solidity-fundamentals/contracts/TimeLockedSavings.sol\":2677:2760  function minDuration() public pure returns (uint256) {... */\n      swap1\n      jump\t// out\n        /* \"solidity-fundamentals/contracts/TimeLockedSavings.sol\":2081:2279  function depositVault(... */\n    tag_25:\n        /* \"solidity-fundamentals/contracts/TimeLockedSavings.sol\":2164:2172  _vaultId */\n      dup1\n        /* \"solidity-fundamentals/contracts/TimeLockedSavings.sol\":1172:1178  vaults */\n      0x00\n        /* \"solidity-fundamentals/contracts/TimeLockedSavings.sol\":1179:1186  vaultId */\n      dup2\n        /* \"solidity-fundamentals/contracts/TimeLockedSavings.sol\":1172:1187  vaults[vaultId] */\n      dup2\n      sload\n      dup2\n      lt\n      tag_58\n      jumpi\n      tag_59\n      tag_60\n      jump\t// in\n    tag_59:\n    tag_58:\n      swap1\n      0x00\n      mstore\n      keccak256(0x00, 0x20)\n      swap1\n      0x06\n      mul\n      add\n        /* \"solidity-fundamentals/contracts/TimeLockedSavings.sol\":1172:1197  vaults[vaultId].withdrawn */\n      0x05\n      add\n      0x00\n      swap1\n      sload\n      swap1\n      0x0100\n      exp\n      swap1\n      div\n      0xff\n      and\n        /* \"solidity-fundamentals/contracts/TimeLockedSavings.sol\":1168:1221  if (vaults[vaultId].withdrawn) revert VaultInactive() */\n      iszero\n      tag_62\n      jumpi\n        /* \"solidity-fundamentals/contracts/TimeLockedSavings.sol\":1206:1221  VaultInactive() */\n      mload(0x40)\n      0x4aaeea0900000000000000000000000000000000000000000000000000000000\n      dup2\n      mstore\n      0x04\n      add\n      mload(0x40)\n      dup1\n      swap2\n      sub\n      swap1\n      revert\n        /* \"solidity-fundamentals/contracts/TimeLockedSavings.sol\":1168:1221  if (vaults[vaultId].withdrawn) revert VaultInactive() */\n    tag_62:\n        /* \"solidity-fundamentals/contracts/TimeLockedSavings.sol\":929:930  0 */\n      0x00\n        /* \"solidity-fundamentals/contracts/TimeLockedSavings.sol\":916:925  msg.value */\n      callvalue\n        /* \"solidity-fundamentals/contracts/TimeLockedSavings.sol\":916:930  msg.value == 0 */\n      sub\n        /* \"solidity-fundamentals/contracts/TimeLockedSavings.sol\":912:950  if (msg.value == 0) revert ZeroValue() */\n      tag_64\n      jumpi\n        /* \"solidity-fundamentals/contracts/TimeLockedSavings.sol\":939:950  ZeroValue() */\n      mload(0x40)\n      0x7c946ed700000000000000000000000000000000000000000000000000000000\n      dup2\n      mstore\n      0x04\n      add\n      mload(0x40)\n      dup1\n      swap2\n      sub\n      swap1\n      revert\n        /* \"solidity-fundamentals/contracts/TimeLockedSavings.sol\":912:950  if (msg.value == 0) revert ZeroValue() */\n    tag_64:\n        /* \"solidity-fundamentals/contracts/TimeLockedSavings.sol\":2231:2240  msg.value */\n      callvalue\n        /* \"solidity-fundamentals/contracts/TimeLockedSavings.sol\":2197:2203  vaults */\n      0x00\n        /* \"solidity-fundamentals/contracts/TimeLockedSavings.sol\":2204:2212  _vaultId */\n      dup4\n        /* \"solidity-fundamentals/contracts/TimeLockedSavings.sol\":2197:2213  vaults[_vaultId] */\n      dup2\n      sload\n      dup2\n      lt\n      tag_66\n      jumpi\n      tag_67\n      tag_60\n      jump\t// in\n    tag_67:\n    tag_66:\n      swap1\n      0x00\n      mstore\n      keccak256(0x00, 0x20)\n      swap1\n      0x06\n      mul\n      add\n        /* \"solidity-fundamentals/contracts/TimeLockedSavings.sol\":2197:2227  vaults[_vaultId].depositAmount */\n      0x01\n      add\n      0x00\n        /* \"solidity-fundamentals/contracts/TimeLockedSavings.sol\":2197:2240  vaults[_vaultId].depositAmount += msg.value */\n      dup3\n      dup3\n      sload\n      tag_69\n      swap2\n      swap1\n      tag_46\n      jump\t// in\n    tag_69:\n      swap3\n      pop\n      pop\n      dup2\n      swap1\n      sstore\n      pop\n        /* \"solidity-fundamentals/contracts/TimeLockedSavings.sol\":2255:2272  Deposit(_vaultId) */\n      0x4d6ce1e535dbade1c23defba91e23b8f791ce5edc0cc320257a2b364e4e38426\n        /* \"solidity-fundamentals/contracts/TimeLockedSavings.sol\":2263:2271  _vaultId */\n      dup3\n        /* \"solidity-fundamentals/contracts/TimeLockedSavings.sol\":2255:2272  Deposit(_vaultId) */\n      mload(0x40)\n      tag_70\n      swap2\n      swap1\n      tag_18\n      jump\t// in\n    tag_70:\n      mload(0x40)\n      dup1\n      swap2\n      sub\n      swap1\n      log1\n        /* \"solidity-fundamentals/contracts/TimeLockedSavings.sol\":2081:2279  function depositVault(... */\n      pop\n      pop\n      jump\t// out\n        /* \"solidity-fundamentals/contracts/TimeLockedSavings.sol\":325:346  Vault[] public vaults */\n    tag_29:\n      0x00\n      dup2\n      dup2\n      sload\n      dup2\n      lt\n      tag_71\n      jumpi\n      0x00\n      dup1\n      revert\n    tag_71:\n      swap1\n      0x00\n      mstore\n      keccak256(0x00, 0x20)\n      swap1\n      0x06\n      mul\n      add\n      0x00\n      swap2\n      pop\n      swap1\n      pop\n      dup1\n      0x00\n      add\n      0x00\n      swap1\n      sload\n      swap1\n      0x0100\n      exp\n      swap1\n      div\n      0xffffffffffffffffffffffffffffffffffffffff\n      and\n      swap1\n      dup1\n      0x01\n      add\n      sload\n      swap1\n      dup1\n      0x02\n      add\n      sload\n      swap1\n      dup1\n      0x03\n      add\n      sload\n      swap1\n      dup1\n      0x04\n      add\n      dup1\n      sload\n      tag_73\n      swap1\n      tag_74\n      jump\t// in\n    tag_73:\n      dup1\n      0x1f\n      add\n      0x20\n      dup1\n      swap2\n      div\n      mul\n      0x20\n      add\n      mload(0x40)\n      swap1\n      dup2\n      add\n      0x40\n      mstore\n      dup1\n      swap3\n      swap2\n      swap1\n      dup2\n      dup2\n      mstore\n      0x20\n      add\n      dup3\n      dup1\n      sload\n      tag_75\n      swap1\n      tag_74\n      jump\t// in\n    tag_75:\n      dup1\n      iszero\n      tag_76\n      jumpi\n      dup1\n      0x1f\n      lt\n      tag_77\n      jumpi\n      0x0100\n      dup1\n      dup4\n      sload\n      div\n      mul\n      dup4\n      mstore\n      swap2\n      0x20\n      add\n      swap2\n      jump(tag_76)\n    tag_77:\n      dup3\n      add\n      swap2\n      swap1\n      0x00\n      mstore\n      keccak256(0x00, 0x20)\n      swap1\n    tag_78:\n      dup2\n      sload\n      dup2\n      mstore\n      swap1\n      0x01\n      add\n      swap1\n      0x20\n      add\n      dup1\n      dup4\n      gt\n      tag_78\n      jumpi\n      dup3\n      swap1\n      sub\n      0x1f\n      and\n      dup3\n      add\n      swap2\n    tag_76:\n      pop\n      pop\n      pop\n      pop\n      pop\n      swap1\n      dup1\n      0x05\n      add\n      0x00\n      swap1\n      sload\n      swap1\n      0x0100\n      exp\n      swap1\n      div\n      0xff\n      and\n      swap1\n      pop\n      dup7\n      jump\t// out\n        /* \"solidity-fundamentals/contracts/TimeLockedSavings.sol\":2285:2647  function withdrawVault(... */\n    tag_35:\n        /* \"solidity-fundamentals/contracts/TimeLockedSavings.sol\":2380:2388  _vaultId */\n      dup1\n        /* \"solidity-fundamentals/contracts/TimeLockedSavings.sol\":820:830  msg.sender */\n      caller\n        /* \"solidity-fundamentals/contracts/TimeLockedSavings.sol\":795:830  vaults[vaultId].owner != msg.sender */\n      0xffffffffffffffffffffffffffffffffffffffff\n      and\n        /* \"solidity-fundamentals/contracts/TimeLockedSavings.sol\":795:801  vaults */\n      0x00\n        /* \"solidity-fundamentals/contracts/TimeLockedSavings.sol\":802:809  vaultId */\n      dup3\n        /* \"solidity-fundamentals/contracts/TimeLockedSavings.sol\":795:810  vaults[vaultId] */\n      dup2\n      sload\n      dup2\n      lt\n      tag_80\n      jumpi\n      tag_81\n      tag_60\n      jump\t// in\n    tag_81:\n    tag_80:\n      swap1\n      0x00\n      mstore\n      keccak256(0x00, 0x20)\n      swap1\n      0x06\n      mul\n      add\n        /* \"solidity-fundamentals/contracts/TimeLockedSavings.sol\":795:816  vaults[vaultId].owner */\n      0x00\n      add\n      0x00\n      swap1\n      sload\n      swap1\n      0x0100\n      exp\n      swap1\n      div\n      0xffffffffffffffffffffffffffffffffffffffff\n      and\n        /* \"solidity-fundamentals/contracts/TimeLockedSavings.sol\":795:830  vaults[vaultId].owner != msg.sender */\n      0xffffffffffffffffffffffffffffffffffffffff\n      and\n      eq\n        /* \"solidity-fundamentals/contracts/TimeLockedSavings.sol\":791:854  if (vaults[vaultId].owner != msg.sender) revert NotVaultOwner() */\n      tag_83\n      jumpi\n        /* \"solidity-fundamentals/contracts/TimeLockedSavings.sol\":839:854  NotVaultOwner() */\n      mload(0x40)\n      0x0e7fea9d00000000000000000000000000000000000000000000000000000000\n      dup2\n      mstore\n      0x04\n      add\n      mload(0x40)\n      dup1\n      swap2\n      sub\n      swap1\n      revert\n        /* \"solidity-fundamentals/contracts/TimeLockedSavings.sol\":791:854  if (vaults[vaultId].owner != msg.sender) revert NotVaultOwner() */\n    tag_83:\n        /* \"solidity-fundamentals/contracts/TimeLockedSavings.sol\":2412:2420  _vaultId */\n      dup2\n        /* \"solidity-fundamentals/contracts/TimeLockedSavings.sol\":1059:1074  block.timestamp */\n      timestamp\n        /* \"solidity-fundamentals/contracts/TimeLockedSavings.sol\":1028:1034  vaults */\n      0x00\n        /* \"solidity-fundamentals/contracts/TimeLockedSavings.sol\":1035:1042  vaultId */\n      dup3\n        /* \"solidity-fundamentals/contracts/TimeLockedSavings.sol\":1028:1043  vaults[vaultId] */\n      dup2\n      sload\n      dup2\n      lt\n      tag_85\n      jumpi\n      tag_86\n      tag_60\n      jump\t// in\n    tag_86:\n    tag_85:\n      swap1\n      0x00\n      mstore\n      keccak256(0x00, 0x20)\n      swap1\n      0x06\n      mul\n      add\n        /* \"solidity-fundamentals/contracts/TimeLockedSavings.sol\":1028:1055  vaults[vaultId].lockEndTime */\n      0x03\n      add\n      sload\n        /* \"solidity-fundamentals/contracts/TimeLockedSavings.sol\":1028:1074  vaults[vaultId].lockEndTime >= block.timestamp */\n      lt\n        /* \"solidity-fundamentals/contracts/TimeLockedSavings.sol\":1024:1096  if (vaults[vaultId].lockEndTime >= block.timestamp) revert VaultLocked() */\n      tag_88\n      jumpi\n        /* \"solidity-fundamentals/contracts/TimeLockedSavings.sol\":1083:1096  VaultLocked() */\n      mload(0x40)\n      0xe5713d2e00000000000000000000000000000000000000000000000000000000\n      dup2\n      mstore\n      0x04\n      add\n      mload(0x40)\n      dup1\n      swap2\n      sub\n      swap1\n      revert\n        /* \"solidity-fundamentals/contracts/TimeLockedSavings.sol\":1024:1096  if (vaults[vaultId].lockEndTime >= block.timestamp) revert VaultLocked() */\n    tag_88:\n        /* \"solidity-fundamentals/contracts/TimeLockedSavings.sol\":2442:2450  _vaultId */\n      dup3\n        /* \"solidity-fundamentals/contracts/TimeLockedSavings.sol\":1172:1178  vaults */\n      0x00\n        /* \"solidity-fundamentals/contracts/TimeLockedSavings.sol\":1179:1186  vaultId */\n      dup2\n        /* \"solidity-fundamentals/contracts/TimeLockedSavings.sol\":1172:1187  vaults[vaultId] */\n      dup2\n      sload\n      dup2\n      lt\n      tag_90\n      jumpi\n      tag_91\n      tag_60\n      jump\t// in\n    tag_91:\n    tag_90:\n      swap1\n      0x00\n      mstore\n      keccak256(0x00, 0x20)\n      swap1\n      0x06\n      mul\n      add\n        /* \"solidity-fundamentals/contracts/TimeLockedSavings.sol\":1172:1197  vaults[vaultId].withdrawn */\n      0x05\n      add\n      0x00\n      swap1\n      sload\n      swap1\n      0x0100\n      exp\n      swap1\n      div\n      0xff\n      and\n        /* \"solidity-fundamentals/contracts/TimeLockedSavings.sol\":1168:1221  if (vaults[vaultId].withdrawn) revert VaultInactive() */\n      iszero\n      tag_93\n      jumpi\n        /* \"solidity-fundamentals/contracts/TimeLockedSavings.sol\":1206:1221  VaultInactive() */\n      mload(0x40)\n      0x4aaeea0900000000000000000000000000000000000000000000000000000000\n      dup2\n      mstore\n      0x04\n      add\n      mload(0x40)\n      dup1\n      swap2\n      sub\n      swap1\n      revert\n        /* \"solidity-fundamentals/contracts/TimeLockedSavings.sol\":1168:1221  if (vaults[vaultId].withdrawn) revert VaultInactive() */\n    tag_93:\n        /* \"solidity-fundamentals/contracts/TimeLockedSavings.sol\":2495:2499  true */\n      0x01\n        /* \"solidity-fundamentals/contracts/TimeLockedSavings.sol\":2466:2472  vaults */\n      0x00\n        /* \"solidity-fundamentals/contracts/TimeLockedSavings.sol\":2473:2481  _vaultId */\n      dup6\n        /* \"solidity-fundamentals/contracts/TimeLockedSavings.sol\":2466:2482  vaults[_vaultId] */\n      dup2\n      sload\n      dup2\n      lt\n      tag_95\n      jumpi\n      tag_96\n      tag_60\n      jump\t// in\n    tag_96:\n    tag_95:\n      swap1\n      0x00\n      mstore\n      keccak256(0x00, 0x20)\n      swap1\n      0x06\n      mul\n      add\n        /* \"solidity-fundamentals/contracts/TimeLockedSavings.sol\":2466:2492  vaults[_vaultId].withdrawn */\n      0x05\n      add\n      0x00\n        /* \"solidity-fundamentals/contracts/TimeLockedSavings.sol\":2466:2499  vaults[_vaultId].withdrawn = true */\n      0x0100\n      exp\n      dup2\n      sload\n      dup2\n      0xff\n      mul\n      not\n      and\n      swap1\n      dup4\n      iszero\n      iszero\n      mul\n      or\n      swap1\n      sstore\n      pop\n        /* \"solidity-fundamentals/contracts/TimeLockedSavings.sol\":2518:2524  vaults */\n      0x00\n        /* \"solidity-fundamentals/contracts/TimeLockedSavings.sol\":2525:2533  _vaultId */\n      dup5\n        /* \"solidity-fundamentals/contracts/TimeLockedSavings.sol\":2518:2534  vaults[_vaultId] */\n      dup2\n      sload\n      dup2\n      lt\n      tag_98\n      jumpi\n      tag_99\n      tag_60\n      jump\t// in\n    tag_99:\n    tag_98:\n      swap1\n      0x00\n      mstore\n      keccak256(0x00, 0x20)\n      swap1\n      0x06\n      mul\n      add\n        /* \"solidity-fundamentals/contracts/TimeLockedSavings.sol\":2518:2540  vaults[_vaultId].owner */\n      0x00\n      add\n      0x00\n      swap1\n      sload\n      swap1\n      0x0100\n      exp\n      swap1\n      div\n      0xffffffffffffffffffffffffffffffffffffffff\n      and\n        /* \"solidity-fundamentals/contracts/TimeLockedSavings.sol\":2510:2550  payable(vaults[_vaultId].owner).transfer */\n      0xffffffffffffffffffffffffffffffffffffffff\n      and\n        /* \"solidity-fundamentals/contracts/TimeLockedSavings.sol\":2510:2604  payable(vaults[_vaultId].owner).transfer(... */\n      0x08fc\n        /* \"solidity-fundamentals/contracts/TimeLockedSavings.sol\":2564:2570  vaults */\n      0x00\n        /* \"solidity-fundamentals/contracts/TimeLockedSavings.sol\":2571:2579  _vaultId */\n      dup7\n        /* \"solidity-fundamentals/contracts/TimeLockedSavings.sol\":2564:2580  vaults[_vaultId] */\n      dup2\n      sload\n      dup2\n      lt\n      tag_101\n      jumpi\n      tag_102\n      tag_60\n      jump\t// in\n    tag_102:\n    tag_101:\n      swap1\n      0x00\n      mstore\n      keccak256(0x00, 0x20)\n      swap1\n      0x06\n      mul\n      add\n        /* \"solidity-fundamentals/contracts/TimeLockedSavings.sol\":2564:2594  vaults[_vaultId].depositAmount */\n      0x01\n      add\n      sload\n        /* \"solidity-fundamentals/contracts/TimeLockedSavings.sol\":2510:2604  payable(vaults[_vaultId].owner).transfer(... */\n      swap1\n      dup2\n      iszero\n      mul\n      swap1\n      mload(0x40)\n      0x00\n      mload(0x40)\n      dup1\n      dup4\n      sub\n      dup2\n      dup6\n      dup9\n      dup9\n      call\n      swap4\n      pop\n      pop\n      pop\n      pop\n      iszero\n      dup1\n      iszero\n      tag_105\n      jumpi\n      returndatasize\n      0x00\n      dup1\n      returndatacopy\n      revert(0x00, returndatasize)\n    tag_105:\n      pop\n        /* \"solidity-fundamentals/contracts/TimeLockedSavings.sol\":2620:2640  Withdrawal(_vaultId) */\n      0x4e70a604b23a8edee2b1d0a656e9b9c00b73ad8bb1afc2c59381ee9f69197de7\n        /* \"solidity-fundamentals/contracts/TimeLockedSavings.sol\":2631:2639  _vaultId */\n      dup5\n        /* \"solidity-fundamentals/contracts/TimeLockedSavings.sol\":2620:2640  Withdrawal(_vaultId) */\n      mload(0x40)\n      tag_106\n      swap2\n      swap1\n      tag_18\n      jump\t// in\n    tag_106:\n      mload(0x40)\n      dup1\n      swap2\n      sub\n      swap1\n      log1\n        /* \"solidity-fundamentals/contracts/TimeLockedSavings.sol\":1106:1107  _ */\n      pop\n        /* \"solidity-fundamentals/contracts/TimeLockedSavings.sol\":864:865  _ */\n      pop\n        /* \"solidity-fundamentals/contracts/TimeLockedSavings.sol\":2285:2647  function withdrawVault(... */\n      pop\n      pop\n      jump\t// out\n        /* \"#utility.yul\":7:82   */\n    tag_107:\n        /* \"#utility.yul\":40:46   */\n      0x00\n        /* \"#utility.yul\":73:75   */\n      0x40\n        /* \"#utility.yul\":67:76   */\n      mload\n        /* \"#utility.yul\":57:76   */\n      swap1\n      pop\n        /* \"#utility.yul\":7:82   */\n      swap1\n      jump\t// out\n        /* \"#utility.yul\":88:205   */\n    tag_108:\n        /* \"#utility.yul\":197:198   */\n      0x00\n        /* \"#utility.yul\":194:195   */\n      dup1\n        /* \"#utility.yul\":187:199   */\n      revert\n        /* \"#utility.yul\":211:328   */\n    tag_109:\n        /* \"#utility.yul\":320:321   */\n      0x00\n        /* \"#utility.yul\":317:318   */\n      dup1\n        /* \"#utility.yul\":310:322   */\n      revert\n        /* \"#utility.yul\":334:411   */\n    tag_110:\n        /* \"#utility.yul\":371:378   */\n      0x00\n        /* \"#utility.yul\":400:405   */\n      dup2\n        /* \"#utility.yul\":389:405   */\n      swap1\n      pop\n        /* \"#utility.yul\":334:411   */\n      swap2\n      swap1\n      pop\n      jump\t// out\n        /* \"#utility.yul\":417:539   */\n    tag_111:\n        /* \"#utility.yul\":490:514   */\n      tag_157\n        /* \"#utility.yul\":508:513   */\n      dup2\n        /* \"#utility.yul\":490:514   */\n      tag_110\n      jump\t// in\n    tag_157:\n        /* \"#utility.yul\":483:488   */\n      dup2\n        /* \"#utility.yul\":480:515   */\n      eq\n        /* \"#utility.yul\":470:533   */\n      tag_158\n      jumpi\n        /* \"#utility.yul\":529:530   */\n      0x00\n        /* \"#utility.yul\":526:527   */\n      dup1\n        /* \"#utility.yul\":519:531   */\n      revert\n        /* \"#utility.yul\":470:533   */\n    tag_158:\n        /* \"#utility.yul\":417:539   */\n      pop\n      jump\t// out\n        /* \"#utility.yul\":545:684   */\n    tag_112:\n        /* \"#utility.yul\":591:596   */\n      0x00\n        /* \"#utility.yul\":629:635   */\n      dup2\n        /* \"#utility.yul\":616:636   */\n      calldataload\n        /* \"#utility.yul\":607:636   */\n      swap1\n      pop\n        /* \"#utility.yul\":645:678   */\n      tag_160\n        /* \"#utility.yul\":672:677   */\n      dup2\n        /* \"#utility.yul\":645:678   */\n      tag_111\n      jump\t// in\n    tag_160:\n        /* \"#utility.yul\":545:684   */\n      swap3\n      swap2\n      pop\n      pop\n      jump\t// out\n        /* \"#utility.yul\":690:807   */\n    tag_113:\n        /* \"#utility.yul\":799:800   */\n      0x00\n        /* \"#utility.yul\":796:797   */\n      dup1\n        /* \"#utility.yul\":789:801   */\n      revert\n        /* \"#utility.yul\":813:930   */\n    tag_114:\n        /* \"#utility.yul\":922:923   */\n      0x00\n        /* \"#utility.yul\":919:920   */\n      dup1\n        /* \"#utility.yul\":912:924   */\n      revert\n        /* \"#utility.yul\":936:1038   */\n    tag_115:\n        /* \"#utility.yul\":977:983   */\n      0x00\n        /* \"#utility.yul\":1028:1030   */\n      0x1f\n        /* \"#utility.yul\":1024:1031   */\n      not\n        /* \"#utility.yul\":1019:1021   */\n      0x1f\n        /* \"#utility.yul\":1012:1017   */\n      dup4\n        /* \"#utility.yul\":1008:1022   */\n      add\n        /* \"#utility.yul\":1004:1032   */\n      and\n        /* \"#utility.yul\":994:1032   */\n      swap1\n      pop\n        /* \"#utility.yul\":936:1038   */\n      swap2\n      swap1\n      pop\n      jump\t// out\n        /* \"#utility.yul\":1044:1224   */\n    tag_116:\n        /* \"#utility.yul\":1092:1169   */\n      0x4e487b7100000000000000000000000000000000000000000000000000000000\n        /* \"#utility.yul\":1089:1090   */\n      0x00\n        /* \"#utility.yul\":1082:1170   */\n      mstore\n        /* \"#utility.yul\":1189:1193   */\n      0x41\n        /* \"#utility.yul\":1186:1187   */\n      0x04\n        /* \"#utility.yul\":1179:1194   */\n      mstore\n        /* \"#utility.yul\":1213:1217   */\n      0x24\n        /* \"#utility.yul\":1210:1211   */\n      0x00\n        /* \"#utility.yul\":1203:1218   */\n      revert\n        /* \"#utility.yul\":1230:1511   */\n    tag_117:\n        /* \"#utility.yul\":1313:1340   */\n      tag_166\n        /* \"#utility.yul\":1335:1339   */\n      dup3\n        /* \"#utility.yul\":1313:1340   */\n      tag_115\n      jump\t// in\n    tag_166:\n        /* \"#utility.yul\":1305:1311   */\n      dup2\n        /* \"#utility.yul\":1301:1341   */\n      add\n        /* \"#utility.yul\":1443:1449   */\n      dup2\n        /* \"#utility.yul\":1431:1441   */\n      dup2\n        /* \"#utility.yul\":1428:1450   */\n      lt\n        /* \"#utility.yul\":1407:1425   */\n      0xffffffffffffffff\n        /* \"#utility.yul\":1395:1405   */\n      dup3\n        /* \"#utility.yul\":1392:1426   */\n      gt\n        /* \"#utility.yul\":1389:1451   */\n      or\n        /* \"#utility.yul\":1386:1474   */\n      iszero\n      tag_167\n      jumpi\n        /* \"#utility.yul\":1454:1472   */\n      tag_168\n      tag_116\n      jump\t// in\n    tag_168:\n        /* \"#utility.yul\":1386:1474   */\n    tag_167:\n        /* \"#utility.yul\":1494:1504   */\n      dup1\n        /* \"#utility.yul\":1490:1492   */\n      0x40\n        /* \"#utility.yul\":1483:1505   */\n      mstore\n        /* \"#utility.yul\":1273:1511   */\n      pop\n        /* \"#utility.yul\":1230:1511   */\n      pop\n      pop\n      jump\t// out\n        /* \"#utility.yul\":1517:1646   */\n    tag_118:\n        /* \"#utility.yul\":1551:1557   */\n      0x00\n        /* \"#utility.yul\":1578:1598   */\n      tag_170\n      tag_107\n      jump\t// in\n    tag_170:\n        /* \"#utility.yul\":1568:1598   */\n      swap1\n      pop\n        /* \"#utility.yul\":1607:1640   */\n      tag_171\n        /* \"#utility.yul\":1635:1639   */\n      dup3\n        /* \"#utility.yul\":1627:1633   */\n      dup3\n        /* \"#utility.yul\":1607:1640   */\n      tag_117\n      jump\t// in\n    tag_171:\n        /* \"#utility.yul\":1517:1646   */\n      swap2\n      swap1\n      pop\n      jump\t// out\n        /* \"#utility.yul\":1652:1960   */\n    tag_119:\n        /* \"#utility.yul\":1714:1718   */\n      0x00\n        /* \"#utility.yul\":1804:1822   */\n      0xffffffffffffffff\n        /* \"#utility.yul\":1796:1802   */\n      dup3\n        /* \"#utility.yul\":1793:1823   */\n      gt\n        /* \"#utility.yul\":1790:1846   */\n      iszero\n      tag_173\n      jumpi\n        /* \"#utility.yul\":1826:1844   */\n      tag_174\n      tag_116\n      jump\t// in\n    tag_174:\n        /* \"#utility.yul\":1790:1846   */\n    tag_173:\n        /* \"#utility.yul\":1864:1893   */\n      tag_175\n        /* \"#utility.yul\":1886:1892   */\n      dup3\n        /* \"#utility.yul\":1864:1893   */\n      tag_115\n      jump\t// in\n    tag_175:\n        /* \"#utility.yul\":1856:1893   */\n      swap1\n      pop\n        /* \"#utility.yul\":1948:1952   */\n      0x20\n        /* \"#utility.yul\":1942:1946   */\n      dup2\n        /* \"#utility.yul\":1938:1953   */\n      add\n        /* \"#utility.yul\":1930:1953   */\n      swap1\n      pop\n        /* \"#utility.yul\":1652:1960   */\n      swap2\n      swap1\n      pop\n      jump\t// out\n        /* \"#utility.yul\":1966:2112   */\n    tag_120:\n        /* \"#utility.yul\":2063:2069   */\n      dup3\n        /* \"#utility.yul\":2058:2061   */\n      dup2\n        /* \"#utility.yul\":2053:2056   */\n      dup4\n        /* \"#utility.yul\":2040:2070   */\n      calldatacopy\n        /* \"#utility.yul\":2104:2105   */\n      0x00\n        /* \"#utility.yul\":2095:2101   */\n      dup4\n        /* \"#utility.yul\":2090:2093   */\n      dup4\n        /* \"#utility.yul\":2086:2102   */\n      add\n        /* \"#utility.yul\":2079:2106   */\n      mstore\n        /* \"#utility.yul\":1966:2112   */\n      pop\n      pop\n      pop\n      jump\t// out\n        /* \"#utility.yul\":2118:2543   */\n    tag_121:\n        /* \"#utility.yul\":2196:2201   */\n      0x00\n        /* \"#utility.yul\":2221:2287   */\n      tag_178\n        /* \"#utility.yul\":2237:2286   */\n      tag_179\n        /* \"#utility.yul\":2279:2285   */\n      dup5\n        /* \"#utility.yul\":2237:2286   */\n      tag_119\n      jump\t// in\n    tag_179:\n        /* \"#utility.yul\":2221:2287   */\n      tag_118\n      jump\t// in\n    tag_178:\n        /* \"#utility.yul\":2212:2287   */\n      swap1\n      pop\n        /* \"#utility.yul\":2310:2316   */\n      dup3\n        /* \"#utility.yul\":2303:2308   */\n      dup2\n        /* \"#utility.yul\":2296:2317   */\n      mstore\n        /* \"#utility.yul\":2348:2352   */\n      0x20\n        /* \"#utility.yul\":2341:2346   */\n      dup2\n        /* \"#utility.yul\":2337:2353   */\n      add\n        /* \"#utility.yul\":2386:2389   */\n      dup5\n        /* \"#utility.yul\":2377:2383   */\n      dup5\n        /* \"#utility.yul\":2372:2375   */\n      dup5\n        /* \"#utility.yul\":2368:2384   */\n      add\n        /* \"#utility.yul\":2365:2390   */\n      gt\n        /* \"#utility.yul\":2362:2474   */\n      iszero\n      tag_180\n      jumpi\n        /* \"#utility.yul\":2393:2472   */\n      tag_181\n      tag_114\n      jump\t// in\n    tag_181:\n        /* \"#utility.yul\":2362:2474   */\n    tag_180:\n        /* \"#utility.yul\":2483:2537   */\n      tag_182\n        /* \"#utility.yul\":2530:2536   */\n      dup5\n        /* \"#utility.yul\":2525:2528   */\n      dup3\n        /* \"#utility.yul\":2520:2523   */\n      dup6\n        /* \"#utility.yul\":2483:2537   */\n      tag_120\n      jump\t// in\n    tag_182:\n        /* \"#utility.yul\":2202:2543   */\n      pop\n        /* \"#utility.yul\":2118:2543   */\n      swap4\n      swap3\n      pop\n      pop\n      pop\n      jump\t// out\n        /* \"#utility.yul\":2563:2903   */\n    tag_122:\n        /* \"#utility.yul\":2619:2624   */\n      0x00\n        /* \"#utility.yul\":2668:2671   */\n      dup3\n        /* \"#utility.yul\":2661:2665   */\n      0x1f\n        /* \"#utility.yul\":2653:2659   */\n      dup4\n        /* \"#utility.yul\":2649:2666   */\n      add\n        /* \"#utility.yul\":2645:2672   */\n      slt\n        /* \"#utility.yul\":2635:2757   */\n      tag_184\n      jumpi\n        /* \"#utility.yul\":2676:2755   */\n      tag_185\n      tag_113\n      jump\t// in\n    tag_185:\n        /* \"#utility.yul\":2635:2757   */\n    tag_184:\n        /* \"#utility.yul\":2793:2799   */\n      dup2\n        /* \"#utility.yul\":2780:2800   */\n      calldataload\n        /* \"#utility.yul\":2818:2897   */\n      tag_186\n        /* \"#utility.yul\":2893:2896   */\n      dup5\n        /* \"#utility.yul\":2885:2891   */\n      dup3\n        /* \"#utility.yul\":2878:2882   */\n      0x20\n        /* \"#utility.yul\":2870:2876   */\n      dup7\n        /* \"#utility.yul\":2866:2883   */\n      add\n        /* \"#utility.yul\":2818:2897   */\n      tag_121\n      jump\t// in\n    tag_186:\n        /* \"#utility.yul\":2809:2897   */\n      swap2\n      pop\n        /* \"#utility.yul\":2625:2903   */\n      pop\n        /* \"#utility.yul\":2563:2903   */\n      swap3\n      swap2\n      pop\n      pop\n      jump\t// out\n        /* \"#utility.yul\":2909:3708   */\n    tag_10:\n        /* \"#utility.yul\":2996:3002   */\n      0x00\n        /* \"#utility.yul\":3004:3010   */\n      dup1\n        /* \"#utility.yul\":3012:3018   */\n      0x00\n        /* \"#utility.yul\":3061:3063   */\n      0x60\n        /* \"#utility.yul\":3049:3058   */\n      dup5\n        /* \"#utility.yul\":3040:3047   */\n      dup7\n        /* \"#utility.yul\":3036:3059   */\n      sub\n        /* \"#utility.yul\":3032:3064   */\n      slt\n        /* \"#utility.yul\":3029:3148   */\n      iszero\n      tag_188\n      jumpi\n        /* \"#utility.yul\":3067:3146   */\n      tag_189\n      tag_108\n      jump\t// in\n    tag_189:\n        /* \"#utility.yul\":3029:3148   */\n    tag_188:\n        /* \"#utility.yul\":3187:3188   */\n      0x00\n        /* \"#utility.yul\":3212:3265   */\n      tag_190\n        /* \"#utility.yul\":3257:3264   */\n      dup7\n        /* \"#utility.yul\":3248:3254   */\n      dup3\n        /* \"#utility.yul\":3237:3246   */\n      dup8\n        /* \"#utility.yul\":3233:3255   */\n      add\n        /* \"#utility.yul\":3212:3265   */\n      tag_112\n      jump\t// in\n    tag_190:\n        /* \"#utility.yul\":3202:3265   */\n      swap4\n      pop\n        /* \"#utility.yul\":3158:3275   */\n      pop\n        /* \"#utility.yul\":3314:3316   */\n      0x20\n        /* \"#utility.yul\":3340:3393   */\n      tag_191\n        /* \"#utility.yul\":3385:3392   */\n      dup7\n        /* \"#utility.yul\":3376:3382   */\n      dup3\n        /* \"#utility.yul\":3365:3374   */\n      dup8\n        /* \"#utility.yul\":3361:3383   */\n      add\n        /* \"#utility.yul\":3340:3393   */\n      tag_112\n      jump\t// in\n    tag_191:\n        /* \"#utility.yul\":3330:3393   */\n      swap3\n      pop\n        /* \"#utility.yul\":3285:3403   */\n      pop\n        /* \"#utility.yul\":3470:3472   */\n      0x40\n        /* \"#utility.yul\":3459:3468   */\n      dup5\n        /* \"#utility.yul\":3455:3473   */\n      add\n        /* \"#utility.yul\":3442:3474   */\n      calldataload\n        /* \"#utility.yul\":3501:3519   */\n      0xffffffffffffffff\n        /* \"#utility.yul\":3493:3499   */\n      dup2\n        /* \"#utility.yul\":3490:3520   */\n      gt\n        /* \"#utility.yul\":3487:3604   */\n      iszero\n      tag_192\n      jumpi\n        /* \"#utility.yul\":3523:3602   */\n      tag_193\n      tag_109\n      jump\t// in\n    tag_193:\n        /* \"#utility.yul\":3487:3604   */\n    tag_192:\n        /* \"#utility.yul\":3628:3691   */\n      tag_194\n        /* \"#utility.yul\":3683:3690   */\n      dup7\n        /* \"#utility.yul\":3674:3680   */\n      dup3\n        /* \"#utility.yul\":3663:3672   */\n      dup8\n        /* \"#utility.yul\":3659:3681   */\n      add\n        /* \"#utility.yul\":3628:3691   */\n      tag_122\n      jump\t// in\n    tag_194:\n        /* \"#utility.yul\":3618:3691   */\n      swap2\n      pop\n        /* \"#utility.yul\":3413:3701   */\n      pop\n        /* \"#utility.yul\":2909:3708   */\n      swap3\n      pop\n      swap3\n      pop\n      swap3\n      jump\t// out\n        /* \"#utility.yul\":3714:4043   */\n    tag_15:\n        /* \"#utility.yul\":3773:3779   */\n      0x00\n        /* \"#utility.yul\":3822:3824   */\n      0x20\n        /* \"#utility.yul\":3810:3819   */\n      dup3\n        /* \"#utility.yul\":3801:3808   */\n      dup5\n        /* \"#utility.yul\":3797:3820   */\n      sub\n        /* \"#utility.yul\":3793:3825   */\n      slt\n        /* \"#utility.yul\":3790:3909   */\n      iszero\n      tag_196\n      jumpi\n        /* \"#utility.yul\":3828:3907   */\n      tag_197\n      tag_108\n      jump\t// in\n    tag_197:\n        /* \"#utility.yul\":3790:3909   */\n    tag_196:\n        /* \"#utility.yul\":3948:3949   */\n      0x00\n        /* \"#utility.yul\":3973:4026   */\n      tag_198\n        /* \"#utility.yul\":4018:4025   */\n      dup5\n        /* \"#utility.yul\":4009:4015   */\n      dup3\n        /* \"#utility.yul\":3998:4007   */\n      dup6\n        /* \"#utility.yul\":3994:4016   */\n      add\n        /* \"#utility.yul\":3973:4026   */\n      tag_112\n      jump\t// in\n    tag_198:\n        /* \"#utility.yul\":3963:4026   */\n      swap2\n      pop\n        /* \"#utility.yul\":3919:4036   */\n      pop\n        /* \"#utility.yul\":3714:4043   */\n      swap3\n      swap2\n      pop\n      pop\n      jump\t// out\n        /* \"#utility.yul\":4049:4167   */\n    tag_123:\n        /* \"#utility.yul\":4136:4160   */\n      tag_200\n        /* \"#utility.yul\":4154:4159   */\n      dup2\n        /* \"#utility.yul\":4136:4160   */\n      tag_110\n      jump\t// in\n    tag_200:\n        /* \"#utility.yul\":4131:4134   */\n      dup3\n        /* \"#utility.yul\":4124:4161   */\n      mstore\n        /* \"#utility.yul\":4049:4167   */\n      pop\n      pop\n      jump\t// out\n        /* \"#utility.yul\":4173:4395   */\n    tag_18:\n        /* \"#utility.yul\":4266:4270   */\n      0x00\n        /* \"#utility.yul\":4304:4306   */\n      0x20\n        /* \"#utility.yul\":4293:4302   */\n      dup3\n        /* \"#utility.yul\":4289:4307   */\n      add\n        /* \"#utility.yul\":4281:4307   */\n      swap1\n      pop\n        /* \"#utility.yul\":4317:4388   */\n      tag_202\n        /* \"#utility.yul\":4385:4386   */\n      0x00\n        /* \"#utility.yul\":4374:4383   */\n      dup4\n        /* \"#utility.yul\":4370:4387   */\n      add\n        /* \"#utility.yul\":4361:4367   */\n      dup5\n        /* \"#utility.yul\":4317:4388   */\n      tag_123\n      jump\t// in\n    tag_202:\n        /* \"#utility.yul\":4173:4395   */\n      swap3\n      swap2\n      pop\n      pop\n      jump\t// out\n        /* \"#utility.yul\":4401:4527   */\n    tag_124:\n        /* \"#utility.yul\":4438:4445   */\n      0x00\n        /* \"#utility.yul\":4478:4520   */\n      0xffffffffffffffffffffffffffffffffffffffff\n        /* \"#utility.yul\":4471:4476   */\n      dup3\n        /* \"#utility.yul\":4467:4521   */\n      and\n        /* \"#utility.yul\":4456:4521   */\n      swap1\n      pop\n        /* \"#utility.yul\":4401:4527   */\n      swap2\n      swap1\n      pop\n      jump\t// out\n        /* \"#utility.yul\":4533:4629   */\n    tag_125:\n        /* \"#utility.yul\":4570:4577   */\n      0x00\n        /* \"#utility.yul\":4599:4623   */\n      tag_205\n        /* \"#utility.yul\":4617:4622   */\n      dup3\n        /* \"#utility.yul\":4599:4623   */\n      tag_124\n      jump\t// in\n    tag_205:\n        /* \"#utility.yul\":4588:4623   */\n      swap1\n      pop\n        /* \"#utility.yul\":4533:4629   */\n      swap2\n      swap1\n      pop\n      jump\t// out\n        /* \"#utility.yul\":4635:4753   */\n    tag_126:\n        /* \"#utility.yul\":4722:4746   */\n      tag_207\n        /* \"#utility.yul\":4740:4745   */\n      dup2\n        /* \"#utility.yul\":4722:4746   */\n      tag_125\n      jump\t// in\n    tag_207:\n        /* \"#utility.yul\":4717:4720   */\n      dup3\n        /* \"#utility.yul\":4710:4747   */\n      mstore\n        /* \"#utility.yul\":4635:4753   */\n      pop\n      pop\n      jump\t// out\n        /* \"#utility.yul\":4759:4858   */\n    tag_127:\n        /* \"#utility.yul\":4811:4817   */\n      0x00\n        /* \"#utility.yul\":4845:4850   */\n      dup2\n        /* \"#utility.yul\":4839:4851   */\n      mload\n        /* \"#utility.yul\":4829:4851   */\n      swap1\n      pop\n        /* \"#utility.yul\":4759:4858   */\n      swap2\n      swap1\n      pop\n      jump\t// out\n        /* \"#utility.yul\":4864:5033   */\n    tag_128:\n        /* \"#utility.yul\":4948:4959   */\n      0x00\n        /* \"#utility.yul\":4982:4988   */\n      dup3\n        /* \"#utility.yul\":4977:4980   */\n      dup3\n        /* \"#utility.yul\":4970:4989   */\n      mstore\n        /* \"#utility.yul\":5022:5026   */\n      0x20\n        /* \"#utility.yul\":5017:5020   */\n      dup3\n        /* \"#utility.yul\":5013:5027   */\n      add\n        /* \"#utility.yul\":4998:5027   */\n      swap1\n      pop\n        /* \"#utility.yul\":4864:5033   */\n      swap3\n      swap2\n      pop\n      pop\n      jump\t// out\n        /* \"#utility.yul\":5039:5285   */\n    tag_129:\n        /* \"#utility.yul\":5120:5121   */\n      0x00\n        /* \"#utility.yul\":5130:5243   */\n    tag_211:\n        /* \"#utility.yul\":5144:5150   */\n      dup4\n        /* \"#utility.yul\":5141:5142   */\n      dup2\n        /* \"#utility.yul\":5138:5151   */\n      lt\n        /* \"#utility.yul\":5130:5243   */\n      iszero\n      tag_213\n      jumpi\n        /* \"#utility.yul\":5229:5230   */\n      dup1\n        /* \"#utility.yul\":5224:5227   */\n      dup3\n        /* \"#utility.yul\":5220:5231   */\n      add\n        /* \"#utility.yul\":5214:5232   */\n      mload\n        /* \"#utility.yul\":5210:5211   */\n      dup2\n        /* \"#utility.yul\":5205:5208   */\n      dup5\n        /* \"#utility.yul\":5201:5212   */\n      add\n        /* \"#utility.yul\":5194:5233   */\n      mstore\n        /* \"#utility.yul\":5166:5168   */\n      0x20\n        /* \"#utility.yul\":5163:5164   */\n      dup2\n        /* \"#utility.yul\":5159:5169   */\n      add\n        /* \"#utility.yul\":5154:5169   */\n      swap1\n      pop\n        /* \"#utility.yul\":5130:5243   */\n      jump(tag_211)\n    tag_213:\n        /* \"#utility.yul\":5277:5278   */\n      0x00\n        /* \"#utility.yul\":5268:5274   */\n      dup5\n        /* \"#utility.yul\":5263:5266   */\n      dup5\n        /* \"#utility.yul\":5259:5275   */\n      add\n        /* \"#utility.yul\":5252:5279   */\n      mstore\n        /* \"#utility.yul\":5101:5285   */\n      pop\n        /* \"#utility.yul\":5039:5285   */\n      pop\n      pop\n      pop\n      jump\t// out\n        /* \"#utility.yul\":5291:5668   */\n    tag_130:\n        /* \"#utility.yul\":5379:5382   */\n      0x00\n        /* \"#utility.yul\":5407:5446   */\n      tag_215\n        /* \"#utility.yul\":5440:5445   */\n      dup3\n        /* \"#utility.yul\":5407:5446   */\n      tag_127\n      jump\t// in\n    tag_215:\n        /* \"#utility.yul\":5462:5533   */\n      tag_216\n        /* \"#utility.yul\":5526:5532   */\n      dup2\n        /* \"#utility.yul\":5521:5524   */\n      dup6\n        /* \"#utility.yul\":5462:5533   */\n      tag_128\n      jump\t// in\n    tag_216:\n        /* \"#utility.yul\":5455:5533   */\n      swap4\n      pop\n        /* \"#utility.yul\":5542:5607   */\n      tag_217\n        /* \"#utility.yul\":5600:5606   */\n      dup2\n        /* \"#utility.yul\":5595:5598   */\n      dup6\n        /* \"#utility.yul\":5588:5592   */\n      0x20\n        /* \"#utility.yul\":5581:5586   */\n      dup7\n        /* \"#utility.yul\":5577:5593   */\n      add\n        /* \"#utility.yul\":5542:5607   */\n      tag_129\n      jump\t// in\n    tag_217:\n        /* \"#utility.yul\":5632:5661   */\n      tag_218\n        /* \"#utility.yul\":5654:5660   */\n      dup2\n        /* \"#utility.yul\":5632:5661   */\n      tag_115\n      jump\t// in\n    tag_218:\n        /* \"#utility.yul\":5627:5630   */\n      dup5\n        /* \"#utility.yul\":5623:5662   */\n      add\n        /* \"#utility.yul\":5616:5662   */\n      swap2\n      pop\n        /* \"#utility.yul\":5383:5668   */\n      pop\n        /* \"#utility.yul\":5291:5668   */\n      swap3\n      swap2\n      pop\n      pop\n      jump\t// out\n        /* \"#utility.yul\":5674:5764   */\n    tag_131:\n        /* \"#utility.yul\":5708:5715   */\n      0x00\n        /* \"#utility.yul\":5751:5756   */\n      dup2\n        /* \"#utility.yul\":5744:5757   */\n      iszero\n        /* \"#utility.yul\":5737:5758   */\n      iszero\n        /* \"#utility.yul\":5726:5758   */\n      swap1\n      pop\n        /* \"#utility.yul\":5674:5764   */\n      swap2\n      swap1\n      pop\n      jump\t// out\n        /* \"#utility.yul\":5770:5879   */\n    tag_132:\n        /* \"#utility.yul\":5851:5872   */\n      tag_221\n        /* \"#utility.yul\":5866:5871   */\n      dup2\n        /* \"#utility.yul\":5851:5872   */\n      tag_131\n      jump\t// in\n    tag_221:\n        /* \"#utility.yul\":5846:5849   */\n      dup3\n        /* \"#utility.yul\":5839:5873   */\n      mstore\n        /* \"#utility.yul\":5770:5879   */\n      pop\n      pop\n      jump\t// out\n        /* \"#utility.yul\":5885:6739   */\n    tag_31:\n        /* \"#utility.yul\":6132:6136   */\n      0x00\n        /* \"#utility.yul\":6170:6173   */\n      0xc0\n        /* \"#utility.yul\":6159:6168   */\n      dup3\n        /* \"#utility.yul\":6155:6174   */\n      add\n        /* \"#utility.yul\":6147:6174   */\n      swap1\n      pop\n        /* \"#utility.yul\":6184:6255   */\n      tag_223\n        /* \"#utility.yul\":6252:6253   */\n      0x00\n        /* \"#utility.yul\":6241:6250   */\n      dup4\n        /* \"#utility.yul\":6237:6254   */\n      add\n        /* \"#utility.yul\":6228:6234   */\n      dup10\n        /* \"#utility.yul\":6184:6255   */\n      tag_126\n      jump\t// in\n    tag_223:\n        /* \"#utility.yul\":6265:6337   */\n      tag_224\n        /* \"#utility.yul\":6333:6335   */\n      0x20\n        /* \"#utility.yul\":6322:6331   */\n      dup4\n        /* \"#utility.yul\":6318:6336   */\n      add\n        /* \"#utility.yul\":6309:6315   */\n      dup9\n        /* \"#utility.yul\":6265:6337   */\n      tag_123\n      jump\t// in\n    tag_224:\n        /* \"#utility.yul\":6347:6419   */\n      tag_225\n        /* \"#utility.yul\":6415:6417   */\n      0x40\n        /* \"#utility.yul\":6404:6413   */\n      dup4\n        /* \"#utility.yul\":6400:6418   */\n      add\n        /* \"#utility.yul\":6391:6397   */\n      dup8\n        /* \"#utility.yul\":6347:6419   */\n      tag_123\n      jump\t// in\n    tag_225:\n        /* \"#utility.yul\":6429:6501   */\n      tag_226\n        /* \"#utility.yul\":6497:6499   */\n      0x60\n        /* \"#utility.yul\":6486:6495   */\n      dup4\n        /* \"#utility.yul\":6482:6500   */\n      add\n        /* \"#utility.yul\":6473:6479   */\n      dup7\n        /* \"#utility.yul\":6429:6501   */\n      tag_123\n      jump\t// in\n    tag_226:\n        /* \"#utility.yul\":6549:6558   */\n      dup2\n        /* \"#utility.yul\":6543:6547   */\n      dup2\n        /* \"#utility.yul\":6539:6559   */\n      sub\n        /* \"#utility.yul\":6533:6536   */\n      0x80\n        /* \"#utility.yul\":6522:6531   */\n      dup4\n        /* \"#utility.yul\":6518:6537   */\n      add\n        /* \"#utility.yul\":6511:6560   */\n      mstore\n        /* \"#utility.yul\":6577:6655   */\n      tag_227\n        /* \"#utility.yul\":6650:6654   */\n      dup2\n        /* \"#utility.yul\":6641:6647   */\n      dup6\n        /* \"#utility.yul\":6577:6655   */\n      tag_130\n      jump\t// in\n    tag_227:\n        /* \"#utility.yul\":6569:6655   */\n      swap1\n      pop\n        /* \"#utility.yul\":6665:6732   */\n      tag_228\n        /* \"#utility.yul\":6727:6730   */\n      0xa0\n        /* \"#utility.yul\":6716:6725   */\n      dup4\n        /* \"#utility.yul\":6712:6731   */\n      add\n        /* \"#utility.yul\":6703:6709   */\n      dup5\n        /* \"#utility.yul\":6665:6732   */\n      tag_132\n      jump\t// in\n    tag_228:\n        /* \"#utility.yul\":5885:6739   */\n      swap8\n      swap7\n      pop\n      pop\n      pop\n      pop\n      pop\n      pop\n      pop\n      jump\t// out\n        /* \"#utility.yul\":6745:6925   */\n    tag_133:\n        /* \"#utility.yul\":6793:6870   */\n      0x4e487b7100000000000000000000000000000000000000000000000000000000\n        /* \"#utility.yul\":6790:6791   */\n      0x00\n        /* \"#utility.yul\":6783:6871   */\n      mstore\n        /* \"#utility.yul\":6890:6894   */\n      0x11\n        /* \"#utility.yul\":6887:6888   */\n      0x04\n        /* \"#utility.yul\":6880:6895   */\n      mstore\n        /* \"#utility.yul\":6914:6918   */\n      0x24\n        /* \"#utility.yul\":6911:6912   */\n      0x00\n        /* \"#utility.yul\":6904:6919   */\n      revert\n        /* \"#utility.yul\":6931:7122   */\n    tag_46:\n        /* \"#utility.yul\":6971:6974   */\n      0x00\n        /* \"#utility.yul\":6990:7010   */\n      tag_231\n        /* \"#utility.yul\":7008:7009   */\n      dup3\n        /* \"#utility.yul\":6990:7010   */\n      tag_110\n      jump\t// in\n    tag_231:\n        /* \"#utility.yul\":6985:7010   */\n      swap2\n      pop\n        /* \"#utility.yul\":7024:7044   */\n      tag_232\n        /* \"#utility.yul\":7042:7043   */\n      dup4\n        /* \"#utility.yul\":7024:7044   */\n      tag_110\n      jump\t// in\n    tag_232:\n        /* \"#utility.yul\":7019:7044   */\n      swap3\n      pop\n        /* \"#utility.yul\":7067:7068   */\n      dup3\n        /* \"#utility.yul\":7064:7065   */\n      dup3\n        /* \"#utility.yul\":7060:7069   */\n      add\n        /* \"#utility.yul\":7053:7069   */\n      swap1\n      pop\n        /* \"#utility.yul\":7088:7091   */\n      dup1\n        /* \"#utility.yul\":7085:7086   */\n      dup3\n        /* \"#utility.yul\":7082:7092   */\n      gt\n        /* \"#utility.yul\":7079:7115   */\n      iszero\n      tag_233\n      jumpi\n        /* \"#utility.yul\":7095:7113   */\n      tag_234\n      tag_133\n      jump\t// in\n    tag_234:\n        /* \"#utility.yul\":7079:7115   */\n    tag_233:\n        /* \"#utility.yul\":6931:7122   */\n      swap3\n      swap2\n      pop\n      pop\n      jump\t// out\n        /* \"#utility.yul\":7128:7308   */\n    tag_134:\n        /* \"#utility.yul\":7176:7253   */\n      0x4e487b7100000000000000000000000000000000000000000000000000000000\n        /* \"#utility.yul\":7173:7174   */\n      0x00\n        /* \"#utility.yul\":7166:7254   */\n      mstore\n        /* \"#utility.yul\":7273:7277   */\n      0x22\n        /* \"#utility.yul\":7270:7271   */\n      0x04\n        /* \"#utility.yul\":7263:7278   */\n      mstore\n        /* \"#utility.yul\":7297:7301   */\n      0x24\n        /* \"#utility.yul\":7294:7295   */\n      0x00\n        /* \"#utility.yul\":7287:7302   */\n      revert\n        /* \"#utility.yul\":7314:7634   */\n    tag_74:\n        /* \"#utility.yul\":7358:7364   */\n      0x00\n        /* \"#utility.yul\":7395:7396   */\n      0x02\n        /* \"#utility.yul\":7389:7393   */\n      dup3\n        /* \"#utility.yul\":7385:7397   */\n      div\n        /* \"#utility.yul\":7375:7397   */\n      swap1\n      pop\n        /* \"#utility.yul\":7442:7443   */\n      0x01\n        /* \"#utility.yul\":7436:7440   */\n      dup3\n        /* \"#utility.yul\":7432:7444   */\n      and\n        /* \"#utility.yul\":7463:7481   */\n      dup1\n        /* \"#utility.yul\":7453:7534   */\n      tag_237\n      jumpi\n        /* \"#utility.yul\":7519:7523   */\n      0x7f\n        /* \"#utility.yul\":7511:7517   */\n      dup3\n        /* \"#utility.yul\":7507:7524   */\n      and\n        /* \"#utility.yul\":7497:7524   */\n      swap2\n      pop\n        /* \"#utility.yul\":7453:7534   */\n    tag_237:\n        /* \"#utility.yul\":7581:7583   */\n      0x20\n        /* \"#utility.yul\":7573:7579   */\n      dup3\n        /* \"#utility.yul\":7570:7584   */\n      lt\n        /* \"#utility.yul\":7550:7568   */\n      dup2\n        /* \"#utility.yul\":7547:7585   */\n      sub\n        /* \"#utility.yul\":7544:7628   */\n      tag_238\n      jumpi\n        /* \"#utility.yul\":7600:7618   */\n      tag_239\n      tag_134\n      jump\t// in\n    tag_239:\n        /* \"#utility.yul\":7544:7628   */\n    tag_238:\n        /* \"#utility.yul\":7365:7634   */\n      pop\n        /* \"#utility.yul\":7314:7634   */\n      swap2\n      swap1\n      pop\n      jump\t// out\n        /* \"#utility.yul\":7640:7781   */\n    tag_135:\n        /* \"#utility.yul\":7689:7693   */\n      0x00\n        /* \"#utility.yul\":7712:7715   */\n      dup2\n        /* \"#utility.yul\":7704:7715   */\n      swap1\n      pop\n        /* \"#utility.yul\":7735:7738   */\n      dup2\n        /* \"#utility.yul\":7732:7733   */\n      0x00\n        /* \"#utility.yul\":7725:7739   */\n      mstore\n        /* \"#utility.yul\":7769:7773   */\n      0x20\n        /* \"#utility.yul\":7766:7767   */\n      0x00\n        /* \"#utility.yul\":7756:7774   */\n      keccak256\n        /* \"#utility.yul\":7748:7774   */\n      swap1\n      pop\n        /* \"#utility.yul\":7640:7781   */\n      swap2\n      swap1\n      pop\n      jump\t// out\n        /* \"#utility.yul\":7787:7880   */\n    tag_136:\n        /* \"#utility.yul\":7824:7830   */\n      0x00\n        /* \"#utility.yul\":7871:7873   */\n      0x20\n        /* \"#utility.yul\":7866:7868   */\n      0x1f\n        /* \"#utility.yul\":7859:7864   */\n      dup4\n        /* \"#utility.yul\":7855:7869   */\n      add\n        /* \"#utility.yul\":7851:7874   */\n      div\n        /* \"#utility.yul\":7841:7874   */\n      swap1\n      pop\n        /* \"#utility.yul\":7787:7880   */\n      swap2\n      swap1\n      pop\n      jump\t// out\n        /* \"#utility.yul\":7886:7993   */\n    tag_137:\n        /* \"#utility.yul\":7930:7938   */\n      0x00\n        /* \"#utility.yul\":7980:7985   */\n      dup3\n        /* \"#utility.yul\":7974:7978   */\n      dup3\n        /* \"#utility.yul\":7970:7986   */\n      shl\n        /* \"#utility.yul\":7949:7986   */\n      swap1\n      pop\n        /* \"#utility.yul\":7886:7993   */\n      swap3\n      swap2\n      pop\n      pop\n      jump\t// out\n        /* \"#utility.yul\":7999:8392   */\n    tag_138:\n        /* \"#utility.yul\":8068:8074   */\n      0x00\n        /* \"#utility.yul\":8118:8119   */\n      0x08\n        /* \"#utility.yul\":8106:8116   */\n      dup4\n        /* \"#utility.yul\":8102:8120   */\n      mul\n        /* \"#utility.yul\":8141:8238   */\n      tag_244\n        /* \"#utility.yul\":8171:8237   */\n      0xffffffffffffffffffffffffffffffffffffffffffffffffffffffffffffffff\n        /* \"#utility.yul\":8160:8169   */\n      dup3\n        /* \"#utility.yul\":8141:8238   */\n      tag_137\n      jump\t// in\n    tag_244:\n        /* \"#utility.yul\":8259:8298   */\n      tag_245\n        /* \"#utility.yul\":8289:8297   */\n      dup7\n        /* \"#utility.yul\":8278:8287   */\n      dup4\n        /* \"#utility.yul\":8259:8298   */\n      tag_137\n      jump\t// in\n    tag_245:\n        /* \"#utility.yul\":8247:8298   */\n      swap6\n      pop\n        /* \"#utility.yul\":8331:8335   */\n      dup1\n        /* \"#utility.yul\":8327:8336   */\n      not\n        /* \"#utility.yul\":8320:8325   */\n      dup5\n        /* \"#utility.yul\":8316:8337   */\n      and\n        /* \"#utility.yul\":8307:8337   */\n      swap4\n      pop\n        /* \"#utility.yul\":8380:8384   */\n      dup1\n        /* \"#utility.yul\":8370:8378   */\n      dup7\n        /* \"#utility.yul\":8366:8385   */\n      and\n        /* \"#utility.yul\":8359:8364   */\n      dup5\n        /* \"#utility.yul\":8356:8386   */\n      or\n        /* \"#utility.yul\":8346:8386   */\n      swap3\n      pop\n        /* \"#utility.yul\":8075:8392   */\n      pop\n      pop\n        /* \"#utility.yul\":7999:8392   */\n      swap4\n      swap3\n      pop\n      pop\n      pop\n      jump\t// out\n        /* \"#utility.yul\":8398:8458   */\n    tag_139:\n        /* \"#utility.yul\":8426:8429   */\n      0x00\n        /* \"#utility.yul\":8447:8452   */\n      dup2\n        /* \"#utility.yul\":8440:8452   */\n      swap1\n      pop\n        /* \"#utility.yul\":8398:8458   */\n      swap2\n      swap1\n      pop\n      jump\t// out\n        /* \"#utility.yul\":8464:8606   */\n    tag_140:\n        /* \"#utility.yul\":8514:8523   */\n      0x00\n        /* \"#utility.yul\":8547:8600   */\n      tag_248\n        /* \"#utility.yul\":8565:8599   */\n      tag_249\n        /* \"#utility.yul\":8574:8598   */\n      tag_250\n        /* \"#utility.yul\":8592:8597   */\n      dup5\n        /* \"#utility.yul\":8574:8598   */\n      tag_110\n      jump\t// in\n    tag_250:\n        /* \"#utility.yul\":8565:8599   */\n      tag_139\n      jump\t// in\n    tag_249:\n        /* \"#utility.yul\":8547:8600   */\n      tag_110\n      jump\t// in\n    tag_248:\n        /* \"#utility.yul\":8534:8600   */\n      swap1\n      pop\n        /* \"#utility.yul\":8464:8606   */\n      swap2\n      swap1\n      pop\n      jump\t// out\n        /* \"#utility.yul\":8612:8687   */\n    tag_141:\n        /* \"#utility.yul\":8655:8658   */\n      0x00\n        /* \"#utility.yul\":8676:8681   */\n      dup2\n        /* \"#utility.yul\":8669:8681   */\n      swap1\n      pop\n        /* \"#utility.yul\":8612:8687   */\n      swap2\n      swap1\n      pop\n      jump\t// out\n        /* \"#utility.yul\":8693:8962   */\n    tag_142:\n        /* \"#utility.yul\":8803:8842   */\n      tag_253\n        /* \"#utility.yul\":8834:8841   */\n      dup4\n        /* \"#utility.yul\":8803:8842   */\n      tag_140\n      jump\t// in\n    tag_253:\n        /* \"#utility.yul\":8864:8955   */\n      tag_254\n        /* \"#utility.yul\":8913:8954   */\n      tag_255\n        /* \"#utility.yul\":8937:8953   */\n      dup3\n        /* \"#utility.yul\":8913:8954   */\n      tag_141\n      jump\t// in\n    tag_255:\n        /* \"#utility.yul\":8905:8911   */\n      dup5\n        /* \"#utility.yul\":8898:8902   */\n      dup5\n        /* \"#utility.yul\":8892:8903   */\n      sload\n        /* \"#utility.yul\":8864:8955   */\n      tag_138\n      jump\t// in\n    tag_254:\n        /* \"#utility.yul\":8858:8862   */\n      dup3\n        /* \"#utility.yul\":8851:8956   */\n      sstore\n        /* \"#utility.yul\":8769:8962   */\n      pop\n        /* \"#utility.yul\":8693:8962   */\n      pop\n      pop\n      pop\n      jump\t// out\n        /* \"#utility.yul\":8968:9041   */\n    tag_143:\n        /* \"#utility.yul\":9013:9016   */\n      0x00\n        /* \"#utility.yul\":8968:9041   */\n      swap1\n      jump\t// out\n        /* \"#utility.yul\":9047:9236   */\n    tag_144:\n        /* \"#utility.yul\":9124:9156   */\n      tag_258\n      tag_143\n      jump\t// in\n    tag_258:\n        /* \"#utility.yul\":9165:9230   */\n      tag_259\n        /* \"#utility.yul\":9223:9229   */\n      dup2\n        /* \"#utility.yul\":9215:9221   */\n      dup5\n        /* \"#utility.yul\":9209:9213   */\n      dup5\n        /* \"#utility.yul\":9165:9230   */\n      tag_142\n      jump\t// in\n    tag_259:\n        /* \"#utility.yul\":9100:9236   */\n      pop\n        /* \"#utility.yul\":9047:9236   */\n      pop\n      pop\n      jump\t// out\n        /* \"#utility.yul\":9242:9428   */\n    tag_145:\n        /* \"#utility.yul\":9302:9422   */\n    tag_261:\n        /* \"#utility.yul\":9319:9322   */\n      dup2\n        /* \"#utility.yul\":9312:9317   */\n      dup2\n        /* \"#utility.yul\":9309:9323   */\n      lt\n        /* \"#utility.yul\":9302:9422   */\n      iszero\n      tag_263\n      jumpi\n        /* \"#utility.yul\":9373:9412   */\n      tag_264\n        /* \"#utility.yul\":9410:9411   */\n      0x00\n        /* \"#utility.yul\":9403:9408   */\n      dup3\n        /* \"#utility.yul\":9373:9412   */\n      tag_144\n      jump\t// in\n    tag_264:\n        /* \"#utility.yul\":9346:9347   */\n      0x01\n        /* \"#utility.yul\":9339:9344   */\n      dup2\n        /* \"#utility.yul\":9335:9348   */\n      add\n        /* \"#utility.yul\":9326:9348   */\n      swap1\n      pop\n        /* \"#utility.yul\":9302:9422   */\n      jump(tag_261)\n    tag_263:\n        /* \"#utility.yul\":9242:9428   */\n      pop\n      pop\n      jump\t// out\n        /* \"#utility.yul\":9434:9977   */\n    tag_146:\n        /* \"#utility.yul\":9535:9537   */\n      0x1f\n        /* \"#utility.yul\":9530:9533   */\n      dup3\n        /* \"#utility.yul\":9527:9538   */\n      gt\n        /* \"#utility.yul\":9524:9970   */\n      iszero\n      tag_266\n      jumpi\n        /* \"#utility.yul\":9569:9607   */\n      tag_267\n        /* \"#utility.yul\":9601:9606   */\n      dup2\n        /* \"#utility.yul\":9569:9607   */\n      tag_135\n      jump\t// in\n    tag_267:\n        /* \"#utility.yul\":9653:9682   */\n      tag_268\n        /* \"#utility.yul\":9671:9681   */\n      dup5\n        /* \"#utility.yul\":9653:9682   */\n      tag_136\n      jump\t// in\n    tag_268:\n        /* \"#utility.yul\":9643:9651   */\n      dup2\n        /* \"#utility.yul\":9639:9683   */\n      add\n        /* \"#utility.yul\":9836:9838   */\n      0x20\n        /* \"#utility.yul\":9824:9834   */\n      dup6\n        /* \"#utility.yul\":9821:9839   */\n      lt\n        /* \"#utility.yul\":9818:9867   */\n      iszero\n      tag_269\n      jumpi\n        /* \"#utility.yul\":9857:9865   */\n      dup2\n        /* \"#utility.yul\":9842:9865   */\n      swap1\n      pop\n        /* \"#utility.yul\":9818:9867   */\n    tag_269:\n        /* \"#utility.yul\":9880:9960   */\n      tag_270\n        /* \"#utility.yul\":9936:9958   */\n      tag_271\n        /* \"#utility.yul\":9954:9957   */\n      dup6\n        /* \"#utility.yul\":9936:9958   */\n      tag_136\n      jump\t// in\n    tag_271:\n        /* \"#utility.yul\":9926:9934   */\n      dup4\n        /* \"#utility.yul\":9922:9959   */\n      add\n        /* \"#utility.yul\":9909:9920   */\n      dup3\n        /* \"#utility.yul\":9880:9960   */\n      tag_145\n      jump\t// in\n    tag_270:\n        /* \"#utility.yul\":9539:9970   */\n      pop\n      pop\n        /* \"#utility.yul\":9524:9970   */\n    tag_266:\n        /* \"#utility.yul\":9434:9977   */\n      pop\n      pop\n      pop\n      jump\t// out\n        /* \"#utility.yul\":9983:10100   */\n    tag_147:\n        /* \"#utility.yul\":10037:10045   */\n      0x00\n        /* \"#utility.yul\":10087:10092   */\n      dup3\n        /* \"#utility.yul\":10081:10085   */\n      dup3\n        /* \"#utility.yul\":10077:10093   */\n      shr\n        /* \"#utility.yul\":10056:10093   */\n      swap1\n      pop\n        /* \"#utility.yul\":9983:10100   */\n      swap3\n      swap2\n      pop\n      pop\n      jump\t// out\n        /* \"#utility.yul\":10106:10275   */\n    tag_148:\n        /* \"#utility.yul\":10150:10156   */\n      0x00\n        /* \"#utility.yul\":10183:10234   */\n      tag_274\n        /* \"#utility.yul\":10231:10232   */\n      0x00\n        /* \"#utility.yul\":10227:10233   */\n      not\n        /* \"#utility.yul\":10219:10224   */\n      dup5\n        /* \"#utility.yul\":10216:10217   */\n      0x08\n        /* \"#utility.yul\":10212:10225   */\n      mul\n        /* \"#utility.yul\":10183:10234   */\n      tag_147\n      jump\t// in\n    tag_274:\n        /* \"#utility.yul\":10179:10235   */\n      not\n        /* \"#utility.yul\":10264:10268   */\n      dup1\n        /* \"#utility.yul\":10258:10262   */\n      dup4\n        /* \"#utility.yul\":10254:10269   */\n      and\n        /* \"#utility.yul\":10244:10269   */\n      swap2\n      pop\n        /* \"#utility.yul\":10157:10275   */\n      pop\n        /* \"#utility.yul\":10106:10275   */\n      swap3\n      swap2\n      pop\n      pop\n      jump\t// out\n        /* \"#utility.yul\":10280:10575   */\n    tag_149:\n        /* \"#utility.yul\":10356:10360   */\n      0x00\n        /* \"#utility.yul\":10502:10531   */\n      tag_276\n        /* \"#utility.yul\":10527:10530   */\n      dup4\n        /* \"#utility.yul\":10521:10525   */\n      dup4\n        /* \"#utility.yul\":10502:10531   */\n      tag_148\n      jump\t// in\n    tag_276:\n        /* \"#utility.yul\":10494:10531   */\n      swap2\n      pop\n        /* \"#utility.yul\":10564:10567   */\n      dup3\n        /* \"#utility.yul\":10561:10562   */\n      0x02\n        /* \"#utility.yul\":10557:10568   */\n      mul\n        /* \"#utility.yul\":10551:10555   */\n      dup3\n        /* \"#utility.yul\":10548:10569   */\n      or\n        /* \"#utility.yul\":10540:10569   */\n      swap1\n      pop\n        /* \"#utility.yul\":10280:10575   */\n      swap3\n      swap2\n      pop\n      pop\n      jump\t// out\n        /* \"#utility.yul\":10580:11975   */\n    tag_49:\n        /* \"#utility.yul\":10697:10734   */\n      tag_278\n        /* \"#utility.yul\":10730:10733   */\n      dup3\n        /* \"#utility.yul\":10697:10734   */\n      tag_127\n      jump\t// in\n    tag_278:\n        /* \"#utility.yul\":10799:10817   */\n      0xffffffffffffffff\n        /* \"#utility.yul\":10791:10797   */\n      dup2\n        /* \"#utility.yul\":10788:10818   */\n      gt\n        /* \"#utility.yul\":10785:10841   */\n      iszero\n      tag_279\n      jumpi\n        /* \"#utility.yul\":10821:10839   */\n      tag_280\n      tag_116\n      jump\t// in\n    tag_280:\n        /* \"#utility.yul\":10785:10841   */\n    tag_279:\n        /* \"#utility.yul\":10865:10903   */\n      tag_281\n        /* \"#utility.yul\":10897:10901   */\n      dup3\n        /* \"#utility.yul\":10891:10902   */\n      sload\n        /* \"#utility.yul\":10865:10903   */\n      tag_74\n      jump\t// in\n    tag_281:\n        /* \"#utility.yul\":10950:11017   */\n      tag_282\n        /* \"#utility.yul\":11010:11016   */\n      dup3\n        /* \"#utility.yul\":11002:11008   */\n      dup3\n        /* \"#utility.yul\":10996:11000   */\n      dup6\n        /* \"#utility.yul\":10950:11017   */\n      tag_146\n      jump\t// in\n    tag_282:\n        /* \"#utility.yul\":11044:11045   */\n      0x00\n        /* \"#utility.yul\":11068:11072   */\n      0x20\n        /* \"#utility.yul\":11055:11072   */\n      swap1\n      pop\n        /* \"#utility.yul\":11100:11102   */\n      0x1f\n        /* \"#utility.yul\":11092:11098   */\n      dup4\n        /* \"#utility.yul\":11089:11103   */\n      gt\n        /* \"#utility.yul\":11117:11118   */\n      0x01\n        /* \"#utility.yul\":11112:11730   */\n      dup2\n      eq\n      tag_284\n      jumpi\n        /* \"#utility.yul\":11774:11775   */\n      0x00\n        /* \"#utility.yul\":11791:11797   */\n      dup5\n        /* \"#utility.yul\":11788:11865   */\n      iszero\n      tag_285\n      jumpi\n        /* \"#utility.yul\":11840:11849   */\n      dup3\n        /* \"#utility.yul\":11835:11838   */\n      dup8\n        /* \"#utility.yul\":11831:11850   */\n      add\n        /* \"#utility.yul\":11825:11851   */\n      mload\n        /* \"#utility.yul\":11816:11851   */\n      swap1\n      pop\n        /* \"#utility.yul\":11788:11865   */\n    tag_285:\n        /* \"#utility.yul\":11891:11958   */\n      tag_286\n        /* \"#utility.yul\":11951:11957   */\n      dup6\n        /* \"#utility.yul\":11944:11949   */\n      dup3\n        /* \"#utility.yul\":11891:11958   */\n      tag_149\n      jump\t// in\n    tag_286:\n        /* \"#utility.yul\":11885:11889   */\n      dup7\n        /* \"#utility.yul\":11878:11959   */\n      sstore\n        /* \"#utility.yul\":11747:11969   */\n      pop\n        /* \"#utility.yul\":11082:11969   */\n      jump(tag_283)\n        /* \"#utility.yul\":11112:11730   */\n    tag_284:\n        /* \"#utility.yul\":11164:11168   */\n      0x1f\n        /* \"#utility.yul\":11160:11169   */\n      not\n        /* \"#utility.yul\":11152:11158   */\n      dup5\n        /* \"#utility.yul\":11148:11170   */\n      and\n        /* \"#utility.yul\":11198:11235   */\n      tag_287\n        /* \"#utility.yul\":11230:11234   */\n      dup7\n        /* \"#utility.yul\":11198:11235   */\n      tag_135\n      jump\t// in\n    tag_287:\n        /* \"#utility.yul\":11257:11258   */\n      0x00\n        /* \"#utility.yul\":11271:11479   */\n    tag_288:\n        /* \"#utility.yul\":11285:11292   */\n      dup3\n        /* \"#utility.yul\":11282:11283   */\n      dup2\n        /* \"#utility.yul\":11279:11293   */\n      lt\n        /* \"#utility.yul\":11271:11479   */\n      iszero\n      tag_290\n      jumpi\n        /* \"#utility.yul\":11364:11373   */\n      dup5\n        /* \"#utility.yul\":11359:11362   */\n      dup10\n        /* \"#utility.yul\":11355:11374   */\n      add\n        /* \"#utility.yul\":11349:11375   */\n      mload\n        /* \"#utility.yul\":11341:11347   */\n      dup3\n        /* \"#utility.yul\":11334:11376   */\n      sstore\n        /* \"#utility.yul\":11415:11416   */\n      0x01\n        /* \"#utility.yul\":11407:11413   */\n      dup3\n        /* \"#utility.yul\":11403:11417   */\n      add\n        /* \"#utility.yul\":11393:11417   */\n      swap2\n      pop\n        /* \"#utility.yul\":11462:11464   */\n      0x20\n        /* \"#utility.yul\":11451:11460   */\n      dup6\n        /* \"#utility.yul\":11447:11465   */\n      add\n        /* \"#utility.yul\":11434:11465   */\n      swap5\n      pop\n        /* \"#utility.yul\":11308:11312   */\n      0x20\n        /* \"#utility.yul\":11305:11306   */\n      dup2\n        /* \"#utility.yul\":11301:11313   */\n      add\n        /* \"#utility.yul\":11296:11313   */\n      swap1\n      pop\n        /* \"#utility.yul\":11271:11479   */\n      jump(tag_288)\n    tag_290:\n        /* \"#utility.yul\":11507:11513   */\n      dup7\n        /* \"#utility.yul\":11498:11505   */\n      dup4\n        /* \"#utility.yul\":11495:11514   */\n      lt\n        /* \"#utility.yul\":11492:11671   */\n      iszero\n      tag_291\n      jumpi\n        /* \"#utility.yul\":11565:11574   */\n      dup5\n        /* \"#utility.yul\":11560:11563   */\n      dup10\n        /* \"#utility.yul\":11556:11575   */\n      add\n        /* \"#utility.yul\":11550:11576   */\n      mload\n        /* \"#utility.yul\":11608:11656   */\n      tag_292\n        /* \"#utility.yul\":11650:11654   */\n      0x1f\n        /* \"#utility.yul\":11642:11648   */\n      dup10\n        /* \"#utility.yul\":11638:11655   */\n      and\n        /* \"#utility.yul\":11627:11636   */\n      dup3\n        /* \"#utility.yul\":11608:11656   */\n      tag_148\n      jump\t// in\n    tag_292:\n        /* \"#utility.yul\":11600:11606   */\n      dup4\n        /* \"#utility.yul\":11593:11657   */\n      sstore\n        /* \"#utility.yul\":11515:11671   */\n      pop\n        /* \"#utility.yul\":11492:11671   */\n    tag_291:\n        /* \"#utility.yul\":11717:11718   */\n      0x01\n        /* \"#utility.yul\":11713:11714   */\n      0x02\n        /* \"#utility.yul\":11705:11711   */\n      dup9\n        /* \"#utility.yul\":11701:11715   */\n      mul\n        /* \"#utility.yul\":11697:11719   */\n      add\n        /* \"#utility.yul\":11691:11695   */\n      dup9\n        /* \"#utility.yul\":11684:11720   */\n      sstore\n        /* \"#utility.yul\":11119:11730   */\n      pop\n      pop\n      pop\n        /* \"#utility.yul\":11082:11969   */\n    tag_283:\n      pop\n        /* \"#utility.yul\":10672:11975   */\n      pop\n      pop\n      pop\n        /* \"#utility.yul\":10580:11975   */\n      pop\n      pop\n      jump\t// out\n        /* \"#utility.yul\":11981:12175   */\n    tag_51:\n        /* \"#utility.yul\":12021:12025   */\n      0x00\n        /* \"#utility.yul\":12041:12061   */\n      tag_294\n        /* \"#utility.yul\":12059:12060   */\n      dup3\n        /* \"#utility.yul\":12041:12061   */\n      tag_110\n      jump\t// in\n    tag_294:\n        /* \"#utility.yul\":12036:12061   */\n      swap2\n      pop\n        /* \"#utility.yul\":12075:12095   */\n      tag_295\n        /* \"#utility.yul\":12093:12094   */\n      dup4\n        /* \"#utility.yul\":12075:12095   */\n      tag_110\n      jump\t// in\n    tag_295:\n        /* \"#utility.yul\":12070:12095   */\n      swap3\n      pop\n        /* \"#utility.yul\":12119:12120   */\n      dup3\n        /* \"#utility.yul\":12116:12117   */\n      dup3\n        /* \"#utility.yul\":12112:12121   */\n      sub\n        /* \"#utility.yul\":12104:12121   */\n      swap1\n      pop\n        /* \"#utility.yul\":12143:12144   */\n      dup2\n        /* \"#utility.yul\":12137:12141   */\n      dup2\n        /* \"#utility.yul\":12134:12145   */\n      gt\n        /* \"#utility.yul\":12131:12168   */\n      iszero\n      tag_296\n      jumpi\n        /* \"#utility.yul\":12148:12166   */\n      tag_297\n      tag_133\n      jump\t// in\n    tag_297:\n        /* \"#utility.yul\":12131:12168   */\n    tag_296:\n        /* \"#utility.yul\":11981:12175   */\n      swap3\n      swap2\n      pop\n      pop\n      jump\t// out\n        /* \"#utility.yul\":12181:12361   */\n    tag_150:\n        /* \"#utility.yul\":12229:12306   */\n      0x4e487b7100000000000000000000000000000000000000000000000000000000\n        /* \"#utility.yul\":12226:12227   */\n      0x00\n        /* \"#utility.yul\":12219:12307   */\n      mstore\n        /* \"#utility.yul\":12326:12330   */\n      0x12\n        /* \"#utility.yul\":12323:12324   */\n      0x04\n        /* \"#utility.yul\":12316:12331   */\n      mstore\n        /* \"#utility.yul\":12350:12354   */\n      0x24\n        /* \"#utility.yul\":12347:12348   */\n      0x00\n        /* \"#utility.yul\":12340:12355   */\n      revert\n        /* \"#utility.yul\":12367:12552   */\n    tag_55:\n        /* \"#utility.yul\":12407:12408   */\n      0x00\n        /* \"#utility.yul\":12424:12444   */\n      tag_300\n        /* \"#utility.yul\":12442:12443   */\n      dup3\n        /* \"#utility.yul\":12424:12444   */\n      tag_110\n      jump\t// in\n    tag_300:\n        /* \"#utility.yul\":12419:12444   */\n      swap2\n      pop\n        /* \"#utility.yul\":12458:12478   */\n      tag_301\n        /* \"#utility.yul\":12476:12477   */\n      dup4\n        /* \"#utility.yul\":12458:12478   */\n      tag_110\n      jump\t// in\n    tag_301:\n        /* \"#utility.yul\":12453:12478   */\n      swap3\n      pop\n        /* \"#utility.yul\":12497:12498   */\n      dup3\n        /* \"#utility.yul\":12487:12522   */\n      tag_302\n      jumpi\n        /* \"#utility.yul\":12502:12520   */\n      tag_303\n      tag_150\n      jump\t// in\n    tag_303:\n        /* \"#utility.yul\":12487:12522   */\n    tag_302:\n        /* \"#utility.yul\":12544:12545   */\n      dup3\n        /* \"#utility.yul\":12541:12542   */\n      dup3\n        /* \"#utility.yul\":12537:12546   */\n      div\n        /* \"#utility.yul\":12532:12546   */\n      swap1\n      pop\n        /* \"#utility.yul\":12367:12552   */\n      swap3\n      swap2\n      pop\n      pop\n      jump\t// out\n        /* \"#utility.yul\":12558:12738   */\n    tag_60:\n        /* \"#utility.yul\":12606:12683   */\n      0x4e487b7100000000000000000000000000000000000000000000000000000000\n        /* \"#utility.yul\":12603:12604   */\n      0x00\n        /* \"#utility.yul\":12596:12684   */\n      mstore\n        /* \"#utility.yul\":12703:12707   */\n      0x32\n        /* \"#utility.yul\":12700:12701   */\n      0x04\n        /* \"#utility.yul\":12693:12708   */\n      mstore\n        /* \"#utility.yul\":12727:12731   */\n      0x24\n        /* \"#utility.yul\":12724:12725   */\n      0x00\n        /* \"#utility.yul\":12717:12732   */\n      revert\n\n    auxdata: 0xa2646970667358221220a2ba0a99146f64aa545c845055c4fe97d6fbdccfc19b741f514ea21dca9a1d8064736f6c63430008160033\n}\n",
				"bytecode": {
					"linkReferences": {},
					"object": "608060405234801561000f575f80fd5b5061102d8061001d5f395ff3fe608060405260043610610054575f3560e01c80633ed8a71e1461005857806340dc8aa81461007457806356715761146100b05780635a02ec19146100da5780638c64ea4a146100f6578063b40afc1c14610137575b5f80fd5b610072600480360381019061006d9190610a19565b61015f565b005b34801561007f575f80fd5b5061009a60048036038101906100959190610a85565b6103ea565b6040516100a79190610abf565b60405180910390f35b3480156100bb575f80fd5b506100c46103ff565b6040516100d19190610abf565b60405180910390f35b6100f460048036038101906100ef9190610a85565b610409565b005b348015610101575f80fd5b5061011c60048036038101906101179190610a85565b61051c565b60405161012e96959493929190610bab565b60405180910390f35b348015610142575f80fd5b5061015d60048036038101906101589190610a85565b610613565b005b5f3403610198576040517f7c946ed700000000000000000000000000000000000000000000000000000000815260040160405180910390fd5b5f83036101d1576040517f748c805600000000000000000000000000000000000000000000000000000000815260040160405180910390fd5b6101da836103ea565b341015610213576040517ffe9ba5cd00000000000000000000000000000000000000000000000000000000815260040160405180910390fd5b61021b6103ff565b821015610254576040517f7616640100000000000000000000000000000000000000000000000000000000815260040160405180910390fd5b5f81510361028e576040517fdfa03e5000000000000000000000000000000000000000000000000000000000815260040160405180910390fd5b5f6040518060c001604052803373ffffffffffffffffffffffffffffffffffffffff16815260200134815260200185815260200184426102ce9190610c3e565b81526020018381526020015f1515815250908060018154018082558091505060019003905f5260205f2090600602015f909190919091505f820151815f015f6101000a81548173ffffffffffffffffffffffffffffffffffffffff021916908373ffffffffffffffffffffffffffffffffffffffff160217905550602082015181600101556040820151816002015560608201518160030155608082015181600401908161037c9190610e6b565b5060a0820151816005015f6101000a81548160ff02191690831515021790555050507f4111fcee61908834830adf60a520ba26d09f02fa4e00cfe3d2c134e32f3f869660015f805490506103d09190610f3a565b6040516103dd9190610abf565b60405180910390a1505050565b5f600a826103f89190610f9a565b9050919050565b5f62015180905090565b805f818154811061041d5761041c610fca565b5b905f5260205f2090600602016005015f9054906101000a900460ff1615610470576040517f4aaeea0900000000000000000000000000000000000000000000000000000000815260040160405180910390fd5b5f34036104a9576040517f7c946ed700000000000000000000000000000000000000000000000000000000815260040160405180910390fd5b345f83815481106104bd576104bc610fca565b5b905f5260205f2090600602016001015f8282546104da9190610c3e565b925050819055507f4d6ce1e535dbade1c23defba91e23b8f791ce5edc0cc320257a2b364e4e38426826040516105109190610abf565b60405180910390a15050565b5f818154811061052a575f80fd5b905f5260205f2090600602015f91509050805f015f9054906101000a900473ffffffffffffffffffffffffffffffffffffffff169080600101549080600201549080600301549080600401805461058090610c9e565b80601f01602080910402602001604051908101604052809291908181526020018280546105ac90610c9e565b80156105f75780601f106105ce576101008083540402835291602001916105f7565b820191905f5260205f20905b8154815290600101906020018083116105da57829003601f168201915b505050505090806005015f9054906101000a900460ff16905086565b803373ffffffffffffffffffffffffffffffffffffffff165f828154811061063e5761063d610fca565b5b905f5260205f2090600602015f015f9054906101000a900473ffffffffffffffffffffffffffffffffffffffff1673ffffffffffffffffffffffffffffffffffffffff16146106b9576040517f0e7fea9d00000000000000000000000000000000000000000000000000000000815260040160405180910390fd5b81425f82815481106106ce576106cd610fca565b5b905f5260205f2090600602016003015410610715576040517fe5713d2e00000000000000000000000000000000000000000000000000000000815260040160405180910390fd5b825f818154811061072957610728610fca565b5b905f5260205f2090600602016005015f9054906101000a900460ff161561077c576040517f4aaeea0900000000000000000000000000000000000000000000000000000000815260040160405180910390fd5b60015f858154811061079157610790610fca565b5b905f5260205f2090600602016005015f6101000a81548160ff0219169083151502179055505f84815481106107c9576107c8610fca565b5b905f5260205f2090600602015f015f9054906101000a900473ffffffffffffffffffffffffffffffffffffffff1673ffffffffffffffffffffffffffffffffffffffff166108fc5f868154811061082357610822610fca565b5b905f5260205f2090600602016001015490811502906040515f60405180830381858888f1935050505015801561085b573d5f803e3d5ffd5b507f4e70a604b23a8edee2b1d0a656e9b9c00b73ad8bb1afc2c59381ee9f69197de78460405161088b9190610abf565b60405180910390a150505050565b5f604051905090565b5f80fd5b5f80fd5b5f819050919050565b6108bc816108aa565b81146108c6575f80fd5b50565b5f813590506108d7816108b3565b92915050565b5f80fd5b5f80fd5b5f601f19601f8301169050919050565b7f4e487b71000000000000000000000000000000000000000000000000000000005f52604160045260245ffd5b61092b826108e5565b810181811067ffffffffffffffff8211171561094a576109496108f5565b5b80604052505050565b5f61095c610899565b90506109688282610922565b919050565b5f67ffffffffffffffff821115610987576109866108f5565b5b610990826108e5565b9050602081019050919050565b828183375f83830152505050565b5f6109bd6109b88461096d565b610953565b9050828152602081018484840111156109d9576109d86108e1565b5b6109e484828561099d565b509392505050565b5f82601f830112610a00576109ff6108dd565b5b8135610a108482602086016109ab565b91505092915050565b5f805f60608486031215610a3057610a2f6108a2565b5b5f610a3d868287016108c9565b9350506020610a4e868287016108c9565b925050604084013567ffffffffffffffff811115610a6f57610a6e6108a6565b5b610a7b868287016109ec565b9150509250925092565b5f60208284031215610a9a57610a996108a2565b5b5f610aa7848285016108c9565b91505092915050565b610ab9816108aa565b82525050565b5f602082019050610ad25f830184610ab0565b92915050565b5f73ffffffffffffffffffffffffffffffffffffffff82169050919050565b5f610b0182610ad8565b9050919050565b610b1181610af7565b82525050565b5f81519050919050565b5f82825260208201905092915050565b5f5b83811015610b4e578082015181840152602081019050610b33565b5f8484015250505050565b5f610b6382610b17565b610b6d8185610b21565b9350610b7d818560208601610b31565b610b86816108e5565b840191505092915050565b5f8115159050919050565b610ba581610b91565b82525050565b5f60c082019050610bbe5f830189610b08565b610bcb6020830188610ab0565b610bd86040830187610ab0565b610be56060830186610ab0565b8181036080830152610bf78185610b59565b9050610c0660a0830184610b9c565b979650505050505050565b7f4e487b71000000000000000000000000000000000000000000000000000000005f52601160045260245ffd5b5f610c48826108aa565b9150610c53836108aa565b9250828201905080821115610c6b57610c6a610c11565b5b92915050565b7f4e487b71000000000000000000000000000000000000000000000000000000005f52602260045260245ffd5b5f6002820490506001821680610cb557607f821691505b602082108103610cc857610cc7610c71565b5b50919050565b5f819050815f5260205f209050919050565b5f6020601f8301049050919050565b5f82821b905092915050565b5f60088302610d2a7fffffffffffffffffffffffffffffffffffffffffffffffffffffffffffffffff82610cef565b610d348683610cef565b95508019841693508086168417925050509392505050565b5f819050919050565b5f610d6f610d6a610d65846108aa565b610d4c565b6108aa565b9050919050565b5f819050919050565b610d8883610d55565b610d9c610d9482610d76565b848454610cfb565b825550505050565b5f90565b610db0610da4565b610dbb818484610d7f565b505050565b5b81811015610dde57610dd35f82610da8565b600181019050610dc1565b5050565b601f821115610e2357610df481610cce565b610dfd84610ce0565b81016020851015610e0c578190505b610e20610e1885610ce0565b830182610dc0565b50505b505050565b5f82821c905092915050565b5f610e435f1984600802610e28565b1980831691505092915050565b5f610e5b8383610e34565b9150826002028217905092915050565b610e7482610b17565b67ffffffffffffffff811115610e8d57610e8c6108f5565b5b610e978254610c9e565b610ea2828285610de2565b5f60209050601f831160018114610ed3575f8415610ec1578287015190505b610ecb8582610e50565b865550610f32565b601f198416610ee186610cce565b5f5b82811015610f0857848901518255600182019150602085019450602081019050610ee3565b86831015610f255784890151610f21601f891682610e34565b8355505b6001600288020188555050505b505050505050565b5f610f44826108aa565b9150610f4f836108aa565b9250828203905081811115610f6757610f66610c11565b5b92915050565b7f4e487b71000000000000000000000000000000000000000000000000000000005f52601260045260245ffd5b5f610fa4826108aa565b9150610faf836108aa565b925082610fbf57610fbe610f6d565b5b828204905092915050565b7f4e487b71000000000000000000000000000000000000000000000000000000005f52603260045260245ffdfea2646970667358221220a2ba0a99146f64aa545c845055c4fe97d6fbdccfc19b741f514ea21dca9a1d8064736f6c63430008160033",
					"opcodes": "PUSH1 0x80 PUSH1 0x40 MSTORE CALLVALUE DUP1 ISZERO PUSH2 0xF JUMPI PUSH0 DUP1 REVERT JUMPDEST POP PUSH2 0x102D DUP1 PUSH2 0x1D PUSH0 CODECOPY PUSH0 RETURN INVALID PUSH1 0x80 PUSH1 0x40 MSTORE PUSH1 0x4 CALLDATASIZE LT PUSH2 0x54 JUMPI PUSH0 CALLDATALOAD PUSH1 0xE0 SHR DUP1 PUSH4 0x3ED8A71E EQ PUSH2 0x58 JUMPI DUP1 PUSH4 0x40DC8AA8 EQ PUSH2 0x74 JUMPI DUP1 PUSH4 0x56715761 EQ PUSH2 0xB0 JUMPI DUP1 PUSH4 0x5A02EC19 EQ PUSH2 0xDA JUMPI DUP1 PUSH4 0x8C64EA4A EQ PUSH2 0xF6 JUMPI DUP1 PUSH4 0xB40AFC1C EQ PUSH2 0x137 JUMPI JUMPDEST PUSH0 DUP1 REVERT JUMPDEST PUSH2 0x72 PUSH1 0x4 DUP1 CALLDATASIZE SUB DUP2 ADD SWAP1 PUSH2 0x6D SWAP2 SWAP1 PUSH2 0xA19 JUMP JUMPDEST PUSH2 0x15F JUMP JUMPDEST STOP JUMPDEST CALLVALUE DUP1 ISZERO PUSH2 0x7F JUMPI PUSH0 DUP1 REVERT JUMPDEST POP PUSH2 0x9A PUSH1 0x4 DUP1 CALLDATASIZE SUB DUP2 ADD SWAP1 PUSH2 0x95 SWAP2 SWAP1 PUSH2 0xA85 JUMP JUMPDEST PUSH2 0x3EA JUMP JUMPDEST PUSH1 0x40 MLOAD PUSH2 0xA7 SWAP2 SWAP1 PUSH2 0xABF JUMP JUMPDEST PUSH1 0x40 MLOAD DUP1 SWAP2 SUB SWAP1 RETURN JUMPDEST CALLVALUE DUP1 ISZERO PUSH2 0xBB JUMPI PUSH0 DUP1 REVERT JUMPDEST POP PUSH2 0xC4 PUSH2 0x3FF JUMP JUMPDEST PUSH1 0x40 MLOAD PUSH2 0xD1 SWAP2 SWAP1 PUSH2 0xABF JUMP JUMPDEST PUSH1 0x40 MLOAD DUP1 SWAP2 SUB SWAP1 RETURN JUMPDEST PUSH2 0xF4 PUSH1 0x4 DUP1 CALLDATASIZE SUB DUP2 ADD SWAP1 PUSH2 0xEF SWAP2 SWAP1 PUSH2 0xA85 JUMP JUMPDEST PUSH2 0x409 JUMP JUMPDEST STOP JUMPDEST CALLVALUE DUP1 ISZERO PUSH2 0x101 JUMPI PUSH0 DUP1 REVERT JUMPDEST POP PUSH2 0x11C PUSH1 0x4 DUP1 CALLDATASIZE SUB DUP2 ADD SWAP1 PUSH2 0x117 SWAP2 SWAP1 PUSH2 0xA85 JUMP JUMPDEST PUSH2 0x51C JUMP JUMPDEST PUSH1 0x40 MLOAD PUSH2 0x12E SWAP7 SWAP6 SWAP5 SWAP4 SWAP3 SWAP2 SWAP1 PUSH2 0xBAB JUMP JUMPDEST PUSH1 0x40 MLOAD DUP1 SWAP2 SUB SWAP1 RETURN JUMPDEST CALLVALUE DUP1 ISZERO PUSH2 0x142 JUMPI PUSH0 DUP1 REVERT JUMPDEST POP PUSH2 0x15D PUSH1 0x4 DUP1 CALLDATASIZE SUB DUP2 ADD SWAP1 PUSH2 0x158 SWAP2 SWAP1 PUSH2 0xA85 JUMP JUMPDEST PUSH2 0x613 JUMP JUMPDEST STOP JUMPDEST PUSH0 CALLVALUE SUB PUSH2 0x198 JUMPI PUSH1 0x40 MLOAD PUSH32 0x7C946ED700000000000000000000000000000000000000000000000000000000 DUP2 MSTORE PUSH1 0x4 ADD PUSH1 0x40 MLOAD DUP1 SWAP2 SUB SWAP1 REVERT JUMPDEST PUSH0 DUP4 SUB PUSH2 0x1D1 JUMPI PUSH1 0x40 MLOAD PUSH32 0x748C805600000000000000000000000000000000000000000000000000000000 DUP2 MSTORE PUSH1 0x4 ADD PUSH1 0x40 MLOAD DUP1 SWAP2 SUB SWAP1 REVERT JUMPDEST PUSH2 0x1DA DUP4 PUSH2 0x3EA JUMP JUMPDEST CALLVALUE LT ISZERO PUSH2 0x213 JUMPI PUSH1 0x40 MLOAD PUSH32 0xFE9BA5CD00000000000000000000000000000000000000000000000000000000 DUP2 MSTORE PUSH1 0x4 ADD PUSH1 0x40 MLOAD DUP1 SWAP2 SUB SWAP1 REVERT JUMPDEST PUSH2 0x21B PUSH2 0x3FF JUMP JUMPDEST DUP3 LT ISZERO PUSH2 0x254 JUMPI PUSH1 0x40 MLOAD PUSH32 0x7616640100000000000000000000000000000000000000000000000000000000 DUP2 MSTORE PUSH1 0x4 ADD PUSH1 0x40 MLOAD DUP1 SWAP2 SUB SWAP1 REVERT JUMPDEST PUSH0 DUP2 MLOAD SUB PUSH2 0x28E JUMPI PUSH1 0x40 MLOAD PUSH32 0xDFA03E5000000000000000000000000000000000000000000000000000000000 DUP2 MSTORE PUSH1 0x4 ADD PUSH1 0x40 MLOAD DUP1 SWAP2 SUB SWAP1 REVERT JUMPDEST PUSH0 PUSH1 0x40 MLOAD DUP1 PUSH1 0xC0 ADD PUSH1 0x40 MSTORE DUP1 CALLER PUSH20 0xFFFFFFFFFFFFFFFFFFFFFFFFFFFFFFFFFFFFFFFF AND DUP2 MSTORE PUSH1 0x20 ADD CALLVALUE DUP2 MSTORE PUSH1 0x20 ADD DUP6 DUP2 MSTORE PUSH1 0x20 ADD DUP5 TIMESTAMP PUSH2 0x2CE SWAP2 SWAP1 PUSH2 0xC3E JUMP JUMPDEST DUP2 MSTORE PUSH1 0x20 ADD DUP4 DUP2 MSTORE PUSH1 0x20 ADD PUSH0 ISZERO ISZERO DUP2 MSTORE POP SWAP1 DUP1 PUSH1 0x1 DUP2 SLOAD ADD DUP1 DUP3 SSTORE DUP1 SWAP2 POP POP PUSH1 0x1 SWAP1 SUB SWAP1 PUSH0 MSTORE PUSH1 0x20 PUSH0 KECCAK256 SWAP1 PUSH1 0x6 MUL ADD PUSH0 SWAP1 SWAP2 SWAP1 SWAP2 SWAP1 SWAP2 POP PUSH0 DUP3 ADD MLOAD DUP2 PUSH0 ADD PUSH0 PUSH2 0x100 EXP DUP2 SLOAD DUP2 PUSH20 0xFFFFFFFFFFFFFFFFFFFFFFFFFFFFFFFFFFFFFFFF MUL NOT AND SWAP1 DUP4 PUSH20 0xFFFFFFFFFFFFFFFFFFFFFFFFFFFFFFFFFFFFFFFF AND MUL OR SWAP1 SSTORE POP PUSH1 0x20 DUP3 ADD MLOAD DUP2 PUSH1 0x1 ADD SSTORE PUSH1 0x40 DUP3 ADD MLOAD DUP2 PUSH1 0x2 ADD SSTORE PUSH1 0x60 DUP3 ADD MLOAD DUP2 PUSH1 0x3 ADD SSTORE PUSH1 0x80 DUP3 ADD MLOAD DUP2 PUSH1 0x4 ADD SWAP1 DUP2 PUSH2 0x37C SWAP2 SWAP1 PUSH2 0xE6B JUMP JUMPDEST POP PUSH1 0xA0 DUP3 ADD MLOAD DUP2 PUSH1 0x5 ADD PUSH0 PUSH2 0x100 EXP DUP2 SLOAD DUP2 PUSH1 0xFF MUL NOT AND SWAP1 DUP4 ISZERO ISZERO MUL OR SWAP1 SSTORE POP POP POP PUSH32 0x4111FCEE61908834830ADF60A520BA26D09F02FA4E00CFE3D2C134E32F3F8696 PUSH1 0x1 PUSH0 DUP1 SLOAD SWAP1 POP PUSH2 0x3D0 SWAP2 SWAP1 PUSH2 0xF3A JUMP JUMPDEST PUSH1 0x40 MLOAD PUSH2 0x3DD SWAP2 SWAP1 PUSH2 0xABF JUMP JUMPDEST PUSH1 0x40 MLOAD DUP1 SWAP2 SUB SWAP1 LOG1 POP POP POP JUMP JUMPDEST PUSH0 PUSH1 0xA DUP3 PUSH2 0x3F8 SWAP2 SWAP1 PUSH2 0xF9A JUMP JUMPDEST SWAP1 POP SWAP2 SWAP1 POP JUMP JUMPDEST PUSH0 PUSH3 0x15180 SWAP1 POP SWAP1 JUMP JUMPDEST DUP1 PUSH0 DUP2 DUP2 SLOAD DUP2 LT PUSH2 0x41D JUMPI PUSH2 0x41C PUSH2 0xFCA JUMP JUMPDEST JUMPDEST SWAP1 PUSH0 MSTORE PUSH1 0x20 PUSH0 KECCAK256 SWAP1 PUSH1 0x6 MUL ADD PUSH1 0x5 ADD PUSH0 SWAP1 SLOAD SWAP1 PUSH2 0x100 EXP SWAP1 DIV PUSH1 0xFF AND ISZERO PUSH2 0x470 JUMPI PUSH1 0x40 MLOAD PUSH32 0x4AAEEA0900000000000000000000000000000000000000000000000000000000 DUP2 MSTORE PUSH1 0x4 ADD PUSH1 0x40 MLOAD DUP1 SWAP2 SUB SWAP1 REVERT JUMPDEST PUSH0 CALLVALUE SUB PUSH2 0x4A9 JUMPI PUSH1 0x40 MLOAD PUSH32 0x7C946ED700000000000000000000000000000000000000000000000000000000 DUP2 MSTORE PUSH1 0x4 ADD PUSH1 0x40 MLOAD DUP1 SWAP2 SUB SWAP1 REVERT JUMPDEST CALLVALUE PUSH0 DUP4 DUP2 SLOAD DUP2 LT PUSH2 0x4BD JUMPI PUSH2 0x4BC PUSH2 0xFCA JUMP JUMPDEST JUMPDEST SWAP1 PUSH0 MSTORE PUSH1 0x20 PUSH0 KECCAK256 SWAP1 PUSH1 0x6 MUL ADD PUSH1 0x1 ADD PUSH0 DUP3 DUP3 SLOAD PUSH2 0x4DA SWAP2 SWAP1 PUSH2 0xC3E JUMP JUMPDEST SWAP3 POP POP DUP2 SWAP1 SSTORE POP PUSH32 0x4D6CE1E535DBADE1C23DEFBA91E23B8F791CE5EDC0CC320257A2B364E4E38426 DUP3 PUSH1 0x40 MLOAD PUSH2 0x510 SWAP2 SWAP1 PUSH2 0xABF JUMP JUMPDEST PUSH1 0x40 MLOAD DUP1 SWAP2 SUB SWAP1 LOG1 POP POP JUMP JUMPDEST PUSH0 DUP2 DUP2 SLOAD DUP2 LT PUSH2 0x52A JUMPI PUSH0 DUP1 REVERT JUMPDEST SWAP1 PUSH0 MSTORE PUSH1 0x20 PUSH0 KECCAK256 SWAP1 PUSH1 0x6 MUL ADD PUSH0 SWAP2 POP SWAP1 POP DUP1 PUSH0 ADD PUSH0 SWAP1 SLOAD SWAP1 PUSH2 0x100 EXP SWAP1 DIV PUSH20 0xFFFFFFFFFFFFFFFFFFFFFFFFFFFFFFFFFFFFFFFF AND SWAP1 DUP1 PUSH1 0x1 ADD SLOAD SWAP1 DUP1 PUSH1 0x2 ADD SLOAD SWAP1 DUP1 PUSH1 0x3 ADD SLOAD SWAP1 DUP1 PUSH1 0x4 ADD DUP1 SLOAD PUSH2 0x580 SWAP1 PUSH2 0xC9E JUMP JUMPDEST DUP1 PUSH1 0x1F ADD PUSH1 0x20 DUP1 SWAP2 DIV MUL PUSH1 0x20 ADD PUSH1 0x40 MLOAD SWAP1 DUP2 ADD PUSH1 0x40 MSTORE DUP1 SWAP3 SWAP2 SWAP1 DUP2 DUP2 MSTORE PUSH1 0x20 ADD DUP3 DUP1 SLOAD PUSH2 0x5AC SWAP1 PUSH2 0xC9E JUMP JUMPDEST DUP1 ISZERO PUSH2 0x5F7 JUMPI DUP1 PUSH1 0x1F LT PUSH2 0x5CE JUMPI PUSH2 0x100 DUP1 DUP4 SLOAD DIV MUL DUP4 MSTORE SWAP2 PUSH1 0x20 ADD SWAP2 PUSH2 0x5F7 JUMP JUMPDEST DUP3 ADD SWAP2 SWAP1 PUSH0 MSTORE PUSH1 0x20 PUSH0 KECCAK256 SWAP1 JUMPDEST DUP2 SLOAD DUP2 MSTORE SWAP1 PUSH1 0x1 ADD SWAP1 PUSH1 0x20 ADD DUP1 DUP4 GT PUSH2 0x5DA JUMPI DUP3 SWAP1 SUB PUSH1 0x1F AND DUP3 ADD SWAP2 JUMPDEST POP POP POP POP POP SWAP1 DUP1 PUSH1 0x5 ADD PUSH0 SWAP1 SLOAD SWAP1 PUSH2 0x100 EXP SWAP1 DIV PUSH1 0xFF AND SWAP1 POP DUP7 JUMP JUMPDEST DUP1 CALLER PUSH20 0xFFFFFFFFFFFFFFFFFFFFFFFFFFFFFFFFFFFFFFFF AND PUSH0 DUP3 DUP2 SLOAD DUP2 LT PUSH2 0x63E JUMPI PUSH2 0x63D PUSH2 0xFCA JUMP JUMPDEST JUMPDEST SWAP1 PUSH0 MSTORE PUSH1 0x20 PUSH0 KECCAK256 SWAP1 PUSH1 0x6 MUL ADD PUSH0 ADD PUSH0 SWAP1 SLOAD SWAP1 PUSH2 0x100 EXP SWAP1 DIV PUSH20 0xFFFFFFFFFFFFFFFFFFFFFFFFFFFFFFFFFFFFFFFF AND PUSH20 0xFFFFFFFFFFFFFFFFFFFFFFFFFFFFFFFFFFFFFFFF AND EQ PUSH2 0x6B9 JUMPI PUSH1 0x40 MLOAD PUSH32 0xE7FEA9D00000000000000000000000000000000000000000000000000000000 DUP2 MSTORE PUSH1 0x4 ADD PUSH1 0x40 MLOAD DUP1 SWAP2 SUB SWAP1 REVERT JUMPDEST DUP2 TIMESTAMP PUSH0 DUP3 DUP2 SLOAD DUP2 LT PUSH2 0x6CE JUMPI PUSH2 0x6CD PUSH2 0xFCA JUMP JUMPDEST JUMPDEST SWAP1 PUSH0 MSTORE PUSH1 0x20 PUSH0 KECCAK256 SWAP1 PUSH1 0x6 MUL ADD PUSH1 0x3 ADD SLOAD LT PUSH2 0x715 JUMPI PUSH1 0x40 MLOAD PUSH32 0xE5713D2E00000000000000000000000000000000000000000000000000000000 DUP2 MSTORE PUSH1 0x4 ADD PUSH1 0x40 MLOAD DUP1 SWAP2 SUB SWAP1 REVERT JUMPDEST DUP3 PUSH0 DUP2 DUP2 SLOAD DUP2 LT PUSH2 0x729 JUMPI PUSH2 0x728 PUSH2 0xFCA JUMP JUMPDEST JUMPDEST SWAP1 PUSH0 MSTORE PUSH1 0x20 PUSH0 KECCAK256 SWAP1 PUSH1 0x6 MUL ADD PUSH1 0x5 ADD PUSH0 SWAP1 SLOAD SWAP1 PUSH2 0x100 EXP SWAP1 DIV PUSH1 0xFF AND ISZERO PUSH2 0x77C JUMPI PUSH1 0x40 MLOAD PUSH32 0x4AAEEA0900000000000000000000000000000000000000000000000000000000 DUP2 MSTORE PUSH1 0x4 ADD PUSH1 0x40 MLOAD DUP1 SWAP2 SUB SWAP1 REVERT JUMPDEST PUSH1 0x1 PUSH0 DUP6 DUP2 SLOAD DUP2 LT PUSH2 0x791 JUMPI PUSH2 0x790 PUSH2 0xFCA JUMP JUMPDEST JUMPDEST SWAP1 PUSH0 MSTORE PUSH1 0x20 PUSH0 KECCAK256 SWAP1 PUSH1 0x6 MUL ADD PUSH1 0x5 ADD PUSH0 PUSH2 0x100 EXP DUP2 SLOAD DUP2 PUSH1 0xFF MUL NOT AND SWAP1 DUP4 ISZERO ISZERO MUL OR SWAP1 SSTORE POP PUSH0 DUP5 DUP2 SLOAD DUP2 LT PUSH2 0x7C9 JUMPI PUSH2 0x7C8 PUSH2 0xFCA JUMP JUMPDEST JUMPDEST SWAP1 PUSH0 MSTORE PUSH1 0x20 PUSH0 KECCAK256 SWAP1 PUSH1 0x6 MUL ADD PUSH0 ADD PUSH0 SWAP1 SLOAD SWAP1 PUSH2 0x100 EXP SWAP1 DIV PUSH20 0xFFFFFFFFFFFFFFFFFFFFFFFFFFFFFFFFFFFFFFFF AND PUSH20 0xFFFFFFFFFFFFFFFFFFFFFFFFFFFFFFFFFFFFFFFF AND PUSH2 0x8FC PUSH0 DUP7 DUP2 SLOAD DUP2 LT PUSH2 0x823 JUMPI PUSH2 0x822 PUSH2 0xFCA JUMP JUMPDEST JUMPDEST SWAP1 PUSH0 MSTORE PUSH1 0x20 PUSH0 KECCAK256 SWAP1 PUSH1 0x6 MUL ADD PUSH1 0x1 ADD SLOAD SWAP1 DUP2 ISZERO MUL SWAP1 PUSH1 0x40 MLOAD PUSH0 PUSH1 0x40 MLOAD DUP1 DUP4 SUB DUP2 DUP6 DUP9 DUP9 CALL SWAP4 POP POP POP POP ISZERO DUP1 ISZERO PUSH2 0x85B JUMPI RETURNDATASIZE PUSH0 DUP1 RETURNDATACOPY RETURNDATASIZE PUSH0 REVERT JUMPDEST POP PUSH32 0x4E70A604B23A8EDEE2B1D0A656E9B9C00B73AD8BB1AFC2C59381EE9F69197DE7 DUP5 PUSH1 0x40 MLOAD PUSH2 0x88B SWAP2 SWAP1 PUSH2 0xABF JUMP JUMPDEST PUSH1 0x40 MLOAD DUP1 SWAP2 SUB SWAP1 LOG1 POP POP POP POP JUMP JUMPDEST PUSH0 PUSH1 0x40 MLOAD SWAP1 POP SWAP1 JUMP JUMPDEST PUSH0 DUP1 REVERT JUMPDEST PUSH0 DUP1 REVERT JUMPDEST PUSH0 DUP2 SWAP1 POP SWAP2 SWAP1 POP JUMP JUMPDEST PUSH2 0x8BC DUP2 PUSH2 0x8AA JUMP JUMPDEST DUP2 EQ PUSH2 0x8C6 JUMPI PUSH0 DUP1 REVERT JUMPDEST POP JUMP JUMPDEST PUSH0 DUP2 CALLDATALOAD SWAP1 POP PUSH2 0x8D7 DUP2 PUSH2 0x8B3 JUMP JUMPDEST SWAP3 SWAP2 POP POP JUMP JUMPDEST PUSH0 DUP1 REVERT JUMPDEST PUSH0 DUP1 REVERT JUMPDEST PUSH0 PUSH1 0x1F NOT PUSH1 0x1F DUP4 ADD AND SWAP1 POP SWAP2 SWAP1 POP JUMP JUMPDEST PUSH32 0x4E487B7100000000000000000000000000000000000000000000000000000000 PUSH0 MSTORE PUSH1 0x41 PUSH1 0x4 MSTORE PUSH1 0x24 PUSH0 REVERT JUMPDEST PUSH2 0x92B DUP3 PUSH2 0x8E5 JUMP JUMPDEST DUP2 ADD DUP2 DUP2 LT PUSH8 0xFFFFFFFFFFFFFFFF DUP3 GT OR ISZERO PUSH2 0x94A JUMPI PUSH2 0x949 PUSH2 0x8F5 JUMP JUMPDEST JUMPDEST DUP1 PUSH1 0x40 MSTORE POP POP POP JUMP JUMPDEST PUSH0 PUSH2 0x95C PUSH2 0x899 JUMP JUMPDEST SWAP1 POP PUSH2 0x968 DUP3 DUP3 PUSH2 0x922 JUMP JUMPDEST SWAP2 SWAP1 POP JUMP JUMPDEST PUSH0 PUSH8 0xFFFFFFFFFFFFFFFF DUP3 GT ISZERO PUSH2 0x987 JUMPI PUSH2 0x986 PUSH2 0x8F5 JUMP JUMPDEST JUMPDEST PUSH2 0x990 DUP3 PUSH2 0x8E5 JUMP JUMPDEST SWAP1 POP PUSH1 0x20 DUP2 ADD SWAP1 POP SWAP2 SWAP1 POP JUMP JUMPDEST DUP3 DUP2 DUP4 CALLDATACOPY PUSH0 DUP4 DUP4 ADD MSTORE POP POP POP JUMP JUMPDEST PUSH0 PUSH2 0x9BD PUSH2 0x9B8 DUP5 PUSH2 0x96D JUMP JUMPDEST PUSH2 0x953 JUMP JUMPDEST SWAP1 POP DUP3 DUP2 MSTORE PUSH1 0x20 DUP2 ADD DUP5 DUP5 DUP5 ADD GT ISZERO PUSH2 0x9D9 JUMPI PUSH2 0x9D8 PUSH2 0x8E1 JUMP JUMPDEST JUMPDEST PUSH2 0x9E4 DUP5 DUP3 DUP6 PUSH2 0x99D JUMP JUMPDEST POP SWAP4 SWAP3 POP POP POP JUMP JUMPDEST PUSH0 DUP3 PUSH1 0x1F DUP4 ADD SLT PUSH2 0xA00 JUMPI PUSH2 0x9FF PUSH2 0x8DD JUMP JUMPDEST JUMPDEST DUP2 CALLDATALOAD PUSH2 0xA10 DUP5 DUP3 PUSH1 0x20 DUP7 ADD PUSH2 0x9AB JUMP JUMPDEST SWAP2 POP POP SWAP3 SWAP2 POP POP JUMP JUMPDEST PUSH0 DUP1 PUSH0 PUSH1 0x60 DUP5 DUP7 SUB SLT ISZERO PUSH2 0xA30 JUMPI PUSH2 0xA2F PUSH2 0x8A2 JUMP JUMPDEST JUMPDEST PUSH0 PUSH2 0xA3D DUP7 DUP3 DUP8 ADD PUSH2 0x8C9 JUMP JUMPDEST SWAP4 POP POP PUSH1 0x20 PUSH2 0xA4E DUP7 DUP3 DUP8 ADD PUSH2 0x8C9 JUMP JUMPDEST SWAP3 POP POP PUSH1 0x40 DUP5 ADD CALLDATALOAD PUSH8 0xFFFFFFFFFFFFFFFF DUP2 GT ISZERO PUSH2 0xA6F JUMPI PUSH2 0xA6E PUSH2 0x8A6 JUMP JUMPDEST JUMPDEST PUSH2 0xA7B DUP7 DUP3 DUP8 ADD PUSH2 0x9EC JUMP JUMPDEST SWAP2 POP POP SWAP3 POP SWAP3 POP SWAP3 JUMP JUMPDEST PUSH0 PUSH1 0x20 DUP3 DUP5 SUB SLT ISZERO PUSH2 0xA9A JUMPI PUSH2 0xA99 PUSH2 0x8A2 JUMP JUMPDEST JUMPDEST PUSH0 PUSH2 0xAA7 DUP5 DUP3 DUP6 ADD PUSH2 0x8C9 JUMP JUMPDEST SWAP2 POP POP SWAP3 SWAP2 POP POP JUMP JUMPDEST PUSH2 0xAB9 DUP2 PUSH2 0x8AA JUMP JUMPDEST DUP3 MSTORE POP POP JUMP JUMPDEST PUSH0 PUSH1 0x20 DUP3 ADD SWAP1 POP PUSH2 0xAD2 PUSH0 DUP4 ADD DUP5 PUSH2 0xAB0 JUMP JUMPDEST SWAP3 SWAP2 POP POP JUMP JUMPDEST PUSH0 PUSH20 0xFFFFFFFFFFFFFFFFFFFFFFFFFFFFFFFFFFFFFFFF DUP3 AND SWAP1 POP SWAP2 SWAP1 POP JUMP JUMPDEST PUSH0 PUSH2 0xB01 DUP3 PUSH2 0xAD8 JUMP JUMPDEST SWAP1 POP SWAP2 SWAP1 POP JUMP JUMPDEST PUSH2 0xB11 DUP2 PUSH2 0xAF7 JUMP JUMPDEST DUP3 MSTORE POP POP JUMP JUMPDEST PUSH0 DUP2 MLOAD SWAP1 POP SWAP2 SWAP1 POP JUMP JUMPDEST PUSH0 DUP3 DUP3 MSTORE PUSH1 0x20 DUP3 ADD SWAP1 POP SWAP3 SWAP2 POP POP JUMP JUMPDEST PUSH0 JUMPDEST DUP4 DUP2 LT ISZERO PUSH2 0xB4E JUMPI DUP1 DUP3 ADD MLOAD DUP2 DUP5 ADD MSTORE PUSH1 0x20 DUP2 ADD SWAP1 POP PUSH2 0xB33 JUMP JUMPDEST PUSH0 DUP5 DUP5 ADD MSTORE POP POP POP POP JUMP JUMPDEST PUSH0 PUSH2 0xB63 DUP3 PUSH2 0xB17 JUMP JUMPDEST PUSH2 0xB6D DUP2 DUP6 PUSH2 0xB21 JUMP JUMPDEST SWAP4 POP PUSH2 0xB7D DUP2 DUP6 PUSH1 0x20 DUP7 ADD PUSH2 0xB31 JUMP JUMPDEST PUSH2 0xB86 DUP2 PUSH2 0x8E5 JUMP JUMPDEST DUP5 ADD SWAP2 POP POP SWAP3 SWAP2 POP POP JUMP JUMPDEST PUSH0 DUP2 ISZERO ISZERO SWAP1 POP SWAP2 SWAP1 POP JUMP JUMPDEST PUSH2 0xBA5 DUP2 PUSH2 0xB91 JUMP JUMPDEST DUP3 MSTORE POP POP JUMP JUMPDEST PUSH0 PUSH1 0xC0 DUP3 ADD SWAP1 POP PUSH2 0xBBE PUSH0 DUP4 ADD DUP10 PUSH2 0xB08 JUMP JUMPDEST PUSH2 0xBCB PUSH1 0x20 DUP4 ADD DUP9 PUSH2 0xAB0 JUMP JUMPDEST PUSH2 0xBD8 PUSH1 0x40 DUP4 ADD DUP8 PUSH2 0xAB0 JUMP JUMPDEST PUSH2 0xBE5 PUSH1 0x60 DUP4 ADD DUP7 PUSH2 0xAB0 JUMP JUMPDEST DUP2 DUP2 SUB PUSH1 0x80 DUP4 ADD MSTORE PUSH2 0xBF7 DUP2 DUP6 PUSH2 0xB59 JUMP JUMPDEST SWAP1 POP PUSH2 0xC06 PUSH1 0xA0 DUP4 ADD DUP5 PUSH2 0xB9C JUMP JUMPDEST SWAP8 SWAP7 POP POP POP POP POP POP POP JUMP JUMPDEST PUSH32 0x4E487B7100000000000000000000000000000000000000000000000000000000 PUSH0 MSTORE PUSH1 0x11 PUSH1 0x4 MSTORE PUSH1 0x24 PUSH0 REVERT JUMPDEST PUSH0 PUSH2 0xC48 DUP3 PUSH2 0x8AA JUMP JUMPDEST SWAP2 POP PUSH2 0xC53 DUP4 PUSH2 0x8AA JUMP JUMPDEST SWAP3 POP DUP3 DUP3 ADD SWAP1 POP DUP1 DUP3 GT ISZERO PUSH2 0xC6B JUMPI PUSH2 0xC6A PUSH2 0xC11 JUMP JUMPDEST JUMPDEST SWAP3 SWAP2 POP POP JUMP JUMPDEST PUSH32 0x4E487B7100000000000000000000000000000000000000000000000000000000 PUSH0 MSTORE PUSH1 0x22 PUSH1 0x4 MSTORE PUSH1 0x24 PUSH0 REVERT JUMPDEST PUSH0 PUSH1 0x2 DUP3 DIV SWAP1 POP PUSH1 0x1 DUP3 AND DUP1 PUSH2 0xCB5 JUMPI PUSH1 0x7F DUP3 AND SWAP2 POP JUMPDEST PUSH1 0x20 DUP3 LT DUP2 SUB PUSH2 0xCC8 JUMPI PUSH2 0xCC7 PUSH2 0xC71 JUMP JUMPDEST JUMPDEST POP SWAP2 SWAP1 POP JUMP JUMPDEST PUSH0 DUP2 SWAP1 POP DUP2 PUSH0 MSTORE PUSH1 0x20 PUSH0 KECCAK256 SWAP1 POP SWAP2 SWAP1 POP JUMP JUMPDEST PUSH0 PUSH1 0x20 PUSH1 0x1F DUP4 ADD DIV SWAP1 POP SWAP2 SWAP1 POP JUMP JUMPDEST PUSH0 DUP3 DUP3 SHL SWAP1 POP SWAP3 SWAP2 POP POP JUMP JUMPDEST PUSH0 PUSH1 0x8 DUP4 MUL PUSH2 0xD2A PUSH32 0xFFFFFFFFFFFFFFFFFFFFFFFFFFFFFFFFFFFFFFFFFFFFFFFFFFFFFFFFFFFFFFFF DUP3 PUSH2 0xCEF JUMP JUMPDEST PUSH2 0xD34 DUP7 DUP4 PUSH2 0xCEF JUMP JUMPDEST SWAP6 POP DUP1 NOT DUP5 AND SWAP4 POP DUP1 DUP7 AND DUP5 OR SWAP3 POP POP POP SWAP4 SWAP3 POP POP POP JUMP JUMPDEST PUSH0 DUP2 SWAP1 POP SWAP2 SWAP1 POP JUMP JUMPDEST PUSH0 PUSH2 0xD6F PUSH2 0xD6A PUSH2 0xD65 DUP5 PUSH2 0x8AA JUMP JUMPDEST PUSH2 0xD4C JUMP JUMPDEST PUSH2 0x8AA JUMP JUMPDEST SWAP1 POP SWAP2 SWAP1 POP JUMP JUMPDEST PUSH0 DUP2 SWAP1 POP SWAP2 SWAP1 POP JUMP JUMPDEST PUSH2 0xD88 DUP4 PUSH2 0xD55 JUMP JUMPDEST PUSH2 0xD9C PUSH2 0xD94 DUP3 PUSH2 0xD76 JUMP JUMPDEST DUP5 DUP5 SLOAD PUSH2 0xCFB JUMP JUMPDEST DUP3 SSTORE POP POP POP POP JUMP JUMPDEST PUSH0 SWAP1 JUMP JUMPDEST PUSH2 0xDB0 PUSH2 0xDA4 JUMP JUMPDEST PUSH2 0xDBB DUP2 DUP5 DUP5 PUSH2 0xD7F JUMP JUMPDEST POP POP POP JUMP JUMPDEST JUMPDEST DUP2 DUP2 LT ISZERO PUSH2 0xDDE JUMPI PUSH2 0xDD3 PUSH0 DUP3 PUSH2 0xDA8 JUMP JUMPDEST PUSH1 0x1 DUP2 ADD SWAP1 POP PUSH2 0xDC1 JUMP JUMPDEST POP POP JUMP JUMPDEST PUSH1 0x1F DUP3 GT ISZERO PUSH2 0xE23 JUMPI PUSH2 0xDF4 DUP2 PUSH2 0xCCE JUMP JUMPDEST PUSH2 0xDFD DUP5 PUSH2 0xCE0 JUMP JUMPDEST DUP2 ADD PUSH1 0x20 DUP6 LT ISZERO PUSH2 0xE0C JUMPI DUP2 SWAP1 POP JUMPDEST PUSH2 0xE20 PUSH2 0xE18 DUP6 PUSH2 0xCE0 JUMP JUMPDEST DUP4 ADD DUP3 PUSH2 0xDC0 JUMP JUMPDEST POP POP JUMPDEST POP POP POP JUMP JUMPDEST PUSH0 DUP3 DUP3 SHR SWAP1 POP SWAP3 SWAP2 POP POP JUMP JUMPDEST PUSH0 PUSH2 0xE43 PUSH0 NOT DUP5 PUSH1 0x8 MUL PUSH2 0xE28 JUMP JUMPDEST NOT DUP1 DUP4 AND SWAP2 POP POP SWAP3 SWAP2 POP POP JUMP JUMPDEST PUSH0 PUSH2 0xE5B DUP4 DUP4 PUSH2 0xE34 JUMP JUMPDEST SWAP2 POP DUP3 PUSH1 0x2 MUL DUP3 OR SWAP1 POP SWAP3 SWAP2 POP POP JUMP JUMPDEST PUSH2 0xE74 DUP3 PUSH2 0xB17 JUMP JUMPDEST PUSH8 0xFFFFFFFFFFFFFFFF DUP2 GT ISZERO PUSH2 0xE8D JUMPI PUSH2 0xE8C PUSH2 0x8F5 JUMP JUMPDEST JUMPDEST PUSH2 0xE97 DUP3 SLOAD PUSH2 0xC9E JUMP JUMPDEST PUSH2 0xEA2 DUP3 DUP3 DUP6 PUSH2 0xDE2 JUMP JUMPDEST PUSH0 PUSH1 0x20 SWAP1 POP PUSH1 0x1F DUP4 GT PUSH1 0x1 DUP2 EQ PUSH2 0xED3 JUMPI PUSH0 DUP5 ISZERO PUSH2 0xEC1 JUMPI DUP3 DUP8 ADD MLOAD SWAP1 POP JUMPDEST PUSH2 0xECB DUP6 DUP3 PUSH2 0xE50 JUMP JUMPDEST DUP7 SSTORE POP PUSH2 0xF32 JUMP JUMPDEST PUSH1 0x1F NOT DUP5 AND PUSH2 0xEE1 DUP7 PUSH2 0xCCE JUMP JUMPDEST PUSH0 JUMPDEST DUP3 DUP2 LT ISZERO PUSH2 0xF08 JUMPI DUP5 DUP10 ADD MLOAD DUP3 SSTORE PUSH1 0x1 DUP3 ADD SWAP2 POP PUSH1 0x20 DUP6 ADD SWAP5 POP PUSH1 0x20 DUP2 ADD SWAP1 POP PUSH2 0xEE3 JUMP JUMPDEST DUP7 DUP4 LT ISZERO PUSH2 0xF25 JUMPI DUP5 DUP10 ADD MLOAD PUSH2 0xF21 PUSH1 0x1F DUP10 AND DUP3 PUSH2 0xE34 JUMP JUMPDEST DUP4 SSTORE POP JUMPDEST PUSH1 0x1 PUSH1 0x2 DUP9 MUL ADD DUP9 SSTORE POP POP POP JUMPDEST POP POP POP POP POP POP JUMP JUMPDEST PUSH0 PUSH2 0xF44 DUP3 PUSH2 0x8AA JUMP JUMPDEST SWAP2 POP PUSH2 0xF4F DUP4 PUSH2 0x8AA JUMP JUMPDEST SWAP3 POP DUP3 DUP3 SUB SWAP1 POP DUP2 DUP2 GT ISZERO PUSH2 0xF67 JUMPI PUSH2 0xF66 PUSH2 0xC11 JUMP JUMPDEST JUMPDEST SWAP3 SWAP2 POP POP JUMP JUMPDEST PUSH32 0x4E487B7100000000000000000000000000000000000000000000000000000000 PUSH0 MSTORE PUSH1 0x12 PUSH1 0x4 MSTORE PUSH1 0x24 PUSH0 REVERT JUMPDEST PUSH0 PUSH2 0xFA4 DUP3 PUSH2 0x8AA JUMP JUMPDEST SWAP2 POP PUSH2 0xFAF DUP4 PUSH2 0x8AA JUMP JUMPDEST SWAP3 POP DUP3 PUSH2 0xFBF JUMPI PUSH2 0xFBE PUSH2 0xF6D JUMP JUMPDEST JUMPDEST DUP3 DUP3 DIV SWAP1 POP SWAP3 SWAP2 POP POP JUMP JUMPDEST PUSH32 0x4E487B7100000000000000000000000000000000000000000000000000000000 PUSH0 MSTORE PUSH1 0x32 PUSH1 0x4 MSTORE PUSH1 0x24 PUSH0 REVERT INVALID LOG2 PUSH5 0x6970667358 0x22 SLT KECCAK256 LOG2 0xBA EXP SWAP10 EQ PUSH16 0x64AA545C845055C4FE97D6FBDCCFC19B PUSH21 0x1F514EA21DCA9A1D8064736F6C6343000816003300 "
				},
				"gasEstimates": {
					"creation": {
						"codeDepositCost": "828200",
						"executionCost": "862",
						"totalCost": "829062"
					},
					"external": {
						"createVault(uint256,uint256,string)": "infinite",
						"depositVault(uint256)": "infinite",
						"minDeposit(uint256)": "infinite",
						"minDuration()": "354",
						"vaults(uint256)": "infinite",
						"withdrawVault(uint256)": "infinite"
					}
				},
				"methodIdentifiers": {
					"createVault(uint256,uint256,string)": "3ed8a71e",
					"depositVault(uint256)": "5a02ec19",
					"minDeposit(uint256)": "40dc8aa8",
					"minDuration()": "56715761",
					"vaults(uint256)": "8c64ea4a",
					"withdrawVault(uint256)": "b40afc1c"
				}
			},
			"storageLayout": {
				"storage": [
					{
						"astId": 18,
						"contract": "solidity-fundamentals/contracts/TimeLockedSavings.sol:TimeLockedSavings",
						"label": "vaults",
						"offset": 0,
						"slot": "0",
						"type": "t_array(t_struct(Vault)14_storage)dyn_storage"
					}
				],
				"types": {
					"t_address": {
						"encoding": "inplace",
						"label": "address",
						"numberOfBytes": "20"
					},
					"t_array(t_struct(Vault)14_storage)dyn_storage": {
						"base": "t_struct(Vault)14_storage",
						"encoding": "dynamic_array",
						"label": "struct TimeLockedSavings.Vault[]",
						"numberOfBytes": "32"
					},
					"t_bool": {
						"encoding": "inplace",
						"label": "bool",
						"numberOfBytes": "1"
					},
					"t_string_storage": {
						"encoding": "bytes",
						"label": "string",
						"numberOfBytes": "32"
					},
					"t_struct(Vault)14_storage": {
						"encoding": "inplace",
						"label": "struct TimeLockedSavings.Vault",
						"members": [
							{
								"astId": 3,
								"contract": "solidity-fundamentals/contracts/TimeLockedSavings.sol:TimeLockedSavings",
								"label": "owner",
								"offset": 0,
								"slot": "0",
								"type": "t_address"
							},
							{
								"astId": 5,
								"contract": "solidity-fundamentals/contracts/TimeLockedSavings.sol:TimeLockedSavings",
								"label": "depositAmount",
								"offset": 0,
								"slot": "1",
								"type": "t_uint256"
							},
							{
								"astId": 7,
								"contract": "solidity-fundamentals/contracts/TimeLockedSavings.sol:TimeLockedSavings",
								"label": "targetAmount",
								"offset": 0,
								"slot": "2",
								"type": "t_uint256"
							},
							{
								"astId": 9,
								"contract": "solidity-fundamentals/contracts/TimeLockedSavings.sol:TimeLockedSavings",
								"label": "lockEndTime",
								"offset": 0,
								"slot": "3",
								"type": "t_uint256"
							},
							{
								"astId": 11,
								"contract": "solidity-fundamentals/contracts/TimeLockedSavings.sol:TimeLockedSavings",
								"label": "purpose",
								"offset": 0,
								"slot": "4",
								"type": "t_string_storage"
							},
							{
								"astId": 13,
								"contract": "solidity-fundamentals/contracts/TimeLockedSavings.sol:TimeLockedSavings",
								"label": "withdrawn",
								"offset": 0,
								"slot": "5",
								"type": "t_bool"
							}
						],
						"numberOfBytes": "192"
					},
					"t_uint256": {
						"encoding": "inplace",
						"label": "uint256",
						"numberOfBytes": "32"
					}
				}
			},
			"userdoc": {
				"kind": "user",
				"methods": {},
				"version": 1
			}
		}
	}
}