{
	"solidity-fundamentals/contracts/ExampleContract.sol": {
		"ExampleContract": {
			"abi": [
				{
					"inputs": [
						{
							"internalType": "address",
							"name": "initialOwner",
							"type": "address"
						}
					],
					"stateMutability": "nonpayable",
					"type": "constructor"
				},
				{
					"inputs": [
						{
							"internalType": "address",
							"name": "owner",
							"type": "address"
						}
					],
					"name": "OwnableInvalidOwner",
					"type": "error"
				},
				{
					"inputs": [
						{
							"internalType": "address",
							"name": "account",
							"type": "address"
						}
					],
					"name": "OwnableUnauthorizedAccount",
					"type": "error"
				},
				{
					"anonymous": false,
					"inputs": [
						{
							"indexed": true,
							"internalType": "address",
							"name": "previousOwner",
							"type": "address"
						},
						{
							"indexed": true,
							"internalType": "address",
							"name": "newOwner",
							"type": "address"
						}
					],
					"name": "OwnershipTransferred",
					"type": "event"
				},
				{
					"inputs": [
						{
							"internalType": "string",
							"name": "_name",
							"type": "string"
						},
						{
							"internalType": "uint256",
							"name": "_age",
							"type": "uint256"
						}
					],
					"name": "addPerson",
					"outputs": [],
					"stateMutability": "nonpayable",
					"type": "function"
				},
				{
					"inputs": [
						{
							"internalType": "address",
							"name": "_addr",
							"type": "address"
						}
					],
					"name": "checkParticipant",
					"outputs": [
						{
							"internalType": "bool",
							"name": "",
							"type": "bool"
						}
					],
					"stateMutability": "view",
					"type": "function"
				},
				{
					"inputs": [
						{
							"internalType": "address",
							"name": "_addr",
							"type": "address"
						}
					],
					"name": "isAdult",
					"outputs": [
						{
							"internalType": "bool",
							"name": "",
							"type": "bool"
						}
					],
					"stateMutability": "view",
					"type": "function"
				},
				{
					"inputs": [],
					"name": "owner",
					"outputs": [
						{
							"internalType": "address",
							"name": "",
							"type": "address"
						}
					],
					"stateMutability": "view",
					"type": "function"
				},
				{
					"inputs": [
						{
							"internalType": "uint256",
							"name": "",
							"type": "uint256"
						}
					],
					"name": "participants",
					"outputs": [
						{
							"internalType": "address",
							"name": "",
							"type": "address"
						}
					],
					"stateMutability": "view",
					"type": "function"
				},
				{
					"inputs": [
						{
							"internalType": "address",
							"name": "",
							"type": "address"
						}
					],
					"name": "personInfo",
					"outputs": [
						{
							"internalType": "string",
							"name": "name",
							"type": "string"
						},
						{
							"internalType": "uint256",
							"name": "age",
							"type": "uint256"
						}
					],
					"stateMutability": "view",
					"type": "function"
				},
				{
					"inputs": [],
					"name": "renounceOwnership",
					"outputs": [],
					"stateMutability": "nonpayable",
					"type": "function"
				},
				{
					"inputs": [
						{
							"internalType": "address",
							"name": "newOwner",
							"type": "address"
						}
					],
					"name": "transferOwnership",
					"outputs": [],
					"stateMutability": "nonpayable",
					"type": "function"
				}
			],
			"devdoc": {
				"errors": {
					"OwnableInvalidOwner(address)": [
						{
							"details": "The owner is not a valid owner account. (eg. `address(0)`)"
						}
					],
					"OwnableUnauthorizedAccount(address)": [
						{
							"details": "The caller account is not authorized to perform an operation."
						}
					]
				},
				"kind": "dev",
				"methods": {
					"owner()": {
						"details": "Returns the address of the current owner."
					},
					"renounceOwnership()": {
						"details": "Leaves the contract without owner. It will not be possible to call `onlyOwner` functions. Can only be called by the current owner. NOTE: Renouncing ownership will leave the contract without an owner, thereby disabling any functionality that is only available to the owner."
					},
					"transferOwnership(address)": {
						"details": "Transfers ownership of the contract to a new account (`newOwner`). Can only be called by the current owner."
					}
				},
				"version": 1
			},
			"evm": {
				"assembly": "    /* \"solidity-fundamentals/contracts/ExampleContract.sol\":253:1636  contract ExampleContract is Ownable {... */\n  mstore(0x40, 0x80)\n    /* \"solidity-fundamentals/contracts/ExampleContract.sol\":296:354  constructor(address initialOwner) Ownable(initialOwner) {} */\n  callvalue\n  dup1\n  iszero\n  tag_1\n  jumpi\n  0x00\n  dup1\n  revert\ntag_1:\n  pop\n  mload(0x40)\n  sub(codesize, bytecodeSize)\n  dup1\n  bytecodeSize\n  dup4\n  codecopy\n  dup2\n  dup2\n  add\n  0x40\n  mstore\n  dup2\n  add\n  swap1\n  tag_2\n  swap2\n  swap1\n  tag_3\n  jump\t// in\ntag_2:\n    /* \"solidity-fundamentals/contracts/ExampleContract.sol\":338:350  initialOwner */\n  dup1\n    /* \"@openzeppelin/contracts/access/Ownable.sol\":1297:1298  0 */\n  0x00\n    /* \"@openzeppelin/contracts/access/Ownable.sol\":1273:1299  initialOwner == address(0) */\n  0xffffffffffffffffffffffffffffffffffffffff\n  and\n    /* \"@openzeppelin/contracts/access/Ownable.sol\":1273:1285  initialOwner */\n  dup2\n    /* \"@openzeppelin/contracts/access/Ownable.sol\":1273:1299  initialOwner == address(0) */\n  0xffffffffffffffffffffffffffffffffffffffff\n  and\n  sub\n    /* \"@openzeppelin/contracts/access/Ownable.sol\":1269:1364  if (initialOwner == address(0)) {... */\n  tag_7\n  jumpi\n    /* \"@openzeppelin/contracts/access/Ownable.sol\":1350:1351  0 */\n  0x00\n    /* \"@openzeppelin/contracts/access/Ownable.sol\":1322:1353  OwnableInvalidOwner(address(0)) */\n  mload(0x40)\n  0x1e4fbdf700000000000000000000000000000000000000000000000000000000\n  dup2\n  mstore\n  0x04\n  add\n  tag_8\n  swap2\n  swap1\n  tag_9\n  jump\t// in\ntag_8:\n  mload(0x40)\n  dup1\n  swap2\n  sub\n  swap1\n  revert\n    /* \"@openzeppelin/contracts/access/Ownable.sol\":1269:1364  if (initialOwner == address(0)) {... */\ntag_7:\n    /* \"@openzeppelin/contracts/access/Ownable.sol\":1373:1405  _transferOwnership(initialOwner) */\n  tag_10\n    /* \"@openzeppelin/contracts/access/Ownable.sol\":1392:1404  initialOwner */\n  dup2\n    /* \"@openzeppelin/contracts/access/Ownable.sol\":1373:1391  _transferOwnership */\n  shl(0x20, tag_11)\n    /* \"@openzeppelin/contracts/access/Ownable.sol\":1373:1405  _transferOwnership(initialOwner) */\n  0x20\n  shr\n  jump\t// in\ntag_10:\n    /* \"@openzeppelin/contracts/access/Ownable.sol\":1225:1412  constructor(address initialOwner) {... */\n  pop\n    /* \"solidity-fundamentals/contracts/ExampleContract.sol\":296:354  constructor(address initialOwner) Ownable(initialOwner) {} */\n  pop\n    /* \"solidity-fundamentals/contracts/ExampleContract.sol\":253:1636  contract ExampleContract is Ownable {... */\n  jump(tag_13)\n    /* \"@openzeppelin/contracts/access/Ownable.sol\":2912:3099  function _transferOwnership(address newOwner) internal virtual {... */\ntag_11:\n    /* \"@openzeppelin/contracts/access/Ownable.sol\":2985:3001  address oldOwner */\n  0x00\n    /* \"@openzeppelin/contracts/access/Ownable.sol\":3004:3010  _owner */\n  dup1\n  0x00\n  swap1\n  sload\n  swap1\n  0x0100\n  exp\n  swap1\n  div\n  0xffffffffffffffffffffffffffffffffffffffff\n  and\n    /* \"@openzeppelin/contracts/access/Ownable.sol\":2985:3010  address oldOwner = _owner */\n  swap1\n  pop\n    /* \"@openzeppelin/contracts/access/Ownable.sol\":3029:3037  newOwner */\n  dup2\n    /* \"@openzeppelin/contracts/access/Ownable.sol\":3020:3026  _owner */\n  0x00\n  dup1\n    /* \"@openzeppelin/contracts/access/Ownable.sol\":3020:3037  _owner = newOwner */\n  0x0100\n  exp\n  dup2\n  sload\n  dup2\n  0xffffffffffffffffffffffffffffffffffffffff\n  mul\n  not\n  and\n  swap1\n  dup4\n  0xffffffffffffffffffffffffffffffffffffffff\n  and\n  mul\n  or\n  swap1\n  sstore\n  pop\n    /* \"@openzeppelin/contracts/access/Ownable.sol\":3083:3091  newOwner */\n  dup2\n    /* \"@openzeppelin/contracts/access/Ownable.sol\":3052:3092  OwnershipTransferred(oldOwner, newOwner) */\n  0xffffffffffffffffffffffffffffffffffffffff\n  and\n    /* \"@openzeppelin/contracts/access/Ownable.sol\":3073:3081  oldOwner */\n  dup2\n    /* \"@openzeppelin/contracts/access/Ownable.sol\":3052:3092  OwnershipTransferred(oldOwner, newOwner) */\n  0xffffffffffffffffffffffffffffffffffffffff\n  and\n  0x8be0079c531659141344cd1fd0a4f28419497f9722a3daafe3b4186f6b6457e0\n  mload(0x40)\n  mload(0x40)\n  dup1\n  swap2\n  sub\n  swap1\n  log3\n    /* \"@openzeppelin/contracts/access/Ownable.sol\":2975:3099  {... */\n  pop\n    /* \"@openzeppelin/contracts/access/Ownable.sol\":2912:3099  function _transferOwnership(address newOwner) internal virtual {... */\n  pop\n  jump\t// out\n    /* \"#utility.yul\":88:205   */\ntag_16:\n    /* \"#utility.yul\":197:198   */\n  0x00\n    /* \"#utility.yul\":194:195   */\n  dup1\n    /* \"#utility.yul\":187:199   */\n  revert\n    /* \"#utility.yul\":334:460   */\ntag_18:\n    /* \"#utility.yul\":371:378   */\n  0x00\n    /* \"#utility.yul\":411:453   */\n  0xffffffffffffffffffffffffffffffffffffffff\n    /* \"#utility.yul\":404:409   */\n  dup3\n    /* \"#utility.yul\":400:454   */\n  and\n    /* \"#utility.yul\":389:454   */\n  swap1\n  pop\n    /* \"#utility.yul\":334:460   */\n  swap2\n  swap1\n  pop\n  jump\t// out\n    /* \"#utility.yul\":466:562   */\ntag_19:\n    /* \"#utility.yul\":503:510   */\n  0x00\n    /* \"#utility.yul\":532:556   */\n  tag_29\n    /* \"#utility.yul\":550:555   */\n  dup3\n    /* \"#utility.yul\":532:556   */\n  tag_18\n  jump\t// in\ntag_29:\n    /* \"#utility.yul\":521:556   */\n  swap1\n  pop\n    /* \"#utility.yul\":466:562   */\n  swap2\n  swap1\n  pop\n  jump\t// out\n    /* \"#utility.yul\":568:690   */\ntag_20:\n    /* \"#utility.yul\":641:665   */\n  tag_31\n    /* \"#utility.yul\":659:664   */\n  dup2\n    /* \"#utility.yul\":641:665   */\n  tag_19\n  jump\t// in\ntag_31:\n    /* \"#utility.yul\":634:639   */\n  dup2\n    /* \"#utility.yul\":631:666   */\n  eq\n    /* \"#utility.yul\":621:684   */\n  tag_32\n  jumpi\n    /* \"#utility.yul\":680:681   */\n  0x00\n    /* \"#utility.yul\":677:678   */\n  dup1\n    /* \"#utility.yul\":670:682   */\n  revert\n    /* \"#utility.yul\":621:684   */\ntag_32:\n    /* \"#utility.yul\":568:690   */\n  pop\n  jump\t// out\n    /* \"#utility.yul\":696:839   */\ntag_21:\n    /* \"#utility.yul\":753:758   */\n  0x00\n    /* \"#utility.yul\":784:790   */\n  dup2\n    /* \"#utility.yul\":778:791   */\n  mload\n    /* \"#utility.yul\":769:791   */\n  swap1\n  pop\n    /* \"#utility.yul\":800:833   */\n  tag_34\n    /* \"#utility.yul\":827:832   */\n  dup2\n    /* \"#utility.yul\":800:833   */\n  tag_20\n  jump\t// in\ntag_34:\n    /* \"#utility.yul\":696:839   */\n  swap3\n  swap2\n  pop\n  pop\n  jump\t// out\n    /* \"#utility.yul\":845:1196   */\ntag_3:\n    /* \"#utility.yul\":915:921   */\n  0x00\n    /* \"#utility.yul\":964:966   */\n  0x20\n    /* \"#utility.yul\":952:961   */\n  dup3\n    /* \"#utility.yul\":943:950   */\n  dup5\n    /* \"#utility.yul\":939:962   */\n  sub\n    /* \"#utility.yul\":935:967   */\n  slt\n    /* \"#utility.yul\":932:1051   */\n  iszero\n  tag_36\n  jumpi\n    /* \"#utility.yul\":970:1049   */\n  tag_37\n  tag_16\n  jump\t// in\ntag_37:\n    /* \"#utility.yul\":932:1051   */\ntag_36:\n    /* \"#utility.yul\":1090:1091   */\n  0x00\n    /* \"#utility.yul\":1115:1179   */\n  tag_38\n    /* \"#utility.yul\":1171:1178   */\n  dup5\n    /* \"#utility.yul\":1162:1168   */\n  dup3\n    /* \"#utility.yul\":1151:1160   */\n  dup6\n    /* \"#utility.yul\":1147:1169   */\n  add\n    /* \"#utility.yul\":1115:1179   */\n  tag_21\n  jump\t// in\ntag_38:\n    /* \"#utility.yul\":1105:1179   */\n  swap2\n  pop\n    /* \"#utility.yul\":1061:1189   */\n  pop\n    /* \"#utility.yul\":845:1196   */\n  swap3\n  swap2\n  pop\n  pop\n  jump\t// out\n    /* \"#utility.yul\":1202:1320   */\ntag_22:\n    /* \"#utility.yul\":1289:1313   */\n  tag_40\n    /* \"#utility.yul\":1307:1312   */\n  dup2\n    /* \"#utility.yul\":1289:1313   */\n  tag_19\n  jump\t// in\ntag_40:\n    /* \"#utility.yul\":1284:1287   */\n  dup3\n    /* \"#utility.yul\":1277:1314   */\n  mstore\n    /* \"#utility.yul\":1202:1320   */\n  pop\n  pop\n  jump\t// out\n    /* \"#utility.yul\":1326:1548   */\ntag_9:\n    /* \"#utility.yul\":1419:1423   */\n  0x00\n    /* \"#utility.yul\":1457:1459   */\n  0x20\n    /* \"#utility.yul\":1446:1455   */\n  dup3\n    /* \"#utility.yul\":1442:1460   */\n  add\n    /* \"#utility.yul\":1434:1460   */\n  swap1\n  pop\n    /* \"#utility.yul\":1470:1541   */\n  tag_42\n    /* \"#utility.yul\":1538:1539   */\n  0x00\n    /* \"#utility.yul\":1527:1536   */\n  dup4\n    /* \"#utility.yul\":1523:1540   */\n  add\n    /* \"#utility.yul\":1514:1520   */\n  dup5\n    /* \"#utility.yul\":1470:1541   */\n  tag_22\n  jump\t// in\ntag_42:\n    /* \"#utility.yul\":1326:1548   */\n  swap3\n  swap2\n  pop\n  pop\n  jump\t// out\n    /* \"solidity-fundamentals/contracts/ExampleContract.sol\":253:1636  contract ExampleContract is Ownable {... */\ntag_13:\n  dataSize(sub_0)\n  dup1\n  dataOffset(sub_0)\n  0x00\n  codecopy\n  0x00\n  return\nstop\n\nsub_0: assembly {\n        /* \"solidity-fundamentals/contracts/ExampleContract.sol\":253:1636  contract ExampleContract is Ownable {... */\n      mstore(0x40, 0x80)\n      callvalue\n      dup1\n      iszero\n      tag_1\n      jumpi\n      0x00\n      dup1\n      revert\n    tag_1:\n      pop\n      jumpi(tag_2, lt(calldatasize, 0x04))\n      shr(0xe0, calldataload(0x00))\n      dup1\n      0x8da5cb5b\n      gt\n      tag_11\n      jumpi\n      dup1\n      0x8da5cb5b\n      eq\n      tag_7\n      jumpi\n      dup1\n      0xeb13ec86\n      eq\n      tag_8\n      jumpi\n      dup1\n      0xf2fde38b\n      eq\n      tag_9\n      jumpi\n      dup1\n      0xfb113db1\n      eq\n      tag_10\n      jumpi\n      jump(tag_2)\n    tag_11:\n      dup1\n      0x35c1d349\n      eq\n      tag_3\n      jumpi\n      dup1\n      0x5b573186\n      eq\n      tag_4\n      jumpi\n      dup1\n      0x6f760f41\n      eq\n      tag_5\n      jumpi\n      dup1\n      0x715018a6\n      eq\n      tag_6\n      jumpi\n    tag_2:\n      0x00\n      dup1\n      revert\n        /* \"solidity-fundamentals/contracts/ExampleContract.sol\":676:705  address[] public participants */\n    tag_3:\n      tag_12\n      0x04\n      dup1\n      calldatasize\n      sub\n      dup2\n      add\n      swap1\n      tag_13\n      swap2\n      swap1\n      tag_14\n      jump\t// in\n    tag_13:\n      tag_15\n      jump\t// in\n    tag_12:\n      mload(0x40)\n      tag_16\n      swap2\n      swap1\n      tag_17\n      jump\t// in\n    tag_16:\n      mload(0x40)\n      dup1\n      swap2\n      sub\n      swap1\n      return\n        /* \"solidity-fundamentals/contracts/ExampleContract.sol\":1034:1292  function checkParticipant(address _addr) public view onlyOwner returns(bool) {... */\n    tag_4:\n      tag_18\n      0x04\n      dup1\n      calldatasize\n      sub\n      dup2\n      add\n      swap1\n      tag_19\n      swap2\n      swap1\n      tag_20\n      jump\t// in\n    tag_19:\n      tag_21\n      jump\t// in\n    tag_18:\n      mload(0x40)\n      tag_22\n      swap2\n      swap1\n      tag_23\n      jump\t// in\n    tag_22:\n      mload(0x40)\n      dup1\n      swap2\n      sub\n      swap1\n      return\n        /* \"solidity-fundamentals/contracts/ExampleContract.sol\":744:947  function addPerson(string memory _name, uint _age) public {... */\n    tag_5:\n      tag_24\n      0x04\n      dup1\n      calldatasize\n      sub\n      dup2\n      add\n      swap1\n      tag_25\n      swap2\n      swap1\n      tag_26\n      jump\t// in\n    tag_25:\n      tag_27\n      jump\t// in\n    tag_24:\n      stop\n        /* \"@openzeppelin/contracts/access/Ownable.sol\":2293:2394  function renounceOwnership() public virtual onlyOwner {... */\n    tag_6:\n      tag_28\n      tag_29\n      jump\t// in\n    tag_28:\n      stop\n        /* \"@openzeppelin/contracts/access/Ownable.sol\":1638:1723  function owner() public view virtual returns (address) {... */\n    tag_7:\n      tag_30\n      tag_31\n      jump\t// in\n    tag_30:\n      mload(0x40)\n      tag_32\n      swap2\n      swap1\n      tag_17\n      jump\t// in\n    tag_32:\n      mload(0x40)\n      dup1\n      swap2\n      sub\n      swap1\n      return\n        /* \"solidity-fundamentals/contracts/ExampleContract.sol\":1341:1634  function isAdult(address _addr) public view returns (bool) {... */\n    tag_8:\n      tag_33\n      0x04\n      dup1\n      calldatasize\n      sub\n      dup2\n      add\n      swap1\n      tag_34\n      swap2\n      swap1\n      tag_20\n      jump\t// in\n    tag_34:\n      tag_35\n      jump\t// in\n    tag_33:\n      mload(0x40)\n      tag_36\n      swap2\n      swap1\n      tag_23\n      jump\t// in\n    tag_36:\n      mload(0x40)\n      dup1\n      swap2\n      sub\n      swap1\n      return\n        /* \"@openzeppelin/contracts/access/Ownable.sol\":2543:2758  function transferOwnership(address newOwner) public virtual onlyOwner {... */\n    tag_9:\n      tag_37\n      0x04\n      dup1\n      calldatasize\n      sub\n      dup2\n      add\n      swap1\n      tag_38\n      swap2\n      swap1\n      tag_20\n      jump\t// in\n    tag_38:\n      tag_39\n      jump\t// in\n    tag_37:\n      stop\n        /* \"solidity-fundamentals/contracts/ExampleContract.sol\":569:613  mapping(address => Person) public personInfo */\n    tag_10:\n      tag_40\n      0x04\n      dup1\n      calldatasize\n      sub\n      dup2\n      add\n      swap1\n      tag_41\n      swap2\n      swap1\n      tag_20\n      jump\t// in\n    tag_41:\n      tag_42\n      jump\t// in\n    tag_40:\n      mload(0x40)\n      tag_43\n      swap3\n      swap2\n      swap1\n      tag_44\n      jump\t// in\n    tag_43:\n      mload(0x40)\n      dup1\n      swap2\n      sub\n      swap1\n      return\n        /* \"solidity-fundamentals/contracts/ExampleContract.sol\":676:705  address[] public participants */\n    tag_15:\n      0x02\n      dup2\n      dup2\n      sload\n      dup2\n      lt\n      tag_45\n      jumpi\n      0x00\n      dup1\n      revert\n    tag_45:\n      swap1\n      0x00\n      mstore\n      keccak256(0x00, 0x20)\n      add\n      0x00\n      swap2\n      pop\n      sload\n      swap1\n      0x0100\n      exp\n      swap1\n      div\n      0xffffffffffffffffffffffffffffffffffffffff\n      and\n      dup2\n      jump\t// out\n        /* \"solidity-fundamentals/contracts/ExampleContract.sol\":1034:1292  function checkParticipant(address _addr) public view onlyOwner returns(bool) {... */\n    tag_21:\n        /* \"solidity-fundamentals/contracts/ExampleContract.sol\":1105:1109  bool */\n      0x00\n        /* \"@openzeppelin/contracts/access/Ownable.sol\":1531:1544  _checkOwner() */\n      tag_48\n        /* \"@openzeppelin/contracts/access/Ownable.sol\":1531:1542  _checkOwner */\n      tag_49\n        /* \"@openzeppelin/contracts/access/Ownable.sol\":1531:1544  _checkOwner() */\n      jump\t// in\n    tag_48:\n        /* \"solidity-fundamentals/contracts/ExampleContract.sol\":1125:1131  uint i */\n      0x00\n        /* \"solidity-fundamentals/contracts/ExampleContract.sol\":1121:1264  for(uint i = 0; i < participants.length; i++) {... */\n    tag_51:\n        /* \"solidity-fundamentals/contracts/ExampleContract.sol\":1141:1153  participants */\n      0x02\n        /* \"solidity-fundamentals/contracts/ExampleContract.sol\":1141:1160  participants.length */\n      dup1\n      sload\n      swap1\n      pop\n        /* \"solidity-fundamentals/contracts/ExampleContract.sol\":1137:1138  i */\n      dup2\n        /* \"solidity-fundamentals/contracts/ExampleContract.sol\":1137:1160  i < participants.length */\n      lt\n        /* \"solidity-fundamentals/contracts/ExampleContract.sol\":1121:1264  for(uint i = 0; i < participants.length; i++) {... */\n      iszero\n      tag_52\n      jumpi\n        /* \"solidity-fundamentals/contracts/ExampleContract.sol\":1203:1208  _addr */\n      dup3\n        /* \"solidity-fundamentals/contracts/ExampleContract.sol\":1184:1208  participants[i] == _addr */\n      0xffffffffffffffffffffffffffffffffffffffff\n      and\n        /* \"solidity-fundamentals/contracts/ExampleContract.sol\":1184:1196  participants */\n      0x02\n        /* \"solidity-fundamentals/contracts/ExampleContract.sol\":1197:1198  i */\n      dup3\n        /* \"solidity-fundamentals/contracts/ExampleContract.sol\":1184:1199  participants[i] */\n      dup2\n      sload\n      dup2\n      lt\n      tag_54\n      jumpi\n      tag_55\n      tag_56\n      jump\t// in\n    tag_55:\n    tag_54:\n      swap1\n      0x00\n      mstore\n      keccak256(0x00, 0x20)\n      add\n      0x00\n      swap1\n      sload\n      swap1\n      0x0100\n      exp\n      swap1\n      div\n      0xffffffffffffffffffffffffffffffffffffffff\n      and\n        /* \"solidity-fundamentals/contracts/ExampleContract.sol\":1184:1208  participants[i] == _addr */\n      0xffffffffffffffffffffffffffffffffffffffff\n      and\n      sub\n        /* \"solidity-fundamentals/contracts/ExampleContract.sol\":1181:1254  if(participants[i] == _addr) {... */\n      tag_58\n      jumpi\n        /* \"solidity-fundamentals/contracts/ExampleContract.sol\":1235:1239  true */\n      0x01\n        /* \"solidity-fundamentals/contracts/ExampleContract.sol\":1228:1239  return true */\n      swap2\n      pop\n      pop\n      jump(tag_50)\n        /* \"solidity-fundamentals/contracts/ExampleContract.sol\":1181:1254  if(participants[i] == _addr) {... */\n    tag_58:\n        /* \"solidity-fundamentals/contracts/ExampleContract.sol\":1162:1165  i++ */\n      dup1\n      dup1\n      tag_59\n      swap1\n      tag_60\n      jump\t// in\n    tag_59:\n      swap2\n      pop\n      pop\n        /* \"solidity-fundamentals/contracts/ExampleContract.sol\":1121:1264  for(uint i = 0; i < participants.length; i++) {... */\n      jump(tag_51)\n    tag_52:\n      pop\n        /* \"solidity-fundamentals/contracts/ExampleContract.sol\":1280:1285  false */\n      0x00\n        /* \"solidity-fundamentals/contracts/ExampleContract.sol\":1273:1285  return false */\n      swap1\n      pop\n        /* \"@openzeppelin/contracts/access/Ownable.sol\":1554:1555  _ */\n    tag_50:\n        /* \"solidity-fundamentals/contracts/ExampleContract.sol\":1034:1292  function checkParticipant(address _addr) public view onlyOwner returns(bool) {... */\n      swap2\n      swap1\n      pop\n      jump\t// out\n        /* \"solidity-fundamentals/contracts/ExampleContract.sol\":744:947  function addPerson(string memory _name, uint _age) public {... */\n    tag_27:\n        /* \"solidity-fundamentals/contracts/ExampleContract.sol\":812:835  Person memory newPerson */\n      0x00\n        /* \"solidity-fundamentals/contracts/ExampleContract.sol\":838:857  Person(_name, _age) */\n      mload(0x40)\n      dup1\n      0x40\n      add\n      0x40\n      mstore\n      dup1\n        /* \"solidity-fundamentals/contracts/ExampleContract.sol\":845:850  _name */\n      dup5\n        /* \"solidity-fundamentals/contracts/ExampleContract.sol\":838:857  Person(_name, _age) */\n      dup2\n      mstore\n      0x20\n      add\n        /* \"solidity-fundamentals/contracts/ExampleContract.sol\":852:856  _age */\n      dup4\n        /* \"solidity-fundamentals/contracts/ExampleContract.sol\":838:857  Person(_name, _age) */\n      dup2\n      mstore\n      pop\n        /* \"solidity-fundamentals/contracts/ExampleContract.sol\":812:857  Person memory newPerson = Person(_name, _age) */\n      swap1\n      pop\n        /* \"solidity-fundamentals/contracts/ExampleContract.sol\":892:901  newPerson */\n      dup1\n        /* \"solidity-fundamentals/contracts/ExampleContract.sol\":867:877  personInfo */\n      0x01\n        /* \"solidity-fundamentals/contracts/ExampleContract.sol\":867:889  personInfo[msg.sender] */\n      0x00\n        /* \"solidity-fundamentals/contracts/ExampleContract.sol\":878:888  msg.sender */\n      caller\n        /* \"solidity-fundamentals/contracts/ExampleContract.sol\":867:889  personInfo[msg.sender] */\n      0xffffffffffffffffffffffffffffffffffffffff\n      and\n      0xffffffffffffffffffffffffffffffffffffffff\n      and\n      dup2\n      mstore\n      0x20\n      add\n      swap1\n      dup2\n      mstore\n      0x20\n      add\n      0x00\n      keccak256\n        /* \"solidity-fundamentals/contracts/ExampleContract.sol\":867:901  personInfo[msg.sender] = newPerson */\n      0x00\n      dup3\n      add\n      mload\n      dup2\n      0x00\n      add\n      swap1\n      dup2\n      tag_62\n      swap2\n      swap1\n      tag_63\n      jump\t// in\n    tag_62:\n      pop\n      0x20\n      dup3\n      add\n      mload\n      dup2\n      0x01\n      add\n      sstore\n      swap1\n      pop\n      pop\n        /* \"solidity-fundamentals/contracts/ExampleContract.sol\":911:923  participants */\n      0x02\n        /* \"solidity-fundamentals/contracts/ExampleContract.sol\":929:939  msg.sender */\n      caller\n        /* \"solidity-fundamentals/contracts/ExampleContract.sol\":911:940  participants.push(msg.sender) */\n      swap1\n      dup1\n      0x01\n      dup2\n      sload\n      add\n      dup1\n      dup3\n      sstore\n      dup1\n      swap2\n      pop\n      pop\n      0x01\n      swap1\n      sub\n      swap1\n      0x00\n      mstore\n      keccak256(0x00, 0x20)\n      add\n      0x00\n      swap1\n      swap2\n      swap1\n      swap2\n      swap1\n      swap2\n      0x0100\n      exp\n      dup2\n      sload\n      dup2\n      0xffffffffffffffffffffffffffffffffffffffff\n      mul\n      not\n      and\n      swap1\n      dup4\n      0xffffffffffffffffffffffffffffffffffffffff\n      and\n      mul\n      or\n      swap1\n      sstore\n      pop\n        /* \"solidity-fundamentals/contracts/ExampleContract.sol\":802:947  {... */\n      pop\n        /* \"solidity-fundamentals/contracts/ExampleContract.sol\":744:947  function addPerson(string memory _name, uint _age) public {... */\n      pop\n      pop\n      jump\t// out\n        /* \"@openzeppelin/contracts/access/Ownable.sol\":2293:2394  function renounceOwnership() public virtual onlyOwner {... */\n    tag_29:\n        /* \"@openzeppelin/contracts/access/Ownable.sol\":1531:1544  _checkOwner() */\n      tag_66\n        /* \"@openzeppelin/contracts/access/Ownable.sol\":1531:1542  _checkOwner */\n      tag_49\n        /* \"@openzeppelin/contracts/access/Ownable.sol\":1531:1544  _checkOwner() */\n      jump\t// in\n    tag_66:\n        /* \"@openzeppelin/contracts/access/Ownable.sol\":2357:2387  _transferOwnership(address(0)) */\n      tag_68\n        /* \"@openzeppelin/contracts/access/Ownable.sol\":2384:2385  0 */\n      0x00\n        /* \"@openzeppelin/contracts/access/Ownable.sol\":2357:2375  _transferOwnership */\n      tag_69\n        /* \"@openzeppelin/contracts/access/Ownable.sol\":2357:2387  _transferOwnership(address(0)) */\n      jump\t// in\n    tag_68:\n        /* \"@openzeppelin/contracts/access/Ownable.sol\":2293:2394  function renounceOwnership() public virtual onlyOwner {... */\n      jump\t// out\n        /* \"@openzeppelin/contracts/access/Ownable.sol\":1638:1723  function owner() public view virtual returns (address) {... */\n    tag_31:\n        /* \"@openzeppelin/contracts/access/Ownable.sol\":1684:1691  address */\n      0x00\n        /* \"@openzeppelin/contracts/access/Ownable.sol\":1710:1716  _owner */\n      dup1\n      0x00\n      swap1\n      sload\n      swap1\n      0x0100\n      exp\n      swap1\n      div\n      0xffffffffffffffffffffffffffffffffffffffff\n      and\n        /* \"@openzeppelin/contracts/access/Ownable.sol\":1703:1716  return _owner */\n      swap1\n      pop\n        /* \"@openzeppelin/contracts/access/Ownable.sol\":1638:1723  function owner() public view virtual returns (address) {... */\n      swap1\n      jump\t// out\n        /* \"solidity-fundamentals/contracts/ExampleContract.sol\":1341:1634  function isAdult(address _addr) public view returns (bool) {... */\n    tag_35:\n        /* \"solidity-fundamentals/contracts/ExampleContract.sol\":1394:1398  bool */\n      0x00\n        /* \"solidity-fundamentals/contracts/ExampleContract.sol\":1410:1416  uint i */\n      dup1\n        /* \"solidity-fundamentals/contracts/ExampleContract.sol\":1419:1420  0 */\n      0x00\n        /* \"solidity-fundamentals/contracts/ExampleContract.sol\":1410:1420  uint i = 0 */\n      swap1\n      pop\n        /* \"solidity-fundamentals/contracts/ExampleContract.sol\":1430:1606  while(i < participants.length) {... */\n    tag_72:\n        /* \"solidity-fundamentals/contracts/ExampleContract.sol\":1440:1452  participants */\n      0x02\n        /* \"solidity-fundamentals/contracts/ExampleContract.sol\":1440:1459  participants.length */\n      dup1\n      sload\n      swap1\n      pop\n        /* \"solidity-fundamentals/contracts/ExampleContract.sol\":1436:1437  i */\n      dup2\n        /* \"solidity-fundamentals/contracts/ExampleContract.sol\":1436:1459  i < participants.length */\n      lt\n        /* \"solidity-fundamentals/contracts/ExampleContract.sol\":1430:1606  while(i < participants.length) {... */\n      iszero\n      tag_73\n      jumpi\n        /* \"solidity-fundamentals/contracts/ExampleContract.sol\":1497:1502  _addr */\n      dup3\n        /* \"solidity-fundamentals/contracts/ExampleContract.sol\":1478:1502  participants[i] == _addr */\n      0xffffffffffffffffffffffffffffffffffffffff\n      and\n        /* \"solidity-fundamentals/contracts/ExampleContract.sol\":1478:1490  participants */\n      0x02\n        /* \"solidity-fundamentals/contracts/ExampleContract.sol\":1491:1492  i */\n      dup3\n        /* \"solidity-fundamentals/contracts/ExampleContract.sol\":1478:1493  participants[i] */\n      dup2\n      sload\n      dup2\n      lt\n      tag_74\n      jumpi\n      tag_75\n      tag_56\n      jump\t// in\n    tag_75:\n    tag_74:\n      swap1\n      0x00\n      mstore\n      keccak256(0x00, 0x20)\n      add\n      0x00\n      swap1\n      sload\n      swap1\n      0x0100\n      exp\n      swap1\n      div\n      0xffffffffffffffffffffffffffffffffffffffff\n      and\n        /* \"solidity-fundamentals/contracts/ExampleContract.sol\":1478:1502  participants[i] == _addr */\n      0xffffffffffffffffffffffffffffffffffffffff\n      and\n      eq\n        /* \"solidity-fundamentals/contracts/ExampleContract.sol\":1478:1533  participants[i] == _addr && personInfo[_addr].age >= 18 */\n      dup1\n      iszero\n      tag_77\n      jumpi\n      pop\n        /* \"solidity-fundamentals/contracts/ExampleContract.sol\":1531:1533  18 */\n      0x12\n        /* \"solidity-fundamentals/contracts/ExampleContract.sol\":1506:1516  personInfo */\n      0x01\n        /* \"solidity-fundamentals/contracts/ExampleContract.sol\":1506:1523  personInfo[_addr] */\n      0x00\n        /* \"solidity-fundamentals/contracts/ExampleContract.sol\":1517:1522  _addr */\n      dup6\n        /* \"solidity-fundamentals/contracts/ExampleContract.sol\":1506:1523  personInfo[_addr] */\n      0xffffffffffffffffffffffffffffffffffffffff\n      and\n      0xffffffffffffffffffffffffffffffffffffffff\n      and\n      dup2\n      mstore\n      0x20\n      add\n      swap1\n      dup2\n      mstore\n      0x20\n      add\n      0x00\n      keccak256\n        /* \"solidity-fundamentals/contracts/ExampleContract.sol\":1506:1527  personInfo[_addr].age */\n      0x01\n      add\n      sload\n        /* \"solidity-fundamentals/contracts/ExampleContract.sol\":1506:1533  personInfo[_addr].age >= 18 */\n      lt\n      iszero\n        /* \"solidity-fundamentals/contracts/ExampleContract.sol\":1478:1533  participants[i] == _addr && personInfo[_addr].age >= 18 */\n    tag_77:\n        /* \"solidity-fundamentals/contracts/ExampleContract.sol\":1475:1579  if(participants[i] == _addr && personInfo[_addr].age >= 18) {... */\n      iszero\n      tag_78\n      jumpi\n        /* \"solidity-fundamentals/contracts/ExampleContract.sol\":1560:1564  true */\n      0x01\n        /* \"solidity-fundamentals/contracts/ExampleContract.sol\":1553:1564  return true */\n      swap2\n      pop\n      pop\n      jump(tag_71)\n        /* \"solidity-fundamentals/contracts/ExampleContract.sol\":1475:1579  if(participants[i] == _addr && personInfo[_addr].age >= 18) {... */\n    tag_78:\n        /* \"solidity-fundamentals/contracts/ExampleContract.sol\":1592:1595  i++ */\n      dup1\n      dup1\n      tag_79\n      swap1\n      tag_60\n      jump\t// in\n    tag_79:\n      swap2\n      pop\n      pop\n        /* \"solidity-fundamentals/contracts/ExampleContract.sol\":1430:1606  while(i < participants.length) {... */\n      jump(tag_72)\n    tag_73:\n        /* \"solidity-fundamentals/contracts/ExampleContract.sol\":1622:1627  false */\n      0x00\n        /* \"solidity-fundamentals/contracts/ExampleContract.sol\":1615:1627  return false */\n      swap2\n      pop\n      pop\n        /* \"solidity-fundamentals/contracts/ExampleContract.sol\":1341:1634  function isAdult(address _addr) public view returns (bool) {... */\n    tag_71:\n      swap2\n      swap1\n      pop\n      jump\t// out\n        /* \"@openzeppelin/contracts/access/Ownable.sol\":2543:2758  function transferOwnership(address newOwner) public virtual onlyOwner {... */\n    tag_39:\n        /* \"@openzeppelin/contracts/access/Ownable.sol\":1531:1544  _checkOwner() */\n      tag_81\n        /* \"@openzeppelin/contracts/access/Ownable.sol\":1531:1542  _checkOwner */\n      tag_49\n        /* \"@openzeppelin/contracts/access/Ownable.sol\":1531:1544  _checkOwner() */\n      jump\t// in\n    tag_81:\n        /* \"@openzeppelin/contracts/access/Ownable.sol\":2647:2648  0 */\n      0x00\n        /* \"@openzeppelin/contracts/access/Ownable.sol\":2627:2649  newOwner == address(0) */\n      0xffffffffffffffffffffffffffffffffffffffff\n      and\n        /* \"@openzeppelin/contracts/access/Ownable.sol\":2627:2635  newOwner */\n      dup2\n        /* \"@openzeppelin/contracts/access/Ownable.sol\":2627:2649  newOwner == address(0) */\n      0xffffffffffffffffffffffffffffffffffffffff\n      and\n      sub\n        /* \"@openzeppelin/contracts/access/Ownable.sol\":2623:2714  if (newOwner == address(0)) {... */\n      tag_83\n      jumpi\n        /* \"@openzeppelin/contracts/access/Ownable.sol\":2700:2701  0 */\n      0x00\n        /* \"@openzeppelin/contracts/access/Ownable.sol\":2672:2703  OwnableInvalidOwner(address(0)) */\n      mload(0x40)\n      0x1e4fbdf700000000000000000000000000000000000000000000000000000000\n      dup2\n      mstore\n      0x04\n      add\n      tag_84\n      swap2\n      swap1\n      tag_17\n      jump\t// in\n    tag_84:\n      mload(0x40)\n      dup1\n      swap2\n      sub\n      swap1\n      revert\n        /* \"@openzeppelin/contracts/access/Ownable.sol\":2623:2714  if (newOwner == address(0)) {... */\n    tag_83:\n        /* \"@openzeppelin/contracts/access/Ownable.sol\":2723:2751  _transferOwnership(newOwner) */\n      tag_85\n        /* \"@openzeppelin/contracts/access/Ownable.sol\":2742:2750  newOwner */\n      dup2\n        /* \"@openzeppelin/contracts/access/Ownable.sol\":2723:2741  _transferOwnership */\n      tag_69\n        /* \"@openzeppelin/contracts/access/Ownable.sol\":2723:2751  _transferOwnership(newOwner) */\n      jump\t// in\n    tag_85:\n        /* \"@openzeppelin/contracts/access/Ownable.sol\":2543:2758  function transferOwnership(address newOwner) public virtual onlyOwner {... */\n      pop\n      jump\t// out\n        /* \"solidity-fundamentals/contracts/ExampleContract.sol\":569:613  mapping(address => Person) public personInfo */\n    tag_42:\n      mstore(0x20, 0x01)\n      dup1\n      0x00\n      mstore\n      keccak256(0x00, 0x40)\n      0x00\n      swap2\n      pop\n      swap1\n      pop\n      dup1\n      0x00\n      add\n      dup1\n      sload\n      tag_86\n      swap1\n      tag_87\n      jump\t// in\n    tag_86:\n      dup1\n      0x1f\n      add\n      0x20\n      dup1\n      swap2\n      div\n      mul\n      0x20\n      add\n      mload(0x40)\n      swap1\n      dup2\n      add\n      0x40\n      mstore\n      dup1\n      swap3\n      swap2\n      swap1\n      dup2\n      dup2\n      mstore\n      0x20\n      add\n      dup3\n      dup1\n      sload\n      tag_88\n      swap1\n      tag_87\n      jump\t// in\n    tag_88:\n      dup1\n      iszero\n      tag_89\n      jumpi\n      dup1\n      0x1f\n      lt\n      tag_90\n      jumpi\n      0x0100\n      dup1\n      dup4\n      sload\n      div\n      mul\n      dup4\n      mstore\n      swap2\n      0x20\n      add\n      swap2\n      jump(tag_89)\n    tag_90:\n      dup3\n      add\n      swap2\n      swap1\n      0x00\n      mstore\n      keccak256(0x00, 0x20)\n      swap1\n    tag_91:\n      dup2\n      sload\n      dup2\n      mstore\n      swap1\n      0x01\n      add\n      swap1\n      0x20\n      add\n      dup1\n      dup4\n      gt\n      tag_91\n      jumpi\n      dup3\n      swap1\n      sub\n      0x1f\n      and\n      dup3\n      add\n      swap2\n    tag_89:\n      pop\n      pop\n      pop\n      pop\n      pop\n      swap1\n      dup1\n      0x01\n      add\n      sload\n      swap1\n      pop\n      dup3\n      jump\t// out\n        /* \"@openzeppelin/contracts/access/Ownable.sol\":1796:1958  function _checkOwner() internal view virtual {... */\n    tag_49:\n        /* \"@openzeppelin/contracts/access/Ownable.sol\":1866:1878  _msgSender() */\n      tag_93\n        /* \"@openzeppelin/contracts/access/Ownable.sol\":1866:1876  _msgSender */\n      tag_94\n        /* \"@openzeppelin/contracts/access/Ownable.sol\":1866:1878  _msgSender() */\n      jump\t// in\n    tag_93:\n        /* \"@openzeppelin/contracts/access/Ownable.sol\":1855:1878  owner() != _msgSender() */\n      0xffffffffffffffffffffffffffffffffffffffff\n      and\n        /* \"@openzeppelin/contracts/access/Ownable.sol\":1855:1862  owner() */\n      tag_95\n        /* \"@openzeppelin/contracts/access/Ownable.sol\":1855:1860  owner */\n      tag_31\n        /* \"@openzeppelin/contracts/access/Ownable.sol\":1855:1862  owner() */\n      jump\t// in\n    tag_95:\n        /* \"@openzeppelin/contracts/access/Ownable.sol\":1855:1878  owner() != _msgSender() */\n      0xffffffffffffffffffffffffffffffffffffffff\n      and\n      eq\n        /* \"@openzeppelin/contracts/access/Ownable.sol\":1851:1952  if (owner() != _msgSender()) {... */\n      tag_96\n      jumpi\n        /* \"@openzeppelin/contracts/access/Ownable.sol\":1928:1940  _msgSender() */\n      tag_97\n        /* \"@openzeppelin/contracts/access/Ownable.sol\":1928:1938  _msgSender */\n      tag_94\n        /* \"@openzeppelin/contracts/access/Ownable.sol\":1928:1940  _msgSender() */\n      jump\t// in\n    tag_97:\n        /* \"@openzeppelin/contracts/access/Ownable.sol\":1901:1941  OwnableUnauthorizedAccount(_msgSender()) */\n      mload(0x40)\n      0x118cdaa700000000000000000000000000000000000000000000000000000000\n      dup2\n      mstore\n      0x04\n      add\n      tag_98\n      swap2\n      swap1\n      tag_17\n      jump\t// in\n    tag_98:\n      mload(0x40)\n      dup1\n      swap2\n      sub\n      swap1\n      revert\n        /* \"@openzeppelin/contracts/access/Ownable.sol\":1851:1952  if (owner() != _msgSender()) {... */\n    tag_96:\n        /* \"@openzeppelin/contracts/access/Ownable.sol\":1796:1958  function _checkOwner() internal view virtual {... */\n      jump\t// out\n        /* \"@openzeppelin/contracts/access/Ownable.sol\":2912:3099  function _transferOwnership(address newOwner) internal virtual {... */\n    tag_69:\n        /* \"@openzeppelin/contracts/access/Ownable.sol\":2985:3001  address oldOwner */\n      0x00\n        /* \"@openzeppelin/contracts/access/Ownable.sol\":3004:3010  _owner */\n      dup1\n      0x00\n      swap1\n      sload\n      swap1\n      0x0100\n      exp\n      swap1\n      div\n      0xffffffffffffffffffffffffffffffffffffffff\n      and\n        /* \"@openzeppelin/contracts/access/Ownable.sol\":2985:3010  address oldOwner = _owner */\n      swap1\n      pop\n        /* \"@openzeppelin/contracts/access/Ownable.sol\":3029:3037  newOwner */\n      dup2\n        /* \"@openzeppelin/contracts/access/Ownable.sol\":3020:3026  _owner */\n      0x00\n      dup1\n        /* \"@openzeppelin/contracts/access/Ownable.sol\":3020:3037  _owner = newOwner */\n      0x0100\n      exp\n      dup2\n      sload\n      dup2\n      0xffffffffffffffffffffffffffffffffffffffff\n      mul\n      not\n      and\n      swap1\n      dup4\n      0xffffffffffffffffffffffffffffffffffffffff\n      and\n      mul\n      or\n      swap1\n      sstore\n      pop\n        /* \"@openzeppelin/contracts/access/Ownable.sol\":3083:3091  newOwner */\n      dup2\n        /* \"@openzeppelin/contracts/access/Ownable.sol\":3052:3092  OwnershipTransferred(oldOwner, newOwner) */\n      0xffffffffffffffffffffffffffffffffffffffff\n      and\n        /* \"@openzeppelin/contracts/access/Ownable.sol\":3073:3081  oldOwner */\n      dup2\n        /* \"@openzeppelin/contracts/access/Ownable.sol\":3052:3092  OwnershipTransferred(oldOwner, newOwner) */\n      0xffffffffffffffffffffffffffffffffffffffff\n      and\n      0x8be0079c531659141344cd1fd0a4f28419497f9722a3daafe3b4186f6b6457e0\n      mload(0x40)\n      mload(0x40)\n      dup1\n      swap2\n      sub\n      swap1\n      log3\n        /* \"@openzeppelin/contracts/access/Ownable.sol\":2975:3099  {... */\n      pop\n        /* \"@openzeppelin/contracts/access/Ownable.sol\":2912:3099  function _transferOwnership(address newOwner) internal virtual {... */\n      pop\n      jump\t// out\n        /* \"@openzeppelin/contracts/utils/Context.sol\":656:752  function _msgSender() internal view virtual returns (address) {... */\n    tag_94:\n        /* \"@openzeppelin/contracts/utils/Context.sol\":709:716  address */\n      0x00\n        /* \"@openzeppelin/contracts/utils/Context.sol\":735:745  msg.sender */\n      caller\n        /* \"@openzeppelin/contracts/utils/Context.sol\":728:745  return msg.sender */\n      swap1\n      pop\n        /* \"@openzeppelin/contracts/utils/Context.sol\":656:752  function _msgSender() internal view virtual returns (address) {... */\n      swap1\n      jump\t// out\n        /* \"#utility.yul\":7:82   */\n    tag_101:\n        /* \"#utility.yul\":40:46   */\n      0x00\n        /* \"#utility.yul\":73:75   */\n      0x40\n        /* \"#utility.yul\":67:76   */\n      mload\n        /* \"#utility.yul\":57:76   */\n      swap1\n      pop\n        /* \"#utility.yul\":7:82   */\n      swap1\n      jump\t// out\n        /* \"#utility.yul\":88:205   */\n    tag_102:\n        /* \"#utility.yul\":197:198   */\n      0x00\n        /* \"#utility.yul\":194:195   */\n      dup1\n        /* \"#utility.yul\":187:199   */\n      revert\n        /* \"#utility.yul\":211:328   */\n    tag_103:\n        /* \"#utility.yul\":320:321   */\n      0x00\n        /* \"#utility.yul\":317:318   */\n      dup1\n        /* \"#utility.yul\":310:322   */\n      revert\n        /* \"#utility.yul\":334:411   */\n    tag_104:\n        /* \"#utility.yul\":371:378   */\n      0x00\n        /* \"#utility.yul\":400:405   */\n      dup2\n        /* \"#utility.yul\":389:405   */\n      swap1\n      pop\n        /* \"#utility.yul\":334:411   */\n      swap2\n      swap1\n      pop\n      jump\t// out\n        /* \"#utility.yul\":417:539   */\n    tag_105:\n        /* \"#utility.yul\":490:514   */\n      tag_152\n        /* \"#utility.yul\":508:513   */\n      dup2\n        /* \"#utility.yul\":490:514   */\n      tag_104\n      jump\t// in\n    tag_152:\n        /* \"#utility.yul\":483:488   */\n      dup2\n        /* \"#utility.yul\":480:515   */\n      eq\n        /* \"#utility.yul\":470:533   */\n      tag_153\n      jumpi\n        /* \"#utility.yul\":529:530   */\n      0x00\n        /* \"#utility.yul\":526:527   */\n      dup1\n        /* \"#utility.yul\":519:531   */\n      revert\n        /* \"#utility.yul\":470:533   */\n    tag_153:\n        /* \"#utility.yul\":417:539   */\n      pop\n      jump\t// out\n        /* \"#utility.yul\":545:684   */\n    tag_106:\n        /* \"#utility.yul\":591:596   */\n      0x00\n        /* \"#utility.yul\":629:635   */\n      dup2\n        /* \"#utility.yul\":616:636   */\n      calldataload\n        /* \"#utility.yul\":607:636   */\n      swap1\n      pop\n        /* \"#utility.yul\":645:678   */\n      tag_155\n        /* \"#utility.yul\":672:677   */\n      dup2\n        /* \"#utility.yul\":645:678   */\n      tag_105\n      jump\t// in\n    tag_155:\n        /* \"#utility.yul\":545:684   */\n      swap3\n      swap2\n      pop\n      pop\n      jump\t// out\n        /* \"#utility.yul\":690:1019   */\n    tag_14:\n        /* \"#utility.yul\":749:755   */\n      0x00\n        /* \"#utility.yul\":798:800   */\n      0x20\n        /* \"#utility.yul\":786:795   */\n      dup3\n        /* \"#utility.yul\":777:784   */\n      dup5\n        /* \"#utility.yul\":773:796   */\n      sub\n        /* \"#utility.yul\":769:801   */\n      slt\n        /* \"#utility.yul\":766:885   */\n      iszero\n      tag_157\n      jumpi\n        /* \"#utility.yul\":804:883   */\n      tag_158\n      tag_102\n      jump\t// in\n    tag_158:\n        /* \"#utility.yul\":766:885   */\n    tag_157:\n        /* \"#utility.yul\":924:925   */\n      0x00\n        /* \"#utility.yul\":949:1002   */\n      tag_159\n        /* \"#utility.yul\":994:1001   */\n      dup5\n        /* \"#utility.yul\":985:991   */\n      dup3\n        /* \"#utility.yul\":974:983   */\n      dup6\n        /* \"#utility.yul\":970:992   */\n      add\n        /* \"#utility.yul\":949:1002   */\n      tag_106\n      jump\t// in\n    tag_159:\n        /* \"#utility.yul\":939:1002   */\n      swap2\n      pop\n        /* \"#utility.yul\":895:1012   */\n      pop\n        /* \"#utility.yul\":690:1019   */\n      swap3\n      swap2\n      pop\n      pop\n      jump\t// out\n        /* \"#utility.yul\":1025:1151   */\n    tag_107:\n        /* \"#utility.yul\":1062:1069   */\n      0x00\n        /* \"#utility.yul\":1102:1144   */\n      0xffffffffffffffffffffffffffffffffffffffff\n        /* \"#utility.yul\":1095:1100   */\n      dup3\n        /* \"#utility.yul\":1091:1145   */\n      and\n        /* \"#utility.yul\":1080:1145   */\n      swap1\n      pop\n        /* \"#utility.yul\":1025:1151   */\n      swap2\n      swap1\n      pop\n      jump\t// out\n        /* \"#utility.yul\":1157:1253   */\n    tag_108:\n        /* \"#utility.yul\":1194:1201   */\n      0x00\n        /* \"#utility.yul\":1223:1247   */\n      tag_162\n        /* \"#utility.yul\":1241:1246   */\n      dup3\n        /* \"#utility.yul\":1223:1247   */\n      tag_107\n      jump\t// in\n    tag_162:\n        /* \"#utility.yul\":1212:1247   */\n      swap1\n      pop\n        /* \"#utility.yul\":1157:1253   */\n      swap2\n      swap1\n      pop\n      jump\t// out\n        /* \"#utility.yul\":1259:1377   */\n    tag_109:\n        /* \"#utility.yul\":1346:1370   */\n      tag_164\n        /* \"#utility.yul\":1364:1369   */\n      dup2\n        /* \"#utility.yul\":1346:1370   */\n      tag_108\n      jump\t// in\n    tag_164:\n        /* \"#utility.yul\":1341:1344   */\n      dup3\n        /* \"#utility.yul\":1334:1371   */\n      mstore\n        /* \"#utility.yul\":1259:1377   */\n      pop\n      pop\n      jump\t// out\n        /* \"#utility.yul\":1383:1605   */\n    tag_17:\n        /* \"#utility.yul\":1476:1480   */\n      0x00\n        /* \"#utility.yul\":1514:1516   */\n      0x20\n        /* \"#utility.yul\":1503:1512   */\n      dup3\n        /* \"#utility.yul\":1499:1517   */\n      add\n        /* \"#utility.yul\":1491:1517   */\n      swap1\n      pop\n        /* \"#utility.yul\":1527:1598   */\n      tag_166\n        /* \"#utility.yul\":1595:1596   */\n      0x00\n        /* \"#utility.yul\":1584:1593   */\n      dup4\n        /* \"#utility.yul\":1580:1597   */\n      add\n        /* \"#utility.yul\":1571:1577   */\n      dup5\n        /* \"#utility.yul\":1527:1598   */\n      tag_109\n      jump\t// in\n    tag_166:\n        /* \"#utility.yul\":1383:1605   */\n      swap3\n      swap2\n      pop\n      pop\n      jump\t// out\n        /* \"#utility.yul\":1611:1733   */\n    tag_110:\n        /* \"#utility.yul\":1684:1708   */\n      tag_168\n        /* \"#utility.yul\":1702:1707   */\n      dup2\n        /* \"#utility.yul\":1684:1708   */\n      tag_108\n      jump\t// in\n    tag_168:\n        /* \"#utility.yul\":1677:1682   */\n      dup2\n        /* \"#utility.yul\":1674:1709   */\n      eq\n        /* \"#utility.yul\":1664:1727   */\n      tag_169\n      jumpi\n        /* \"#utility.yul\":1723:1724   */\n      0x00\n        /* \"#utility.yul\":1720:1721   */\n      dup1\n        /* \"#utility.yul\":1713:1725   */\n      revert\n        /* \"#utility.yul\":1664:1727   */\n    tag_169:\n        /* \"#utility.yul\":1611:1733   */\n      pop\n      jump\t// out\n        /* \"#utility.yul\":1739:1878   */\n    tag_111:\n        /* \"#utility.yul\":1785:1790   */\n      0x00\n        /* \"#utility.yul\":1823:1829   */\n      dup2\n        /* \"#utility.yul\":1810:1830   */\n      calldataload\n        /* \"#utility.yul\":1801:1830   */\n      swap1\n      pop\n        /* \"#utility.yul\":1839:1872   */\n      tag_171\n        /* \"#utility.yul\":1866:1871   */\n      dup2\n        /* \"#utility.yul\":1839:1872   */\n      tag_110\n      jump\t// in\n    tag_171:\n        /* \"#utility.yul\":1739:1878   */\n      swap3\n      swap2\n      pop\n      pop\n      jump\t// out\n        /* \"#utility.yul\":1884:2213   */\n    tag_20:\n        /* \"#utility.yul\":1943:1949   */\n      0x00\n        /* \"#utility.yul\":1992:1994   */\n      0x20\n        /* \"#utility.yul\":1980:1989   */\n      dup3\n        /* \"#utility.yul\":1971:1978   */\n      dup5\n        /* \"#utility.yul\":1967:1990   */\n      sub\n        /* \"#utility.yul\":1963:1995   */\n      slt\n        /* \"#utility.yul\":1960:2079   */\n      iszero\n      tag_173\n      jumpi\n        /* \"#utility.yul\":1998:2077   */\n      tag_174\n      tag_102\n      jump\t// in\n    tag_174:\n        /* \"#utility.yul\":1960:2079   */\n    tag_173:\n        /* \"#utility.yul\":2118:2119   */\n      0x00\n        /* \"#utility.yul\":2143:2196   */\n      tag_175\n        /* \"#utility.yul\":2188:2195   */\n      dup5\n        /* \"#utility.yul\":2179:2185   */\n      dup3\n        /* \"#utility.yul\":2168:2177   */\n      dup6\n        /* \"#utility.yul\":2164:2186   */\n      add\n        /* \"#utility.yul\":2143:2196   */\n      tag_111\n      jump\t// in\n    tag_175:\n        /* \"#utility.yul\":2133:2196   */\n      swap2\n      pop\n        /* \"#utility.yul\":2089:2206   */\n      pop\n        /* \"#utility.yul\":1884:2213   */\n      swap3\n      swap2\n      pop\n      pop\n      jump\t// out\n        /* \"#utility.yul\":2219:2309   */\n    tag_112:\n        /* \"#utility.yul\":2253:2260   */\n      0x00\n        /* \"#utility.yul\":2296:2301   */\n      dup2\n        /* \"#utility.yul\":2289:2302   */\n      iszero\n        /* \"#utility.yul\":2282:2303   */\n      iszero\n        /* \"#utility.yul\":2271:2303   */\n      swap1\n      pop\n        /* \"#utility.yul\":2219:2309   */\n      swap2\n      swap1\n      pop\n      jump\t// out\n        /* \"#utility.yul\":2315:2424   */\n    tag_113:\n        /* \"#utility.yul\":2396:2417   */\n      tag_178\n        /* \"#utility.yul\":2411:2416   */\n      dup2\n        /* \"#utility.yul\":2396:2417   */\n      tag_112\n      jump\t// in\n    tag_178:\n        /* \"#utility.yul\":2391:2394   */\n      dup3\n        /* \"#utility.yul\":2384:2418   */\n      mstore\n        /* \"#utility.yul\":2315:2424   */\n      pop\n      pop\n      jump\t// out\n        /* \"#utility.yul\":2430:2640   */\n    tag_23:\n        /* \"#utility.yul\":2517:2521   */\n      0x00\n        /* \"#utility.yul\":2555:2557   */\n      0x20\n        /* \"#utility.yul\":2544:2553   */\n      dup3\n        /* \"#utility.yul\":2540:2558   */\n      add\n        /* \"#utility.yul\":2532:2558   */\n      swap1\n      pop\n        /* \"#utility.yul\":2568:2633   */\n      tag_180\n        /* \"#utility.yul\":2630:2631   */\n      0x00\n        /* \"#utility.yul\":2619:2628   */\n      dup4\n        /* \"#utility.yul\":2615:2632   */\n      add\n        /* \"#utility.yul\":2606:2612   */\n      dup5\n        /* \"#utility.yul\":2568:2633   */\n      tag_113\n      jump\t// in\n    tag_180:\n        /* \"#utility.yul\":2430:2640   */\n      swap3\n      swap2\n      pop\n      pop\n      jump\t// out\n        /* \"#utility.yul\":2646:2763   */\n    tag_114:\n        /* \"#utility.yul\":2755:2756   */\n      0x00\n        /* \"#utility.yul\":2752:2753   */\n      dup1\n        /* \"#utility.yul\":2745:2757   */\n      revert\n        /* \"#utility.yul\":2769:2886   */\n    tag_115:\n        /* \"#utility.yul\":2878:2879   */\n      0x00\n        /* \"#utility.yul\":2875:2876   */\n      dup1\n        /* \"#utility.yul\":2868:2880   */\n      revert\n        /* \"#utility.yul\":2892:2994   */\n    tag_116:\n        /* \"#utility.yul\":2933:2939   */\n      0x00\n        /* \"#utility.yul\":2984:2986   */\n      0x1f\n        /* \"#utility.yul\":2980:2987   */\n      not\n        /* \"#utility.yul\":2975:2977   */\n      0x1f\n        /* \"#utility.yul\":2968:2973   */\n      dup4\n        /* \"#utility.yul\":2964:2978   */\n      add\n        /* \"#utility.yul\":2960:2988   */\n      and\n        /* \"#utility.yul\":2950:2988   */\n      swap1\n      pop\n        /* \"#utility.yul\":2892:2994   */\n      swap2\n      swap1\n      pop\n      jump\t// out\n        /* \"#utility.yul\":3000:3180   */\n    tag_117:\n        /* \"#utility.yul\":3048:3125   */\n      0x4e487b7100000000000000000000000000000000000000000000000000000000\n        /* \"#utility.yul\":3045:3046   */\n      0x00\n        /* \"#utility.yul\":3038:3126   */\n      mstore\n        /* \"#utility.yul\":3145:3149   */\n      0x41\n        /* \"#utility.yul\":3142:3143   */\n      0x04\n        /* \"#utility.yul\":3135:3150   */\n      mstore\n        /* \"#utility.yul\":3169:3173   */\n      0x24\n        /* \"#utility.yul\":3166:3167   */\n      0x00\n        /* \"#utility.yul\":3159:3174   */\n      revert\n        /* \"#utility.yul\":3186:3467   */\n    tag_118:\n        /* \"#utility.yul\":3269:3296   */\n      tag_186\n        /* \"#utility.yul\":3291:3295   */\n      dup3\n        /* \"#utility.yul\":3269:3296   */\n      tag_116\n      jump\t// in\n    tag_186:\n        /* \"#utility.yul\":3261:3267   */\n      dup2\n        /* \"#utility.yul\":3257:3297   */\n      add\n        /* \"#utility.yul\":3399:3405   */\n      dup2\n        /* \"#utility.yul\":3387:3397   */\n      dup2\n        /* \"#utility.yul\":3384:3406   */\n      lt\n        /* \"#utility.yul\":3363:3381   */\n      0xffffffffffffffff\n        /* \"#utility.yul\":3351:3361   */\n      dup3\n        /* \"#utility.yul\":3348:3382   */\n      gt\n        /* \"#utility.yul\":3345:3407   */\n      or\n        /* \"#utility.yul\":3342:3430   */\n      iszero\n      tag_187\n      jumpi\n        /* \"#utility.yul\":3410:3428   */\n      tag_188\n      tag_117\n      jump\t// in\n    tag_188:\n        /* \"#utility.yul\":3342:3430   */\n    tag_187:\n        /* \"#utility.yul\":3450:3460   */\n      dup1\n        /* \"#utility.yul\":3446:3448   */\n      0x40\n        /* \"#utility.yul\":3439:3461   */\n      mstore\n        /* \"#utility.yul\":3229:3467   */\n      pop\n        /* \"#utility.yul\":3186:3467   */\n      pop\n      pop\n      jump\t// out\n        /* \"#utility.yul\":3473:3602   */\n    tag_119:\n        /* \"#utility.yul\":3507:3513   */\n      0x00\n        /* \"#utility.yul\":3534:3554   */\n      tag_190\n      tag_101\n      jump\t// in\n    tag_190:\n        /* \"#utility.yul\":3524:3554   */\n      swap1\n      pop\n        /* \"#utility.yul\":3563:3596   */\n      tag_191\n        /* \"#utility.yul\":3591:3595   */\n      dup3\n        /* \"#utility.yul\":3583:3589   */\n      dup3\n        /* \"#utility.yul\":3563:3596   */\n      tag_118\n      jump\t// in\n    tag_191:\n        /* \"#utility.yul\":3473:3602   */\n      swap2\n      swap1\n      pop\n      jump\t// out\n        /* \"#utility.yul\":3608:3916   */\n    tag_120:\n        /* \"#utility.yul\":3670:3674   */\n      0x00\n        /* \"#utility.yul\":3760:3778   */\n      0xffffffffffffffff\n        /* \"#utility.yul\":3752:3758   */\n      dup3\n        /* \"#utility.yul\":3749:3779   */\n      gt\n        /* \"#utility.yul\":3746:3802   */\n      iszero\n      tag_193\n      jumpi\n        /* \"#utility.yul\":3782:3800   */\n      tag_194\n      tag_117\n      jump\t// in\n    tag_194:\n        /* \"#utility.yul\":3746:3802   */\n    tag_193:\n        /* \"#utility.yul\":3820:3849   */\n      tag_195\n        /* \"#utility.yul\":3842:3848   */\n      dup3\n        /* \"#utility.yul\":3820:3849   */\n      tag_116\n      jump\t// in\n    tag_195:\n        /* \"#utility.yul\":3812:3849   */\n      swap1\n      pop\n        /* \"#utility.yul\":3904:3908   */\n      0x20\n        /* \"#utility.yul\":3898:3902   */\n      dup2\n        /* \"#utility.yul\":3894:3909   */\n      add\n        /* \"#utility.yul\":3886:3909   */\n      swap1\n      pop\n        /* \"#utility.yul\":3608:3916   */\n      swap2\n      swap1\n      pop\n      jump\t// out\n        /* \"#utility.yul\":3922:4068   */\n    tag_121:\n        /* \"#utility.yul\":4019:4025   */\n      dup3\n        /* \"#utility.yul\":4014:4017   */\n      dup2\n        /* \"#utility.yul\":4009:4012   */\n      dup4\n        /* \"#utility.yul\":3996:4026   */\n      calldatacopy\n        /* \"#utility.yul\":4060:4061   */\n      0x00\n        /* \"#utility.yul\":4051:4057   */\n      dup4\n        /* \"#utility.yul\":4046:4049   */\n      dup4\n        /* \"#utility.yul\":4042:4058   */\n      add\n        /* \"#utility.yul\":4035:4062   */\n      mstore\n        /* \"#utility.yul\":3922:4068   */\n      pop\n      pop\n      pop\n      jump\t// out\n        /* \"#utility.yul\":4074:4499   */\n    tag_122:\n        /* \"#utility.yul\":4152:4157   */\n      0x00\n        /* \"#utility.yul\":4177:4243   */\n      tag_198\n        /* \"#utility.yul\":4193:4242   */\n      tag_199\n        /* \"#utility.yul\":4235:4241   */\n      dup5\n        /* \"#utility.yul\":4193:4242   */\n      tag_120\n      jump\t// in\n    tag_199:\n        /* \"#utility.yul\":4177:4243   */\n      tag_119\n      jump\t// in\n    tag_198:\n        /* \"#utility.yul\":4168:4243   */\n      swap1\n      pop\n        /* \"#utility.yul\":4266:4272   */\n      dup3\n        /* \"#utility.yul\":4259:4264   */\n      dup2\n        /* \"#utility.yul\":4252:4273   */\n      mstore\n        /* \"#utility.yul\":4304:4308   */\n      0x20\n        /* \"#utility.yul\":4297:4302   */\n      dup2\n        /* \"#utility.yul\":4293:4309   */\n      add\n        /* \"#utility.yul\":4342:4345   */\n      dup5\n        /* \"#utility.yul\":4333:4339   */\n      dup5\n        /* \"#utility.yul\":4328:4331   */\n      dup5\n        /* \"#utility.yul\":4324:4340   */\n      add\n        /* \"#utility.yul\":4321:4346   */\n      gt\n        /* \"#utility.yul\":4318:4430   */\n      iszero\n      tag_200\n      jumpi\n        /* \"#utility.yul\":4349:4428   */\n      tag_201\n      tag_115\n      jump\t// in\n    tag_201:\n        /* \"#utility.yul\":4318:4430   */\n    tag_200:\n        /* \"#utility.yul\":4439:4493   */\n      tag_202\n        /* \"#utility.yul\":4486:4492   */\n      dup5\n        /* \"#utility.yul\":4481:4484   */\n      dup3\n        /* \"#utility.yul\":4476:4479   */\n      dup6\n        /* \"#utility.yul\":4439:4493   */\n      tag_121\n      jump\t// in\n    tag_202:\n        /* \"#utility.yul\":4158:4499   */\n      pop\n        /* \"#utility.yul\":4074:4499   */\n      swap4\n      swap3\n      pop\n      pop\n      pop\n      jump\t// out\n        /* \"#utility.yul\":4519:4859   */\n    tag_123:\n        /* \"#utility.yul\":4575:4580   */\n      0x00\n        /* \"#utility.yul\":4624:4627   */\n      dup3\n        /* \"#utility.yul\":4617:4621   */\n      0x1f\n        /* \"#utility.yul\":4609:4615   */\n      dup4\n        /* \"#utility.yul\":4605:4622   */\n      add\n        /* \"#utility.yul\":4601:4628   */\n      slt\n        /* \"#utility.yul\":4591:4713   */\n      tag_204\n      jumpi\n        /* \"#utility.yul\":4632:4711   */\n      tag_205\n      tag_114\n      jump\t// in\n    tag_205:\n        /* \"#utility.yul\":4591:4713   */\n    tag_204:\n        /* \"#utility.yul\":4749:4755   */\n      dup2\n        /* \"#utility.yul\":4736:4756   */\n      calldataload\n        /* \"#utility.yul\":4774:4853   */\n      tag_206\n        /* \"#utility.yul\":4849:4852   */\n      dup5\n        /* \"#utility.yul\":4841:4847   */\n      dup3\n        /* \"#utility.yul\":4834:4838   */\n      0x20\n        /* \"#utility.yul\":4826:4832   */\n      dup7\n        /* \"#utility.yul\":4822:4839   */\n      add\n        /* \"#utility.yul\":4774:4853   */\n      tag_122\n      jump\t// in\n    tag_206:\n        /* \"#utility.yul\":4765:4853   */\n      swap2\n      pop\n        /* \"#utility.yul\":4581:4859   */\n      pop\n        /* \"#utility.yul\":4519:4859   */\n      swap3\n      swap2\n      pop\n      pop\n      jump\t// out\n        /* \"#utility.yul\":4865:5519   */\n    tag_26:\n        /* \"#utility.yul\":4943:4949   */\n      0x00\n        /* \"#utility.yul\":4951:4957   */\n      dup1\n        /* \"#utility.yul\":5000:5002   */\n      0x40\n        /* \"#utility.yul\":4988:4997   */\n      dup4\n        /* \"#utility.yul\":4979:4986   */\n      dup6\n        /* \"#utility.yul\":4975:4998   */\n      sub\n        /* \"#utility.yul\":4971:5003   */\n      slt\n        /* \"#utility.yul\":4968:5087   */\n      iszero\n      tag_208\n      jumpi\n        /* \"#utility.yul\":5006:5085   */\n      tag_209\n      tag_102\n      jump\t// in\n    tag_209:\n        /* \"#utility.yul\":4968:5087   */\n    tag_208:\n        /* \"#utility.yul\":5154:5155   */\n      0x00\n        /* \"#utility.yul\":5143:5152   */\n      dup4\n        /* \"#utility.yul\":5139:5156   */\n      add\n        /* \"#utility.yul\":5126:5157   */\n      calldataload\n        /* \"#utility.yul\":5184:5202   */\n      0xffffffffffffffff\n        /* \"#utility.yul\":5176:5182   */\n      dup2\n        /* \"#utility.yul\":5173:5203   */\n      gt\n        /* \"#utility.yul\":5170:5287   */\n      iszero\n      tag_210\n      jumpi\n        /* \"#utility.yul\":5206:5285   */\n      tag_211\n      tag_103\n      jump\t// in\n    tag_211:\n        /* \"#utility.yul\":5170:5287   */\n    tag_210:\n        /* \"#utility.yul\":5311:5374   */\n      tag_212\n        /* \"#utility.yul\":5366:5373   */\n      dup6\n        /* \"#utility.yul\":5357:5363   */\n      dup3\n        /* \"#utility.yul\":5346:5355   */\n      dup7\n        /* \"#utility.yul\":5342:5364   */\n      add\n        /* \"#utility.yul\":5311:5374   */\n      tag_123\n      jump\t// in\n    tag_212:\n        /* \"#utility.yul\":5301:5374   */\n      swap3\n      pop\n        /* \"#utility.yul\":5097:5384   */\n      pop\n        /* \"#utility.yul\":5423:5425   */\n      0x20\n        /* \"#utility.yul\":5449:5502   */\n      tag_213\n        /* \"#utility.yul\":5494:5501   */\n      dup6\n        /* \"#utility.yul\":5485:5491   */\n      dup3\n        /* \"#utility.yul\":5474:5483   */\n      dup7\n        /* \"#utility.yul\":5470:5492   */\n      add\n        /* \"#utility.yul\":5449:5502   */\n      tag_106\n      jump\t// in\n    tag_213:\n        /* \"#utility.yul\":5439:5502   */\n      swap2\n      pop\n        /* \"#utility.yul\":5394:5512   */\n      pop\n        /* \"#utility.yul\":4865:5519   */\n      swap3\n      pop\n      swap3\n      swap1\n      pop\n      jump\t// out\n        /* \"#utility.yul\":5525:5624   */\n    tag_124:\n        /* \"#utility.yul\":5577:5583   */\n      0x00\n        /* \"#utility.yul\":5611:5616   */\n      dup2\n        /* \"#utility.yul\":5605:5617   */\n      mload\n        /* \"#utility.yul\":5595:5617   */\n      swap1\n      pop\n        /* \"#utility.yul\":5525:5624   */\n      swap2\n      swap1\n      pop\n      jump\t// out\n        /* \"#utility.yul\":5630:5799   */\n    tag_125:\n        /* \"#utility.yul\":5714:5725   */\n      0x00\n        /* \"#utility.yul\":5748:5754   */\n      dup3\n        /* \"#utility.yul\":5743:5746   */\n      dup3\n        /* \"#utility.yul\":5736:5755   */\n      mstore\n        /* \"#utility.yul\":5788:5792   */\n      0x20\n        /* \"#utility.yul\":5783:5786   */\n      dup3\n        /* \"#utility.yul\":5779:5793   */\n      add\n        /* \"#utility.yul\":5764:5793   */\n      swap1\n      pop\n        /* \"#utility.yul\":5630:5799   */\n      swap3\n      swap2\n      pop\n      pop\n      jump\t// out\n        /* \"#utility.yul\":5805:6051   */\n    tag_126:\n        /* \"#utility.yul\":5886:5887   */\n      0x00\n        /* \"#utility.yul\":5896:6009   */\n    tag_217:\n        /* \"#utility.yul\":5910:5916   */\n      dup4\n        /* \"#utility.yul\":5907:5908   */\n      dup2\n        /* \"#utility.yul\":5904:5917   */\n      lt\n        /* \"#utility.yul\":5896:6009   */\n      iszero\n      tag_219\n      jumpi\n        /* \"#utility.yul\":5995:5996   */\n      dup1\n        /* \"#utility.yul\":5990:5993   */\n      dup3\n        /* \"#utility.yul\":5986:5997   */\n      add\n        /* \"#utility.yul\":5980:5998   */\n      mload\n        /* \"#utility.yul\":5976:5977   */\n      dup2\n        /* \"#utility.yul\":5971:5974   */\n      dup5\n        /* \"#utility.yul\":5967:5978   */\n      add\n        /* \"#utility.yul\":5960:5999   */\n      mstore\n        /* \"#utility.yul\":5932:5934   */\n      0x20\n        /* \"#utility.yul\":5929:5930   */\n      dup2\n        /* \"#utility.yul\":5925:5935   */\n      add\n        /* \"#utility.yul\":5920:5935   */\n      swap1\n      pop\n        /* \"#utility.yul\":5896:6009   */\n      jump(tag_217)\n    tag_219:\n        /* \"#utility.yul\":6043:6044   */\n      0x00\n        /* \"#utility.yul\":6034:6040   */\n      dup5\n        /* \"#utility.yul\":6029:6032   */\n      dup5\n        /* \"#utility.yul\":6025:6041   */\n      add\n        /* \"#utility.yul\":6018:6045   */\n      mstore\n        /* \"#utility.yul\":5867:6051   */\n      pop\n        /* \"#utility.yul\":5805:6051   */\n      pop\n      pop\n      pop\n      jump\t// out\n        /* \"#utility.yul\":6057:6434   */\n    tag_127:\n        /* \"#utility.yul\":6145:6148   */\n      0x00\n        /* \"#utility.yul\":6173:6212   */\n      tag_221\n        /* \"#utility.yul\":6206:6211   */\n      dup3\n        /* \"#utility.yul\":6173:6212   */\n      tag_124\n      jump\t// in\n    tag_221:\n        /* \"#utility.yul\":6228:6299   */\n      tag_222\n        /* \"#utility.yul\":6292:6298   */\n      dup2\n        /* \"#utility.yul\":6287:6290   */\n      dup6\n        /* \"#utility.yul\":6228:6299   */\n      tag_125\n      jump\t// in\n    tag_222:\n        /* \"#utility.yul\":6221:6299   */\n      swap4\n      pop\n        /* \"#utility.yul\":6308:6373   */\n      tag_223\n        /* \"#utility.yul\":6366:6372   */\n      dup2\n        /* \"#utility.yul\":6361:6364   */\n      dup6\n        /* \"#utility.yul\":6354:6358   */\n      0x20\n        /* \"#utility.yul\":6347:6352   */\n      dup7\n        /* \"#utility.yul\":6343:6359   */\n      add\n        /* \"#utility.yul\":6308:6373   */\n      tag_126\n      jump\t// in\n    tag_223:\n        /* \"#utility.yul\":6398:6427   */\n      tag_224\n        /* \"#utility.yul\":6420:6426   */\n      dup2\n        /* \"#utility.yul\":6398:6427   */\n      tag_116\n      jump\t// in\n    tag_224:\n        /* \"#utility.yul\":6393:6396   */\n      dup5\n        /* \"#utility.yul\":6389:6428   */\n      add\n        /* \"#utility.yul\":6382:6428   */\n      swap2\n      pop\n        /* \"#utility.yul\":6149:6434   */\n      pop\n        /* \"#utility.yul\":6057:6434   */\n      swap3\n      swap2\n      pop\n      pop\n      jump\t// out\n        /* \"#utility.yul\":6440:6558   */\n    tag_128:\n        /* \"#utility.yul\":6527:6551   */\n      tag_226\n        /* \"#utility.yul\":6545:6550   */\n      dup2\n        /* \"#utility.yul\":6527:6551   */\n      tag_104\n      jump\t// in\n    tag_226:\n        /* \"#utility.yul\":6522:6525   */\n      dup3\n        /* \"#utility.yul\":6515:6552   */\n      mstore\n        /* \"#utility.yul\":6440:6558   */\n      pop\n      pop\n      jump\t// out\n        /* \"#utility.yul\":6564:6987   */\n    tag_44:\n        /* \"#utility.yul\":6705:6709   */\n      0x00\n        /* \"#utility.yul\":6743:6745   */\n      0x40\n        /* \"#utility.yul\":6732:6741   */\n      dup3\n        /* \"#utility.yul\":6728:6746   */\n      add\n        /* \"#utility.yul\":6720:6746   */\n      swap1\n      pop\n        /* \"#utility.yul\":6792:6801   */\n      dup2\n        /* \"#utility.yul\":6786:6790   */\n      dup2\n        /* \"#utility.yul\":6782:6802   */\n      sub\n        /* \"#utility.yul\":6778:6779   */\n      0x00\n        /* \"#utility.yul\":6767:6776   */\n      dup4\n        /* \"#utility.yul\":6763:6780   */\n      add\n        /* \"#utility.yul\":6756:6803   */\n      mstore\n        /* \"#utility.yul\":6820:6898   */\n      tag_228\n        /* \"#utility.yul\":6893:6897   */\n      dup2\n        /* \"#utility.yul\":6884:6890   */\n      dup6\n        /* \"#utility.yul\":6820:6898   */\n      tag_127\n      jump\t// in\n    tag_228:\n        /* \"#utility.yul\":6812:6898   */\n      swap1\n      pop\n        /* \"#utility.yul\":6908:6980   */\n      tag_229\n        /* \"#utility.yul\":6976:6978   */\n      0x20\n        /* \"#utility.yul\":6965:6974   */\n      dup4\n        /* \"#utility.yul\":6961:6979   */\n      add\n        /* \"#utility.yul\":6952:6958   */\n      dup5\n        /* \"#utility.yul\":6908:6980   */\n      tag_128\n      jump\t// in\n    tag_229:\n        /* \"#utility.yul\":6564:6987   */\n      swap4\n      swap3\n      pop\n      pop\n      pop\n      jump\t// out\n        /* \"#utility.yul\":6993:7173   */\n    tag_56:\n        /* \"#utility.yul\":7041:7118   */\n      0x4e487b7100000000000000000000000000000000000000000000000000000000\n        /* \"#utility.yul\":7038:7039   */\n      0x00\n        /* \"#utility.yul\":7031:7119   */\n      mstore\n        /* \"#utility.yul\":7138:7142   */\n      0x32\n        /* \"#utility.yul\":7135:7136   */\n      0x04\n        /* \"#utility.yul\":7128:7143   */\n      mstore\n        /* \"#utility.yul\":7162:7166   */\n      0x24\n        /* \"#utility.yul\":7159:7160   */\n      0x00\n        /* \"#utility.yul\":7152:7167   */\n      revert\n        /* \"#utility.yul\":7179:7359   */\n    tag_129:\n        /* \"#utility.yul\":7227:7304   */\n      0x4e487b7100000000000000000000000000000000000000000000000000000000\n        /* \"#utility.yul\":7224:7225   */\n      0x00\n        /* \"#utility.yul\":7217:7305   */\n      mstore\n        /* \"#utility.yul\":7324:7328   */\n      0x11\n        /* \"#utility.yul\":7321:7322   */\n      0x04\n        /* \"#utility.yul\":7314:7329   */\n      mstore\n        /* \"#utility.yul\":7348:7352   */\n      0x24\n        /* \"#utility.yul\":7345:7346   */\n      0x00\n        /* \"#utility.yul\":7338:7353   */\n      revert\n        /* \"#utility.yul\":7365:7598   */\n    tag_60:\n        /* \"#utility.yul\":7404:7407   */\n      0x00\n        /* \"#utility.yul\":7427:7451   */\n      tag_233\n        /* \"#utility.yul\":7445:7450   */\n      dup3\n        /* \"#utility.yul\":7427:7451   */\n      tag_104\n      jump\t// in\n    tag_233:\n        /* \"#utility.yul\":7418:7451   */\n      swap2\n      pop\n        /* \"#utility.yul\":7473:7539   */\n      0xffffffffffffffffffffffffffffffffffffffffffffffffffffffffffffffff\n        /* \"#utility.yul\":7466:7471   */\n      dup3\n        /* \"#utility.yul\":7463:7540   */\n      sub\n        /* \"#utility.yul\":7460:7563   */\n      tag_234\n      jumpi\n        /* \"#utility.yul\":7543:7561   */\n      tag_235\n      tag_129\n      jump\t// in\n    tag_235:\n        /* \"#utility.yul\":7460:7563   */\n    tag_234:\n        /* \"#utility.yul\":7590:7591   */\n      0x01\n        /* \"#utility.yul\":7583:7588   */\n      dup3\n        /* \"#utility.yul\":7579:7592   */\n      add\n        /* \"#utility.yul\":7572:7592   */\n      swap1\n      pop\n        /* \"#utility.yul\":7365:7598   */\n      swap2\n      swap1\n      pop\n      jump\t// out\n        /* \"#utility.yul\":7604:7784   */\n    tag_130:\n        /* \"#utility.yul\":7652:7729   */\n      0x4e487b7100000000000000000000000000000000000000000000000000000000\n        /* \"#utility.yul\":7649:7650   */\n      0x00\n        /* \"#utility.yul\":7642:7730   */\n      mstore\n        /* \"#utility.yul\":7749:7753   */\n      0x22\n        /* \"#utility.yul\":7746:7747   */\n      0x04\n        /* \"#utility.yul\":7739:7754   */\n      mstore\n        /* \"#utility.yul\":7773:7777   */\n      0x24\n        /* \"#utility.yul\":7770:7771   */\n      0x00\n        /* \"#utility.yul\":7763:7778   */\n      revert\n        /* \"#utility.yul\":7790:8110   */\n    tag_87:\n        /* \"#utility.yul\":7834:7840   */\n      0x00\n        /* \"#utility.yul\":7871:7872   */\n      0x02\n        /* \"#utility.yul\":7865:7869   */\n      dup3\n        /* \"#utility.yul\":7861:7873   */\n      div\n        /* \"#utility.yul\":7851:7873   */\n      swap1\n      pop\n        /* \"#utility.yul\":7918:7919   */\n      0x01\n        /* \"#utility.yul\":7912:7916   */\n      dup3\n        /* \"#utility.yul\":7908:7920   */\n      and\n        /* \"#utility.yul\":7939:7957   */\n      dup1\n        /* \"#utility.yul\":7929:8010   */\n      tag_238\n      jumpi\n        /* \"#utility.yul\":7995:7999   */\n      0x7f\n        /* \"#utility.yul\":7987:7993   */\n      dup3\n        /* \"#utility.yul\":7983:8000   */\n      and\n        /* \"#utility.yul\":7973:8000   */\n      swap2\n      pop\n        /* \"#utility.yul\":7929:8010   */\n    tag_238:\n        /* \"#utility.yul\":8057:8059   */\n      0x20\n        /* \"#utility.yul\":8049:8055   */\n      dup3\n        /* \"#utility.yul\":8046:8060   */\n      lt\n        /* \"#utility.yul\":8026:8044   */\n      dup2\n        /* \"#utility.yul\":8023:8061   */\n      sub\n        /* \"#utility.yul\":8020:8104   */\n      tag_239\n      jumpi\n        /* \"#utility.yul\":8076:8094   */\n      tag_240\n      tag_130\n      jump\t// in\n    tag_240:\n        /* \"#utility.yul\":8020:8104   */\n    tag_239:\n        /* \"#utility.yul\":7841:8110   */\n      pop\n        /* \"#utility.yul\":7790:8110   */\n      swap2\n      swap1\n      pop\n      jump\t// out\n        /* \"#utility.yul\":8116:8257   */\n    tag_131:\n        /* \"#utility.yul\":8165:8169   */\n      0x00\n        /* \"#utility.yul\":8188:8191   */\n      dup2\n        /* \"#utility.yul\":8180:8191   */\n      swap1\n      pop\n        /* \"#utility.yul\":8211:8214   */\n      dup2\n        /* \"#utility.yul\":8208:8209   */\n      0x00\n        /* \"#utility.yul\":8201:8215   */\n      mstore\n        /* \"#utility.yul\":8245:8249   */\n      0x20\n        /* \"#utility.yul\":8242:8243   */\n      0x00\n        /* \"#utility.yul\":8232:8250   */\n      keccak256\n        /* \"#utility.yul\":8224:8250   */\n      swap1\n      pop\n        /* \"#utility.yul\":8116:8257   */\n      swap2\n      swap1\n      pop\n      jump\t// out\n        /* \"#utility.yul\":8263:8356   */\n    tag_132:\n        /* \"#utility.yul\":8300:8306   */\n      0x00\n        /* \"#utility.yul\":8347:8349   */\n      0x20\n        /* \"#utility.yul\":8342:8344   */\n      0x1f\n        /* \"#utility.yul\":8335:8340   */\n      dup4\n        /* \"#utility.yul\":8331:8345   */\n      add\n        /* \"#utility.yul\":8327:8350   */\n      div\n        /* \"#utility.yul\":8317:8350   */\n      swap1\n      pop\n        /* \"#utility.yul\":8263:8356   */\n      swap2\n      swap1\n      pop\n      jump\t// out\n        /* \"#utility.yul\":8362:8469   */\n    tag_133:\n        /* \"#utility.yul\":8406:8414   */\n      0x00\n        /* \"#utility.yul\":8456:8461   */\n      dup3\n        /* \"#utility.yul\":8450:8454   */\n      dup3\n        /* \"#utility.yul\":8446:8462   */\n      shl\n        /* \"#utility.yul\":8425:8462   */\n      swap1\n      pop\n        /* \"#utility.yul\":8362:8469   */\n      swap3\n      swap2\n      pop\n      pop\n      jump\t// out\n        /* \"#utility.yul\":8475:8868   */\n    tag_134:\n        /* \"#utility.yul\":8544:8550   */\n      0x00\n        /* \"#utility.yul\":8594:8595   */\n      0x08\n        /* \"#utility.yul\":8582:8592   */\n      dup4\n        /* \"#utility.yul\":8578:8596   */\n      mul\n        /* \"#utility.yul\":8617:8714   */\n      tag_245\n        /* \"#utility.yul\":8647:8713   */\n      0xffffffffffffffffffffffffffffffffffffffffffffffffffffffffffffffff\n        /* \"#utility.yul\":8636:8645   */\n      dup3\n        /* \"#utility.yul\":8617:8714   */\n      tag_133\n      jump\t// in\n    tag_245:\n        /* \"#utility.yul\":8735:8774   */\n      tag_246\n        /* \"#utility.yul\":8765:8773   */\n      dup7\n        /* \"#utility.yul\":8754:8763   */\n      dup4\n        /* \"#utility.yul\":8735:8774   */\n      tag_133\n      jump\t// in\n    tag_246:\n        /* \"#utility.yul\":8723:8774   */\n      swap6\n      pop\n        /* \"#utility.yul\":8807:8811   */\n      dup1\n        /* \"#utility.yul\":8803:8812   */\n      not\n        /* \"#utility.yul\":8796:8801   */\n      dup5\n        /* \"#utility.yul\":8792:8813   */\n      and\n        /* \"#utility.yul\":8783:8813   */\n      swap4\n      pop\n        /* \"#utility.yul\":8856:8860   */\n      dup1\n        /* \"#utility.yul\":8846:8854   */\n      dup7\n        /* \"#utility.yul\":8842:8861   */\n      and\n        /* \"#utility.yul\":8835:8840   */\n      dup5\n        /* \"#utility.yul\":8832:8862   */\n      or\n        /* \"#utility.yul\":8822:8862   */\n      swap3\n      pop\n        /* \"#utility.yul\":8551:8868   */\n      pop\n      pop\n        /* \"#utility.yul\":8475:8868   */\n      swap4\n      swap3\n      pop\n      pop\n      pop\n      jump\t// out\n        /* \"#utility.yul\":8874:8934   */\n    tag_135:\n        /* \"#utility.yul\":8902:8905   */\n      0x00\n        /* \"#utility.yul\":8923:8928   */\n      dup2\n        /* \"#utility.yul\":8916:8928   */\n      swap1\n      pop\n        /* \"#utility.yul\":8874:8934   */\n      swap2\n      swap1\n      pop\n      jump\t// out\n        /* \"#utility.yul\":8940:9082   */\n    tag_136:\n        /* \"#utility.yul\":8990:8999   */\n      0x00\n        /* \"#utility.yul\":9023:9076   */\n      tag_249\n        /* \"#utility.yul\":9041:9075   */\n      tag_250\n        /* \"#utility.yul\":9050:9074   */\n      tag_251\n        /* \"#utility.yul\":9068:9073   */\n      dup5\n        /* \"#utility.yul\":9050:9074   */\n      tag_104\n      jump\t// in\n    tag_251:\n        /* \"#utility.yul\":9041:9075   */\n      tag_135\n      jump\t// in\n    tag_250:\n        /* \"#utility.yul\":9023:9076   */\n      tag_104\n      jump\t// in\n    tag_249:\n        /* \"#utility.yul\":9010:9076   */\n      swap1\n      pop\n        /* \"#utility.yul\":8940:9082   */\n      swap2\n      swap1\n      pop\n      jump\t// out\n        /* \"#utility.yul\":9088:9163   */\n    tag_137:\n        /* \"#utility.yul\":9131:9134   */\n      0x00\n        /* \"#utility.yul\":9152:9157   */\n      dup2\n        /* \"#utility.yul\":9145:9157   */\n      swap1\n      pop\n        /* \"#utility.yul\":9088:9163   */\n      swap2\n      swap1\n      pop\n      jump\t// out\n        /* \"#utility.yul\":9169:9438   */\n    tag_138:\n        /* \"#utility.yul\":9279:9318   */\n      tag_254\n        /* \"#utility.yul\":9310:9317   */\n      dup4\n        /* \"#utility.yul\":9279:9318   */\n      tag_136\n      jump\t// in\n    tag_254:\n        /* \"#utility.yul\":9340:9431   */\n      tag_255\n        /* \"#utility.yul\":9389:9430   */\n      tag_256\n        /* \"#utility.yul\":9413:9429   */\n      dup3\n        /* \"#utility.yul\":9389:9430   */\n      tag_137\n      jump\t// in\n    tag_256:\n        /* \"#utility.yul\":9381:9387   */\n      dup5\n        /* \"#utility.yul\":9374:9378   */\n      dup5\n        /* \"#utility.yul\":9368:9379   */\n      sload\n        /* \"#utility.yul\":9340:9431   */\n      tag_134\n      jump\t// in\n    tag_255:\n        /* \"#utility.yul\":9334:9338   */\n      dup3\n        /* \"#utility.yul\":9327:9432   */\n      sstore\n        /* \"#utility.yul\":9245:9438   */\n      pop\n        /* \"#utility.yul\":9169:9438   */\n      pop\n      pop\n      pop\n      jump\t// out\n        /* \"#utility.yul\":9444:9517   */\n    tag_139:\n        /* \"#utility.yul\":9489:9492   */\n      0x00\n        /* \"#utility.yul\":9444:9517   */\n      swap1\n      jump\t// out\n        /* \"#utility.yul\":9523:9712   */\n    tag_140:\n        /* \"#utility.yul\":9600:9632   */\n      tag_259\n      tag_139\n      jump\t// in\n    tag_259:\n        /* \"#utility.yul\":9641:9706   */\n      tag_260\n        /* \"#utility.yul\":9699:9705   */\n      dup2\n        /* \"#utility.yul\":9691:9697   */\n      dup5\n        /* \"#utility.yul\":9685:9689   */\n      dup5\n        /* \"#utility.yul\":9641:9706   */\n      tag_138\n      jump\t// in\n    tag_260:\n        /* \"#utility.yul\":9576:9712   */\n      pop\n        /* \"#utility.yul\":9523:9712   */\n      pop\n      pop\n      jump\t// out\n        /* \"#utility.yul\":9718:9904   */\n    tag_141:\n        /* \"#utility.yul\":9778:9898   */\n    tag_262:\n        /* \"#utility.yul\":9795:9798   */\n      dup2\n        /* \"#utility.yul\":9788:9793   */\n      dup2\n        /* \"#utility.yul\":9785:9799   */\n      lt\n        /* \"#utility.yul\":9778:9898   */\n      iszero\n      tag_264\n      jumpi\n        /* \"#utility.yul\":9849:9888   */\n      tag_265\n        /* \"#utility.yul\":9886:9887   */\n      0x00\n        /* \"#utility.yul\":9879:9884   */\n      dup3\n        /* \"#utility.yul\":9849:9888   */\n      tag_140\n      jump\t// in\n    tag_265:\n        /* \"#utility.yul\":9822:9823   */\n      0x01\n        /* \"#utility.yul\":9815:9820   */\n      dup2\n        /* \"#utility.yul\":9811:9824   */\n      add\n        /* \"#utility.yul\":9802:9824   */\n      swap1\n      pop\n        /* \"#utility.yul\":9778:9898   */\n      jump(tag_262)\n    tag_264:\n        /* \"#utility.yul\":9718:9904   */\n      pop\n      pop\n      jump\t// out\n        /* \"#utility.yul\":9910:10453   */\n    tag_142:\n        /* \"#utility.yul\":10011:10013   */\n      0x1f\n        /* \"#utility.yul\":10006:10009   */\n      dup3\n        /* \"#utility.yul\":10003:10014   */\n      gt\n        /* \"#utility.yul\":10000:10446   */\n      iszero\n      tag_267\n      jumpi\n        /* \"#utility.yul\":10045:10083   */\n      tag_268\n        /* \"#utility.yul\":10077:10082   */\n      dup2\n        /* \"#utility.yul\":10045:10083   */\n      tag_131\n      jump\t// in\n    tag_268:\n        /* \"#utility.yul\":10129:10158   */\n      tag_269\n        /* \"#utility.yul\":10147:10157   */\n      dup5\n        /* \"#utility.yul\":10129:10158   */\n      tag_132\n      jump\t// in\n    tag_269:\n        /* \"#utility.yul\":10119:10127   */\n      dup2\n        /* \"#utility.yul\":10115:10159   */\n      add\n        /* \"#utility.yul\":10312:10314   */\n      0x20\n        /* \"#utility.yul\":10300:10310   */\n      dup6\n        /* \"#utility.yul\":10297:10315   */\n      lt\n        /* \"#utility.yul\":10294:10343   */\n      iszero\n      tag_270\n      jumpi\n        /* \"#utility.yul\":10333:10341   */\n      dup2\n        /* \"#utility.yul\":10318:10341   */\n      swap1\n      pop\n        /* \"#utility.yul\":10294:10343   */\n    tag_270:\n        /* \"#utility.yul\":10356:10436   */\n      tag_271\n        /* \"#utility.yul\":10412:10434   */\n      tag_272\n        /* \"#utility.yul\":10430:10433   */\n      dup6\n        /* \"#utility.yul\":10412:10434   */\n      tag_132\n      jump\t// in\n    tag_272:\n        /* \"#utility.yul\":10402:10410   */\n      dup4\n        /* \"#utility.yul\":10398:10435   */\n      add\n        /* \"#utility.yul\":10385:10396   */\n      dup3\n        /* \"#utility.yul\":10356:10436   */\n      tag_141\n      jump\t// in\n    tag_271:\n        /* \"#utility.yul\":10015:10446   */\n      pop\n      pop\n        /* \"#utility.yul\":10000:10446   */\n    tag_267:\n        /* \"#utility.yul\":9910:10453   */\n      pop\n      pop\n      pop\n      jump\t// out\n        /* \"#utility.yul\":10459:10576   */\n    tag_143:\n        /* \"#utility.yul\":10513:10521   */\n      0x00\n        /* \"#utility.yul\":10563:10568   */\n      dup3\n        /* \"#utility.yul\":10557:10561   */\n      dup3\n        /* \"#utility.yul\":10553:10569   */\n      shr\n        /* \"#utility.yul\":10532:10569   */\n      swap1\n      pop\n        /* \"#utility.yul\":10459:10576   */\n      swap3\n      swap2\n      pop\n      pop\n      jump\t// out\n        /* \"#utility.yul\":10582:10751   */\n    tag_144:\n        /* \"#utility.yul\":10626:10632   */\n      0x00\n        /* \"#utility.yul\":10659:10710   */\n      tag_275\n        /* \"#utility.yul\":10707:10708   */\n      0x00\n        /* \"#utility.yul\":10703:10709   */\n      not\n        /* \"#utility.yul\":10695:10700   */\n      dup5\n        /* \"#utility.yul\":10692:10693   */\n      0x08\n        /* \"#utility.yul\":10688:10701   */\n      mul\n        /* \"#utility.yul\":10659:10710   */\n      tag_143\n      jump\t// in\n    tag_275:\n        /* \"#utility.yul\":10655:10711   */\n      not\n        /* \"#utility.yul\":10740:10744   */\n      dup1\n        /* \"#utility.yul\":10734:10738   */\n      dup4\n        /* \"#utility.yul\":10730:10745   */\n      and\n        /* \"#utility.yul\":10720:10745   */\n      swap2\n      pop\n        /* \"#utility.yul\":10633:10751   */\n      pop\n        /* \"#utility.yul\":10582:10751   */\n      swap3\n      swap2\n      pop\n      pop\n      jump\t// out\n        /* \"#utility.yul\":10756:11051   */\n    tag_145:\n        /* \"#utility.yul\":10832:10836   */\n      0x00\n        /* \"#utility.yul\":10978:11007   */\n      tag_277\n        /* \"#utility.yul\":11003:11006   */\n      dup4\n        /* \"#utility.yul\":10997:11001   */\n      dup4\n        /* \"#utility.yul\":10978:11007   */\n      tag_144\n      jump\t// in\n    tag_277:\n        /* \"#utility.yul\":10970:11007   */\n      swap2\n      pop\n        /* \"#utility.yul\":11040:11043   */\n      dup3\n        /* \"#utility.yul\":11037:11038   */\n      0x02\n        /* \"#utility.yul\":11033:11044   */\n      mul\n        /* \"#utility.yul\":11027:11031   */\n      dup3\n        /* \"#utility.yul\":11024:11045   */\n      or\n        /* \"#utility.yul\":11016:11045   */\n      swap1\n      pop\n        /* \"#utility.yul\":10756:11051   */\n      swap3\n      swap2\n      pop\n      pop\n      jump\t// out\n        /* \"#utility.yul\":11056:12451   */\n    tag_63:\n        /* \"#utility.yul\":11173:11210   */\n      tag_279\n        /* \"#utility.yul\":11206:11209   */\n      dup3\n        /* \"#utility.yul\":11173:11210   */\n      tag_124\n      jump\t// in\n    tag_279:\n        /* \"#utility.yul\":11275:11293   */\n      0xffffffffffffffff\n        /* \"#utility.yul\":11267:11273   */\n      dup2\n        /* \"#utility.yul\":11264:11294   */\n      gt\n        /* \"#utility.yul\":11261:11317   */\n      iszero\n      tag_280\n      jumpi\n        /* \"#utility.yul\":11297:11315   */\n      tag_281\n      tag_117\n      jump\t// in\n    tag_281:\n        /* \"#utility.yul\":11261:11317   */\n    tag_280:\n        /* \"#utility.yul\":11341:11379   */\n      tag_282\n        /* \"#utility.yul\":11373:11377   */\n      dup3\n        /* \"#utility.yul\":11367:11378   */\n      sload\n        /* \"#utility.yul\":11341:11379   */\n      tag_87\n      jump\t// in\n    tag_282:\n        /* \"#utility.yul\":11426:11493   */\n      tag_283\n        /* \"#utility.yul\":11486:11492   */\n      dup3\n        /* \"#utility.yul\":11478:11484   */\n      dup3\n        /* \"#utility.yul\":11472:11476   */\n      dup6\n        /* \"#utility.yul\":11426:11493   */\n      tag_142\n      jump\t// in\n    tag_283:\n        /* \"#utility.yul\":11520:11521   */\n      0x00\n        /* \"#utility.yul\":11544:11548   */\n      0x20\n        /* \"#utility.yul\":11531:11548   */\n      swap1\n      pop\n        /* \"#utility.yul\":11576:11578   */\n      0x1f\n        /* \"#utility.yul\":11568:11574   */\n      dup4\n        /* \"#utility.yul\":11565:11579   */\n      gt\n        /* \"#utility.yul\":11593:11594   */\n      0x01\n        /* \"#utility.yul\":11588:12206   */\n      dup2\n      eq\n      tag_285\n      jumpi\n        /* \"#utility.yul\":12250:12251   */\n      0x00\n        /* \"#utility.yul\":12267:12273   */\n      dup5\n        /* \"#utility.yul\":12264:12341   */\n      iszero\n      tag_286\n      jumpi\n        /* \"#utility.yul\":12316:12325   */\n      dup3\n        /* \"#utility.yul\":12311:12314   */\n      dup8\n        /* \"#utility.yul\":12307:12326   */\n      add\n        /* \"#utility.yul\":12301:12327   */\n      mload\n        /* \"#utility.yul\":12292:12327   */\n      swap1\n      pop\n        /* \"#utility.yul\":12264:12341   */\n    tag_286:\n        /* \"#utility.yul\":12367:12434   */\n      tag_287\n        /* \"#utility.yul\":12427:12433   */\n      dup6\n        /* \"#utility.yul\":12420:12425   */\n      dup3\n        /* \"#utility.yul\":12367:12434   */\n      tag_145\n      jump\t// in\n    tag_287:\n        /* \"#utility.yul\":12361:12365   */\n      dup7\n        /* \"#utility.yul\":12354:12435   */\n      sstore\n        /* \"#utility.yul\":12223:12445   */\n      pop\n        /* \"#utility.yul\":11558:12445   */\n      jump(tag_284)\n        /* \"#utility.yul\":11588:12206   */\n    tag_285:\n        /* \"#utility.yul\":11640:11644   */\n      0x1f\n        /* \"#utility.yul\":11636:11645   */\n      not\n        /* \"#utility.yul\":11628:11634   */\n      dup5\n        /* \"#utility.yul\":11624:11646   */\n      and\n        /* \"#utility.yul\":11674:11711   */\n      tag_288\n        /* \"#utility.yul\":11706:11710   */\n      dup7\n        /* \"#utility.yul\":11674:11711   */\n      tag_131\n      jump\t// in\n    tag_288:\n        /* \"#utility.yul\":11733:11734   */\n      0x00\n        /* \"#utility.yul\":11747:11955   */\n    tag_289:\n        /* \"#utility.yul\":11761:11768   */\n      dup3\n        /* \"#utility.yul\":11758:11759   */\n      dup2\n        /* \"#utility.yul\":11755:11769   */\n      lt\n        /* \"#utility.yul\":11747:11955   */\n      iszero\n      tag_291\n      jumpi\n        /* \"#utility.yul\":11840:11849   */\n      dup5\n        /* \"#utility.yul\":11835:11838   */\n      dup10\n        /* \"#utility.yul\":11831:11850   */\n      add\n        /* \"#utility.yul\":11825:11851   */\n      mload\n        /* \"#utility.yul\":11817:11823   */\n      dup3\n        /* \"#utility.yul\":11810:11852   */\n      sstore\n        /* \"#utility.yul\":11891:11892   */\n      0x01\n        /* \"#utility.yul\":11883:11889   */\n      dup3\n        /* \"#utility.yul\":11879:11893   */\n      add\n        /* \"#utility.yul\":11869:11893   */\n      swap2\n      pop\n        /* \"#utility.yul\":11938:11940   */\n      0x20\n        /* \"#utility.yul\":11927:11936   */\n      dup6\n        /* \"#utility.yul\":11923:11941   */\n      add\n        /* \"#utility.yul\":11910:11941   */\n      swap5\n      pop\n        /* \"#utility.yul\":11784:11788   */\n      0x20\n        /* \"#utility.yul\":11781:11782   */\n      dup2\n        /* \"#utility.yul\":11777:11789   */\n      add\n        /* \"#utility.yul\":11772:11789   */\n      swap1\n      pop\n        /* \"#utility.yul\":11747:11955   */\n      jump(tag_289)\n    tag_291:\n        /* \"#utility.yul\":11983:11989   */\n      dup7\n        /* \"#utility.yul\":11974:11981   */\n      dup4\n        /* \"#utility.yul\":11971:11990   */\n      lt\n        /* \"#utility.yul\":11968:12147   */\n      iszero\n      tag_292\n      jumpi\n        /* \"#utility.yul\":12041:12050   */\n      dup5\n        /* \"#utility.yul\":12036:12039   */\n      dup10\n        /* \"#utility.yul\":12032:12051   */\n      add\n        /* \"#utility.yul\":12026:12052   */\n      mload\n        /* \"#utility.yul\":12084:12132   */\n      tag_293\n        /* \"#utility.yul\":12126:12130   */\n      0x1f\n        /* \"#utility.yul\":12118:12124   */\n      dup10\n        /* \"#utility.yul\":12114:12131   */\n      and\n        /* \"#utility.yul\":12103:12112   */\n      dup3\n        /* \"#utility.yul\":12084:12132   */\n      tag_144\n      jump\t// in\n    tag_293:\n        /* \"#utility.yul\":12076:12082   */\n      dup4\n        /* \"#utility.yul\":12069:12133   */\n      sstore\n        /* \"#utility.yul\":11991:12147   */\n      pop\n        /* \"#utility.yul\":11968:12147   */\n    tag_292:\n        /* \"#utility.yul\":12193:12194   */\n      0x01\n        /* \"#utility.yul\":12189:12190   */\n      0x02\n        /* \"#utility.yul\":12181:12187   */\n      dup9\n        /* \"#utility.yul\":12177:12191   */\n      mul\n        /* \"#utility.yul\":12173:12195   */\n      add\n        /* \"#utility.yul\":12167:12171   */\n      dup9\n        /* \"#utility.yul\":12160:12196   */\n      sstore\n        /* \"#utility.yul\":11595:12206   */\n      pop\n      pop\n      pop\n        /* \"#utility.yul\":11558:12445   */\n    tag_284:\n      pop\n        /* \"#utility.yul\":11148:12451   */\n      pop\n      pop\n      pop\n        /* \"#utility.yul\":11056:12451   */\n      pop\n      pop\n      jump\t// out\n\n    auxdata: 0xa26469706673582212203f657e5a69bbeeb05ca3f815f028e6cfa4c4cc3ad9b075e9d1fa99f4fe8aebaf64736f6c63430008140033\n}\n",
				"bytecode": {
					"linkReferences": {},
					"object": "608060405234801562000010575f80fd5b50604051620010a7380380620010a78339818101604052810190620000369190620001e9565b805f73ffffffffffffffffffffffffffffffffffffffff168173ffffffffffffffffffffffffffffffffffffffff1603620000aa575f6040517f1e4fbdf7000000000000000000000000000000000000000000000000000000008152600401620000a191906200022a565b60405180910390fd5b620000bb81620000c360201b60201c565b505062000245565b5f805f9054906101000a900473ffffffffffffffffffffffffffffffffffffffff169050815f806101000a81548173ffffffffffffffffffffffffffffffffffffffff021916908373ffffffffffffffffffffffffffffffffffffffff1602179055508173ffffffffffffffffffffffffffffffffffffffff168173ffffffffffffffffffffffffffffffffffffffff167f8be0079c531659141344cd1fd0a4f28419497f9722a3daafe3b4186f6b6457e060405160405180910390a35050565b5f80fd5b5f73ffffffffffffffffffffffffffffffffffffffff82169050919050565b5f620001b38262000188565b9050919050565b620001c581620001a7565b8114620001d0575f80fd5b50565b5f81519050620001e381620001ba565b92915050565b5f6020828403121562000201576200020062000184565b5b5f6200021084828501620001d3565b91505092915050565b6200022481620001a7565b82525050565b5f6020820190506200023f5f83018462000219565b92915050565b610e5480620002535f395ff3fe608060405234801561000f575f80fd5b5060043610610086575f3560e01c80638da5cb5b116100595780638da5cb5b14610110578063eb13ec861461012e578063f2fde38b1461015e578063fb113db11461017a57610086565b806335c1d3491461008a5780635b573186146100ba5780636f760f41146100ea578063715018a614610106575b5f80fd5b6100a4600480360381019061009f919061075c565b6101ab565b6040516100b191906107c6565b60405180910390f35b6100d460048036038101906100cf9190610809565b6101e6565b6040516100e1919061084e565b60405180910390f35b61010460048036038101906100ff91906109a3565b610293565b005b61010e61036f565b005b610118610382565b60405161012591906107c6565b60405180910390f35b61014860048036038101906101439190610809565b6103a9565b604051610155919061084e565b60405180910390f35b61017860048036038101906101739190610809565b61049f565b005b610194600480360381019061018f9190610809565b610523565b6040516101a2929190610a86565b60405180910390f35b600281815481106101ba575f80fd5b905f5260205f20015f915054906101000a900473ffffffffffffffffffffffffffffffffffffffff1681565b5f6101ef6105c9565b5f5b600280549050811015610289578273ffffffffffffffffffffffffffffffffffffffff166002828154811061022957610228610ab4565b5b905f5260205f20015f9054906101000a900473ffffffffffffffffffffffffffffffffffffffff1673ffffffffffffffffffffffffffffffffffffffff160361027657600191505061028e565b808061028190610b0e565b9150506101f1565b505f90505b919050565b5f60405180604001604052808481526020018381525090508060015f3373ffffffffffffffffffffffffffffffffffffffff1673ffffffffffffffffffffffffffffffffffffffff1681526020019081526020015f205f820151815f0190816102fc9190610d4f565b5060208201518160010155905050600233908060018154018082558091505060019003905f5260205f20015f9091909190916101000a81548173ffffffffffffffffffffffffffffffffffffffff021916908373ffffffffffffffffffffffffffffffffffffffff160217905550505050565b6103776105c9565b6103805f610650565b565b5f805f9054906101000a900473ffffffffffffffffffffffffffffffffffffffff16905090565b5f805f90505b600280549050811015610495578273ffffffffffffffffffffffffffffffffffffffff16600282815481106103e7576103e6610ab4565b5b905f5260205f20015f9054906101000a900473ffffffffffffffffffffffffffffffffffffffff1673ffffffffffffffffffffffffffffffffffffffff161480156104735750601260015f8573ffffffffffffffffffffffffffffffffffffffff1673ffffffffffffffffffffffffffffffffffffffff1681526020019081526020015f206001015410155b1561048257600191505061049a565b808061048d90610b0e565b9150506103af565b5f9150505b919050565b6104a76105c9565b5f73ffffffffffffffffffffffffffffffffffffffff168173ffffffffffffffffffffffffffffffffffffffff1603610517575f6040517f1e4fbdf700000000000000000000000000000000000000000000000000000000815260040161050e91906107c6565b60405180910390fd5b61052081610650565b50565b6001602052805f5260405f205f91509050805f01805461054290610b82565b80601f016020809104026020016040519081016040528092919081815260200182805461056e90610b82565b80156105b95780601f10610590576101008083540402835291602001916105b9565b820191905f5260205f20905b81548152906001019060200180831161059c57829003601f168201915b5050505050908060010154905082565b6105d1610711565b73ffffffffffffffffffffffffffffffffffffffff166105ef610382565b73ffffffffffffffffffffffffffffffffffffffff161461064e57610612610711565b6040517f118cdaa700000000000000000000000000000000000000000000000000000000815260040161064591906107c6565b60405180910390fd5b565b5f805f9054906101000a900473ffffffffffffffffffffffffffffffffffffffff169050815f806101000a81548173ffffffffffffffffffffffffffffffffffffffff021916908373ffffffffffffffffffffffffffffffffffffffff1602179055508173ffffffffffffffffffffffffffffffffffffffff168173ffffffffffffffffffffffffffffffffffffffff167f8be0079c531659141344cd1fd0a4f28419497f9722a3daafe3b4186f6b6457e060405160405180910390a35050565b5f33905090565b5f604051905090565b5f80fd5b5f80fd5b5f819050919050565b61073b81610729565b8114610745575f80fd5b50565b5f8135905061075681610732565b92915050565b5f6020828403121561077157610770610721565b5b5f61077e84828501610748565b91505092915050565b5f73ffffffffffffffffffffffffffffffffffffffff82169050919050565b5f6107b082610787565b9050919050565b6107c0816107a6565b82525050565b5f6020820190506107d95f8301846107b7565b92915050565b6107e8816107a6565b81146107f2575f80fd5b50565b5f81359050610803816107df565b92915050565b5f6020828403121561081e5761081d610721565b5b5f61082b848285016107f5565b91505092915050565b5f8115159050919050565b61084881610834565b82525050565b5f6020820190506108615f83018461083f565b92915050565b5f80fd5b5f80fd5b5f601f19601f8301169050919050565b7f4e487b71000000000000000000000000000000000000000000000000000000005f52604160045260245ffd5b6108b58261086f565b810181811067ffffffffffffffff821117156108d4576108d361087f565b5b80604052505050565b5f6108e6610718565b90506108f282826108ac565b919050565b5f67ffffffffffffffff8211156109115761091061087f565b5b61091a8261086f565b9050602081019050919050565b828183375f83830152505050565b5f610947610942846108f7565b6108dd565b9050828152602081018484840111156109635761096261086b565b5b61096e848285610927565b509392505050565b5f82601f83011261098a57610989610867565b5b813561099a848260208601610935565b91505092915050565b5f80604083850312156109b9576109b8610721565b5b5f83013567ffffffffffffffff8111156109d6576109d5610725565b5b6109e285828601610976565b92505060206109f385828601610748565b9150509250929050565b5f81519050919050565b5f82825260208201905092915050565b5f5b83811015610a34578082015181840152602081019050610a19565b5f8484015250505050565b5f610a49826109fd565b610a538185610a07565b9350610a63818560208601610a17565b610a6c8161086f565b840191505092915050565b610a8081610729565b82525050565b5f6040820190508181035f830152610a9e8185610a3f565b9050610aad6020830184610a77565b9392505050565b7f4e487b71000000000000000000000000000000000000000000000000000000005f52603260045260245ffd5b7f4e487b71000000000000000000000000000000000000000000000000000000005f52601160045260245ffd5b5f610b1882610729565b91507fffffffffffffffffffffffffffffffffffffffffffffffffffffffffffffffff8203610b4a57610b49610ae1565b5b600182019050919050565b7f4e487b71000000000000000000000000000000000000000000000000000000005f52602260045260245ffd5b5f6002820490506001821680610b9957607f821691505b602082108103610bac57610bab610b55565b5b50919050565b5f819050815f5260205f209050919050565b5f6020601f8301049050919050565b5f82821b905092915050565b5f60088302610c0e7fffffffffffffffffffffffffffffffffffffffffffffffffffffffffffffffff82610bd3565b610c188683610bd3565b95508019841693508086168417925050509392505050565b5f819050919050565b5f610c53610c4e610c4984610729565b610c30565b610729565b9050919050565b5f819050919050565b610c6c83610c39565b610c80610c7882610c5a565b848454610bdf565b825550505050565b5f90565b610c94610c88565b610c9f818484610c63565b505050565b5b81811015610cc257610cb75f82610c8c565b600181019050610ca5565b5050565b601f821115610d0757610cd881610bb2565b610ce184610bc4565b81016020851015610cf0578190505b610d04610cfc85610bc4565b830182610ca4565b50505b505050565b5f82821c905092915050565b5f610d275f1984600802610d0c565b1980831691505092915050565b5f610d3f8383610d18565b9150826002028217905092915050565b610d58826109fd565b67ffffffffffffffff811115610d7157610d7061087f565b5b610d7b8254610b82565b610d86828285610cc6565b5f60209050601f831160018114610db7575f8415610da5578287015190505b610daf8582610d34565b865550610e16565b601f198416610dc586610bb2565b5f5b82811015610dec57848901518255600182019150602085019450602081019050610dc7565b86831015610e095784890151610e05601f891682610d18565b8355505b6001600288020188555050505b50505050505056fea26469706673582212203f657e5a69bbeeb05ca3f815f028e6cfa4c4cc3ad9b075e9d1fa99f4fe8aebaf64736f6c63430008140033",
					"opcodes": "PUSH1 0x80 PUSH1 0x40 MSTORE CALLVALUE DUP1 ISZERO PUSH3 0x10 JUMPI PUSH0 DUP1 REVERT JUMPDEST POP PUSH1 0x40 MLOAD PUSH3 0x10A7 CODESIZE SUB DUP1 PUSH3 0x10A7 DUP4 CODECOPY DUP2 DUP2 ADD PUSH1 0x40 MSTORE DUP2 ADD SWAP1 PUSH3 0x36 SWAP2 SWAP1 PUSH3 0x1E9 JUMP JUMPDEST DUP1 PUSH0 PUSH20 0xFFFFFFFFFFFFFFFFFFFFFFFFFFFFFFFFFFFFFFFF AND DUP2 PUSH20 0xFFFFFFFFFFFFFFFFFFFFFFFFFFFFFFFFFFFFFFFF AND SUB PUSH3 0xAA JUMPI PUSH0 PUSH1 0x40 MLOAD PUSH32 0x1E4FBDF700000000000000000000000000000000000000000000000000000000 DUP2 MSTORE PUSH1 0x4 ADD PUSH3 0xA1 SWAP2 SWAP1 PUSH3 0x22A JUMP JUMPDEST PUSH1 0x40 MLOAD DUP1 SWAP2 SUB SWAP1 REVERT JUMPDEST PUSH3 0xBB DUP2 PUSH3 0xC3 PUSH1 0x20 SHL PUSH1 0x20 SHR JUMP JUMPDEST POP POP PUSH3 0x245 JUMP JUMPDEST PUSH0 DUP1 PUSH0 SWAP1 SLOAD SWAP1 PUSH2 0x100 EXP SWAP1 DIV PUSH20 0xFFFFFFFFFFFFFFFFFFFFFFFFFFFFFFFFFFFFFFFF AND SWAP1 POP DUP2 PUSH0 DUP1 PUSH2 0x100 EXP DUP2 SLOAD DUP2 PUSH20 0xFFFFFFFFFFFFFFFFFFFFFFFFFFFFFFFFFFFFFFFF MUL NOT AND SWAP1 DUP4 PUSH20 0xFFFFFFFFFFFFFFFFFFFFFFFFFFFFFFFFFFFFFFFF AND MUL OR SWAP1 SSTORE POP DUP2 PUSH20 0xFFFFFFFFFFFFFFFFFFFFFFFFFFFFFFFFFFFFFFFF AND DUP2 PUSH20 0xFFFFFFFFFFFFFFFFFFFFFFFFFFFFFFFFFFFFFFFF AND PUSH32 0x8BE0079C531659141344CD1FD0A4F28419497F9722A3DAAFE3B4186F6B6457E0 PUSH1 0x40 MLOAD PUSH1 0x40 MLOAD DUP1 SWAP2 SUB SWAP1 LOG3 POP POP JUMP JUMPDEST PUSH0 DUP1 REVERT JUMPDEST PUSH0 PUSH20 0xFFFFFFFFFFFFFFFFFFFFFFFFFFFFFFFFFFFFFFFF DUP3 AND SWAP1 POP SWAP2 SWAP1 POP JUMP JUMPDEST PUSH0 PUSH3 0x1B3 DUP3 PUSH3 0x188 JUMP JUMPDEST SWAP1 POP SWAP2 SWAP1 POP JUMP JUMPDEST PUSH3 0x1C5 DUP2 PUSH3 0x1A7 JUMP JUMPDEST DUP2 EQ PUSH3 0x1D0 JUMPI PUSH0 DUP1 REVERT JUMPDEST POP JUMP JUMPDEST PUSH0 DUP2 MLOAD SWAP1 POP PUSH3 0x1E3 DUP2 PUSH3 0x1BA JUMP JUMPDEST SWAP3 SWAP2 POP POP JUMP JUMPDEST PUSH0 PUSH1 0x20 DUP3 DUP5 SUB SLT ISZERO PUSH3 0x201 JUMPI PUSH3 0x200 PUSH3 0x184 JUMP JUMPDEST JUMPDEST PUSH0 PUSH3 0x210 DUP5 DUP3 DUP6 ADD PUSH3 0x1D3 JUMP JUMPDEST SWAP2 POP POP SWAP3 SWAP2 POP POP JUMP JUMPDEST PUSH3 0x224 DUP2 PUSH3 0x1A7 JUMP JUMPDEST DUP3 MSTORE POP POP JUMP JUMPDEST PUSH0 PUSH1 0x20 DUP3 ADD SWAP1 POP PUSH3 0x23F PUSH0 DUP4 ADD DUP5 PUSH3 0x219 JUMP JUMPDEST SWAP3 SWAP2 POP POP JUMP JUMPDEST PUSH2 0xE54 DUP1 PUSH3 0x253 PUSH0 CODECOPY PUSH0 RETURN INVALID PUSH1 0x80 PUSH1 0x40 MSTORE CALLVALUE DUP1 ISZERO PUSH2 0xF JUMPI PUSH0 DUP1 REVERT JUMPDEST POP PUSH1 0x4 CALLDATASIZE LT PUSH2 0x86 JUMPI PUSH0 CALLDATALOAD PUSH1 0xE0 SHR DUP1 PUSH4 0x8DA5CB5B GT PUSH2 0x59 JUMPI DUP1 PUSH4 0x8DA5CB5B EQ PUSH2 0x110 JUMPI DUP1 PUSH4 0xEB13EC86 EQ PUSH2 0x12E JUMPI DUP1 PUSH4 0xF2FDE38B EQ PUSH2 0x15E JUMPI DUP1 PUSH4 0xFB113DB1 EQ PUSH2 0x17A JUMPI PUSH2 0x86 JUMP JUMPDEST DUP1 PUSH4 0x35C1D349 EQ PUSH2 0x8A JUMPI DUP1 PUSH4 0x5B573186 EQ PUSH2 0xBA JUMPI DUP1 PUSH4 0x6F760F41 EQ PUSH2 0xEA JUMPI DUP1 PUSH4 0x715018A6 EQ PUSH2 0x106 JUMPI JUMPDEST PUSH0 DUP1 REVERT JUMPDEST PUSH2 0xA4 PUSH1 0x4 DUP1 CALLDATASIZE SUB DUP2 ADD SWAP1 PUSH2 0x9F SWAP2 SWAP1 PUSH2 0x75C JUMP JUMPDEST PUSH2 0x1AB JUMP JUMPDEST PUSH1 0x40 MLOAD PUSH2 0xB1 SWAP2 SWAP1 PUSH2 0x7C6 JUMP JUMPDEST PUSH1 0x40 MLOAD DUP1 SWAP2 SUB SWAP1 RETURN JUMPDEST PUSH2 0xD4 PUSH1 0x4 DUP1 CALLDATASIZE SUB DUP2 ADD SWAP1 PUSH2 0xCF SWAP2 SWAP1 PUSH2 0x809 JUMP JUMPDEST PUSH2 0x1E6 JUMP JUMPDEST PUSH1 0x40 MLOAD PUSH2 0xE1 SWAP2 SWAP1 PUSH2 0x84E JUMP JUMPDEST PUSH1 0x40 MLOAD DUP1 SWAP2 SUB SWAP1 RETURN JUMPDEST PUSH2 0x104 PUSH1 0x4 DUP1 CALLDATASIZE SUB DUP2 ADD SWAP1 PUSH2 0xFF SWAP2 SWAP1 PUSH2 0x9A3 JUMP JUMPDEST PUSH2 0x293 JUMP JUMPDEST STOP JUMPDEST PUSH2 0x10E PUSH2 0x36F JUMP JUMPDEST STOP JUMPDEST PUSH2 0x118 PUSH2 0x382 JUMP JUMPDEST PUSH1 0x40 MLOAD PUSH2 0x125 SWAP2 SWAP1 PUSH2 0x7C6 JUMP JUMPDEST PUSH1 0x40 MLOAD DUP1 SWAP2 SUB SWAP1 RETURN JUMPDEST PUSH2 0x148 PUSH1 0x4 DUP1 CALLDATASIZE SUB DUP2 ADD SWAP1 PUSH2 0x143 SWAP2 SWAP1 PUSH2 0x809 JUMP JUMPDEST PUSH2 0x3A9 JUMP JUMPDEST PUSH1 0x40 MLOAD PUSH2 0x155 SWAP2 SWAP1 PUSH2 0x84E JUMP JUMPDEST PUSH1 0x40 MLOAD DUP1 SWAP2 SUB SWAP1 RETURN JUMPDEST PUSH2 0x178 PUSH1 0x4 DUP1 CALLDATASIZE SUB DUP2 ADD SWAP1 PUSH2 0x173 SWAP2 SWAP1 PUSH2 0x809 JUMP JUMPDEST PUSH2 0x49F JUMP JUMPDEST STOP JUMPDEST PUSH2 0x194 PUSH1 0x4 DUP1 CALLDATASIZE SUB DUP2 ADD SWAP1 PUSH2 0x18F SWAP2 SWAP1 PUSH2 0x809 JUMP JUMPDEST PUSH2 0x523 JUMP JUMPDEST PUSH1 0x40 MLOAD PUSH2 0x1A2 SWAP3 SWAP2 SWAP1 PUSH2 0xA86 JUMP JUMPDEST PUSH1 0x40 MLOAD DUP1 SWAP2 SUB SWAP1 RETURN JUMPDEST PUSH1 0x2 DUP2 DUP2 SLOAD DUP2 LT PUSH2 0x1BA JUMPI PUSH0 DUP1 REVERT JUMPDEST SWAP1 PUSH0 MSTORE PUSH1 0x20 PUSH0 KECCAK256 ADD PUSH0 SWAP2 POP SLOAD SWAP1 PUSH2 0x100 EXP SWAP1 DIV PUSH20 0xFFFFFFFFFFFFFFFFFFFFFFFFFFFFFFFFFFFFFFFF AND DUP2 JUMP JUMPDEST PUSH0 PUSH2 0x1EF PUSH2 0x5C9 JUMP JUMPDEST PUSH0 JUMPDEST PUSH1 0x2 DUP1 SLOAD SWAP1 POP DUP2 LT ISZERO PUSH2 0x289 JUMPI DUP3 PUSH20 0xFFFFFFFFFFFFFFFFFFFFFFFFFFFFFFFFFFFFFFFF AND PUSH1 0x2 DUP3 DUP2 SLOAD DUP2 LT PUSH2 0x229 JUMPI PUSH2 0x228 PUSH2 0xAB4 JUMP JUMPDEST JUMPDEST SWAP1 PUSH0 MSTORE PUSH1 0x20 PUSH0 KECCAK256 ADD PUSH0 SWAP1 SLOAD SWAP1 PUSH2 0x100 EXP SWAP1 DIV PUSH20 0xFFFFFFFFFFFFFFFFFFFFFFFFFFFFFFFFFFFFFFFF AND PUSH20 0xFFFFFFFFFFFFFFFFFFFFFFFFFFFFFFFFFFFFFFFF AND SUB PUSH2 0x276 JUMPI PUSH1 0x1 SWAP2 POP POP PUSH2 0x28E JUMP JUMPDEST DUP1 DUP1 PUSH2 0x281 SWAP1 PUSH2 0xB0E JUMP JUMPDEST SWAP2 POP POP PUSH2 0x1F1 JUMP JUMPDEST POP PUSH0 SWAP1 POP JUMPDEST SWAP2 SWAP1 POP JUMP JUMPDEST PUSH0 PUSH1 0x40 MLOAD DUP1 PUSH1 0x40 ADD PUSH1 0x40 MSTORE DUP1 DUP5 DUP2 MSTORE PUSH1 0x20 ADD DUP4 DUP2 MSTORE POP SWAP1 POP DUP1 PUSH1 0x1 PUSH0 CALLER PUSH20 0xFFFFFFFFFFFFFFFFFFFFFFFFFFFFFFFFFFFFFFFF AND PUSH20 0xFFFFFFFFFFFFFFFFFFFFFFFFFFFFFFFFFFFFFFFF AND DUP2 MSTORE PUSH1 0x20 ADD SWAP1 DUP2 MSTORE PUSH1 0x20 ADD PUSH0 KECCAK256 PUSH0 DUP3 ADD MLOAD DUP2 PUSH0 ADD SWAP1 DUP2 PUSH2 0x2FC SWAP2 SWAP1 PUSH2 0xD4F JUMP JUMPDEST POP PUSH1 0x20 DUP3 ADD MLOAD DUP2 PUSH1 0x1 ADD SSTORE SWAP1 POP POP PUSH1 0x2 CALLER SWAP1 DUP1 PUSH1 0x1 DUP2 SLOAD ADD DUP1 DUP3 SSTORE DUP1 SWAP2 POP POP PUSH1 0x1 SWAP1 SUB SWAP1 PUSH0 MSTORE PUSH1 0x20 PUSH0 KECCAK256 ADD PUSH0 SWAP1 SWAP2 SWAP1 SWAP2 SWAP1 SWAP2 PUSH2 0x100 EXP DUP2 SLOAD DUP2 PUSH20 0xFFFFFFFFFFFFFFFFFFFFFFFFFFFFFFFFFFFFFFFF MUL NOT AND SWAP1 DUP4 PUSH20 0xFFFFFFFFFFFFFFFFFFFFFFFFFFFFFFFFFFFFFFFF AND MUL OR SWAP1 SSTORE POP POP POP POP JUMP JUMPDEST PUSH2 0x377 PUSH2 0x5C9 JUMP JUMPDEST PUSH2 0x380 PUSH0 PUSH2 0x650 JUMP JUMPDEST JUMP JUMPDEST PUSH0 DUP1 PUSH0 SWAP1 SLOAD SWAP1 PUSH2 0x100 EXP SWAP1 DIV PUSH20 0xFFFFFFFFFFFFFFFFFFFFFFFFFFFFFFFFFFFFFFFF AND SWAP1 POP SWAP1 JUMP JUMPDEST PUSH0 DUP1 PUSH0 SWAP1 POP JUMPDEST PUSH1 0x2 DUP1 SLOAD SWAP1 POP DUP2 LT ISZERO PUSH2 0x495 JUMPI DUP3 PUSH20 0xFFFFFFFFFFFFFFFFFFFFFFFFFFFFFFFFFFFFFFFF AND PUSH1 0x2 DUP3 DUP2 SLOAD DUP2 LT PUSH2 0x3E7 JUMPI PUSH2 0x3E6 PUSH2 0xAB4 JUMP JUMPDEST JUMPDEST SWAP1 PUSH0 MSTORE PUSH1 0x20 PUSH0 KECCAK256 ADD PUSH0 SWAP1 SLOAD SWAP1 PUSH2 0x100 EXP SWAP1 DIV PUSH20 0xFFFFFFFFFFFFFFFFFFFFFFFFFFFFFFFFFFFFFFFF AND PUSH20 0xFFFFFFFFFFFFFFFFFFFFFFFFFFFFFFFFFFFFFFFF AND EQ DUP1 ISZERO PUSH2 0x473 JUMPI POP PUSH1 0x12 PUSH1 0x1 PUSH0 DUP6 PUSH20 0xFFFFFFFFFFFFFFFFFFFFFFFFFFFFFFFFFFFFFFFF AND PUSH20 0xFFFFFFFFFFFFFFFFFFFFFFFFFFFFFFFFFFFFFFFF AND DUP2 MSTORE PUSH1 0x20 ADD SWAP1 DUP2 MSTORE PUSH1 0x20 ADD PUSH0 KECCAK256 PUSH1 0x1 ADD SLOAD LT ISZERO JUMPDEST ISZERO PUSH2 0x482 JUMPI PUSH1 0x1 SWAP2 POP POP PUSH2 0x49A JUMP JUMPDEST DUP1 DUP1 PUSH2 0x48D SWAP1 PUSH2 0xB0E JUMP JUMPDEST SWAP2 POP POP PUSH2 0x3AF JUMP JUMPDEST PUSH0 SWAP2 POP POP JUMPDEST SWAP2 SWAP1 POP JUMP JUMPDEST PUSH2 0x4A7 PUSH2 0x5C9 JUMP JUMPDEST PUSH0 PUSH20 0xFFFFFFFFFFFFFFFFFFFFFFFFFFFFFFFFFFFFFFFF AND DUP2 PUSH20 0xFFFFFFFFFFFFFFFFFFFFFFFFFFFFFFFFFFFFFFFF AND SUB PUSH2 0x517 JUMPI PUSH0 PUSH1 0x40 MLOAD PUSH32 0x1E4FBDF700000000000000000000000000000000000000000000000000000000 DUP2 MSTORE PUSH1 0x4 ADD PUSH2 0x50E SWAP2 SWAP1 PUSH2 0x7C6 JUMP JUMPDEST PUSH1 0x40 MLOAD DUP1 SWAP2 SUB SWAP1 REVERT JUMPDEST PUSH2 0x520 DUP2 PUSH2 0x650 JUMP JUMPDEST POP JUMP JUMPDEST PUSH1 0x1 PUSH1 0x20 MSTORE DUP1 PUSH0 MSTORE PUSH1 0x40 PUSH0 KECCAK256 PUSH0 SWAP2 POP SWAP1 POP DUP1 PUSH0 ADD DUP1 SLOAD PUSH2 0x542 SWAP1 PUSH2 0xB82 JUMP JUMPDEST DUP1 PUSH1 0x1F ADD PUSH1 0x20 DUP1 SWAP2 DIV MUL PUSH1 0x20 ADD PUSH1 0x40 MLOAD SWAP1 DUP2 ADD PUSH1 0x40 MSTORE DUP1 SWAP3 SWAP2 SWAP1 DUP2 DUP2 MSTORE PUSH1 0x20 ADD DUP3 DUP1 SLOAD PUSH2 0x56E SWAP1 PUSH2 0xB82 JUMP JUMPDEST DUP1 ISZERO PUSH2 0x5B9 JUMPI DUP1 PUSH1 0x1F LT PUSH2 0x590 JUMPI PUSH2 0x100 DUP1 DUP4 SLOAD DIV MUL DUP4 MSTORE SWAP2 PUSH1 0x20 ADD SWAP2 PUSH2 0x5B9 JUMP JUMPDEST DUP3 ADD SWAP2 SWAP1 PUSH0 MSTORE PUSH1 0x20 PUSH0 KECCAK256 SWAP1 JUMPDEST DUP2 SLOAD DUP2 MSTORE SWAP1 PUSH1 0x1 ADD SWAP1 PUSH1 0x20 ADD DUP1 DUP4 GT PUSH2 0x59C JUMPI DUP3 SWAP1 SUB PUSH1 0x1F AND DUP3 ADD SWAP2 JUMPDEST POP POP POP POP POP SWAP1 DUP1 PUSH1 0x1 ADD SLOAD SWAP1 POP DUP3 JUMP JUMPDEST PUSH2 0x5D1 PUSH2 0x711 JUMP JUMPDEST PUSH20 0xFFFFFFFFFFFFFFFFFFFFFFFFFFFFFFFFFFFFFFFF AND PUSH2 0x5EF PUSH2 0x382 JUMP JUMPDEST PUSH20 0xFFFFFFFFFFFFFFFFFFFFFFFFFFFFFFFFFFFFFFFF AND EQ PUSH2 0x64E JUMPI PUSH2 0x612 PUSH2 0x711 JUMP JUMPDEST PUSH1 0x40 MLOAD PUSH32 0x118CDAA700000000000000000000000000000000000000000000000000000000 DUP2 MSTORE PUSH1 0x4 ADD PUSH2 0x645 SWAP2 SWAP1 PUSH2 0x7C6 JUMP JUMPDEST PUSH1 0x40 MLOAD DUP1 SWAP2 SUB SWAP1 REVERT JUMPDEST JUMP JUMPDEST PUSH0 DUP1 PUSH0 SWAP1 SLOAD SWAP1 PUSH2 0x100 EXP SWAP1 DIV PUSH20 0xFFFFFFFFFFFFFFFFFFFFFFFFFFFFFFFFFFFFFFFF AND SWAP1 POP DUP2 PUSH0 DUP1 PUSH2 0x100 EXP DUP2 SLOAD DUP2 PUSH20 0xFFFFFFFFFFFFFFFFFFFFFFFFFFFFFFFFFFFFFFFF MUL NOT AND SWAP1 DUP4 PUSH20 0xFFFFFFFFFFFFFFFFFFFFFFFFFFFFFFFFFFFFFFFF AND MUL OR SWAP1 SSTORE POP DUP2 PUSH20 0xFFFFFFFFFFFFFFFFFFFFFFFFFFFFFFFFFFFFFFFF AND DUP2 PUSH20 0xFFFFFFFFFFFFFFFFFFFFFFFFFFFFFFFFFFFFFFFF AND PUSH32 0x8BE0079C531659141344CD1FD0A4F28419497F9722A3DAAFE3B4186F6B6457E0 PUSH1 0x40 MLOAD PUSH1 0x40 MLOAD DUP1 SWAP2 SUB SWAP1 LOG3 POP POP JUMP JUMPDEST PUSH0 CALLER SWAP1 POP SWAP1 JUMP JUMPDEST PUSH0 PUSH1 0x40 MLOAD SWAP1 POP SWAP1 JUMP JUMPDEST PUSH0 DUP1 REVERT JUMPDEST PUSH0 DUP1 REVERT JUMPDEST PUSH0 DUP2 SWAP1 POP SWAP2 SWAP1 POP JUMP JUMPDEST PUSH2 0x73B DUP2 PUSH2 0x729 JUMP JUMPDEST DUP2 EQ PUSH2 0x745 JUMPI PUSH0 DUP1 REVERT JUMPDEST POP JUMP JUMPDEST PUSH0 DUP2 CALLDATALOAD SWAP1 POP PUSH2 0x756 DUP2 PUSH2 0x732 JUMP JUMPDEST SWAP3 SWAP2 POP POP JUMP JUMPDEST PUSH0 PUSH1 0x20 DUP3 DUP5 SUB SLT ISZERO PUSH2 0x771 JUMPI PUSH2 0x770 PUSH2 0x721 JUMP JUMPDEST JUMPDEST PUSH0 PUSH2 0x77E DUP5 DUP3 DUP6 ADD PUSH2 0x748 JUMP JUMPDEST SWAP2 POP POP SWAP3 SWAP2 POP POP JUMP JUMPDEST PUSH0 PUSH20 0xFFFFFFFFFFFFFFFFFFFFFFFFFFFFFFFFFFFFFFFF DUP3 AND SWAP1 POP SWAP2 SWAP1 POP JUMP JUMPDEST PUSH0 PUSH2 0x7B0 DUP3 PUSH2 0x787 JUMP JUMPDEST SWAP1 POP SWAP2 SWAP1 POP JUMP JUMPDEST PUSH2 0x7C0 DUP2 PUSH2 0x7A6 JUMP JUMPDEST DUP3 MSTORE POP POP JUMP JUMPDEST PUSH0 PUSH1 0x20 DUP3 ADD SWAP1 POP PUSH2 0x7D9 PUSH0 DUP4 ADD DUP5 PUSH2 0x7B7 JUMP JUMPDEST SWAP3 SWAP2 POP POP JUMP JUMPDEST PUSH2 0x7E8 DUP2 PUSH2 0x7A6 JUMP JUMPDEST DUP2 EQ PUSH2 0x7F2 JUMPI PUSH0 DUP1 REVERT JUMPDEST POP JUMP JUMPDEST PUSH0 DUP2 CALLDATALOAD SWAP1 POP PUSH2 0x803 DUP2 PUSH2 0x7DF JUMP JUMPDEST SWAP3 SWAP2 POP POP JUMP JUMPDEST PUSH0 PUSH1 0x20 DUP3 DUP5 SUB SLT ISZERO PUSH2 0x81E JUMPI PUSH2 0x81D PUSH2 0x721 JUMP JUMPDEST JUMPDEST PUSH0 PUSH2 0x82B DUP5 DUP3 DUP6 ADD PUSH2 0x7F5 JUMP JUMPDEST SWAP2 POP POP SWAP3 SWAP2 POP POP JUMP JUMPDEST PUSH0 DUP2 ISZERO ISZERO SWAP1 POP SWAP2 SWAP1 POP JUMP JUMPDEST PUSH2 0x848 DUP2 PUSH2 0x834 JUMP JUMPDEST DUP3 MSTORE POP POP JUMP JUMPDEST PUSH0 PUSH1 0x20 DUP3 ADD SWAP1 POP PUSH2 0x861 PUSH0 DUP4 ADD DUP5 PUSH2 0x83F JUMP JUMPDEST SWAP3 SWAP2 POP POP JUMP JUMPDEST PUSH0 DUP1 REVERT JUMPDEST PUSH0 DUP1 REVERT JUMPDEST PUSH0 PUSH1 0x1F NOT PUSH1 0x1F DUP4 ADD AND SWAP1 POP SWAP2 SWAP1 POP JUMP JUMPDEST PUSH32 0x4E487B7100000000000000000000000000000000000000000000000000000000 PUSH0 MSTORE PUSH1 0x41 PUSH1 0x4 MSTORE PUSH1 0x24 PUSH0 REVERT JUMPDEST PUSH2 0x8B5 DUP3 PUSH2 0x86F JUMP JUMPDEST DUP2 ADD DUP2 DUP2 LT PUSH8 0xFFFFFFFFFFFFFFFF DUP3 GT OR ISZERO PUSH2 0x8D4 JUMPI PUSH2 0x8D3 PUSH2 0x87F JUMP JUMPDEST JUMPDEST DUP1 PUSH1 0x40 MSTORE POP POP POP JUMP JUMPDEST PUSH0 PUSH2 0x8E6 PUSH2 0x718 JUMP JUMPDEST SWAP1 POP PUSH2 0x8F2 DUP3 DUP3 PUSH2 0x8AC JUMP JUMPDEST SWAP2 SWAP1 POP JUMP JUMPDEST PUSH0 PUSH8 0xFFFFFFFFFFFFFFFF DUP3 GT ISZERO PUSH2 0x911 JUMPI PUSH2 0x910 PUSH2 0x87F JUMP JUMPDEST JUMPDEST PUSH2 0x91A DUP3 PUSH2 0x86F JUMP JUMPDEST SWAP1 POP PUSH1 0x20 DUP2 ADD SWAP1 POP SWAP2 SWAP1 POP JUMP JUMPDEST DUP3 DUP2 DUP4 CALLDATACOPY PUSH0 DUP4 DUP4 ADD MSTORE POP POP POP JUMP JUMPDEST PUSH0 PUSH2 0x947 PUSH2 0x942 DUP5 PUSH2 0x8F7 JUMP JUMPDEST PUSH2 0x8DD JUMP JUMPDEST SWAP1 POP DUP3 DUP2 MSTORE PUSH1 0x20 DUP2 ADD DUP5 DUP5 DUP5 ADD GT ISZERO PUSH2 0x963 JUMPI PUSH2 0x962 PUSH2 0x86B JUMP JUMPDEST JUMPDEST PUSH2 0x96E DUP5 DUP3 DUP6 PUSH2 0x927 JUMP JUMPDEST POP SWAP4 SWAP3 POP POP POP JUMP JUMPDEST PUSH0 DUP3 PUSH1 0x1F DUP4 ADD SLT PUSH2 0x98A JUMPI PUSH2 0x989 PUSH2 0x867 JUMP JUMPDEST JUMPDEST DUP2 CALLDATALOAD PUSH2 0x99A DUP5 DUP3 PUSH1 0x20 DUP7 ADD PUSH2 0x935 JUMP JUMPDEST SWAP2 POP POP SWAP3 SWAP2 POP POP JUMP JUMPDEST PUSH0 DUP1 PUSH1 0x40 DUP4 DUP6 SUB SLT ISZERO PUSH2 0x9B9 JUMPI PUSH2 0x9B8 PUSH2 0x721 JUMP JUMPDEST JUMPDEST PUSH0 DUP4 ADD CALLDATALOAD PUSH8 0xFFFFFFFFFFFFFFFF DUP2 GT ISZERO PUSH2 0x9D6 JUMPI PUSH2 0x9D5 PUSH2 0x725 JUMP JUMPDEST JUMPDEST PUSH2 0x9E2 DUP6 DUP3 DUP7 ADD PUSH2 0x976 JUMP JUMPDEST SWAP3 POP POP PUSH1 0x20 PUSH2 0x9F3 DUP6 DUP3 DUP7 ADD PUSH2 0x748 JUMP JUMPDEST SWAP2 POP POP SWAP3 POP SWAP3 SWAP1 POP JUMP JUMPDEST PUSH0 DUP2 MLOAD SWAP1 POP SWAP2 SWAP1 POP JUMP JUMPDEST PUSH0 DUP3 DUP3 MSTORE PUSH1 0x20 DUP3 ADD SWAP1 POP SWAP3 SWAP2 POP POP JUMP JUMPDEST PUSH0 JUMPDEST DUP4 DUP2 LT ISZERO PUSH2 0xA34 JUMPI DUP1 DUP3 ADD MLOAD DUP2 DUP5 ADD MSTORE PUSH1 0x20 DUP2 ADD SWAP1 POP PUSH2 0xA19 JUMP JUMPDEST PUSH0 DUP5 DUP5 ADD MSTORE POP POP POP POP JUMP JUMPDEST PUSH0 PUSH2 0xA49 DUP3 PUSH2 0x9FD JUMP JUMPDEST PUSH2 0xA53 DUP2 DUP6 PUSH2 0xA07 JUMP JUMPDEST SWAP4 POP PUSH2 0xA63 DUP2 DUP6 PUSH1 0x20 DUP7 ADD PUSH2 0xA17 JUMP JUMPDEST PUSH2 0xA6C DUP2 PUSH2 0x86F JUMP JUMPDEST DUP5 ADD SWAP2 POP POP SWAP3 SWAP2 POP POP JUMP JUMPDEST PUSH2 0xA80 DUP2 PUSH2 0x729 JUMP JUMPDEST DUP3 MSTORE POP POP JUMP JUMPDEST PUSH0 PUSH1 0x40 DUP3 ADD SWAP1 POP DUP2 DUP2 SUB PUSH0 DUP4 ADD MSTORE PUSH2 0xA9E DUP2 DUP6 PUSH2 0xA3F JUMP JUMPDEST SWAP1 POP PUSH2 0xAAD PUSH1 0x20 DUP4 ADD DUP5 PUSH2 0xA77 JUMP JUMPDEST SWAP4 SWAP3 POP POP POP JUMP JUMPDEST PUSH32 0x4E487B7100000000000000000000000000000000000000000000000000000000 PUSH0 MSTORE PUSH1 0x32 PUSH1 0x4 MSTORE PUSH1 0x24 PUSH0 REVERT JUMPDEST PUSH32 0x4E487B7100000000000000000000000000000000000000000000000000000000 PUSH0 MSTORE PUSH1 0x11 PUSH1 0x4 MSTORE PUSH1 0x24 PUSH0 REVERT JUMPDEST PUSH0 PUSH2 0xB18 DUP3 PUSH2 0x729 JUMP JUMPDEST SWAP2 POP PUSH32 0xFFFFFFFFFFFFFFFFFFFFFFFFFFFFFFFFFFFFFFFFFFFFFFFFFFFFFFFFFFFFFFFF DUP3 SUB PUSH2 0xB4A JUMPI PUSH2 0xB49 PUSH2 0xAE1 JUMP JUMPDEST JUMPDEST PUSH1 0x1 DUP3 ADD SWAP1 POP SWAP2 SWAP1 POP JUMP JUMPDEST PUSH32 0x4E487B7100000000000000000000000000000000000000000000000000000000 PUSH0 MSTORE PUSH1 0x22 PUSH1 0x4 MSTORE PUSH1 0x24 PUSH0 REVERT JUMPDEST PUSH0 PUSH1 0x2 DUP3 DIV SWAP1 POP PUSH1 0x1 DUP3 AND DUP1 PUSH2 0xB99 JUMPI PUSH1 0x7F DUP3 AND SWAP2 POP JUMPDEST PUSH1 0x20 DUP3 LT DUP2 SUB PUSH2 0xBAC JUMPI PUSH2 0xBAB PUSH2 0xB55 JUMP JUMPDEST JUMPDEST POP SWAP2 SWAP1 POP JUMP JUMPDEST PUSH0 DUP2 SWAP1 POP DUP2 PUSH0 MSTORE PUSH1 0x20 PUSH0 KECCAK256 SWAP1 POP SWAP2 SWAP1 POP JUMP JUMPDEST PUSH0 PUSH1 0x20 PUSH1 0x1F DUP4 ADD DIV SWAP1 POP SWAP2 SWAP1 POP JUMP JUMPDEST PUSH0 DUP3 DUP3 SHL SWAP1 POP SWAP3 SWAP2 POP POP JUMP JUMPDEST PUSH0 PUSH1 0x8 DUP4 MUL PUSH2 0xC0E PUSH32 0xFFFFFFFFFFFFFFFFFFFFFFFFFFFFFFFFFFFFFFFFFFFFFFFFFFFFFFFFFFFFFFFF DUP3 PUSH2 0xBD3 JUMP JUMPDEST PUSH2 0xC18 DUP7 DUP4 PUSH2 0xBD3 JUMP JUMPDEST SWAP6 POP DUP1 NOT DUP5 AND SWAP4 POP DUP1 DUP7 AND DUP5 OR SWAP3 POP POP POP SWAP4 SWAP3 POP POP POP JUMP JUMPDEST PUSH0 DUP2 SWAP1 POP SWAP2 SWAP1 POP JUMP JUMPDEST PUSH0 PUSH2 0xC53 PUSH2 0xC4E PUSH2 0xC49 DUP5 PUSH2 0x729 JUMP JUMPDEST PUSH2 0xC30 JUMP JUMPDEST PUSH2 0x729 JUMP JUMPDEST SWAP1 POP SWAP2 SWAP1 POP JUMP JUMPDEST PUSH0 DUP2 SWAP1 POP SWAP2 SWAP1 POP JUMP JUMPDEST PUSH2 0xC6C DUP4 PUSH2 0xC39 JUMP JUMPDEST PUSH2 0xC80 PUSH2 0xC78 DUP3 PUSH2 0xC5A JUMP JUMPDEST DUP5 DUP5 SLOAD PUSH2 0xBDF JUMP JUMPDEST DUP3 SSTORE POP POP POP POP JUMP JUMPDEST PUSH0 SWAP1 JUMP JUMPDEST PUSH2 0xC94 PUSH2 0xC88 JUMP JUMPDEST PUSH2 0xC9F DUP2 DUP5 DUP5 PUSH2 0xC63 JUMP JUMPDEST POP POP POP JUMP JUMPDEST JUMPDEST DUP2 DUP2 LT ISZERO PUSH2 0xCC2 JUMPI PUSH2 0xCB7 PUSH0 DUP3 PUSH2 0xC8C JUMP JUMPDEST PUSH1 0x1 DUP2 ADD SWAP1 POP PUSH2 0xCA5 JUMP JUMPDEST POP POP JUMP JUMPDEST PUSH1 0x1F DUP3 GT ISZERO PUSH2 0xD07 JUMPI PUSH2 0xCD8 DUP2 PUSH2 0xBB2 JUMP JUMPDEST PUSH2 0xCE1 DUP5 PUSH2 0xBC4 JUMP JUMPDEST DUP2 ADD PUSH1 0x20 DUP6 LT ISZERO PUSH2 0xCF0 JUMPI DUP2 SWAP1 POP JUMPDEST PUSH2 0xD04 PUSH2 0xCFC DUP6 PUSH2 0xBC4 JUMP JUMPDEST DUP4 ADD DUP3 PUSH2 0xCA4 JUMP JUMPDEST POP POP JUMPDEST POP POP POP JUMP JUMPDEST PUSH0 DUP3 DUP3 SHR SWAP1 POP SWAP3 SWAP2 POP POP JUMP JUMPDEST PUSH0 PUSH2 0xD27 PUSH0 NOT DUP5 PUSH1 0x8 MUL PUSH2 0xD0C JUMP JUMPDEST NOT DUP1 DUP4 AND SWAP2 POP POP SWAP3 SWAP2 POP POP JUMP JUMPDEST PUSH0 PUSH2 0xD3F DUP4 DUP4 PUSH2 0xD18 JUMP JUMPDEST SWAP2 POP DUP3 PUSH1 0x2 MUL DUP3 OR SWAP1 POP SWAP3 SWAP2 POP POP JUMP JUMPDEST PUSH2 0xD58 DUP3 PUSH2 0x9FD JUMP JUMPDEST PUSH8 0xFFFFFFFFFFFFFFFF DUP2 GT ISZERO PUSH2 0xD71 JUMPI PUSH2 0xD70 PUSH2 0x87F JUMP JUMPDEST JUMPDEST PUSH2 0xD7B DUP3 SLOAD PUSH2 0xB82 JUMP JUMPDEST PUSH2 0xD86 DUP3 DUP3 DUP6 PUSH2 0xCC6 JUMP JUMPDEST PUSH0 PUSH1 0x20 SWAP1 POP PUSH1 0x1F DUP4 GT PUSH1 0x1 DUP2 EQ PUSH2 0xDB7 JUMPI PUSH0 DUP5 ISZERO PUSH2 0xDA5 JUMPI DUP3 DUP8 ADD MLOAD SWAP1 POP JUMPDEST PUSH2 0xDAF DUP6 DUP3 PUSH2 0xD34 JUMP JUMPDEST DUP7 SSTORE POP PUSH2 0xE16 JUMP JUMPDEST PUSH1 0x1F NOT DUP5 AND PUSH2 0xDC5 DUP7 PUSH2 0xBB2 JUMP JUMPDEST PUSH0 JUMPDEST DUP3 DUP2 LT ISZERO PUSH2 0xDEC JUMPI DUP5 DUP10 ADD MLOAD DUP3 SSTORE PUSH1 0x1 DUP3 ADD SWAP2 POP PUSH1 0x20 DUP6 ADD SWAP5 POP PUSH1 0x20 DUP2 ADD SWAP1 POP PUSH2 0xDC7 JUMP JUMPDEST DUP7 DUP4 LT ISZERO PUSH2 0xE09 JUMPI DUP5 DUP10 ADD MLOAD PUSH2 0xE05 PUSH1 0x1F DUP10 AND DUP3 PUSH2 0xD18 JUMP JUMPDEST DUP4 SSTORE POP JUMPDEST PUSH1 0x1 PUSH1 0x2 DUP9 MUL ADD DUP9 SSTORE POP POP POP JUMPDEST POP POP POP POP POP POP JUMP INVALID LOG2 PUSH5 0x6970667358 0x22 SLT KECCAK256 EXTCODEHASH PUSH6 0x7E5A69BBEEB0 0x5C LOG3 0xF8 ISZERO CREATE 0x28 0xE6 0xCF LOG4 0xC4 0xCC GASPRICE 0xD9 0xB0 PUSH22 0xE9D1FA99F4FE8AEBAF64736F6C634300081400330000 "
				},
				"gasEstimates": {
					"creation": {
						"codeDepositCost": "733600",
						"executionCost": "infinite",
						"totalCost": "infinite"
					},
					"external": {
						"addPerson(string,uint256)": "infinite",
						"checkParticipant(address)": "infinite",
						"isAdult(address)": "infinite",
						"owner()": "2515",
						"participants(uint256)": "4945",
						"personInfo(address)": "infinite",
						"renounceOwnership()": "infinite",
						"transferOwnership(address)": "infinite"
					}
				},
				"methodIdentifiers": {
					"addPerson(string,uint256)": "6f760f41",
					"checkParticipant(address)": "5b573186",
					"isAdult(address)": "eb13ec86",
					"owner()": "8da5cb5b",
					"participants(uint256)": "35c1d349",
					"personInfo(address)": "fb113db1",
					"renounceOwnership()": "715018a6",
					"transferOwnership(address)": "f2fde38b"
				}
			},
			"storageLayout": {
				"storage": [
					{
						"astId": 8,
						"contract": "solidity-fundamentals/contracts/ExampleContract.sol:ExampleContract",
						"label": "_owner",
						"offset": 0,
						"slot": "0",
						"type": "t_address"
					},
					{
						"astId": 193,
						"contract": "solidity-fundamentals/contracts/ExampleContract.sol:ExampleContract",
						"label": "personInfo",
						"offset": 0,
						"slot": "1",
						"type": "t_mapping(t_address,t_struct(Person)188_storage)"
					},
					{
						"astId": 196,
						"contract": "solidity-fundamentals/contracts/ExampleContract.sol:ExampleContract",
						"label": "participants",
						"offset": 0,
						"slot": "2",
						"type": "t_array(t_address)dyn_storage"
					}
				],
				"types": {
					"t_address": {
						"encoding": "inplace",
						"label": "address",
						"numberOfBytes": "20"
					},
					"t_array(t_address)dyn_storage": {
						"base": "t_address",
						"encoding": "dynamic_array",
						"label": "address[]",
						"numberOfBytes": "32"
					},
					"t_mapping(t_address,t_struct(Person)188_storage)": {
						"encoding": "mapping",
						"key": "t_address",
						"label": "mapping(address => struct ExampleContract.Person)",
						"numberOfBytes": "32",
						"value": "t_struct(Person)188_storage"
					},
					"t_string_storage": {
						"encoding": "bytes",
						"label": "string",
						"numberOfBytes": "32"
					},
					"t_struct(Person)188_storage": {
						"encoding": "inplace",
						"label": "struct ExampleContract.Person",
						"members": [
							{
								"astId": 185,
								"contract": "solidity-fundamentals/contracts/ExampleContract.sol:ExampleContract",
								"label": "name",
								"offset": 0,
								"slot": "0",
								"type": "t_string_storage"
							},
							{
								"astId": 187,
								"contract": "solidity-fundamentals/contracts/ExampleContract.sol:ExampleContract",
								"label": "age",
								"offset": 0,
								"slot": "1",
								"type": "t_uint256"
							}
						],
						"numberOfBytes": "64"
					},
					"t_uint256": {
						"encoding": "inplace",
						"label": "uint256",
						"numberOfBytes": "32"
					}
				}
			},
			"userdoc": {
				"kind": "user",
				"methods": {},
				"version": 1
			}
		}
	}
}