{
	"solidity-fundamentals/contracts/GhanaAsaase.sol": {
		"GhanaAsaase": {
			"abi": [
				{
					"inputs": [
						{
							"internalType": "address",
							"name": "admin_",
							"type": "address"
						}
					],
					"stateMutability": "nonpayable",
					"type": "constructor"
				},
				{
					"inputs": [
						{
							"internalType": "string",
							"name": "",
							"type": "string"
						}
					],
					"name": "ExistingLandOwner",
					"type": "error"
				},
				{
					"inputs": [],
					"name": "NoLandOwner",
					"type": "error"
				},
				{
					"anonymous": false,
					"inputs": [
						{
							"indexed": false,
							"internalType": "string",
							"name": "landAddress",
							"type": "string"
						},
						{
							"indexed": false,
							"internalType": "string",
							"name": "oldOwner",
							"type": "string"
						},
						{
							"indexed": false,
							"internalType": "string",
							"name": "newOwner",
							"type": "string"
						}
					],
					"name": "ChangedLandOwner",
					"type": "event"
				},
				{
					"anonymous": false,
					"inputs": [
						{
							"indexed": false,
							"internalType": "string",
							"name": "landAddress",
							"type": "string"
						},
						{
							"indexed": false,
							"internalType": "string",
							"name": "owner",
							"type": "string"
						}
					],
					"name": "NewLandOwner",
					"type": "event"
				},
				{
					"inputs": [
						{
							"internalType": "string",
							"name": "landAddress",
							"type": "string"
						},
						{
							"internalType": "string",
							"name": "owner",
							"type": "string"
						}
					],
					"name": "assignOwnership",
					"outputs": [
						{
							"internalType": "bool",
							"name": "",
							"type": "bool"
						}
					],
					"stateMutability": "nonpayable",
					"type": "function"
				},
				{
					"inputs": [
						{
							"internalType": "string",
							"name": "landAddress",
							"type": "string"
						},
						{
							"internalType": "string",
							"name": "newOwner",
							"type": "string"
						}
					],
					"name": "changeOwnership",
					"outputs": [
						{
							"internalType": "bool",
							"name": "",
							"type": "bool"
						}
					],
					"stateMutability": "nonpayable",
					"type": "function"
				},
				{
					"inputs": [
						{
							"internalType": "string",
							"name": "",
							"type": "string"
						}
					],
					"name": "landOwner",
					"outputs": [
						{
							"internalType": "string",
							"name": "",
							"type": "string"
						}
					],
					"stateMutability": "view",
					"type": "function"
				}
			],
			"devdoc": {
				"kind": "dev",
				"methods": {},
				"version": 1
			},
			"evm": {
				"assembly": "    /* \"solidity-fundamentals/contracts/GhanaAsaase.sol\":58:1663  contract GhanaAsaase {... */\n  mstore(0x40, 0x80)\n    /* \"solidity-fundamentals/contracts/GhanaAsaase.sol\":391:450  constructor(address admin_) {... */\n  callvalue\n  dup1\n  iszero\n  tag_1\n  jumpi\n  0x00\n  dup1\n  revert\ntag_1:\n  pop\n  mload(0x40)\n  sub(codesize, bytecodeSize)\n  dup1\n  bytecodeSize\n  dup4\n  codecopy\n  dup2\n  dup2\n  add\n  0x40\n  mstore\n  dup2\n  add\n  swap1\n  tag_2\n  swap2\n  swap1\n  tag_3\n  jump\t// in\ntag_2:\n    /* \"solidity-fundamentals/contracts/GhanaAsaase.sol\":437:443  admin_ */\n  dup1\n    /* \"solidity-fundamentals/contracts/GhanaAsaase.sol\":429:434  admin */\n  0x00\n  dup1\n    /* \"solidity-fundamentals/contracts/GhanaAsaase.sol\":429:443  admin = admin_ */\n  0x0100\n  exp\n  dup2\n  sload\n  dup2\n  0xffffffffffffffffffffffffffffffffffffffff\n  mul\n  not\n  and\n  swap1\n  dup4\n  0xffffffffffffffffffffffffffffffffffffffff\n  and\n  mul\n  or\n  swap1\n  sstore\n  pop\n    /* \"solidity-fundamentals/contracts/GhanaAsaase.sol\":391:450  constructor(address admin_) {... */\n  pop\n    /* \"solidity-fundamentals/contracts/GhanaAsaase.sol\":58:1663  contract GhanaAsaase {... */\n  jump(tag_6)\n    /* \"#utility.yul\":88:205   */\ntag_8:\n    /* \"#utility.yul\":197:198   */\n  0x00\n    /* \"#utility.yul\":194:195   */\n  dup1\n    /* \"#utility.yul\":187:199   */\n  revert\n    /* \"#utility.yul\":334:460   */\ntag_10:\n    /* \"#utility.yul\":371:378   */\n  0x00\n    /* \"#utility.yul\":411:453   */\n  0xffffffffffffffffffffffffffffffffffffffff\n    /* \"#utility.yul\":404:409   */\n  dup3\n    /* \"#utility.yul\":400:454   */\n  and\n    /* \"#utility.yul\":389:454   */\n  swap1\n  pop\n    /* \"#utility.yul\":334:460   */\n  swap2\n  swap1\n  pop\n  jump\t// out\n    /* \"#utility.yul\":466:562   */\ntag_11:\n    /* \"#utility.yul\":503:510   */\n  0x00\n    /* \"#utility.yul\":532:556   */\n  tag_20\n    /* \"#utility.yul\":550:555   */\n  dup3\n    /* \"#utility.yul\":532:556   */\n  tag_10\n  jump\t// in\ntag_20:\n    /* \"#utility.yul\":521:556   */\n  swap1\n  pop\n    /* \"#utility.yul\":466:562   */\n  swap2\n  swap1\n  pop\n  jump\t// out\n    /* \"#utility.yul\":568:690   */\ntag_12:\n    /* \"#utility.yul\":641:665   */\n  tag_22\n    /* \"#utility.yul\":659:664   */\n  dup2\n    /* \"#utility.yul\":641:665   */\n  tag_11\n  jump\t// in\ntag_22:\n    /* \"#utility.yul\":634:639   */\n  dup2\n    /* \"#utility.yul\":631:666   */\n  eq\n    /* \"#utility.yul\":621:684   */\n  tag_23\n  jumpi\n    /* \"#utility.yul\":680:681   */\n  0x00\n    /* \"#utility.yul\":677:678   */\n  dup1\n    /* \"#utility.yul\":670:682   */\n  revert\n    /* \"#utility.yul\":621:684   */\ntag_23:\n    /* \"#utility.yul\":568:690   */\n  pop\n  jump\t// out\n    /* \"#utility.yul\":696:839   */\ntag_13:\n    /* \"#utility.yul\":753:758   */\n  0x00\n    /* \"#utility.yul\":784:790   */\n  dup2\n    /* \"#utility.yul\":778:791   */\n  mload\n    /* \"#utility.yul\":769:791   */\n  swap1\n  pop\n    /* \"#utility.yul\":800:833   */\n  tag_25\n    /* \"#utility.yul\":827:832   */\n  dup2\n    /* \"#utility.yul\":800:833   */\n  tag_12\n  jump\t// in\ntag_25:\n    /* \"#utility.yul\":696:839   */\n  swap3\n  swap2\n  pop\n  pop\n  jump\t// out\n    /* \"#utility.yul\":845:1196   */\ntag_3:\n    /* \"#utility.yul\":915:921   */\n  0x00\n    /* \"#utility.yul\":964:966   */\n  0x20\n    /* \"#utility.yul\":952:961   */\n  dup3\n    /* \"#utility.yul\":943:950   */\n  dup5\n    /* \"#utility.yul\":939:962   */\n  sub\n    /* \"#utility.yul\":935:967   */\n  slt\n    /* \"#utility.yul\":932:1051   */\n  iszero\n  tag_27\n  jumpi\n    /* \"#utility.yul\":970:1049   */\n  tag_28\n  tag_8\n  jump\t// in\ntag_28:\n    /* \"#utility.yul\":932:1051   */\ntag_27:\n    /* \"#utility.yul\":1090:1091   */\n  0x00\n    /* \"#utility.yul\":1115:1179   */\n  tag_29\n    /* \"#utility.yul\":1171:1178   */\n  dup5\n    /* \"#utility.yul\":1162:1168   */\n  dup3\n    /* \"#utility.yul\":1151:1160   */\n  dup6\n    /* \"#utility.yul\":1147:1169   */\n  add\n    /* \"#utility.yul\":1115:1179   */\n  tag_13\n  jump\t// in\ntag_29:\n    /* \"#utility.yul\":1105:1179   */\n  swap2\n  pop\n    /* \"#utility.yul\":1061:1189   */\n  pop\n    /* \"#utility.yul\":845:1196   */\n  swap3\n  swap2\n  pop\n  pop\n  jump\t// out\n    /* \"solidity-fundamentals/contracts/GhanaAsaase.sol\":58:1663  contract GhanaAsaase {... */\ntag_6:\n  dataSize(sub_0)\n  dup1\n  dataOffset(sub_0)\n  0x00\n  codecopy\n  0x00\n  return\nstop\n\nsub_0: assembly {\n        /* \"solidity-fundamentals/contracts/GhanaAsaase.sol\":58:1663  contract GhanaAsaase {... */\n      mstore(0x40, 0x80)\n      callvalue\n      dup1\n      iszero\n      tag_1\n      jumpi\n      0x00\n      dup1\n      revert\n    tag_1:\n      pop\n      jumpi(tag_2, lt(calldatasize, 0x04))\n      shr(0xe0, calldataload(0x00))\n      dup1\n      0x381eeac1\n      eq\n      tag_3\n      jumpi\n      dup1\n      0x48c24e11\n      eq\n      tag_4\n      jumpi\n      dup1\n      0x9130f38c\n      eq\n      tag_5\n      jumpi\n    tag_2:\n      0x00\n      dup1\n      revert\n        /* \"solidity-fundamentals/contracts/GhanaAsaase.sol\":1024:1280  function assignOwnership(string calldata landAddress, string calldata owner) public onlyOwner noLandOwner(landAddress) returns(bool) {        ... */\n    tag_3:\n      tag_6\n      0x04\n      dup1\n      calldatasize\n      sub\n      dup2\n      add\n      swap1\n      tag_7\n      swap2\n      swap1\n      tag_8\n      jump\t// in\n    tag_7:\n      tag_9\n      jump\t// in\n    tag_6:\n      mload(0x40)\n      tag_10\n      swap2\n      swap1\n      tag_11\n      jump\t// in\n    tag_10:\n      mload(0x40)\n      dup1\n      swap2\n      sub\n      swap1\n      return\n        /* \"solidity-fundamentals/contracts/GhanaAsaase.sol\":141:183  mapping(string => string) public landOwner */\n    tag_4:\n      tag_12\n      0x04\n      dup1\n      calldatasize\n      sub\n      dup2\n      add\n      swap1\n      tag_13\n      swap2\n      swap1\n      tag_14\n      jump\t// in\n    tag_13:\n      tag_15\n      jump\t// in\n    tag_12:\n      mload(0x40)\n      tag_16\n      swap2\n      swap1\n      tag_17\n      jump\t// in\n    tag_16:\n      mload(0x40)\n      dup1\n      swap2\n      sub\n      swap1\n      return\n        /* \"solidity-fundamentals/contracts/GhanaAsaase.sol\":1375:1661  function changeOwnership(string calldata landAddress, string calldata newOwner) public onlyOwner hasLandOwner(landAddress) returns(bool) {... */\n    tag_5:\n      tag_18\n      0x04\n      dup1\n      calldatasize\n      sub\n      dup2\n      add\n      swap1\n      tag_19\n      swap2\n      swap1\n      tag_8\n      jump\t// in\n    tag_19:\n      tag_20\n      jump\t// in\n    tag_18:\n      mload(0x40)\n      tag_21\n      swap2\n      swap1\n      tag_11\n      jump\t// in\n    tag_21:\n      mload(0x40)\n      dup1\n      swap2\n      sub\n      swap1\n      return\n        /* \"solidity-fundamentals/contracts/GhanaAsaase.sol\":1024:1280  function assignOwnership(string calldata landAddress, string calldata owner) public onlyOwner noLandOwner(landAddress) returns(bool) {        ... */\n    tag_9:\n        /* \"solidity-fundamentals/contracts/GhanaAsaase.sol\":1151:1155  bool */\n      0x00\n        /* \"solidity-fundamentals/contracts/GhanaAsaase.sol\":507:512  admin */\n      dup1\n      0x00\n      swap1\n      sload\n      swap1\n      0x0100\n      exp\n      swap1\n      div\n      0xffffffffffffffffffffffffffffffffffffffff\n      and\n        /* \"solidity-fundamentals/contracts/GhanaAsaase.sol\":493:512  msg.sender == admin */\n      0xffffffffffffffffffffffffffffffffffffffff\n      and\n        /* \"solidity-fundamentals/contracts/GhanaAsaase.sol\":493:503  msg.sender */\n      caller\n        /* \"solidity-fundamentals/contracts/GhanaAsaase.sol\":493:512  msg.sender == admin */\n      0xffffffffffffffffffffffffffffffffffffffff\n      and\n      eq\n        /* \"solidity-fundamentals/contracts/GhanaAsaase.sol\":484:543  require( msg.sender == admin, \"Only admin can make a call\") */\n      tag_23\n      jumpi\n      mload(0x40)\n      0x08c379a000000000000000000000000000000000000000000000000000000000\n      dup2\n      mstore\n      0x04\n      add\n      tag_24\n      swap1\n      tag_25\n      jump\t// in\n    tag_24:\n      mload(0x40)\n      dup1\n      swap2\n      sub\n      swap1\n      revert\n    tag_23:\n        /* \"solidity-fundamentals/contracts/GhanaAsaase.sol\":1130:1141  landAddress */\n      dup5\n      dup5\n        /* \"solidity-fundamentals/contracts/GhanaAsaase.sol\":669:670  0 */\n      0x00\n        /* \"solidity-fundamentals/contracts/GhanaAsaase.sol\":636:645  landOwner */\n      0x01\n        /* \"solidity-fundamentals/contracts/GhanaAsaase.sol\":646:657  landAddress */\n      dup4\n      dup4\n        /* \"solidity-fundamentals/contracts/GhanaAsaase.sol\":636:658  landOwner[landAddress] */\n      mload(0x40)\n      tag_27\n      swap3\n      swap2\n      swap1\n      tag_28\n      jump\t// in\n    tag_27:\n      swap1\n      dup2\n      mstore\n      0x20\n      add\n      mload(0x40)\n      dup1\n      swap2\n      sub\n      swap1\n      keccak256\n        /* \"solidity-fundamentals/contracts/GhanaAsaase.sol\":630:666  bytes(landOwner[landAddress]).length */\n      dup1\n      sload\n      tag_29\n      swap1\n      tag_30\n      jump\t// in\n    tag_29:\n      swap1\n      pop\n        /* \"solidity-fundamentals/contracts/GhanaAsaase.sol\":630:670  bytes(landOwner[landAddress]).length > 0 */\n      gt\n        /* \"solidity-fundamentals/contracts/GhanaAsaase.sol\":626:745  if (bytes(landOwner[landAddress]).length > 0) {... */\n      iszero\n      tag_31\n      jumpi\n        /* \"solidity-fundamentals/contracts/GhanaAsaase.sol\":711:720  landOwner */\n      0x01\n        /* \"solidity-fundamentals/contracts/GhanaAsaase.sol\":721:732  landAddress */\n      dup3\n      dup3\n        /* \"solidity-fundamentals/contracts/GhanaAsaase.sol\":711:733  landOwner[landAddress] */\n      mload(0x40)\n      tag_32\n      swap3\n      swap2\n      swap1\n      tag_28\n      jump\t// in\n    tag_32:\n      swap1\n      dup2\n      mstore\n      0x20\n      add\n      mload(0x40)\n      dup1\n      swap2\n      sub\n      swap1\n      keccak256\n        /* \"solidity-fundamentals/contracts/GhanaAsaase.sol\":693:734  ExistingLandOwner(landOwner[landAddress]) */\n      mload(0x40)\n      0x550d37d000000000000000000000000000000000000000000000000000000000\n      dup2\n      mstore\n      0x04\n      add\n      tag_33\n      swap2\n      swap1\n      tag_34\n      jump\t// in\n    tag_33:\n      mload(0x40)\n      dup1\n      swap2\n      sub\n      swap1\n      revert\n        /* \"solidity-fundamentals/contracts/GhanaAsaase.sol\":626:745  if (bytes(landOwner[landAddress]).length > 0) {... */\n    tag_31:\n        /* \"solidity-fundamentals/contracts/GhanaAsaase.sol\":1200:1205  owner */\n      dup5\n      dup5\n        /* \"solidity-fundamentals/contracts/GhanaAsaase.sol\":1175:1184  landOwner */\n      0x01\n        /* \"solidity-fundamentals/contracts/GhanaAsaase.sol\":1185:1196  landAddress */\n      dup10\n      dup10\n        /* \"solidity-fundamentals/contracts/GhanaAsaase.sol\":1175:1197  landOwner[landAddress] */\n      mload(0x40)\n      tag_36\n      swap3\n      swap2\n      swap1\n      tag_28\n      jump\t// in\n    tag_36:\n      swap1\n      dup2\n      mstore\n      0x20\n      add\n      mload(0x40)\n      dup1\n      swap2\n      sub\n      swap1\n      keccak256\n        /* \"solidity-fundamentals/contracts/GhanaAsaase.sol\":1175:1205  landOwner[landAddress] = owner */\n      swap2\n      dup3\n      tag_37\n      swap3\n      swap2\n      swap1\n      tag_38\n      jump\t// in\n    tag_37:\n      pop\n        /* \"solidity-fundamentals/contracts/GhanaAsaase.sol\":1220:1252  NewLandOwner(landAddress, owner) */\n      0x1009c5c1f3293ae357607a0332ae31d720e283baa8a027d166c96161feec0445\n        /* \"solidity-fundamentals/contracts/GhanaAsaase.sol\":1233:1244  landAddress */\n      dup8\n      dup8\n        /* \"solidity-fundamentals/contracts/GhanaAsaase.sol\":1246:1251  owner */\n      dup8\n      dup8\n        /* \"solidity-fundamentals/contracts/GhanaAsaase.sol\":1220:1252  NewLandOwner(landAddress, owner) */\n      mload(0x40)\n      tag_39\n      swap5\n      swap4\n      swap3\n      swap2\n      swap1\n      tag_40\n      jump\t// in\n    tag_39:\n      mload(0x40)\n      dup1\n      swap2\n      sub\n      swap1\n      log1\n        /* \"solidity-fundamentals/contracts/GhanaAsaase.sol\":1269:1273  true */\n      0x01\n        /* \"solidity-fundamentals/contracts/GhanaAsaase.sol\":1262:1273  return true */\n      swap3\n      pop\n        /* \"solidity-fundamentals/contracts/GhanaAsaase.sol\":553:554  _ */\n      pop\n      pop\n        /* \"solidity-fundamentals/contracts/GhanaAsaase.sol\":1024:1280  function assignOwnership(string calldata landAddress, string calldata owner) public onlyOwner noLandOwner(landAddress) returns(bool) {        ... */\n      swap5\n      swap4\n      pop\n      pop\n      pop\n      pop\n      jump\t// out\n        /* \"solidity-fundamentals/contracts/GhanaAsaase.sol\":141:183  mapping(string => string) public landOwner */\n    tag_15:\n      0x01\n      dup2\n      dup1\n      mload\n      0x20\n      dup2\n      add\n      dup3\n      add\n      dup1\n      mload\n      dup5\n      dup3\n      mstore\n      0x20\n      dup4\n      add\n      0x20\n      dup6\n      add\n      keccak256\n      dup2\n      dup4\n      mstore\n      dup1\n      swap6\n      pop\n      pop\n      pop\n      pop\n      pop\n      pop\n      0x00\n      swap2\n      pop\n      swap1\n      pop\n      dup1\n      sload\n      tag_41\n      swap1\n      tag_30\n      jump\t// in\n    tag_41:\n      dup1\n      0x1f\n      add\n      0x20\n      dup1\n      swap2\n      div\n      mul\n      0x20\n      add\n      mload(0x40)\n      swap1\n      dup2\n      add\n      0x40\n      mstore\n      dup1\n      swap3\n      swap2\n      swap1\n      dup2\n      dup2\n      mstore\n      0x20\n      add\n      dup3\n      dup1\n      sload\n      tag_42\n      swap1\n      tag_30\n      jump\t// in\n    tag_42:\n      dup1\n      iszero\n      tag_43\n      jumpi\n      dup1\n      0x1f\n      lt\n      tag_44\n      jumpi\n      0x0100\n      dup1\n      dup4\n      sload\n      div\n      mul\n      dup4\n      mstore\n      swap2\n      0x20\n      add\n      swap2\n      jump(tag_43)\n    tag_44:\n      dup3\n      add\n      swap2\n      swap1\n      0x00\n      mstore\n      keccak256(0x00, 0x20)\n      swap1\n    tag_45:\n      dup2\n      sload\n      dup2\n      mstore\n      swap1\n      0x01\n      add\n      swap1\n      0x20\n      add\n      dup1\n      dup4\n      gt\n      tag_45\n      jumpi\n      dup3\n      swap1\n      sub\n      0x1f\n      and\n      dup3\n      add\n      swap2\n    tag_43:\n      pop\n      pop\n      pop\n      pop\n      pop\n      dup2\n      jump\t// out\n        /* \"solidity-fundamentals/contracts/GhanaAsaase.sol\":1375:1661  function changeOwnership(string calldata landAddress, string calldata newOwner) public onlyOwner hasLandOwner(landAddress) returns(bool) {... */\n    tag_20:\n        /* \"solidity-fundamentals/contracts/GhanaAsaase.sol\":1506:1510  bool */\n      0x00\n        /* \"solidity-fundamentals/contracts/GhanaAsaase.sol\":507:512  admin */\n      dup1\n      0x00\n      swap1\n      sload\n      swap1\n      0x0100\n      exp\n      swap1\n      div\n      0xffffffffffffffffffffffffffffffffffffffff\n      and\n        /* \"solidity-fundamentals/contracts/GhanaAsaase.sol\":493:512  msg.sender == admin */\n      0xffffffffffffffffffffffffffffffffffffffff\n      and\n        /* \"solidity-fundamentals/contracts/GhanaAsaase.sol\":493:503  msg.sender */\n      caller\n        /* \"solidity-fundamentals/contracts/GhanaAsaase.sol\":493:512  msg.sender == admin */\n      0xffffffffffffffffffffffffffffffffffffffff\n      and\n      eq\n        /* \"solidity-fundamentals/contracts/GhanaAsaase.sol\":484:543  require( msg.sender == admin, \"Only admin can make a call\") */\n      tag_47\n      jumpi\n      mload(0x40)\n      0x08c379a000000000000000000000000000000000000000000000000000000000\n      dup2\n      mstore\n      0x04\n      add\n      tag_48\n      swap1\n      tag_25\n      jump\t// in\n    tag_48:\n      mload(0x40)\n      dup1\n      swap2\n      sub\n      swap1\n      revert\n    tag_47:\n        /* \"solidity-fundamentals/contracts/GhanaAsaase.sol\":1485:1496  landAddress */\n      dup5\n      dup5\n        /* \"solidity-fundamentals/contracts/GhanaAsaase.sol\":872:873  0 */\n      0x00\n        /* \"solidity-fundamentals/contracts/GhanaAsaase.sol\":838:847  landOwner */\n      0x01\n        /* \"solidity-fundamentals/contracts/GhanaAsaase.sol\":848:859  landAddress */\n      dup4\n      dup4\n        /* \"solidity-fundamentals/contracts/GhanaAsaase.sol\":838:860  landOwner[landAddress] */\n      mload(0x40)\n      tag_50\n      swap3\n      swap2\n      swap1\n      tag_28\n      jump\t// in\n    tag_50:\n      swap1\n      dup2\n      mstore\n      0x20\n      add\n      mload(0x40)\n      dup1\n      swap2\n      sub\n      swap1\n      keccak256\n        /* \"solidity-fundamentals/contracts/GhanaAsaase.sol\":832:868  bytes(landOwner[landAddress]).length */\n      dup1\n      sload\n      tag_51\n      swap1\n      tag_30\n      jump\t// in\n    tag_51:\n      swap1\n      pop\n        /* \"solidity-fundamentals/contracts/GhanaAsaase.sol\":832:873  bytes(landOwner[landAddress]).length == 0 */\n      sub\n        /* \"solidity-fundamentals/contracts/GhanaAsaase.sol\":828:920  if (bytes(landOwner[landAddress]).length == 0) {... */\n      tag_52\n      jumpi\n        /* \"solidity-fundamentals/contracts/GhanaAsaase.sol\":896:909  NoLandOwner() */\n      mload(0x40)\n      0xefe50f0f00000000000000000000000000000000000000000000000000000000\n      dup2\n      mstore\n      0x04\n      add\n      mload(0x40)\n      dup1\n      swap2\n      sub\n      swap1\n      revert\n        /* \"solidity-fundamentals/contracts/GhanaAsaase.sol\":828:920  if (bytes(landOwner[landAddress]).length == 0) {... */\n    tag_52:\n        /* \"solidity-fundamentals/contracts/GhanaAsaase.sol\":1527:1590  ChangedLandOwner(landAddress, landOwner[landAddress], newOwner) */\n      0x8efb390acdac38fb9ad7d71e79f4637d831018312584028a45757a3312e6f647\n        /* \"solidity-fundamentals/contracts/GhanaAsaase.sol\":1544:1555  landAddress */\n      dup8\n      dup8\n        /* \"solidity-fundamentals/contracts/GhanaAsaase.sol\":1557:1566  landOwner */\n      0x01\n        /* \"solidity-fundamentals/contracts/GhanaAsaase.sol\":1567:1578  landAddress */\n      dup11\n      dup11\n        /* \"solidity-fundamentals/contracts/GhanaAsaase.sol\":1557:1579  landOwner[landAddress] */\n      mload(0x40)\n      tag_54\n      swap3\n      swap2\n      swap1\n      tag_28\n      jump\t// in\n    tag_54:\n      swap1\n      dup2\n      mstore\n      0x20\n      add\n      mload(0x40)\n      dup1\n      swap2\n      sub\n      swap1\n      keccak256\n        /* \"solidity-fundamentals/contracts/GhanaAsaase.sol\":1581:1589  newOwner */\n      dup9\n      dup9\n        /* \"solidity-fundamentals/contracts/GhanaAsaase.sol\":1527:1590  ChangedLandOwner(landAddress, landOwner[landAddress], newOwner) */\n      mload(0x40)\n      tag_55\n      swap6\n      swap5\n      swap4\n      swap3\n      swap2\n      swap1\n      tag_56\n      jump\t// in\n    tag_55:\n      mload(0x40)\n      dup1\n      swap2\n      sub\n      swap1\n      log1\n        /* \"solidity-fundamentals/contracts/GhanaAsaase.sol\":1625:1633  newOwner */\n      dup5\n      dup5\n        /* \"solidity-fundamentals/contracts/GhanaAsaase.sol\":1600:1609  landOwner */\n      0x01\n        /* \"solidity-fundamentals/contracts/GhanaAsaase.sol\":1610:1621  landAddress */\n      dup10\n      dup10\n        /* \"solidity-fundamentals/contracts/GhanaAsaase.sol\":1600:1622  landOwner[landAddress] */\n      mload(0x40)\n      tag_57\n      swap3\n      swap2\n      swap1\n      tag_28\n      jump\t// in\n    tag_57:\n      swap1\n      dup2\n      mstore\n      0x20\n      add\n      mload(0x40)\n      dup1\n      swap2\n      sub\n      swap1\n      keccak256\n        /* \"solidity-fundamentals/contracts/GhanaAsaase.sol\":1600:1633  landOwner[landAddress] = newOwner */\n      swap2\n      dup3\n      tag_58\n      swap3\n      swap2\n      swap1\n      tag_38\n      jump\t// in\n    tag_58:\n      pop\n        /* \"solidity-fundamentals/contracts/GhanaAsaase.sol\":1650:1654  true */\n      0x01\n        /* \"solidity-fundamentals/contracts/GhanaAsaase.sol\":1643:1654  return true */\n      swap3\n      pop\n        /* \"solidity-fundamentals/contracts/GhanaAsaase.sol\":553:554  _ */\n      pop\n      pop\n        /* \"solidity-fundamentals/contracts/GhanaAsaase.sol\":1375:1661  function changeOwnership(string calldata landAddress, string calldata newOwner) public onlyOwner hasLandOwner(landAddress) returns(bool) {... */\n      swap5\n      swap4\n      pop\n      pop\n      pop\n      pop\n      jump\t// out\n        /* \"#utility.yul\":7:82   */\n    tag_59:\n        /* \"#utility.yul\":40:46   */\n      0x00\n        /* \"#utility.yul\":73:75   */\n      0x40\n        /* \"#utility.yul\":67:76   */\n      mload\n        /* \"#utility.yul\":57:76   */\n      swap1\n      pop\n        /* \"#utility.yul\":7:82   */\n      swap1\n      jump\t// out\n        /* \"#utility.yul\":88:205   */\n    tag_60:\n        /* \"#utility.yul\":197:198   */\n      0x00\n        /* \"#utility.yul\":194:195   */\n      dup1\n        /* \"#utility.yul\":187:199   */\n      revert\n        /* \"#utility.yul\":211:328   */\n    tag_61:\n        /* \"#utility.yul\":320:321   */\n      0x00\n        /* \"#utility.yul\":317:318   */\n      dup1\n        /* \"#utility.yul\":310:322   */\n      revert\n        /* \"#utility.yul\":334:451   */\n    tag_62:\n        /* \"#utility.yul\":443:444   */\n      0x00\n        /* \"#utility.yul\":440:441   */\n      dup1\n        /* \"#utility.yul\":433:445   */\n      revert\n        /* \"#utility.yul\":457:574   */\n    tag_63:\n        /* \"#utility.yul\":566:567   */\n      0x00\n        /* \"#utility.yul\":563:564   */\n      dup1\n        /* \"#utility.yul\":556:568   */\n      revert\n        /* \"#utility.yul\":580:697   */\n    tag_64:\n        /* \"#utility.yul\":689:690   */\n      0x00\n        /* \"#utility.yul\":686:687   */\n      dup1\n        /* \"#utility.yul\":679:691   */\n      revert\n        /* \"#utility.yul\":717:1270   */\n    tag_65:\n        /* \"#utility.yul\":775:783   */\n      0x00\n        /* \"#utility.yul\":785:791   */\n      dup1\n        /* \"#utility.yul\":835:838   */\n      dup4\n        /* \"#utility.yul\":828:832   */\n      0x1f\n        /* \"#utility.yul\":820:826   */\n      dup5\n        /* \"#utility.yul\":816:833   */\n      add\n        /* \"#utility.yul\":812:839   */\n      slt\n        /* \"#utility.yul\":802:924   */\n      tag_113\n      jumpi\n        /* \"#utility.yul\":843:922   */\n      tag_114\n      tag_62\n      jump\t// in\n    tag_114:\n        /* \"#utility.yul\":802:924   */\n    tag_113:\n        /* \"#utility.yul\":956:962   */\n      dup3\n        /* \"#utility.yul\":943:963   */\n      calldataload\n        /* \"#utility.yul\":933:963   */\n      swap1\n      pop\n        /* \"#utility.yul\":986:1004   */\n      0xffffffffffffffff\n        /* \"#utility.yul\":978:984   */\n      dup2\n        /* \"#utility.yul\":975:1005   */\n      gt\n        /* \"#utility.yul\":972:1089   */\n      iszero\n      tag_115\n      jumpi\n        /* \"#utility.yul\":1008:1087   */\n      tag_116\n      tag_63\n      jump\t// in\n    tag_116:\n        /* \"#utility.yul\":972:1089   */\n    tag_115:\n        /* \"#utility.yul\":1122:1126   */\n      0x20\n        /* \"#utility.yul\":1114:1120   */\n      dup4\n        /* \"#utility.yul\":1110:1127   */\n      add\n        /* \"#utility.yul\":1098:1127   */\n      swap2\n      pop\n        /* \"#utility.yul\":1176:1179   */\n      dup4\n        /* \"#utility.yul\":1168:1172   */\n      0x01\n        /* \"#utility.yul\":1160:1166   */\n      dup3\n        /* \"#utility.yul\":1156:1173   */\n      mul\n        /* \"#utility.yul\":1146:1154   */\n      dup4\n        /* \"#utility.yul\":1142:1174   */\n      add\n        /* \"#utility.yul\":1139:1180   */\n      gt\n        /* \"#utility.yul\":1136:1264   */\n      iszero\n      tag_117\n      jumpi\n        /* \"#utility.yul\":1183:1262   */\n      tag_118\n      tag_64\n      jump\t// in\n    tag_118:\n        /* \"#utility.yul\":1136:1264   */\n    tag_117:\n        /* \"#utility.yul\":717:1270   */\n      swap3\n      pop\n      swap3\n      swap1\n      pop\n      jump\t// out\n        /* \"#utility.yul\":1276:2150   */\n    tag_8:\n        /* \"#utility.yul\":1368:1374   */\n      0x00\n        /* \"#utility.yul\":1376:1382   */\n      dup1\n        /* \"#utility.yul\":1384:1390   */\n      0x00\n        /* \"#utility.yul\":1392:1398   */\n      dup1\n        /* \"#utility.yul\":1441:1443   */\n      0x40\n        /* \"#utility.yul\":1429:1438   */\n      dup6\n        /* \"#utility.yul\":1420:1427   */\n      dup8\n        /* \"#utility.yul\":1416:1439   */\n      sub\n        /* \"#utility.yul\":1412:1444   */\n      slt\n        /* \"#utility.yul\":1409:1528   */\n      iszero\n      tag_120\n      jumpi\n        /* \"#utility.yul\":1447:1526   */\n      tag_121\n      tag_60\n      jump\t// in\n    tag_121:\n        /* \"#utility.yul\":1409:1528   */\n    tag_120:\n        /* \"#utility.yul\":1595:1596   */\n      0x00\n        /* \"#utility.yul\":1584:1593   */\n      dup6\n        /* \"#utility.yul\":1580:1597   */\n      add\n        /* \"#utility.yul\":1567:1598   */\n      calldataload\n        /* \"#utility.yul\":1625:1643   */\n      0xffffffffffffffff\n        /* \"#utility.yul\":1617:1623   */\n      dup2\n        /* \"#utility.yul\":1614:1644   */\n      gt\n        /* \"#utility.yul\":1611:1728   */\n      iszero\n      tag_122\n      jumpi\n        /* \"#utility.yul\":1647:1726   */\n      tag_123\n      tag_61\n      jump\t// in\n    tag_123:\n        /* \"#utility.yul\":1611:1728   */\n    tag_122:\n        /* \"#utility.yul\":1760:1825   */\n      tag_124\n        /* \"#utility.yul\":1817:1824   */\n      dup8\n        /* \"#utility.yul\":1808:1814   */\n      dup3\n        /* \"#utility.yul\":1797:1806   */\n      dup9\n        /* \"#utility.yul\":1793:1815   */\n      add\n        /* \"#utility.yul\":1760:1825   */\n      tag_65\n      jump\t// in\n    tag_124:\n        /* \"#utility.yul\":1742:1825   */\n      swap5\n      pop\n      swap5\n      pop\n        /* \"#utility.yul\":1538:1835   */\n      pop\n        /* \"#utility.yul\":1902:1904   */\n      0x20\n        /* \"#utility.yul\":1891:1900   */\n      dup6\n        /* \"#utility.yul\":1887:1905   */\n      add\n        /* \"#utility.yul\":1874:1906   */\n      calldataload\n        /* \"#utility.yul\":1933:1951   */\n      0xffffffffffffffff\n        /* \"#utility.yul\":1925:1931   */\n      dup2\n        /* \"#utility.yul\":1922:1952   */\n      gt\n        /* \"#utility.yul\":1919:2036   */\n      iszero\n      tag_125\n      jumpi\n        /* \"#utility.yul\":1955:2034   */\n      tag_126\n      tag_61\n      jump\t// in\n    tag_126:\n        /* \"#utility.yul\":1919:2036   */\n    tag_125:\n        /* \"#utility.yul\":2068:2133   */\n      tag_127\n        /* \"#utility.yul\":2125:2132   */\n      dup8\n        /* \"#utility.yul\":2116:2122   */\n      dup3\n        /* \"#utility.yul\":2105:2114   */\n      dup9\n        /* \"#utility.yul\":2101:2123   */\n      add\n        /* \"#utility.yul\":2068:2133   */\n      tag_65\n      jump\t// in\n    tag_127:\n        /* \"#utility.yul\":2050:2133   */\n      swap3\n      pop\n      swap3\n      pop\n        /* \"#utility.yul\":1845:2143   */\n      pop\n        /* \"#utility.yul\":1276:2150   */\n      swap3\n      swap6\n      swap2\n      swap5\n      pop\n      swap3\n      pop\n      jump\t// out\n        /* \"#utility.yul\":2156:2246   */\n    tag_66:\n        /* \"#utility.yul\":2190:2197   */\n      0x00\n        /* \"#utility.yul\":2233:2238   */\n      dup2\n        /* \"#utility.yul\":2226:2239   */\n      iszero\n        /* \"#utility.yul\":2219:2240   */\n      iszero\n        /* \"#utility.yul\":2208:2240   */\n      swap1\n      pop\n        /* \"#utility.yul\":2156:2246   */\n      swap2\n      swap1\n      pop\n      jump\t// out\n        /* \"#utility.yul\":2252:2361   */\n    tag_67:\n        /* \"#utility.yul\":2333:2354   */\n      tag_130\n        /* \"#utility.yul\":2348:2353   */\n      dup2\n        /* \"#utility.yul\":2333:2354   */\n      tag_66\n      jump\t// in\n    tag_130:\n        /* \"#utility.yul\":2328:2331   */\n      dup3\n        /* \"#utility.yul\":2321:2355   */\n      mstore\n        /* \"#utility.yul\":2252:2361   */\n      pop\n      pop\n      jump\t// out\n        /* \"#utility.yul\":2367:2577   */\n    tag_11:\n        /* \"#utility.yul\":2454:2458   */\n      0x00\n        /* \"#utility.yul\":2492:2494   */\n      0x20\n        /* \"#utility.yul\":2481:2490   */\n      dup3\n        /* \"#utility.yul\":2477:2495   */\n      add\n        /* \"#utility.yul\":2469:2495   */\n      swap1\n      pop\n        /* \"#utility.yul\":2505:2570   */\n      tag_132\n        /* \"#utility.yul\":2567:2568   */\n      0x00\n        /* \"#utility.yul\":2556:2565   */\n      dup4\n        /* \"#utility.yul\":2552:2569   */\n      add\n        /* \"#utility.yul\":2543:2549   */\n      dup5\n        /* \"#utility.yul\":2505:2570   */\n      tag_67\n      jump\t// in\n    tag_132:\n        /* \"#utility.yul\":2367:2577   */\n      swap3\n      swap2\n      pop\n      pop\n      jump\t// out\n        /* \"#utility.yul\":2583:2700   */\n    tag_68:\n        /* \"#utility.yul\":2692:2693   */\n      0x00\n        /* \"#utility.yul\":2689:2690   */\n      dup1\n        /* \"#utility.yul\":2682:2694   */\n      revert\n        /* \"#utility.yul\":2706:2808   */\n    tag_69:\n        /* \"#utility.yul\":2747:2753   */\n      0x00\n        /* \"#utility.yul\":2798:2800   */\n      0x1f\n        /* \"#utility.yul\":2794:2801   */\n      not\n        /* \"#utility.yul\":2789:2791   */\n      0x1f\n        /* \"#utility.yul\":2782:2787   */\n      dup4\n        /* \"#utility.yul\":2778:2792   */\n      add\n        /* \"#utility.yul\":2774:2802   */\n      and\n        /* \"#utility.yul\":2764:2802   */\n      swap1\n      pop\n        /* \"#utility.yul\":2706:2808   */\n      swap2\n      swap1\n      pop\n      jump\t// out\n        /* \"#utility.yul\":2814:2994   */\n    tag_70:\n        /* \"#utility.yul\":2862:2939   */\n      0x4e487b7100000000000000000000000000000000000000000000000000000000\n        /* \"#utility.yul\":2859:2860   */\n      0x00\n        /* \"#utility.yul\":2852:2940   */\n      mstore\n        /* \"#utility.yul\":2959:2963   */\n      0x41\n        /* \"#utility.yul\":2956:2957   */\n      0x04\n        /* \"#utility.yul\":2949:2964   */\n      mstore\n        /* \"#utility.yul\":2983:2987   */\n      0x24\n        /* \"#utility.yul\":2980:2981   */\n      0x00\n        /* \"#utility.yul\":2973:2988   */\n      revert\n        /* \"#utility.yul\":3000:3281   */\n    tag_71:\n        /* \"#utility.yul\":3083:3110   */\n      tag_137\n        /* \"#utility.yul\":3105:3109   */\n      dup3\n        /* \"#utility.yul\":3083:3110   */\n      tag_69\n      jump\t// in\n    tag_137:\n        /* \"#utility.yul\":3075:3081   */\n      dup2\n        /* \"#utility.yul\":3071:3111   */\n      add\n        /* \"#utility.yul\":3213:3219   */\n      dup2\n        /* \"#utility.yul\":3201:3211   */\n      dup2\n        /* \"#utility.yul\":3198:3220   */\n      lt\n        /* \"#utility.yul\":3177:3195   */\n      0xffffffffffffffff\n        /* \"#utility.yul\":3165:3175   */\n      dup3\n        /* \"#utility.yul\":3162:3196   */\n      gt\n        /* \"#utility.yul\":3159:3221   */\n      or\n        /* \"#utility.yul\":3156:3244   */\n      iszero\n      tag_138\n      jumpi\n        /* \"#utility.yul\":3224:3242   */\n      tag_139\n      tag_70\n      jump\t// in\n    tag_139:\n        /* \"#utility.yul\":3156:3244   */\n    tag_138:\n        /* \"#utility.yul\":3264:3274   */\n      dup1\n        /* \"#utility.yul\":3260:3262   */\n      0x40\n        /* \"#utility.yul\":3253:3275   */\n      mstore\n        /* \"#utility.yul\":3043:3281   */\n      pop\n        /* \"#utility.yul\":3000:3281   */\n      pop\n      pop\n      jump\t// out\n        /* \"#utility.yul\":3287:3416   */\n    tag_72:\n        /* \"#utility.yul\":3321:3327   */\n      0x00\n        /* \"#utility.yul\":3348:3368   */\n      tag_141\n      tag_59\n      jump\t// in\n    tag_141:\n        /* \"#utility.yul\":3338:3368   */\n      swap1\n      pop\n        /* \"#utility.yul\":3377:3410   */\n      tag_142\n        /* \"#utility.yul\":3405:3409   */\n      dup3\n        /* \"#utility.yul\":3397:3403   */\n      dup3\n        /* \"#utility.yul\":3377:3410   */\n      tag_71\n      jump\t// in\n    tag_142:\n        /* \"#utility.yul\":3287:3416   */\n      swap2\n      swap1\n      pop\n      jump\t// out\n        /* \"#utility.yul\":3422:3730   */\n    tag_73:\n        /* \"#utility.yul\":3484:3488   */\n      0x00\n        /* \"#utility.yul\":3574:3592   */\n      0xffffffffffffffff\n        /* \"#utility.yul\":3566:3572   */\n      dup3\n        /* \"#utility.yul\":3563:3593   */\n      gt\n        /* \"#utility.yul\":3560:3616   */\n      iszero\n      tag_144\n      jumpi\n        /* \"#utility.yul\":3596:3614   */\n      tag_145\n      tag_70\n      jump\t// in\n    tag_145:\n        /* \"#utility.yul\":3560:3616   */\n    tag_144:\n        /* \"#utility.yul\":3634:3663   */\n      tag_146\n        /* \"#utility.yul\":3656:3662   */\n      dup3\n        /* \"#utility.yul\":3634:3663   */\n      tag_69\n      jump\t// in\n    tag_146:\n        /* \"#utility.yul\":3626:3663   */\n      swap1\n      pop\n        /* \"#utility.yul\":3718:3722   */\n      0x20\n        /* \"#utility.yul\":3712:3716   */\n      dup2\n        /* \"#utility.yul\":3708:3723   */\n      add\n        /* \"#utility.yul\":3700:3723   */\n      swap1\n      pop\n        /* \"#utility.yul\":3422:3730   */\n      swap2\n      swap1\n      pop\n      jump\t// out\n        /* \"#utility.yul\":3736:3882   */\n    tag_74:\n        /* \"#utility.yul\":3833:3839   */\n      dup3\n        /* \"#utility.yul\":3828:3831   */\n      dup2\n        /* \"#utility.yul\":3823:3826   */\n      dup4\n        /* \"#utility.yul\":3810:3840   */\n      calldatacopy\n        /* \"#utility.yul\":3874:3875   */\n      0x00\n        /* \"#utility.yul\":3865:3871   */\n      dup4\n        /* \"#utility.yul\":3860:3863   */\n      dup4\n        /* \"#utility.yul\":3856:3872   */\n      add\n        /* \"#utility.yul\":3849:3876   */\n      mstore\n        /* \"#utility.yul\":3736:3882   */\n      pop\n      pop\n      pop\n      jump\t// out\n        /* \"#utility.yul\":3888:4313   */\n    tag_75:\n        /* \"#utility.yul\":3966:3971   */\n      0x00\n        /* \"#utility.yul\":3991:4057   */\n      tag_149\n        /* \"#utility.yul\":4007:4056   */\n      tag_150\n        /* \"#utility.yul\":4049:4055   */\n      dup5\n        /* \"#utility.yul\":4007:4056   */\n      tag_73\n      jump\t// in\n    tag_150:\n        /* \"#utility.yul\":3991:4057   */\n      tag_72\n      jump\t// in\n    tag_149:\n        /* \"#utility.yul\":3982:4057   */\n      swap1\n      pop\n        /* \"#utility.yul\":4080:4086   */\n      dup3\n        /* \"#utility.yul\":4073:4078   */\n      dup2\n        /* \"#utility.yul\":4066:4087   */\n      mstore\n        /* \"#utility.yul\":4118:4122   */\n      0x20\n        /* \"#utility.yul\":4111:4116   */\n      dup2\n        /* \"#utility.yul\":4107:4123   */\n      add\n        /* \"#utility.yul\":4156:4159   */\n      dup5\n        /* \"#utility.yul\":4147:4153   */\n      dup5\n        /* \"#utility.yul\":4142:4145   */\n      dup5\n        /* \"#utility.yul\":4138:4154   */\n      add\n        /* \"#utility.yul\":4135:4160   */\n      gt\n        /* \"#utility.yul\":4132:4244   */\n      iszero\n      tag_151\n      jumpi\n        /* \"#utility.yul\":4163:4242   */\n      tag_152\n      tag_68\n      jump\t// in\n    tag_152:\n        /* \"#utility.yul\":4132:4244   */\n    tag_151:\n        /* \"#utility.yul\":4253:4307   */\n      tag_153\n        /* \"#utility.yul\":4300:4306   */\n      dup5\n        /* \"#utility.yul\":4295:4298   */\n      dup3\n        /* \"#utility.yul\":4290:4293   */\n      dup6\n        /* \"#utility.yul\":4253:4307   */\n      tag_74\n      jump\t// in\n    tag_153:\n        /* \"#utility.yul\":3972:4313   */\n      pop\n        /* \"#utility.yul\":3888:4313   */\n      swap4\n      swap3\n      pop\n      pop\n      pop\n      jump\t// out\n        /* \"#utility.yul\":4333:4673   */\n    tag_76:\n        /* \"#utility.yul\":4389:4394   */\n      0x00\n        /* \"#utility.yul\":4438:4441   */\n      dup3\n        /* \"#utility.yul\":4431:4435   */\n      0x1f\n        /* \"#utility.yul\":4423:4429   */\n      dup4\n        /* \"#utility.yul\":4419:4436   */\n      add\n        /* \"#utility.yul\":4415:4442   */\n      slt\n        /* \"#utility.yul\":4405:4527   */\n      tag_155\n      jumpi\n        /* \"#utility.yul\":4446:4525   */\n      tag_156\n      tag_62\n      jump\t// in\n    tag_156:\n        /* \"#utility.yul\":4405:4527   */\n    tag_155:\n        /* \"#utility.yul\":4563:4569   */\n      dup2\n        /* \"#utility.yul\":4550:4570   */\n      calldataload\n        /* \"#utility.yul\":4588:4667   */\n      tag_157\n        /* \"#utility.yul\":4663:4666   */\n      dup5\n        /* \"#utility.yul\":4655:4661   */\n      dup3\n        /* \"#utility.yul\":4648:4652   */\n      0x20\n        /* \"#utility.yul\":4640:4646   */\n      dup7\n        /* \"#utility.yul\":4636:4653   */\n      add\n        /* \"#utility.yul\":4588:4667   */\n      tag_75\n      jump\t// in\n    tag_157:\n        /* \"#utility.yul\":4579:4667   */\n      swap2\n      pop\n        /* \"#utility.yul\":4395:4673   */\n      pop\n        /* \"#utility.yul\":4333:4673   */\n      swap3\n      swap2\n      pop\n      pop\n      jump\t// out\n        /* \"#utility.yul\":4679:5188   */\n    tag_14:\n        /* \"#utility.yul\":4748:4754   */\n      0x00\n        /* \"#utility.yul\":4797:4799   */\n      0x20\n        /* \"#utility.yul\":4785:4794   */\n      dup3\n        /* \"#utility.yul\":4776:4783   */\n      dup5\n        /* \"#utility.yul\":4772:4795   */\n      sub\n        /* \"#utility.yul\":4768:4800   */\n      slt\n        /* \"#utility.yul\":4765:4884   */\n      iszero\n      tag_159\n      jumpi\n        /* \"#utility.yul\":4803:4882   */\n      tag_160\n      tag_60\n      jump\t// in\n    tag_160:\n        /* \"#utility.yul\":4765:4884   */\n    tag_159:\n        /* \"#utility.yul\":4951:4952   */\n      0x00\n        /* \"#utility.yul\":4940:4949   */\n      dup3\n        /* \"#utility.yul\":4936:4953   */\n      add\n        /* \"#utility.yul\":4923:4954   */\n      calldataload\n        /* \"#utility.yul\":4981:4999   */\n      0xffffffffffffffff\n        /* \"#utility.yul\":4973:4979   */\n      dup2\n        /* \"#utility.yul\":4970:5000   */\n      gt\n        /* \"#utility.yul\":4967:5084   */\n      iszero\n      tag_161\n      jumpi\n        /* \"#utility.yul\":5003:5082   */\n      tag_162\n      tag_61\n      jump\t// in\n    tag_162:\n        /* \"#utility.yul\":4967:5084   */\n    tag_161:\n        /* \"#utility.yul\":5108:5171   */\n      tag_163\n        /* \"#utility.yul\":5163:5170   */\n      dup5\n        /* \"#utility.yul\":5154:5160   */\n      dup3\n        /* \"#utility.yul\":5143:5152   */\n      dup6\n        /* \"#utility.yul\":5139:5161   */\n      add\n        /* \"#utility.yul\":5108:5171   */\n      tag_76\n      jump\t// in\n    tag_163:\n        /* \"#utility.yul\":5098:5171   */\n      swap2\n      pop\n        /* \"#utility.yul\":4894:5181   */\n      pop\n        /* \"#utility.yul\":4679:5188   */\n      swap3\n      swap2\n      pop\n      pop\n      jump\t// out\n        /* \"#utility.yul\":5194:5293   */\n    tag_77:\n        /* \"#utility.yul\":5246:5252   */\n      0x00\n        /* \"#utility.yul\":5280:5285   */\n      dup2\n        /* \"#utility.yul\":5274:5286   */\n      mload\n        /* \"#utility.yul\":5264:5286   */\n      swap1\n      pop\n        /* \"#utility.yul\":5194:5293   */\n      swap2\n      swap1\n      pop\n      jump\t// out\n        /* \"#utility.yul\":5299:5468   */\n    tag_78:\n        /* \"#utility.yul\":5383:5394   */\n      0x00\n        /* \"#utility.yul\":5417:5423   */\n      dup3\n        /* \"#utility.yul\":5412:5415   */\n      dup3\n        /* \"#utility.yul\":5405:5424   */\n      mstore\n        /* \"#utility.yul\":5457:5461   */\n      0x20\n        /* \"#utility.yul\":5452:5455   */\n      dup3\n        /* \"#utility.yul\":5448:5462   */\n      add\n        /* \"#utility.yul\":5433:5462   */\n      swap1\n      pop\n        /* \"#utility.yul\":5299:5468   */\n      swap3\n      swap2\n      pop\n      pop\n      jump\t// out\n        /* \"#utility.yul\":5474:5720   */\n    tag_79:\n        /* \"#utility.yul\":5555:5556   */\n      0x00\n        /* \"#utility.yul\":5565:5678   */\n    tag_167:\n        /* \"#utility.yul\":5579:5585   */\n      dup4\n        /* \"#utility.yul\":5576:5577   */\n      dup2\n        /* \"#utility.yul\":5573:5586   */\n      lt\n        /* \"#utility.yul\":5565:5678   */\n      iszero\n      tag_169\n      jumpi\n        /* \"#utility.yul\":5664:5665   */\n      dup1\n        /* \"#utility.yul\":5659:5662   */\n      dup3\n        /* \"#utility.yul\":5655:5666   */\n      add\n        /* \"#utility.yul\":5649:5667   */\n      mload\n        /* \"#utility.yul\":5645:5646   */\n      dup2\n        /* \"#utility.yul\":5640:5643   */\n      dup5\n        /* \"#utility.yul\":5636:5647   */\n      add\n        /* \"#utility.yul\":5629:5668   */\n      mstore\n        /* \"#utility.yul\":5601:5603   */\n      0x20\n        /* \"#utility.yul\":5598:5599   */\n      dup2\n        /* \"#utility.yul\":5594:5604   */\n      add\n        /* \"#utility.yul\":5589:5604   */\n      swap1\n      pop\n        /* \"#utility.yul\":5565:5678   */\n      jump(tag_167)\n    tag_169:\n        /* \"#utility.yul\":5712:5713   */\n      0x00\n        /* \"#utility.yul\":5703:5709   */\n      dup5\n        /* \"#utility.yul\":5698:5701   */\n      dup5\n        /* \"#utility.yul\":5694:5710   */\n      add\n        /* \"#utility.yul\":5687:5714   */\n      mstore\n        /* \"#utility.yul\":5536:5720   */\n      pop\n        /* \"#utility.yul\":5474:5720   */\n      pop\n      pop\n      pop\n      jump\t// out\n        /* \"#utility.yul\":5726:6103   */\n    tag_80:\n        /* \"#utility.yul\":5814:5817   */\n      0x00\n        /* \"#utility.yul\":5842:5881   */\n      tag_171\n        /* \"#utility.yul\":5875:5880   */\n      dup3\n        /* \"#utility.yul\":5842:5881   */\n      tag_77\n      jump\t// in\n    tag_171:\n        /* \"#utility.yul\":5897:5968   */\n      tag_172\n        /* \"#utility.yul\":5961:5967   */\n      dup2\n        /* \"#utility.yul\":5956:5959   */\n      dup6\n        /* \"#utility.yul\":5897:5968   */\n      tag_78\n      jump\t// in\n    tag_172:\n        /* \"#utility.yul\":5890:5968   */\n      swap4\n      pop\n        /* \"#utility.yul\":5977:6042   */\n      tag_173\n        /* \"#utility.yul\":6035:6041   */\n      dup2\n        /* \"#utility.yul\":6030:6033   */\n      dup6\n        /* \"#utility.yul\":6023:6027   */\n      0x20\n        /* \"#utility.yul\":6016:6021   */\n      dup7\n        /* \"#utility.yul\":6012:6028   */\n      add\n        /* \"#utility.yul\":5977:6042   */\n      tag_79\n      jump\t// in\n    tag_173:\n        /* \"#utility.yul\":6067:6096   */\n      tag_174\n        /* \"#utility.yul\":6089:6095   */\n      dup2\n        /* \"#utility.yul\":6067:6096   */\n      tag_69\n      jump\t// in\n    tag_174:\n        /* \"#utility.yul\":6062:6065   */\n      dup5\n        /* \"#utility.yul\":6058:6097   */\n      add\n        /* \"#utility.yul\":6051:6097   */\n      swap2\n      pop\n        /* \"#utility.yul\":5818:6103   */\n      pop\n        /* \"#utility.yul\":5726:6103   */\n      swap3\n      swap2\n      pop\n      pop\n      jump\t// out\n        /* \"#utility.yul\":6109:6422   */\n    tag_17:\n        /* \"#utility.yul\":6222:6226   */\n      0x00\n        /* \"#utility.yul\":6260:6262   */\n      0x20\n        /* \"#utility.yul\":6249:6258   */\n      dup3\n        /* \"#utility.yul\":6245:6263   */\n      add\n        /* \"#utility.yul\":6237:6263   */\n      swap1\n      pop\n        /* \"#utility.yul\":6309:6318   */\n      dup2\n        /* \"#utility.yul\":6303:6307   */\n      dup2\n        /* \"#utility.yul\":6299:6319   */\n      sub\n        /* \"#utility.yul\":6295:6296   */\n      0x00\n        /* \"#utility.yul\":6284:6293   */\n      dup4\n        /* \"#utility.yul\":6280:6297   */\n      add\n        /* \"#utility.yul\":6273:6320   */\n      mstore\n        /* \"#utility.yul\":6337:6415   */\n      tag_176\n        /* \"#utility.yul\":6410:6414   */\n      dup2\n        /* \"#utility.yul\":6401:6407   */\n      dup5\n        /* \"#utility.yul\":6337:6415   */\n      tag_80\n      jump\t// in\n    tag_176:\n        /* \"#utility.yul\":6329:6415   */\n      swap1\n      pop\n        /* \"#utility.yul\":6109:6422   */\n      swap3\n      swap2\n      pop\n      pop\n      jump\t// out\n        /* \"#utility.yul\":6428:6604   */\n    tag_81:\n        /* \"#utility.yul\":6568:6596   */\n      0x4f6e6c792061646d696e2063616e206d616b6520612063616c6c000000000000\n        /* \"#utility.yul\":6564:6565   */\n      0x00\n        /* \"#utility.yul\":6556:6562   */\n      dup3\n        /* \"#utility.yul\":6552:6566   */\n      add\n        /* \"#utility.yul\":6545:6597   */\n      mstore\n        /* \"#utility.yul\":6428:6604   */\n      pop\n      jump\t// out\n        /* \"#utility.yul\":6610:6976   */\n    tag_82:\n        /* \"#utility.yul\":6752:6755   */\n      0x00\n        /* \"#utility.yul\":6773:6840   */\n      tag_179\n        /* \"#utility.yul\":6837:6839   */\n      0x1a\n        /* \"#utility.yul\":6832:6835   */\n      dup4\n        /* \"#utility.yul\":6773:6840   */\n      tag_78\n      jump\t// in\n    tag_179:\n        /* \"#utility.yul\":6766:6840   */\n      swap2\n      pop\n        /* \"#utility.yul\":6849:6942   */\n      tag_180\n        /* \"#utility.yul\":6938:6941   */\n      dup3\n        /* \"#utility.yul\":6849:6942   */\n      tag_81\n      jump\t// in\n    tag_180:\n        /* \"#utility.yul\":6967:6969   */\n      0x20\n        /* \"#utility.yul\":6962:6965   */\n      dup3\n        /* \"#utility.yul\":6958:6970   */\n      add\n        /* \"#utility.yul\":6951:6970   */\n      swap1\n      pop\n        /* \"#utility.yul\":6610:6976   */\n      swap2\n      swap1\n      pop\n      jump\t// out\n        /* \"#utility.yul\":6982:7401   */\n    tag_25:\n        /* \"#utility.yul\":7148:7152   */\n      0x00\n        /* \"#utility.yul\":7186:7188   */\n      0x20\n        /* \"#utility.yul\":7175:7184   */\n      dup3\n        /* \"#utility.yul\":7171:7189   */\n      add\n        /* \"#utility.yul\":7163:7189   */\n      swap1\n      pop\n        /* \"#utility.yul\":7235:7244   */\n      dup2\n        /* \"#utility.yul\":7229:7233   */\n      dup2\n        /* \"#utility.yul\":7225:7245   */\n      sub\n        /* \"#utility.yul\":7221:7222   */\n      0x00\n        /* \"#utility.yul\":7210:7219   */\n      dup4\n        /* \"#utility.yul\":7206:7223   */\n      add\n        /* \"#utility.yul\":7199:7246   */\n      mstore\n        /* \"#utility.yul\":7263:7394   */\n      tag_182\n        /* \"#utility.yul\":7389:7393   */\n      dup2\n        /* \"#utility.yul\":7263:7394   */\n      tag_82\n      jump\t// in\n    tag_182:\n        /* \"#utility.yul\":7255:7394   */\n      swap1\n      pop\n        /* \"#utility.yul\":6982:7401   */\n      swap2\n      swap1\n      pop\n      jump\t// out\n        /* \"#utility.yul\":7407:7555   */\n    tag_83:\n        /* \"#utility.yul\":7509:7520   */\n      0x00\n        /* \"#utility.yul\":7546:7549   */\n      dup2\n        /* \"#utility.yul\":7531:7549   */\n      swap1\n      pop\n        /* \"#utility.yul\":7407:7555   */\n      swap3\n      swap2\n      pop\n      pop\n      jump\t// out\n        /* \"#utility.yul\":7585:7915   */\n    tag_84:\n        /* \"#utility.yul\":7701:7704   */\n      0x00\n        /* \"#utility.yul\":7722:7811   */\n      tag_185\n        /* \"#utility.yul\":7804:7810   */\n      dup4\n        /* \"#utility.yul\":7799:7802   */\n      dup6\n        /* \"#utility.yul\":7722:7811   */\n      tag_83\n      jump\t// in\n    tag_185:\n        /* \"#utility.yul\":7715:7811   */\n      swap4\n      pop\n        /* \"#utility.yul\":7821:7877   */\n      tag_186\n        /* \"#utility.yul\":7870:7876   */\n      dup4\n        /* \"#utility.yul\":7865:7868   */\n      dup6\n        /* \"#utility.yul\":7858:7863   */\n      dup5\n        /* \"#utility.yul\":7821:7877   */\n      tag_74\n      jump\t// in\n    tag_186:\n        /* \"#utility.yul\":7902:7908   */\n      dup3\n        /* \"#utility.yul\":7897:7900   */\n      dup5\n        /* \"#utility.yul\":7893:7909   */\n      add\n        /* \"#utility.yul\":7886:7909   */\n      swap1\n      pop\n        /* \"#utility.yul\":7585:7915   */\n      swap4\n      swap3\n      pop\n      pop\n      pop\n      jump\t// out\n        /* \"#utility.yul\":7921:8216   */\n    tag_28:\n        /* \"#utility.yul\":8063:8066   */\n      0x00\n        /* \"#utility.yul\":8085:8190   */\n      tag_188\n        /* \"#utility.yul\":8186:8189   */\n      dup3\n        /* \"#utility.yul\":8177:8183   */\n      dup5\n        /* \"#utility.yul\":8169:8175   */\n      dup7\n        /* \"#utility.yul\":8085:8190   */\n      tag_84\n      jump\t// in\n    tag_188:\n        /* \"#utility.yul\":8078:8190   */\n      swap2\n      pop\n        /* \"#utility.yul\":8207:8210   */\n      dup2\n        /* \"#utility.yul\":8200:8210   */\n      swap1\n      pop\n        /* \"#utility.yul\":7921:8216   */\n      swap4\n      swap3\n      pop\n      pop\n      pop\n      jump\t// out\n        /* \"#utility.yul\":8222:8402   */\n    tag_85:\n        /* \"#utility.yul\":8270:8347   */\n      0x4e487b7100000000000000000000000000000000000000000000000000000000\n        /* \"#utility.yul\":8267:8268   */\n      0x00\n        /* \"#utility.yul\":8260:8348   */\n      mstore\n        /* \"#utility.yul\":8367:8371   */\n      0x22\n        /* \"#utility.yul\":8364:8365   */\n      0x04\n        /* \"#utility.yul\":8357:8372   */\n      mstore\n        /* \"#utility.yul\":8391:8395   */\n      0x24\n        /* \"#utility.yul\":8388:8389   */\n      0x00\n        /* \"#utility.yul\":8381:8396   */\n      revert\n        /* \"#utility.yul\":8408:8728   */\n    tag_30:\n        /* \"#utility.yul\":8452:8458   */\n      0x00\n        /* \"#utility.yul\":8489:8490   */\n      0x02\n        /* \"#utility.yul\":8483:8487   */\n      dup3\n        /* \"#utility.yul\":8479:8491   */\n      div\n        /* \"#utility.yul\":8469:8491   */\n      swap1\n      pop\n        /* \"#utility.yul\":8536:8537   */\n      0x01\n        /* \"#utility.yul\":8530:8534   */\n      dup3\n        /* \"#utility.yul\":8526:8538   */\n      and\n        /* \"#utility.yul\":8557:8575   */\n      dup1\n        /* \"#utility.yul\":8547:8628   */\n      tag_191\n      jumpi\n        /* \"#utility.yul\":8613:8617   */\n      0x7f\n        /* \"#utility.yul\":8605:8611   */\n      dup3\n        /* \"#utility.yul\":8601:8618   */\n      and\n        /* \"#utility.yul\":8591:8618   */\n      swap2\n      pop\n        /* \"#utility.yul\":8547:8628   */\n    tag_191:\n        /* \"#utility.yul\":8675:8677   */\n      0x20\n        /* \"#utility.yul\":8667:8673   */\n      dup3\n        /* \"#utility.yul\":8664:8678   */\n      lt\n        /* \"#utility.yul\":8644:8662   */\n      dup2\n        /* \"#utility.yul\":8641:8679   */\n      sub\n        /* \"#utility.yul\":8638:8722   */\n      tag_192\n      jumpi\n        /* \"#utility.yul\":8694:8712   */\n      tag_193\n      tag_85\n      jump\t// in\n    tag_193:\n        /* \"#utility.yul\":8638:8722   */\n    tag_192:\n        /* \"#utility.yul\":8459:8728   */\n      pop\n        /* \"#utility.yul\":8408:8728   */\n      swap2\n      swap1\n      pop\n      jump\t// out\n        /* \"#utility.yul\":8734:8875   */\n    tag_86:\n        /* \"#utility.yul\":8783:8787   */\n      0x00\n        /* \"#utility.yul\":8806:8809   */\n      dup2\n        /* \"#utility.yul\":8798:8809   */\n      swap1\n      pop\n        /* \"#utility.yul\":8829:8832   */\n      dup2\n        /* \"#utility.yul\":8826:8827   */\n      0x00\n        /* \"#utility.yul\":8819:8833   */\n      mstore\n        /* \"#utility.yul\":8863:8867   */\n      0x20\n        /* \"#utility.yul\":8860:8861   */\n      0x00\n        /* \"#utility.yul\":8850:8868   */\n      keccak256\n        /* \"#utility.yul\":8842:8868   */\n      swap1\n      pop\n        /* \"#utility.yul\":8734:8875   */\n      swap2\n      swap1\n      pop\n      jump\t// out\n        /* \"#utility.yul\":8905:9736   */\n    tag_87:\n        /* \"#utility.yul\":8990:8993   */\n      0x00\n        /* \"#utility.yul\":9027:9032   */\n      dup2\n        /* \"#utility.yul\":9021:9033   */\n      sload\n        /* \"#utility.yul\":9056:9092   */\n      tag_196\n        /* \"#utility.yul\":9082:9091   */\n      dup2\n        /* \"#utility.yul\":9056:9092   */\n      tag_30\n      jump\t// in\n    tag_196:\n        /* \"#utility.yul\":9108:9179   */\n      tag_197\n        /* \"#utility.yul\":9172:9178   */\n      dup2\n        /* \"#utility.yul\":9167:9170   */\n      dup7\n        /* \"#utility.yul\":9108:9179   */\n      tag_78\n      jump\t// in\n    tag_197:\n        /* \"#utility.yul\":9101:9179   */\n      swap5\n      pop\n        /* \"#utility.yul\":9210:9211   */\n      0x01\n        /* \"#utility.yul\":9199:9208   */\n      dup3\n        /* \"#utility.yul\":9195:9212   */\n      and\n        /* \"#utility.yul\":9226:9227   */\n      0x00\n        /* \"#utility.yul\":9221:9385   */\n      dup2\n      eq\n      tag_199\n      jumpi\n        /* \"#utility.yul\":9399:9400   */\n      0x01\n        /* \"#utility.yul\":9394:9730   */\n      dup2\n      eq\n      tag_200\n      jumpi\n        /* \"#utility.yul\":9188:9730   */\n      jump(tag_198)\n        /* \"#utility.yul\":9221:9385   */\n    tag_199:\n        /* \"#utility.yul\":9305:9309   */\n      0xff\n        /* \"#utility.yul\":9301:9310   */\n      not\n        /* \"#utility.yul\":9290:9299   */\n      dup4\n        /* \"#utility.yul\":9286:9311   */\n      and\n        /* \"#utility.yul\":9281:9284   */\n      dup7\n        /* \"#utility.yul\":9274:9312   */\n      mstore\n        /* \"#utility.yul\":9365:9371   */\n      dup2\n        /* \"#utility.yul\":9358:9372   */\n      iszero\n        /* \"#utility.yul\":9351:9373   */\n      iszero\n        /* \"#utility.yul\":9345:9349   */\n      0x20\n        /* \"#utility.yul\":9341:9374   */\n      mul\n        /* \"#utility.yul\":9336:9339   */\n      dup7\n        /* \"#utility.yul\":9332:9375   */\n      add\n        /* \"#utility.yul\":9325:9375   */\n      swap4\n      pop\n        /* \"#utility.yul\":9221:9385   */\n      jump(tag_198)\n        /* \"#utility.yul\":9394:9730   */\n    tag_200:\n        /* \"#utility.yul\":9461:9499   */\n      tag_201\n        /* \"#utility.yul\":9493:9498   */\n      dup6\n        /* \"#utility.yul\":9461:9499   */\n      tag_86\n      jump\t// in\n    tag_201:\n        /* \"#utility.yul\":9521:9522   */\n      0x00\n        /* \"#utility.yul\":9535:9689   */\n    tag_202:\n        /* \"#utility.yul\":9549:9555   */\n      dup4\n        /* \"#utility.yul\":9546:9547   */\n      dup2\n        /* \"#utility.yul\":9543:9556   */\n      lt\n        /* \"#utility.yul\":9535:9689   */\n      iszero\n      tag_204\n      jumpi\n        /* \"#utility.yul\":9623:9630   */\n      dup2\n        /* \"#utility.yul\":9617:9631   */\n      sload\n        /* \"#utility.yul\":9613:9614   */\n      dup2\n        /* \"#utility.yul\":9608:9611   */\n      dup10\n        /* \"#utility.yul\":9604:9615   */\n      add\n        /* \"#utility.yul\":9597:9632   */\n      mstore\n        /* \"#utility.yul\":9673:9674   */\n      0x01\n        /* \"#utility.yul\":9664:9671   */\n      dup3\n        /* \"#utility.yul\":9660:9675   */\n      add\n        /* \"#utility.yul\":9649:9675   */\n      swap2\n      pop\n        /* \"#utility.yul\":9571:9575   */\n      0x20\n        /* \"#utility.yul\":9568:9569   */\n      dup2\n        /* \"#utility.yul\":9564:9576   */\n      add\n        /* \"#utility.yul\":9559:9576   */\n      swap1\n      pop\n        /* \"#utility.yul\":9535:9689   */\n      jump(tag_202)\n    tag_204:\n        /* \"#utility.yul\":9718:9719   */\n      dup1\n        /* \"#utility.yul\":9713:9716   */\n      dup9\n        /* \"#utility.yul\":9709:9720   */\n      add\n        /* \"#utility.yul\":9702:9720   */\n      swap6\n      pop\n        /* \"#utility.yul\":9401:9730   */\n      pop\n      pop\n        /* \"#utility.yul\":9188:9730   */\n    tag_198:\n      pop\n        /* \"#utility.yul\":8994:9736   */\n      pop\n      pop\n        /* \"#utility.yul\":8905:9736   */\n      swap3\n      swap2\n      pop\n      pop\n      jump\t// out\n        /* \"#utility.yul\":9742:10049   */\n    tag_34:\n        /* \"#utility.yul\":9852:9856   */\n      0x00\n        /* \"#utility.yul\":9890:9892   */\n      0x20\n        /* \"#utility.yul\":9879:9888   */\n      dup3\n        /* \"#utility.yul\":9875:9893   */\n      add\n        /* \"#utility.yul\":9867:9893   */\n      swap1\n      pop\n        /* \"#utility.yul\":9939:9948   */\n      dup2\n        /* \"#utility.yul\":9933:9937   */\n      dup2\n        /* \"#utility.yul\":9929:9949   */\n      sub\n        /* \"#utility.yul\":9925:9926   */\n      0x00\n        /* \"#utility.yul\":9914:9923   */\n      dup4\n        /* \"#utility.yul\":9910:9927   */\n      add\n        /* \"#utility.yul\":9903:9950   */\n      mstore\n        /* \"#utility.yul\":9967:10042   */\n      tag_206\n        /* \"#utility.yul\":10037:10041   */\n      dup2\n        /* \"#utility.yul\":10028:10034   */\n      dup5\n        /* \"#utility.yul\":9967:10042   */\n      tag_87\n      jump\t// in\n    tag_206:\n        /* \"#utility.yul\":9959:10042   */\n      swap1\n      pop\n        /* \"#utility.yul\":9742:10049   */\n      swap3\n      swap2\n      pop\n      pop\n      jump\t// out\n        /* \"#utility.yul\":10055:10152   */\n    tag_88:\n        /* \"#utility.yul\":10114:10120   */\n      0x00\n        /* \"#utility.yul\":10142:10145   */\n      dup3\n        /* \"#utility.yul\":10132:10145   */\n      swap1\n      pop\n        /* \"#utility.yul\":10055:10152   */\n      swap3\n      swap2\n      pop\n      pop\n      jump\t// out\n        /* \"#utility.yul\":10158:10251   */\n    tag_89:\n        /* \"#utility.yul\":10195:10201   */\n      0x00\n        /* \"#utility.yul\":10242:10244   */\n      0x20\n        /* \"#utility.yul\":10237:10239   */\n      0x1f\n        /* \"#utility.yul\":10230:10235   */\n      dup4\n        /* \"#utility.yul\":10226:10240   */\n      add\n        /* \"#utility.yul\":10222:10245   */\n      div\n        /* \"#utility.yul\":10212:10245   */\n      swap1\n      pop\n        /* \"#utility.yul\":10158:10251   */\n      swap2\n      swap1\n      pop\n      jump\t// out\n        /* \"#utility.yul\":10257:10364   */\n    tag_90:\n        /* \"#utility.yul\":10301:10309   */\n      0x00\n        /* \"#utility.yul\":10351:10356   */\n      dup3\n        /* \"#utility.yul\":10345:10349   */\n      dup3\n        /* \"#utility.yul\":10341:10357   */\n      shl\n        /* \"#utility.yul\":10320:10357   */\n      swap1\n      pop\n        /* \"#utility.yul\":10257:10364   */\n      swap3\n      swap2\n      pop\n      pop\n      jump\t// out\n        /* \"#utility.yul\":10370:10763   */\n    tag_91:\n        /* \"#utility.yul\":10439:10445   */\n      0x00\n        /* \"#utility.yul\":10489:10490   */\n      0x08\n        /* \"#utility.yul\":10477:10487   */\n      dup4\n        /* \"#utility.yul\":10473:10491   */\n      mul\n        /* \"#utility.yul\":10512:10609   */\n      tag_211\n        /* \"#utility.yul\":10542:10608   */\n      0xffffffffffffffffffffffffffffffffffffffffffffffffffffffffffffffff\n        /* \"#utility.yul\":10531:10540   */\n      dup3\n        /* \"#utility.yul\":10512:10609   */\n      tag_90\n      jump\t// in\n    tag_211:\n        /* \"#utility.yul\":10630:10669   */\n      tag_212\n        /* \"#utility.yul\":10660:10668   */\n      dup7\n        /* \"#utility.yul\":10649:10658   */\n      dup4\n        /* \"#utility.yul\":10630:10669   */\n      tag_90\n      jump\t// in\n    tag_212:\n        /* \"#utility.yul\":10618:10669   */\n      swap6\n      pop\n        /* \"#utility.yul\":10702:10706   */\n      dup1\n        /* \"#utility.yul\":10698:10707   */\n      not\n        /* \"#utility.yul\":10691:10696   */\n      dup5\n        /* \"#utility.yul\":10687:10708   */\n      and\n        /* \"#utility.yul\":10678:10708   */\n      swap4\n      pop\n        /* \"#utility.yul\":10751:10755   */\n      dup1\n        /* \"#utility.yul\":10741:10749   */\n      dup7\n        /* \"#utility.yul\":10737:10756   */\n      and\n        /* \"#utility.yul\":10730:10735   */\n      dup5\n        /* \"#utility.yul\":10727:10757   */\n      or\n        /* \"#utility.yul\":10717:10757   */\n      swap3\n      pop\n        /* \"#utility.yul\":10446:10763   */\n      pop\n      pop\n        /* \"#utility.yul\":10370:10763   */\n      swap4\n      swap3\n      pop\n      pop\n      pop\n      jump\t// out\n        /* \"#utility.yul\":10769:10846   */\n    tag_92:\n        /* \"#utility.yul\":10806:10813   */\n      0x00\n        /* \"#utility.yul\":10835:10840   */\n      dup2\n        /* \"#utility.yul\":10824:10840   */\n      swap1\n      pop\n        /* \"#utility.yul\":10769:10846   */\n      swap2\n      swap1\n      pop\n      jump\t// out\n        /* \"#utility.yul\":10852:10912   */\n    tag_93:\n        /* \"#utility.yul\":10880:10883   */\n      0x00\n        /* \"#utility.yul\":10901:10906   */\n      dup2\n        /* \"#utility.yul\":10894:10906   */\n      swap1\n      pop\n        /* \"#utility.yul\":10852:10912   */\n      swap2\n      swap1\n      pop\n      jump\t// out\n        /* \"#utility.yul\":10918:11060   */\n    tag_94:\n        /* \"#utility.yul\":10968:10977   */\n      0x00\n        /* \"#utility.yul\":11001:11054   */\n      tag_216\n        /* \"#utility.yul\":11019:11053   */\n      tag_217\n        /* \"#utility.yul\":11028:11052   */\n      tag_218\n        /* \"#utility.yul\":11046:11051   */\n      dup5\n        /* \"#utility.yul\":11028:11052   */\n      tag_92\n      jump\t// in\n    tag_218:\n        /* \"#utility.yul\":11019:11053   */\n      tag_93\n      jump\t// in\n    tag_217:\n        /* \"#utility.yul\":11001:11054   */\n      tag_92\n      jump\t// in\n    tag_216:\n        /* \"#utility.yul\":10988:11054   */\n      swap1\n      pop\n        /* \"#utility.yul\":10918:11060   */\n      swap2\n      swap1\n      pop\n      jump\t// out\n        /* \"#utility.yul\":11066:11141   */\n    tag_95:\n        /* \"#utility.yul\":11109:11112   */\n      0x00\n        /* \"#utility.yul\":11130:11135   */\n      dup2\n        /* \"#utility.yul\":11123:11135   */\n      swap1\n      pop\n        /* \"#utility.yul\":11066:11141   */\n      swap2\n      swap1\n      pop\n      jump\t// out\n        /* \"#utility.yul\":11147:11416   */\n    tag_96:\n        /* \"#utility.yul\":11257:11296   */\n      tag_221\n        /* \"#utility.yul\":11288:11295   */\n      dup4\n        /* \"#utility.yul\":11257:11296   */\n      tag_94\n      jump\t// in\n    tag_221:\n        /* \"#utility.yul\":11318:11409   */\n      tag_222\n        /* \"#utility.yul\":11367:11408   */\n      tag_223\n        /* \"#utility.yul\":11391:11407   */\n      dup3\n        /* \"#utility.yul\":11367:11408   */\n      tag_95\n      jump\t// in\n    tag_223:\n        /* \"#utility.yul\":11359:11365   */\n      dup5\n        /* \"#utility.yul\":11352:11356   */\n      dup5\n        /* \"#utility.yul\":11346:11357   */\n      sload\n        /* \"#utility.yul\":11318:11409   */\n      tag_91\n      jump\t// in\n    tag_222:\n        /* \"#utility.yul\":11312:11316   */\n      dup3\n        /* \"#utility.yul\":11305:11410   */\n      sstore\n        /* \"#utility.yul\":11223:11416   */\n      pop\n        /* \"#utility.yul\":11147:11416   */\n      pop\n      pop\n      pop\n      jump\t// out\n        /* \"#utility.yul\":11422:11495   */\n    tag_97:\n        /* \"#utility.yul\":11467:11470   */\n      0x00\n        /* \"#utility.yul\":11422:11495   */\n      swap1\n      jump\t// out\n        /* \"#utility.yul\":11501:11690   */\n    tag_98:\n        /* \"#utility.yul\":11578:11610   */\n      tag_226\n      tag_97\n      jump\t// in\n    tag_226:\n        /* \"#utility.yul\":11619:11684   */\n      tag_227\n        /* \"#utility.yul\":11677:11683   */\n      dup2\n        /* \"#utility.yul\":11669:11675   */\n      dup5\n        /* \"#utility.yul\":11663:11667   */\n      dup5\n        /* \"#utility.yul\":11619:11684   */\n      tag_96\n      jump\t// in\n    tag_227:\n        /* \"#utility.yul\":11554:11690   */\n      pop\n        /* \"#utility.yul\":11501:11690   */\n      pop\n      pop\n      jump\t// out\n        /* \"#utility.yul\":11696:11882   */\n    tag_99:\n        /* \"#utility.yul\":11756:11876   */\n    tag_229:\n        /* \"#utility.yul\":11773:11776   */\n      dup2\n        /* \"#utility.yul\":11766:11771   */\n      dup2\n        /* \"#utility.yul\":11763:11777   */\n      lt\n        /* \"#utility.yul\":11756:11876   */\n      iszero\n      tag_231\n      jumpi\n        /* \"#utility.yul\":11827:11866   */\n      tag_232\n        /* \"#utility.yul\":11864:11865   */\n      0x00\n        /* \"#utility.yul\":11857:11862   */\n      dup3\n        /* \"#utility.yul\":11827:11866   */\n      tag_98\n      jump\t// in\n    tag_232:\n        /* \"#utility.yul\":11800:11801   */\n      0x01\n        /* \"#utility.yul\":11793:11798   */\n      dup2\n        /* \"#utility.yul\":11789:11802   */\n      add\n        /* \"#utility.yul\":11780:11802   */\n      swap1\n      pop\n        /* \"#utility.yul\":11756:11876   */\n      jump(tag_229)\n    tag_231:\n        /* \"#utility.yul\":11696:11882   */\n      pop\n      pop\n      jump\t// out\n        /* \"#utility.yul\":11888:12431   */\n    tag_100:\n        /* \"#utility.yul\":11989:11991   */\n      0x1f\n        /* \"#utility.yul\":11984:11987   */\n      dup3\n        /* \"#utility.yul\":11981:11992   */\n      gt\n        /* \"#utility.yul\":11978:12424   */\n      iszero\n      tag_234\n      jumpi\n        /* \"#utility.yul\":12023:12061   */\n      tag_235\n        /* \"#utility.yul\":12055:12060   */\n      dup2\n        /* \"#utility.yul\":12023:12061   */\n      tag_86\n      jump\t// in\n    tag_235:\n        /* \"#utility.yul\":12107:12136   */\n      tag_236\n        /* \"#utility.yul\":12125:12135   */\n      dup5\n        /* \"#utility.yul\":12107:12136   */\n      tag_89\n      jump\t// in\n    tag_236:\n        /* \"#utility.yul\":12097:12105   */\n      dup2\n        /* \"#utility.yul\":12093:12137   */\n      add\n        /* \"#utility.yul\":12290:12292   */\n      0x20\n        /* \"#utility.yul\":12278:12288   */\n      dup6\n        /* \"#utility.yul\":12275:12293   */\n      lt\n        /* \"#utility.yul\":12272:12321   */\n      iszero\n      tag_237\n      jumpi\n        /* \"#utility.yul\":12311:12319   */\n      dup2\n        /* \"#utility.yul\":12296:12319   */\n      swap1\n      pop\n        /* \"#utility.yul\":12272:12321   */\n    tag_237:\n        /* \"#utility.yul\":12334:12414   */\n      tag_238\n        /* \"#utility.yul\":12390:12412   */\n      tag_239\n        /* \"#utility.yul\":12408:12411   */\n      dup6\n        /* \"#utility.yul\":12390:12412   */\n      tag_89\n      jump\t// in\n    tag_239:\n        /* \"#utility.yul\":12380:12388   */\n      dup4\n        /* \"#utility.yul\":12376:12413   */\n      add\n        /* \"#utility.yul\":12363:12374   */\n      dup3\n        /* \"#utility.yul\":12334:12414   */\n      tag_99\n      jump\t// in\n    tag_238:\n        /* \"#utility.yul\":11993:12424   */\n      pop\n      pop\n        /* \"#utility.yul\":11978:12424   */\n    tag_234:\n        /* \"#utility.yul\":11888:12431   */\n      pop\n      pop\n      pop\n      jump\t// out\n        /* \"#utility.yul\":12437:12554   */\n    tag_101:\n        /* \"#utility.yul\":12491:12499   */\n      0x00\n        /* \"#utility.yul\":12541:12546   */\n      dup3\n        /* \"#utility.yul\":12535:12539   */\n      dup3\n        /* \"#utility.yul\":12531:12547   */\n      shr\n        /* \"#utility.yul\":12510:12547   */\n      swap1\n      pop\n        /* \"#utility.yul\":12437:12554   */\n      swap3\n      swap2\n      pop\n      pop\n      jump\t// out\n        /* \"#utility.yul\":12560:12729   */\n    tag_102:\n        /* \"#utility.yul\":12604:12610   */\n      0x00\n        /* \"#utility.yul\":12637:12688   */\n      tag_242\n        /* \"#utility.yul\":12685:12686   */\n      0x00\n        /* \"#utility.yul\":12681:12687   */\n      not\n        /* \"#utility.yul\":12673:12678   */\n      dup5\n        /* \"#utility.yul\":12670:12671   */\n      0x08\n        /* \"#utility.yul\":12666:12679   */\n      mul\n        /* \"#utility.yul\":12637:12688   */\n      tag_101\n      jump\t// in\n    tag_242:\n        /* \"#utility.yul\":12633:12689   */\n      not\n        /* \"#utility.yul\":12718:12722   */\n      dup1\n        /* \"#utility.yul\":12712:12716   */\n      dup4\n        /* \"#utility.yul\":12708:12723   */\n      and\n        /* \"#utility.yul\":12698:12723   */\n      swap2\n      pop\n        /* \"#utility.yul\":12611:12729   */\n      pop\n        /* \"#utility.yul\":12560:12729   */\n      swap3\n      swap2\n      pop\n      pop\n      jump\t// out\n        /* \"#utility.yul\":12734:13029   */\n    tag_103:\n        /* \"#utility.yul\":12810:12814   */\n      0x00\n        /* \"#utility.yul\":12956:12985   */\n      tag_244\n        /* \"#utility.yul\":12981:12984   */\n      dup4\n        /* \"#utility.yul\":12975:12979   */\n      dup4\n        /* \"#utility.yul\":12956:12985   */\n      tag_102\n      jump\t// in\n    tag_244:\n        /* \"#utility.yul\":12948:12985   */\n      swap2\n      pop\n        /* \"#utility.yul\":13018:13021   */\n      dup3\n        /* \"#utility.yul\":13015:13016   */\n      0x02\n        /* \"#utility.yul\":13011:13022   */\n      mul\n        /* \"#utility.yul\":13005:13009   */\n      dup3\n        /* \"#utility.yul\":13002:13023   */\n      or\n        /* \"#utility.yul\":12994:13023   */\n      swap1\n      pop\n        /* \"#utility.yul\":12734:13029   */\n      swap3\n      swap2\n      pop\n      pop\n      jump\t// out\n        /* \"#utility.yul\":13034:14437   */\n    tag_38:\n        /* \"#utility.yul\":13158:13202   */\n      tag_246\n        /* \"#utility.yul\":13198:13201   */\n      dup4\n        /* \"#utility.yul\":13193:13196   */\n      dup4\n        /* \"#utility.yul\":13158:13202   */\n      tag_88\n      jump\t// in\n    tag_246:\n        /* \"#utility.yul\":13267:13285   */\n      0xffffffffffffffff\n        /* \"#utility.yul\":13259:13265   */\n      dup2\n        /* \"#utility.yul\":13256:13286   */\n      gt\n        /* \"#utility.yul\":13253:13309   */\n      iszero\n      tag_247\n      jumpi\n        /* \"#utility.yul\":13289:13307   */\n      tag_248\n      tag_70\n      jump\t// in\n    tag_248:\n        /* \"#utility.yul\":13253:13309   */\n    tag_247:\n        /* \"#utility.yul\":13333:13371   */\n      tag_249\n        /* \"#utility.yul\":13365:13369   */\n      dup3\n        /* \"#utility.yul\":13359:13370   */\n      sload\n        /* \"#utility.yul\":13333:13371   */\n      tag_30\n      jump\t// in\n    tag_249:\n        /* \"#utility.yul\":13418:13485   */\n      tag_250\n        /* \"#utility.yul\":13478:13484   */\n      dup3\n        /* \"#utility.yul\":13470:13476   */\n      dup3\n        /* \"#utility.yul\":13464:13468   */\n      dup6\n        /* \"#utility.yul\":13418:13485   */\n      tag_100\n      jump\t// in\n    tag_250:\n        /* \"#utility.yul\":13512:13513   */\n      0x00\n        /* \"#utility.yul\":13541:13543   */\n      0x1f\n        /* \"#utility.yul\":13533:13539   */\n      dup4\n        /* \"#utility.yul\":13530:13544   */\n      gt\n        /* \"#utility.yul\":13558:13559   */\n      0x01\n        /* \"#utility.yul\":13553:14185   */\n      dup2\n      eq\n      tag_252\n      jumpi\n        /* \"#utility.yul\":14229:14230   */\n      0x00\n        /* \"#utility.yul\":14246:14252   */\n      dup5\n        /* \"#utility.yul\":14243:14327   */\n      iszero\n      tag_253\n      jumpi\n        /* \"#utility.yul\":14302:14311   */\n      dup3\n        /* \"#utility.yul\":14297:14300   */\n      dup8\n        /* \"#utility.yul\":14293:14312   */\n      add\n        /* \"#utility.yul\":14280:14313   */\n      calldataload\n        /* \"#utility.yul\":14271:14313   */\n      swap1\n      pop\n        /* \"#utility.yul\":14243:14327   */\n    tag_253:\n        /* \"#utility.yul\":14353:14420   */\n      tag_254\n        /* \"#utility.yul\":14413:14419   */\n      dup6\n        /* \"#utility.yul\":14406:14411   */\n      dup3\n        /* \"#utility.yul\":14353:14420   */\n      tag_103\n      jump\t// in\n    tag_254:\n        /* \"#utility.yul\":14347:14351   */\n      dup7\n        /* \"#utility.yul\":14340:14421   */\n      sstore\n        /* \"#utility.yul\":14202:14431   */\n      pop\n        /* \"#utility.yul\":13523:14431   */\n      jump(tag_251)\n        /* \"#utility.yul\":13553:14185   */\n    tag_252:\n        /* \"#utility.yul\":13605:13609   */\n      0x1f\n        /* \"#utility.yul\":13601:13610   */\n      not\n        /* \"#utility.yul\":13593:13599   */\n      dup5\n        /* \"#utility.yul\":13589:13611   */\n      and\n        /* \"#utility.yul\":13639:13676   */\n      tag_255\n        /* \"#utility.yul\":13671:13675   */\n      dup7\n        /* \"#utility.yul\":13639:13676   */\n      tag_86\n      jump\t// in\n    tag_255:\n        /* \"#utility.yul\":13698:13699   */\n      0x00\n        /* \"#utility.yul\":13712:13927   */\n    tag_256:\n        /* \"#utility.yul\":13726:13733   */\n      dup3\n        /* \"#utility.yul\":13723:13724   */\n      dup2\n        /* \"#utility.yul\":13720:13734   */\n      lt\n        /* \"#utility.yul\":13712:13927   */\n      iszero\n      tag_258\n      jumpi\n        /* \"#utility.yul\":13812:13821   */\n      dup5\n        /* \"#utility.yul\":13807:13810   */\n      dup10\n        /* \"#utility.yul\":13803:13822   */\n      add\n        /* \"#utility.yul\":13790:13823   */\n      calldataload\n        /* \"#utility.yul\":13782:13788   */\n      dup3\n        /* \"#utility.yul\":13775:13824   */\n      sstore\n        /* \"#utility.yul\":13863:13864   */\n      0x01\n        /* \"#utility.yul\":13855:13861   */\n      dup3\n        /* \"#utility.yul\":13851:13865   */\n      add\n        /* \"#utility.yul\":13841:13865   */\n      swap2\n      pop\n        /* \"#utility.yul\":13910:13912   */\n      0x20\n        /* \"#utility.yul\":13899:13908   */\n      dup6\n        /* \"#utility.yul\":13895:13913   */\n      add\n        /* \"#utility.yul\":13882:13913   */\n      swap5\n      pop\n        /* \"#utility.yul\":13749:13753   */\n      0x20\n        /* \"#utility.yul\":13746:13747   */\n      dup2\n        /* \"#utility.yul\":13742:13754   */\n      add\n        /* \"#utility.yul\":13737:13754   */\n      swap1\n      pop\n        /* \"#utility.yul\":13712:13927   */\n      jump(tag_256)\n    tag_258:\n        /* \"#utility.yul\":13955:13961   */\n      dup7\n        /* \"#utility.yul\":13946:13953   */\n      dup4\n        /* \"#utility.yul\":13943:13962   */\n      lt\n        /* \"#utility.yul\":13940:14126   */\n      iszero\n      tag_259\n      jumpi\n        /* \"#utility.yul\":14020:14029   */\n      dup5\n        /* \"#utility.yul\":14015:14018   */\n      dup10\n        /* \"#utility.yul\":14011:14030   */\n      add\n        /* \"#utility.yul\":13998:14031   */\n      calldataload\n        /* \"#utility.yul\":14063:14111   */\n      tag_260\n        /* \"#utility.yul\":14105:14109   */\n      0x1f\n        /* \"#utility.yul\":14097:14103   */\n      dup10\n        /* \"#utility.yul\":14093:14110   */\n      and\n        /* \"#utility.yul\":14082:14091   */\n      dup3\n        /* \"#utility.yul\":14063:14111   */\n      tag_102\n      jump\t// in\n    tag_260:\n        /* \"#utility.yul\":14055:14061   */\n      dup4\n        /* \"#utility.yul\":14048:14112   */\n      sstore\n        /* \"#utility.yul\":13963:14126   */\n      pop\n        /* \"#utility.yul\":13940:14126   */\n    tag_259:\n        /* \"#utility.yul\":14172:14173   */\n      0x01\n        /* \"#utility.yul\":14168:14169   */\n      0x02\n        /* \"#utility.yul\":14160:14166   */\n      dup9\n        /* \"#utility.yul\":14156:14170   */\n      mul\n        /* \"#utility.yul\":14152:14174   */\n      add\n        /* \"#utility.yul\":14146:14150   */\n      dup9\n        /* \"#utility.yul\":14139:14175   */\n      sstore\n        /* \"#utility.yul\":13560:14185   */\n      pop\n      pop\n      pop\n        /* \"#utility.yul\":13523:14431   */\n    tag_251:\n      pop\n        /* \"#utility.yul\":13133:14437   */\n      pop\n      pop\n      pop\n        /* \"#utility.yul\":13034:14437   */\n      pop\n      pop\n      pop\n      jump\t// out\n        /* \"#utility.yul\":14467:14784   */\n    tag_104:\n        /* \"#utility.yul\":14565:14568   */\n      0x00\n        /* \"#utility.yul\":14586:14657   */\n      tag_262\n        /* \"#utility.yul\":14650:14656   */\n      dup4\n        /* \"#utility.yul\":14645:14648   */\n      dup6\n        /* \"#utility.yul\":14586:14657   */\n      tag_78\n      jump\t// in\n    tag_262:\n        /* \"#utility.yul\":14579:14657   */\n      swap4\n      pop\n        /* \"#utility.yul\":14667:14723   */\n      tag_263\n        /* \"#utility.yul\":14716:14722   */\n      dup4\n        /* \"#utility.yul\":14711:14714   */\n      dup6\n        /* \"#utility.yul\":14704:14709   */\n      dup5\n        /* \"#utility.yul\":14667:14723   */\n      tag_74\n      jump\t// in\n    tag_263:\n        /* \"#utility.yul\":14748:14777   */\n      tag_264\n        /* \"#utility.yul\":14770:14776   */\n      dup4\n        /* \"#utility.yul\":14748:14777   */\n      tag_69\n      jump\t// in\n    tag_264:\n        /* \"#utility.yul\":14743:14746   */\n      dup5\n        /* \"#utility.yul\":14739:14778   */\n      add\n        /* \"#utility.yul\":14732:14778   */\n      swap1\n      pop\n        /* \"#utility.yul\":14467:14784   */\n      swap4\n      swap3\n      pop\n      pop\n      pop\n      jump\t// out\n        /* \"#utility.yul\":14790:15344   */\n    tag_40:\n        /* \"#utility.yul\":14971:14975   */\n      0x00\n        /* \"#utility.yul\":15009:15011   */\n      0x40\n        /* \"#utility.yul\":14998:15007   */\n      dup3\n        /* \"#utility.yul\":14994:15012   */\n      add\n        /* \"#utility.yul\":14986:15012   */\n      swap1\n      pop\n        /* \"#utility.yul\":15058:15067   */\n      dup2\n        /* \"#utility.yul\":15052:15056   */\n      dup2\n        /* \"#utility.yul\":15048:15068   */\n      sub\n        /* \"#utility.yul\":15044:15045   */\n      0x00\n        /* \"#utility.yul\":15033:15042   */\n      dup4\n        /* \"#utility.yul\":15029:15046   */\n      add\n        /* \"#utility.yul\":15022:15069   */\n      mstore\n        /* \"#utility.yul\":15086:15174   */\n      tag_266\n        /* \"#utility.yul\":15169:15173   */\n      dup2\n        /* \"#utility.yul\":15160:15166   */\n      dup7\n        /* \"#utility.yul\":15152:15158   */\n      dup9\n        /* \"#utility.yul\":15086:15174   */\n      tag_104\n      jump\t// in\n    tag_266:\n        /* \"#utility.yul\":15078:15174   */\n      swap1\n      pop\n        /* \"#utility.yul\":15221:15230   */\n      dup2\n        /* \"#utility.yul\":15215:15219   */\n      dup2\n        /* \"#utility.yul\":15211:15231   */\n      sub\n        /* \"#utility.yul\":15206:15208   */\n      0x20\n        /* \"#utility.yul\":15195:15204   */\n      dup4\n        /* \"#utility.yul\":15191:15209   */\n      add\n        /* \"#utility.yul\":15184:15232   */\n      mstore\n        /* \"#utility.yul\":15249:15337   */\n      tag_267\n        /* \"#utility.yul\":15332:15336   */\n      dup2\n        /* \"#utility.yul\":15323:15329   */\n      dup5\n        /* \"#utility.yul\":15315:15321   */\n      dup7\n        /* \"#utility.yul\":15249:15337   */\n      tag_104\n      jump\t// in\n    tag_267:\n        /* \"#utility.yul\":15241:15337   */\n      swap1\n      pop\n        /* \"#utility.yul\":14790:15344   */\n      swap6\n      swap5\n      pop\n      pop\n      pop\n      pop\n      pop\n      jump\t// out\n        /* \"#utility.yul\":15350:16099   */\n    tag_56:\n        /* \"#utility.yul\":15576:15580   */\n      0x00\n        /* \"#utility.yul\":15614:15616   */\n      0x60\n        /* \"#utility.yul\":15603:15612   */\n      dup3\n        /* \"#utility.yul\":15599:15617   */\n      add\n        /* \"#utility.yul\":15591:15617   */\n      swap1\n      pop\n        /* \"#utility.yul\":15663:15672   */\n      dup2\n        /* \"#utility.yul\":15657:15661   */\n      dup2\n        /* \"#utility.yul\":15653:15673   */\n      sub\n        /* \"#utility.yul\":15649:15650   */\n      0x00\n        /* \"#utility.yul\":15638:15647   */\n      dup4\n        /* \"#utility.yul\":15634:15651   */\n      add\n        /* \"#utility.yul\":15627:15674   */\n      mstore\n        /* \"#utility.yul\":15691:15779   */\n      tag_269\n        /* \"#utility.yul\":15774:15778   */\n      dup2\n        /* \"#utility.yul\":15765:15771   */\n      dup8\n        /* \"#utility.yul\":15757:15763   */\n      dup10\n        /* \"#utility.yul\":15691:15779   */\n      tag_104\n      jump\t// in\n    tag_269:\n        /* \"#utility.yul\":15683:15779   */\n      swap1\n      pop\n        /* \"#utility.yul\":15826:15835   */\n      dup2\n        /* \"#utility.yul\":15820:15824   */\n      dup2\n        /* \"#utility.yul\":15816:15836   */\n      sub\n        /* \"#utility.yul\":15811:15813   */\n      0x20\n        /* \"#utility.yul\":15800:15809   */\n      dup4\n        /* \"#utility.yul\":15796:15814   */\n      add\n        /* \"#utility.yul\":15789:15837   */\n      mstore\n        /* \"#utility.yul\":15854:15929   */\n      tag_270\n        /* \"#utility.yul\":15924:15928   */\n      dup2\n        /* \"#utility.yul\":15915:15921   */\n      dup7\n        /* \"#utility.yul\":15854:15929   */\n      tag_87\n      jump\t// in\n    tag_270:\n        /* \"#utility.yul\":15846:15929   */\n      swap1\n      pop\n        /* \"#utility.yul\":15976:15985   */\n      dup2\n        /* \"#utility.yul\":15970:15974   */\n      dup2\n        /* \"#utility.yul\":15966:15986   */\n      sub\n        /* \"#utility.yul\":15961:15963   */\n      0x40\n        /* \"#utility.yul\":15950:15959   */\n      dup4\n        /* \"#utility.yul\":15946:15964   */\n      add\n        /* \"#utility.yul\":15939:15987   */\n      mstore\n        /* \"#utility.yul\":16004:16092   */\n      tag_271\n        /* \"#utility.yul\":16087:16091   */\n      dup2\n        /* \"#utility.yul\":16078:16084   */\n      dup5\n        /* \"#utility.yul\":16070:16076   */\n      dup7\n        /* \"#utility.yul\":16004:16092   */\n      tag_104\n      jump\t// in\n    tag_271:\n        /* \"#utility.yul\":15996:16092   */\n      swap1\n      pop\n        /* \"#utility.yul\":15350:16099   */\n      swap7\n      swap6\n      pop\n      pop\n      pop\n      pop\n      pop\n      pop\n      jump\t// out\n\n    auxdata: 0xa2646970667358221220e521a436791a3b3071dd276aadf06f3445eaf0b7ce79aa47352dcbed4882902964736f6c63430008160033\n}\n",
				"bytecode": {
					"linkReferences": {},
					"object": "608060405234801561000f575f80fd5b50604051610e0e380380610e0e833981810160405281019061003191906100d4565b805f806101000a81548173ffffffffffffffffffffffffffffffffffffffff021916908373ffffffffffffffffffffffffffffffffffffffff160217905550506100ff565b5f80fd5b5f73ffffffffffffffffffffffffffffffffffffffff82169050919050565b5f6100a38261007a565b9050919050565b6100b381610099565b81146100bd575f80fd5b50565b5f815190506100ce816100aa565b92915050565b5f602082840312156100e9576100e8610076565b5b5f6100f6848285016100c0565b91505092915050565b610d028061010c5f395ff3fe608060405234801561000f575f80fd5b506004361061003f575f3560e01c8063381eeac11461004357806348c24e11146100735780639130f38c146100a3575b5f80fd5b61005d60048036038101906100589190610526565b6100d3565b60405161006a91906105be565b60405180910390f35b61008d6004803603810190610088919061070f565b61026f565b60405161009a91906107d0565b60405180910390f35b6100bd60048036038101906100b89190610526565b610322565b6040516100ca91906105be565b60405180910390f35b5f805f9054906101000a900473ffffffffffffffffffffffffffffffffffffffff1673ffffffffffffffffffffffffffffffffffffffff163373ffffffffffffffffffffffffffffffffffffffff1614610162576040517f08c379a00000000000000000000000000000000000000000000000000000000081526004016101599061083a565b60405180910390fd5b84845f60018383604051610177929190610886565b90815260200160405180910390208054610190906108cb565b905011156101f457600182826040516101aa929190610886565b90815260200160405180910390206040517f550d37d00000000000000000000000000000000000000000000000000000000081526004016101eb919061098e565b60405180910390fd5b848460018989604051610208929190610886565b90815260200160405180910390209182610223929190610b4c565b507f1009c5c1f3293ae357607a0332ae31d720e283baa8a027d166c96161feec0445878787876040516102599493929190610c45565b60405180910390a1600192505050949350505050565b6001818051602081018201805184825260208301602085012081835280955050505050505f9150905080546102a3906108cb565b80601f01602080910402602001604051908101604052809291908181526020018280546102cf906108cb565b801561031a5780601f106102f15761010080835404028352916020019161031a565b820191905f5260205f20905b8154815290600101906020018083116102fd57829003601f168201915b505050505081565b5f805f9054906101000a900473ffffffffffffffffffffffffffffffffffffffff1673ffffffffffffffffffffffffffffffffffffffff163373ffffffffffffffffffffffffffffffffffffffff16146103b1576040517f08c379a00000000000000000000000000000000000000000000000000000000081526004016103a89061083a565b60405180910390fd5b84845f600183836040516103c6929190610886565b908152602001604051809103902080546103df906108cb565b905003610418576040517fefe50f0f00000000000000000000000000000000000000000000000000000000815260040160405180910390fd5b7f8efb390acdac38fb9ad7d71e79f4637d831018312584028a45757a3312e6f647878760018a8a60405161044d929190610886565b9081526020016040518091039020888860405161046e959493929190610c7e565b60405180910390a184846001898960405161048a929190610886565b908152602001604051809103902091826104a5929190610b4c565b50600192505050949350505050565b5f604051905090565b5f80fd5b5f80fd5b5f80fd5b5f80fd5b5f80fd5b5f8083601f8401126104e6576104e56104c5565b5b8235905067ffffffffffffffff811115610503576105026104c9565b5b60208301915083600182028301111561051f5761051e6104cd565b5b9250929050565b5f805f806040858703121561053e5761053d6104bd565b5b5f85013567ffffffffffffffff81111561055b5761055a6104c1565b5b610567878288016104d1565b9450945050602085013567ffffffffffffffff81111561058a576105896104c1565b5b610596878288016104d1565b925092505092959194509250565b5f8115159050919050565b6105b8816105a4565b82525050565b5f6020820190506105d15f8301846105af565b92915050565b5f80fd5b5f601f19601f8301169050919050565b7f4e487b71000000000000000000000000000000000000000000000000000000005f52604160045260245ffd5b610621826105db565b810181811067ffffffffffffffff821117156106405761063f6105eb565b5b80604052505050565b5f6106526104b4565b905061065e8282610618565b919050565b5f67ffffffffffffffff82111561067d5761067c6105eb565b5b610686826105db565b9050602081019050919050565b828183375f83830152505050565b5f6106b36106ae84610663565b610649565b9050828152602081018484840111156106cf576106ce6105d7565b5b6106da848285610693565b509392505050565b5f82601f8301126106f6576106f56104c5565b5b81356107068482602086016106a1565b91505092915050565b5f60208284031215610724576107236104bd565b5b5f82013567ffffffffffffffff811115610741576107406104c1565b5b61074d848285016106e2565b91505092915050565b5f81519050919050565b5f82825260208201905092915050565b5f5b8381101561078d578082015181840152602081019050610772565b5f8484015250505050565b5f6107a282610756565b6107ac8185610760565b93506107bc818560208601610770565b6107c5816105db565b840191505092915050565b5f6020820190508181035f8301526107e88184610798565b905092915050565b7f4f6e6c792061646d696e2063616e206d616b6520612063616c6c0000000000005f82015250565b5f610824601a83610760565b915061082f826107f0565b602082019050919050565b5f6020820190508181035f83015261085181610818565b9050919050565b5f81905092915050565b5f61086d8385610858565b935061087a838584610693565b82840190509392505050565b5f610892828486610862565b91508190509392505050565b7f4e487b71000000000000000000000000000000000000000000000000000000005f52602260045260245ffd5b5f60028204905060018216806108e257607f821691505b6020821081036108f5576108f461089e565b5b50919050565b5f819050815f5260205f209050919050565b5f8154610919816108cb565b6109238186610760565b9450600182165f811461093d576001811461095357610985565b60ff198316865281151560200286019350610985565b61095c856108fb565b5f5b8381101561097d5781548189015260018201915060208101905061095e565b808801955050505b50505092915050565b5f6020820190508181035f8301526109a6818461090d565b905092915050565b5f82905092915050565b5f6020601f8301049050919050565b5f82821b905092915050565b5f60088302610a027fffffffffffffffffffffffffffffffffffffffffffffffffffffffffffffffff826109c7565b610a0c86836109c7565b95508019841693508086168417925050509392505050565b5f819050919050565b5f819050919050565b5f610a50610a4b610a4684610a24565b610a2d565b610a24565b9050919050565b5f819050919050565b610a6983610a36565b610a7d610a7582610a57565b8484546109d3565b825550505050565b5f90565b610a91610a85565b610a9c818484610a60565b505050565b5b81811015610abf57610ab45f82610a89565b600181019050610aa2565b5050565b601f821115610b0457610ad5816108fb565b610ade846109b8565b81016020851015610aed578190505b610b01610af9856109b8565b830182610aa1565b50505b505050565b5f82821c905092915050565b5f610b245f1984600802610b09565b1980831691505092915050565b5f610b3c8383610b15565b9150826002028217905092915050565b610b5683836109ae565b67ffffffffffffffff811115610b6f57610b6e6105eb565b5b610b7982546108cb565b610b84828285610ac3565b5f601f831160018114610bb1575f8415610b9f578287013590505b610ba98582610b31565b865550610c10565b601f198416610bbf866108fb565b5f5b82811015610be657848901358255600182019150602085019450602081019050610bc1565b86831015610c035784890135610bff601f891682610b15565b8355505b6001600288020188555050505b50505050505050565b5f610c248385610760565b9350610c31838584610693565b610c3a836105db565b840190509392505050565b5f6040820190508181035f830152610c5e818688610c19565b90508181036020830152610c73818486610c19565b905095945050505050565b5f6060820190508181035f830152610c97818789610c19565b90508181036020830152610cab818661090d565b90508181036040830152610cc0818486610c19565b9050969550505050505056fea2646970667358221220e521a436791a3b3071dd276aadf06f3445eaf0b7ce79aa47352dcbed4882902964736f6c63430008160033",
					"opcodes": "PUSH1 0x80 PUSH1 0x40 MSTORE CALLVALUE DUP1 ISZERO PUSH2 0xF JUMPI PUSH0 DUP1 REVERT JUMPDEST POP PUSH1 0x40 MLOAD PUSH2 0xE0E CODESIZE SUB DUP1 PUSH2 0xE0E DUP4 CODECOPY DUP2 DUP2 ADD PUSH1 0x40 MSTORE DUP2 ADD SWAP1 PUSH2 0x31 SWAP2 SWAP1 PUSH2 0xD4 JUMP JUMPDEST DUP1 PUSH0 DUP1 PUSH2 0x100 EXP DUP2 SLOAD DUP2 PUSH20 0xFFFFFFFFFFFFFFFFFFFFFFFFFFFFFFFFFFFFFFFF MUL NOT AND SWAP1 DUP4 PUSH20 0xFFFFFFFFFFFFFFFFFFFFFFFFFFFFFFFFFFFFFFFF AND MUL OR SWAP1 SSTORE POP POP PUSH2 0xFF JUMP JUMPDEST PUSH0 DUP1 REVERT JUMPDEST PUSH0 PUSH20 0xFFFFFFFFFFFFFFFFFFFFFFFFFFFFFFFFFFFFFFFF DUP3 AND SWAP1 POP SWAP2 SWAP1 POP JUMP JUMPDEST PUSH0 PUSH2 0xA3 DUP3 PUSH2 0x7A JUMP JUMPDEST SWAP1 POP SWAP2 SWAP1 POP JUMP JUMPDEST PUSH2 0xB3 DUP2 PUSH2 0x99 JUMP JUMPDEST DUP2 EQ PUSH2 0xBD JUMPI PUSH0 DUP1 REVERT JUMPDEST POP JUMP JUMPDEST PUSH0 DUP2 MLOAD SWAP1 POP PUSH2 0xCE DUP2 PUSH2 0xAA JUMP JUMPDEST SWAP3 SWAP2 POP POP JUMP JUMPDEST PUSH0 PUSH1 0x20 DUP3 DUP5 SUB SLT ISZERO PUSH2 0xE9 JUMPI PUSH2 0xE8 PUSH2 0x76 JUMP JUMPDEST JUMPDEST PUSH0 PUSH2 0xF6 DUP5 DUP3 DUP6 ADD PUSH2 0xC0 JUMP JUMPDEST SWAP2 POP POP SWAP3 SWAP2 POP POP JUMP JUMPDEST PUSH2 0xD02 DUP1 PUSH2 0x10C PUSH0 CODECOPY PUSH0 RETURN INVALID PUSH1 0x80 PUSH1 0x40 MSTORE CALLVALUE DUP1 ISZERO PUSH2 0xF JUMPI PUSH0 DUP1 REVERT JUMPDEST POP PUSH1 0x4 CALLDATASIZE LT PUSH2 0x3F JUMPI PUSH0 CALLDATALOAD PUSH1 0xE0 SHR DUP1 PUSH4 0x381EEAC1 EQ PUSH2 0x43 JUMPI DUP1 PUSH4 0x48C24E11 EQ PUSH2 0x73 JUMPI DUP1 PUSH4 0x9130F38C EQ PUSH2 0xA3 JUMPI JUMPDEST PUSH0 DUP1 REVERT JUMPDEST PUSH2 0x5D PUSH1 0x4 DUP1 CALLDATASIZE SUB DUP2 ADD SWAP1 PUSH2 0x58 SWAP2 SWAP1 PUSH2 0x526 JUMP JUMPDEST PUSH2 0xD3 JUMP JUMPDEST PUSH1 0x40 MLOAD PUSH2 0x6A SWAP2 SWAP1 PUSH2 0x5BE JUMP JUMPDEST PUSH1 0x40 MLOAD DUP1 SWAP2 SUB SWAP1 RETURN JUMPDEST PUSH2 0x8D PUSH1 0x4 DUP1 CALLDATASIZE SUB DUP2 ADD SWAP1 PUSH2 0x88 SWAP2 SWAP1 PUSH2 0x70F JUMP JUMPDEST PUSH2 0x26F JUMP JUMPDEST PUSH1 0x40 MLOAD PUSH2 0x9A SWAP2 SWAP1 PUSH2 0x7D0 JUMP JUMPDEST PUSH1 0x40 MLOAD DUP1 SWAP2 SUB SWAP1 RETURN JUMPDEST PUSH2 0xBD PUSH1 0x4 DUP1 CALLDATASIZE SUB DUP2 ADD SWAP1 PUSH2 0xB8 SWAP2 SWAP1 PUSH2 0x526 JUMP JUMPDEST PUSH2 0x322 JUMP JUMPDEST PUSH1 0x40 MLOAD PUSH2 0xCA SWAP2 SWAP1 PUSH2 0x5BE JUMP JUMPDEST PUSH1 0x40 MLOAD DUP1 SWAP2 SUB SWAP1 RETURN JUMPDEST PUSH0 DUP1 PUSH0 SWAP1 SLOAD SWAP1 PUSH2 0x100 EXP SWAP1 DIV PUSH20 0xFFFFFFFFFFFFFFFFFFFFFFFFFFFFFFFFFFFFFFFF AND PUSH20 0xFFFFFFFFFFFFFFFFFFFFFFFFFFFFFFFFFFFFFFFF AND CALLER PUSH20 0xFFFFFFFFFFFFFFFFFFFFFFFFFFFFFFFFFFFFFFFF AND EQ PUSH2 0x162 JUMPI PUSH1 0x40 MLOAD PUSH32 0x8C379A000000000000000000000000000000000000000000000000000000000 DUP2 MSTORE PUSH1 0x4 ADD PUSH2 0x159 SWAP1 PUSH2 0x83A JUMP JUMPDEST PUSH1 0x40 MLOAD DUP1 SWAP2 SUB SWAP1 REVERT JUMPDEST DUP5 DUP5 PUSH0 PUSH1 0x1 DUP4 DUP4 PUSH1 0x40 MLOAD PUSH2 0x177 SWAP3 SWAP2 SWAP1 PUSH2 0x886 JUMP JUMPDEST SWAP1 DUP2 MSTORE PUSH1 0x20 ADD PUSH1 0x40 MLOAD DUP1 SWAP2 SUB SWAP1 KECCAK256 DUP1 SLOAD PUSH2 0x190 SWAP1 PUSH2 0x8CB JUMP JUMPDEST SWAP1 POP GT ISZERO PUSH2 0x1F4 JUMPI PUSH1 0x1 DUP3 DUP3 PUSH1 0x40 MLOAD PUSH2 0x1AA SWAP3 SWAP2 SWAP1 PUSH2 0x886 JUMP JUMPDEST SWAP1 DUP2 MSTORE PUSH1 0x20 ADD PUSH1 0x40 MLOAD DUP1 SWAP2 SUB SWAP1 KECCAK256 PUSH1 0x40 MLOAD PUSH32 0x550D37D000000000000000000000000000000000000000000000000000000000 DUP2 MSTORE PUSH1 0x4 ADD PUSH2 0x1EB SWAP2 SWAP1 PUSH2 0x98E JUMP JUMPDEST PUSH1 0x40 MLOAD DUP1 SWAP2 SUB SWAP1 REVERT JUMPDEST DUP5 DUP5 PUSH1 0x1 DUP10 DUP10 PUSH1 0x40 MLOAD PUSH2 0x208 SWAP3 SWAP2 SWAP1 PUSH2 0x886 JUMP JUMPDEST SWAP1 DUP2 MSTORE PUSH1 0x20 ADD PUSH1 0x40 MLOAD DUP1 SWAP2 SUB SWAP1 KECCAK256 SWAP2 DUP3 PUSH2 0x223 SWAP3 SWAP2 SWAP1 PUSH2 0xB4C JUMP JUMPDEST POP PUSH32 0x1009C5C1F3293AE357607A0332AE31D720E283BAA8A027D166C96161FEEC0445 DUP8 DUP8 DUP8 DUP8 PUSH1 0x40 MLOAD PUSH2 0x259 SWAP5 SWAP4 SWAP3 SWAP2 SWAP1 PUSH2 0xC45 JUMP JUMPDEST PUSH1 0x40 MLOAD DUP1 SWAP2 SUB SWAP1 LOG1 PUSH1 0x1 SWAP3 POP POP POP SWAP5 SWAP4 POP POP POP POP JUMP JUMPDEST PUSH1 0x1 DUP2 DUP1 MLOAD PUSH1 0x20 DUP2 ADD DUP3 ADD DUP1 MLOAD DUP5 DUP3 MSTORE PUSH1 0x20 DUP4 ADD PUSH1 0x20 DUP6 ADD KECCAK256 DUP2 DUP4 MSTORE DUP1 SWAP6 POP POP POP POP POP POP PUSH0 SWAP2 POP SWAP1 POP DUP1 SLOAD PUSH2 0x2A3 SWAP1 PUSH2 0x8CB JUMP JUMPDEST DUP1 PUSH1 0x1F ADD PUSH1 0x20 DUP1 SWAP2 DIV MUL PUSH1 0x20 ADD PUSH1 0x40 MLOAD SWAP1 DUP2 ADD PUSH1 0x40 MSTORE DUP1 SWAP3 SWAP2 SWAP1 DUP2 DUP2 MSTORE PUSH1 0x20 ADD DUP3 DUP1 SLOAD PUSH2 0x2CF SWAP1 PUSH2 0x8CB JUMP JUMPDEST DUP1 ISZERO PUSH2 0x31A JUMPI DUP1 PUSH1 0x1F LT PUSH2 0x2F1 JUMPI PUSH2 0x100 DUP1 DUP4 SLOAD DIV MUL DUP4 MSTORE SWAP2 PUSH1 0x20 ADD SWAP2 PUSH2 0x31A JUMP JUMPDEST DUP3 ADD SWAP2 SWAP1 PUSH0 MSTORE PUSH1 0x20 PUSH0 KECCAK256 SWAP1 JUMPDEST DUP2 SLOAD DUP2 MSTORE SWAP1 PUSH1 0x1 ADD SWAP1 PUSH1 0x20 ADD DUP1 DUP4 GT PUSH2 0x2FD JUMPI DUP3 SWAP1 SUB PUSH1 0x1F AND DUP3 ADD SWAP2 JUMPDEST POP POP POP POP POP DUP2 JUMP JUMPDEST PUSH0 DUP1 PUSH0 SWAP1 SLOAD SWAP1 PUSH2 0x100 EXP SWAP1 DIV PUSH20 0xFFFFFFFFFFFFFFFFFFFFFFFFFFFFFFFFFFFFFFFF AND PUSH20 0xFFFFFFFFFFFFFFFFFFFFFFFFFFFFFFFFFFFFFFFF AND CALLER PUSH20 0xFFFFFFFFFFFFFFFFFFFFFFFFFFFFFFFFFFFFFFFF AND EQ PUSH2 0x3B1 JUMPI PUSH1 0x40 MLOAD PUSH32 0x8C379A000000000000000000000000000000000000000000000000000000000 DUP2 MSTORE PUSH1 0x4 ADD PUSH2 0x3A8 SWAP1 PUSH2 0x83A JUMP JUMPDEST PUSH1 0x40 MLOAD DUP1 SWAP2 SUB SWAP1 REVERT JUMPDEST DUP5 DUP5 PUSH0 PUSH1 0x1 DUP4 DUP4 PUSH1 0x40 MLOAD PUSH2 0x3C6 SWAP3 SWAP2 SWAP1 PUSH2 0x886 JUMP JUMPDEST SWAP1 DUP2 MSTORE PUSH1 0x20 ADD PUSH1 0x40 MLOAD DUP1 SWAP2 SUB SWAP1 KECCAK256 DUP1 SLOAD PUSH2 0x3DF SWAP1 PUSH2 0x8CB JUMP JUMPDEST SWAP1 POP SUB PUSH2 0x418 JUMPI PUSH1 0x40 MLOAD PUSH32 0xEFE50F0F00000000000000000000000000000000000000000000000000000000 DUP2 MSTORE PUSH1 0x4 ADD PUSH1 0x40 MLOAD DUP1 SWAP2 SUB SWAP1 REVERT JUMPDEST PUSH32 0x8EFB390ACDAC38FB9AD7D71E79F4637D831018312584028A45757A3312E6F647 DUP8 DUP8 PUSH1 0x1 DUP11 DUP11 PUSH1 0x40 MLOAD PUSH2 0x44D SWAP3 SWAP2 SWAP1 PUSH2 0x886 JUMP JUMPDEST SWAP1 DUP2 MSTORE PUSH1 0x20 ADD PUSH1 0x40 MLOAD DUP1 SWAP2 SUB SWAP1 KECCAK256 DUP9 DUP9 PUSH1 0x40 MLOAD PUSH2 0x46E SWAP6 SWAP5 SWAP4 SWAP3 SWAP2 SWAP1 PUSH2 0xC7E JUMP JUMPDEST PUSH1 0x40 MLOAD DUP1 SWAP2 SUB SWAP1 LOG1 DUP5 DUP5 PUSH1 0x1 DUP10 DUP10 PUSH1 0x40 MLOAD PUSH2 0x48A SWAP3 SWAP2 SWAP1 PUSH2 0x886 JUMP JUMPDEST SWAP1 DUP2 MSTORE PUSH1 0x20 ADD PUSH1 0x40 MLOAD DUP1 SWAP2 SUB SWAP1 KECCAK256 SWAP2 DUP3 PUSH2 0x4A5 SWAP3 SWAP2 SWAP1 PUSH2 0xB4C JUMP JUMPDEST POP PUSH1 0x1 SWAP3 POP POP POP SWAP5 SWAP4 POP POP POP POP JUMP JUMPDEST PUSH0 PUSH1 0x40 MLOAD SWAP1 POP SWAP1 JUMP JUMPDEST PUSH0 DUP1 REVERT JUMPDEST PUSH0 DUP1 REVERT JUMPDEST PUSH0 DUP1 REVERT JUMPDEST PUSH0 DUP1 REVERT JUMPDEST PUSH0 DUP1 REVERT JUMPDEST PUSH0 DUP1 DUP4 PUSH1 0x1F DUP5 ADD SLT PUSH2 0x4E6 JUMPI PUSH2 0x4E5 PUSH2 0x4C5 JUMP JUMPDEST JUMPDEST DUP3 CALLDATALOAD SWAP1 POP PUSH8 0xFFFFFFFFFFFFFFFF DUP2 GT ISZERO PUSH2 0x503 JUMPI PUSH2 0x502 PUSH2 0x4C9 JUMP JUMPDEST JUMPDEST PUSH1 0x20 DUP4 ADD SWAP2 POP DUP4 PUSH1 0x1 DUP3 MUL DUP4 ADD GT ISZERO PUSH2 0x51F JUMPI PUSH2 0x51E PUSH2 0x4CD JUMP JUMPDEST JUMPDEST SWAP3 POP SWAP3 SWAP1 POP JUMP JUMPDEST PUSH0 DUP1 PUSH0 DUP1 PUSH1 0x40 DUP6 DUP8 SUB SLT ISZERO PUSH2 0x53E JUMPI PUSH2 0x53D PUSH2 0x4BD JUMP JUMPDEST JUMPDEST PUSH0 DUP6 ADD CALLDATALOAD PUSH8 0xFFFFFFFFFFFFFFFF DUP2 GT ISZERO PUSH2 0x55B JUMPI PUSH2 0x55A PUSH2 0x4C1 JUMP JUMPDEST JUMPDEST PUSH2 0x567 DUP8 DUP3 DUP9 ADD PUSH2 0x4D1 JUMP JUMPDEST SWAP5 POP SWAP5 POP POP PUSH1 0x20 DUP6 ADD CALLDATALOAD PUSH8 0xFFFFFFFFFFFFFFFF DUP2 GT ISZERO PUSH2 0x58A JUMPI PUSH2 0x589 PUSH2 0x4C1 JUMP JUMPDEST JUMPDEST PUSH2 0x596 DUP8 DUP3 DUP9 ADD PUSH2 0x4D1 JUMP JUMPDEST SWAP3 POP SWAP3 POP POP SWAP3 SWAP6 SWAP2 SWAP5 POP SWAP3 POP JUMP JUMPDEST PUSH0 DUP2 ISZERO ISZERO SWAP1 POP SWAP2 SWAP1 POP JUMP JUMPDEST PUSH2 0x5B8 DUP2 PUSH2 0x5A4 JUMP JUMPDEST DUP3 MSTORE POP POP JUMP JUMPDEST PUSH0 PUSH1 0x20 DUP3 ADD SWAP1 POP PUSH2 0x5D1 PUSH0 DUP4 ADD DUP5 PUSH2 0x5AF JUMP JUMPDEST SWAP3 SWAP2 POP POP JUMP JUMPDEST PUSH0 DUP1 REVERT JUMPDEST PUSH0 PUSH1 0x1F NOT PUSH1 0x1F DUP4 ADD AND SWAP1 POP SWAP2 SWAP1 POP JUMP JUMPDEST PUSH32 0x4E487B7100000000000000000000000000000000000000000000000000000000 PUSH0 MSTORE PUSH1 0x41 PUSH1 0x4 MSTORE PUSH1 0x24 PUSH0 REVERT JUMPDEST PUSH2 0x621 DUP3 PUSH2 0x5DB JUMP JUMPDEST DUP2 ADD DUP2 DUP2 LT PUSH8 0xFFFFFFFFFFFFFFFF DUP3 GT OR ISZERO PUSH2 0x640 JUMPI PUSH2 0x63F PUSH2 0x5EB JUMP JUMPDEST JUMPDEST DUP1 PUSH1 0x40 MSTORE POP POP POP JUMP JUMPDEST PUSH0 PUSH2 0x652 PUSH2 0x4B4 JUMP JUMPDEST SWAP1 POP PUSH2 0x65E DUP3 DUP3 PUSH2 0x618 JUMP JUMPDEST SWAP2 SWAP1 POP JUMP JUMPDEST PUSH0 PUSH8 0xFFFFFFFFFFFFFFFF DUP3 GT ISZERO PUSH2 0x67D JUMPI PUSH2 0x67C PUSH2 0x5EB JUMP JUMPDEST JUMPDEST PUSH2 0x686 DUP3 PUSH2 0x5DB JUMP JUMPDEST SWAP1 POP PUSH1 0x20 DUP2 ADD SWAP1 POP SWAP2 SWAP1 POP JUMP JUMPDEST DUP3 DUP2 DUP4 CALLDATACOPY PUSH0 DUP4 DUP4 ADD MSTORE POP POP POP JUMP JUMPDEST PUSH0 PUSH2 0x6B3 PUSH2 0x6AE DUP5 PUSH2 0x663 JUMP JUMPDEST PUSH2 0x649 JUMP JUMPDEST SWAP1 POP DUP3 DUP2 MSTORE PUSH1 0x20 DUP2 ADD DUP5 DUP5 DUP5 ADD GT ISZERO PUSH2 0x6CF JUMPI PUSH2 0x6CE PUSH2 0x5D7 JUMP JUMPDEST JUMPDEST PUSH2 0x6DA DUP5 DUP3 DUP6 PUSH2 0x693 JUMP JUMPDEST POP SWAP4 SWAP3 POP POP POP JUMP JUMPDEST PUSH0 DUP3 PUSH1 0x1F DUP4 ADD SLT PUSH2 0x6F6 JUMPI PUSH2 0x6F5 PUSH2 0x4C5 JUMP JUMPDEST JUMPDEST DUP2 CALLDATALOAD PUSH2 0x706 DUP5 DUP3 PUSH1 0x20 DUP7 ADD PUSH2 0x6A1 JUMP JUMPDEST SWAP2 POP POP SWAP3 SWAP2 POP POP JUMP JUMPDEST PUSH0 PUSH1 0x20 DUP3 DUP5 SUB SLT ISZERO PUSH2 0x724 JUMPI PUSH2 0x723 PUSH2 0x4BD JUMP JUMPDEST JUMPDEST PUSH0 DUP3 ADD CALLDATALOAD PUSH8 0xFFFFFFFFFFFFFFFF DUP2 GT ISZERO PUSH2 0x741 JUMPI PUSH2 0x740 PUSH2 0x4C1 JUMP JUMPDEST JUMPDEST PUSH2 0x74D DUP5 DUP3 DUP6 ADD PUSH2 0x6E2 JUMP JUMPDEST SWAP2 POP POP SWAP3 SWAP2 POP POP JUMP JUMPDEST PUSH0 DUP2 MLOAD SWAP1 POP SWAP2 SWAP1 POP JUMP JUMPDEST PUSH0 DUP3 DUP3 MSTORE PUSH1 0x20 DUP3 ADD SWAP1 POP SWAP3 SWAP2 POP POP JUMP JUMPDEST PUSH0 JUMPDEST DUP4 DUP2 LT ISZERO PUSH2 0x78D JUMPI DUP1 DUP3 ADD MLOAD DUP2 DUP5 ADD MSTORE PUSH1 0x20 DUP2 ADD SWAP1 POP PUSH2 0x772 JUMP JUMPDEST PUSH0 DUP5 DUP5 ADD MSTORE POP POP POP POP JUMP JUMPDEST PUSH0 PUSH2 0x7A2 DUP3 PUSH2 0x756 JUMP JUMPDEST PUSH2 0x7AC DUP2 DUP6 PUSH2 0x760 JUMP JUMPDEST SWAP4 POP PUSH2 0x7BC DUP2 DUP6 PUSH1 0x20 DUP7 ADD PUSH2 0x770 JUMP JUMPDEST PUSH2 0x7C5 DUP2 PUSH2 0x5DB JUMP JUMPDEST DUP5 ADD SWAP2 POP POP SWAP3 SWAP2 POP POP JUMP JUMPDEST PUSH0 PUSH1 0x20 DUP3 ADD SWAP1 POP DUP2 DUP2 SUB PUSH0 DUP4 ADD MSTORE PUSH2 0x7E8 DUP2 DUP5 PUSH2 0x798 JUMP JUMPDEST SWAP1 POP SWAP3 SWAP2 POP POP JUMP JUMPDEST PUSH32 0x4F6E6C792061646D696E2063616E206D616B6520612063616C6C000000000000 PUSH0 DUP3 ADD MSTORE POP JUMP JUMPDEST PUSH0 PUSH2 0x824 PUSH1 0x1A DUP4 PUSH2 0x760 JUMP JUMPDEST SWAP2 POP PUSH2 0x82F DUP3 PUSH2 0x7F0 JUMP JUMPDEST PUSH1 0x20 DUP3 ADD SWAP1 POP SWAP2 SWAP1 POP JUMP JUMPDEST PUSH0 PUSH1 0x20 DUP3 ADD SWAP1 POP DUP2 DUP2 SUB PUSH0 DUP4 ADD MSTORE PUSH2 0x851 DUP2 PUSH2 0x818 JUMP JUMPDEST SWAP1 POP SWAP2 SWAP1 POP JUMP JUMPDEST PUSH0 DUP2 SWAP1 POP SWAP3 SWAP2 POP POP JUMP JUMPDEST PUSH0 PUSH2 0x86D DUP4 DUP6 PUSH2 0x858 JUMP JUMPDEST SWAP4 POP PUSH2 0x87A DUP4 DUP6 DUP5 PUSH2 0x693 JUMP JUMPDEST DUP3 DUP5 ADD SWAP1 POP SWAP4 SWAP3 POP POP POP JUMP JUMPDEST PUSH0 PUSH2 0x892 DUP3 DUP5 DUP7 PUSH2 0x862 JUMP JUMPDEST SWAP2 POP DUP2 SWAP1 POP SWAP4 SWAP3 POP POP POP JUMP JUMPDEST PUSH32 0x4E487B7100000000000000000000000000000000000000000000000000000000 PUSH0 MSTORE PUSH1 0x22 PUSH1 0x4 MSTORE PUSH1 0x24 PUSH0 REVERT JUMPDEST PUSH0 PUSH1 0x2 DUP3 DIV SWAP1 POP PUSH1 0x1 DUP3 AND DUP1 PUSH2 0x8E2 JUMPI PUSH1 0x7F DUP3 AND SWAP2 POP JUMPDEST PUSH1 0x20 DUP3 LT DUP2 SUB PUSH2 0x8F5 JUMPI PUSH2 0x8F4 PUSH2 0x89E JUMP JUMPDEST JUMPDEST POP SWAP2 SWAP1 POP JUMP JUMPDEST PUSH0 DUP2 SWAP1 POP DUP2 PUSH0 MSTORE PUSH1 0x20 PUSH0 KECCAK256 SWAP1 POP SWAP2 SWAP1 POP JUMP JUMPDEST PUSH0 DUP2 SLOAD PUSH2 0x919 DUP2 PUSH2 0x8CB JUMP JUMPDEST PUSH2 0x923 DUP2 DUP7 PUSH2 0x760 JUMP JUMPDEST SWAP5 POP PUSH1 0x1 DUP3 AND PUSH0 DUP2 EQ PUSH2 0x93D JUMPI PUSH1 0x1 DUP2 EQ PUSH2 0x953 JUMPI PUSH2 0x985 JUMP JUMPDEST PUSH1 0xFF NOT DUP4 AND DUP7 MSTORE DUP2 ISZERO ISZERO PUSH1 0x20 MUL DUP7 ADD SWAP4 POP PUSH2 0x985 JUMP JUMPDEST PUSH2 0x95C DUP6 PUSH2 0x8FB JUMP JUMPDEST PUSH0 JUMPDEST DUP4 DUP2 LT ISZERO PUSH2 0x97D JUMPI DUP2 SLOAD DUP2 DUP10 ADD MSTORE PUSH1 0x1 DUP3 ADD SWAP2 POP PUSH1 0x20 DUP2 ADD SWAP1 POP PUSH2 0x95E JUMP JUMPDEST DUP1 DUP9 ADD SWAP6 POP POP POP JUMPDEST POP POP POP SWAP3 SWAP2 POP POP JUMP JUMPDEST PUSH0 PUSH1 0x20 DUP3 ADD SWAP1 POP DUP2 DUP2 SUB PUSH0 DUP4 ADD MSTORE PUSH2 0x9A6 DUP2 DUP5 PUSH2 0x90D JUMP JUMPDEST SWAP1 POP SWAP3 SWAP2 POP POP JUMP JUMPDEST PUSH0 DUP3 SWAP1 POP SWAP3 SWAP2 POP POP JUMP JUMPDEST PUSH0 PUSH1 0x20 PUSH1 0x1F DUP4 ADD DIV SWAP1 POP SWAP2 SWAP1 POP JUMP JUMPDEST PUSH0 DUP3 DUP3 SHL SWAP1 POP SWAP3 SWAP2 POP POP JUMP JUMPDEST PUSH0 PUSH1 0x8 DUP4 MUL PUSH2 0xA02 PUSH32 0xFFFFFFFFFFFFFFFFFFFFFFFFFFFFFFFFFFFFFFFFFFFFFFFFFFFFFFFFFFFFFFFF DUP3 PUSH2 0x9C7 JUMP JUMPDEST PUSH2 0xA0C DUP7 DUP4 PUSH2 0x9C7 JUMP JUMPDEST SWAP6 POP DUP1 NOT DUP5 AND SWAP4 POP DUP1 DUP7 AND DUP5 OR SWAP3 POP POP POP SWAP4 SWAP3 POP POP POP JUMP JUMPDEST PUSH0 DUP2 SWAP1 POP SWAP2 SWAP1 POP JUMP JUMPDEST PUSH0 DUP2 SWAP1 POP SWAP2 SWAP1 POP JUMP JUMPDEST PUSH0 PUSH2 0xA50 PUSH2 0xA4B PUSH2 0xA46 DUP5 PUSH2 0xA24 JUMP JUMPDEST PUSH2 0xA2D JUMP JUMPDEST PUSH2 0xA24 JUMP JUMPDEST SWAP1 POP SWAP2 SWAP1 POP JUMP JUMPDEST PUSH0 DUP2 SWAP1 POP SWAP2 SWAP1 POP JUMP JUMPDEST PUSH2 0xA69 DUP4 PUSH2 0xA36 JUMP JUMPDEST PUSH2 0xA7D PUSH2 0xA75 DUP3 PUSH2 0xA57 JUMP JUMPDEST DUP5 DUP5 SLOAD PUSH2 0x9D3 JUMP JUMPDEST DUP3 SSTORE POP POP POP POP JUMP JUMPDEST PUSH0 SWAP1 JUMP JUMPDEST PUSH2 0xA91 PUSH2 0xA85 JUMP JUMPDEST PUSH2 0xA9C DUP2 DUP5 DUP5 PUSH2 0xA60 JUMP JUMPDEST POP POP POP JUMP JUMPDEST JUMPDEST DUP2 DUP2 LT ISZERO PUSH2 0xABF JUMPI PUSH2 0xAB4 PUSH0 DUP3 PUSH2 0xA89 JUMP JUMPDEST PUSH1 0x1 DUP2 ADD SWAP1 POP PUSH2 0xAA2 JUMP JUMPDEST POP POP JUMP JUMPDEST PUSH1 0x1F DUP3 GT ISZERO PUSH2 0xB04 JUMPI PUSH2 0xAD5 DUP2 PUSH2 0x8FB JUMP JUMPDEST PUSH2 0xADE DUP5 PUSH2 0x9B8 JUMP JUMPDEST DUP2 ADD PUSH1 0x20 DUP6 LT ISZERO PUSH2 0xAED JUMPI DUP2 SWAP1 POP JUMPDEST PUSH2 0xB01 PUSH2 0xAF9 DUP6 PUSH2 0x9B8 JUMP JUMPDEST DUP4 ADD DUP3 PUSH2 0xAA1 JUMP JUMPDEST POP POP JUMPDEST POP POP POP JUMP JUMPDEST PUSH0 DUP3 DUP3 SHR SWAP1 POP SWAP3 SWAP2 POP POP JUMP JUMPDEST PUSH0 PUSH2 0xB24 PUSH0 NOT DUP5 PUSH1 0x8 MUL PUSH2 0xB09 JUMP JUMPDEST NOT DUP1 DUP4 AND SWAP2 POP POP SWAP3 SWAP2 POP POP JUMP JUMPDEST PUSH0 PUSH2 0xB3C DUP4 DUP4 PUSH2 0xB15 JUMP JUMPDEST SWAP2 POP DUP3 PUSH1 0x2 MUL DUP3 OR SWAP1 POP SWAP3 SWAP2 POP POP JUMP JUMPDEST PUSH2 0xB56 DUP4 DUP4 PUSH2 0x9AE JUMP JUMPDEST PUSH8 0xFFFFFFFFFFFFFFFF DUP2 GT ISZERO PUSH2 0xB6F JUMPI PUSH2 0xB6E PUSH2 0x5EB JUMP JUMPDEST JUMPDEST PUSH2 0xB79 DUP3 SLOAD PUSH2 0x8CB JUMP JUMPDEST PUSH2 0xB84 DUP3 DUP3 DUP6 PUSH2 0xAC3 JUMP JUMPDEST PUSH0 PUSH1 0x1F DUP4 GT PUSH1 0x1 DUP2 EQ PUSH2 0xBB1 JUMPI PUSH0 DUP5 ISZERO PUSH2 0xB9F JUMPI DUP3 DUP8 ADD CALLDATALOAD SWAP1 POP JUMPDEST PUSH2 0xBA9 DUP6 DUP3 PUSH2 0xB31 JUMP JUMPDEST DUP7 SSTORE POP PUSH2 0xC10 JUMP JUMPDEST PUSH1 0x1F NOT DUP5 AND PUSH2 0xBBF DUP7 PUSH2 0x8FB JUMP JUMPDEST PUSH0 JUMPDEST DUP3 DUP2 LT ISZERO PUSH2 0xBE6 JUMPI DUP5 DUP10 ADD CALLDATALOAD DUP3 SSTORE PUSH1 0x1 DUP3 ADD SWAP2 POP PUSH1 0x20 DUP6 ADD SWAP5 POP PUSH1 0x20 DUP2 ADD SWAP1 POP PUSH2 0xBC1 JUMP JUMPDEST DUP7 DUP4 LT ISZERO PUSH2 0xC03 JUMPI DUP5 DUP10 ADD CALLDATALOAD PUSH2 0xBFF PUSH1 0x1F DUP10 AND DUP3 PUSH2 0xB15 JUMP JUMPDEST DUP4 SSTORE POP JUMPDEST PUSH1 0x1 PUSH1 0x2 DUP9 MUL ADD DUP9 SSTORE POP POP POP JUMPDEST POP POP POP POP POP POP POP JUMP JUMPDEST PUSH0 PUSH2 0xC24 DUP4 DUP6 PUSH2 0x760 JUMP JUMPDEST SWAP4 POP PUSH2 0xC31 DUP4 DUP6 DUP5 PUSH2 0x693 JUMP JUMPDEST PUSH2 0xC3A DUP4 PUSH2 0x5DB JUMP JUMPDEST DUP5 ADD SWAP1 POP SWAP4 SWAP3 POP POP POP JUMP JUMPDEST PUSH0 PUSH1 0x40 DUP3 ADD SWAP1 POP DUP2 DUP2 SUB PUSH0 DUP4 ADD MSTORE PUSH2 0xC5E DUP2 DUP7 DUP9 PUSH2 0xC19 JUMP JUMPDEST SWAP1 POP DUP2 DUP2 SUB PUSH1 0x20 DUP4 ADD MSTORE PUSH2 0xC73 DUP2 DUP5 DUP7 PUSH2 0xC19 JUMP JUMPDEST SWAP1 POP SWAP6 SWAP5 POP POP POP POP POP JUMP JUMPDEST PUSH0 PUSH1 0x60 DUP3 ADD SWAP1 POP DUP2 DUP2 SUB PUSH0 DUP4 ADD MSTORE PUSH2 0xC97 DUP2 DUP8 DUP10 PUSH2 0xC19 JUMP JUMPDEST SWAP1 POP DUP2 DUP2 SUB PUSH1 0x20 DUP4 ADD MSTORE PUSH2 0xCAB DUP2 DUP7 PUSH2 0x90D JUMP JUMPDEST SWAP1 POP DUP2 DUP2 SUB PUSH1 0x40 DUP4 ADD MSTORE PUSH2 0xCC0 DUP2 DUP5 DUP7 PUSH2 0xC19 JUMP JUMPDEST SWAP1 POP SWAP7 SWAP6 POP POP POP POP POP POP JUMP INVALID LOG2 PUSH5 0x6970667358 0x22 SLT KECCAK256 0xE5 0x21 LOG4 CALLDATASIZE PUSH26 0x1A3B3071DD276AADF06F3445EAF0B7CE79AA47352DCBED488290 0x29 PUSH5 0x736F6C6343 STOP ADDMOD AND STOP CALLER "
				},
				"gasEstimates": {
					"creation": {
						"codeDepositCost": "666000",
						"executionCost": "infinite",
						"totalCost": "infinite"
					},
					"external": {
						"assignOwnership(string,string)": "infinite",
						"changeOwnership(string,string)": "infinite",
						"landOwner(string)": "infinite"
					}
				},
				"methodIdentifiers": {
					"assignOwnership(string,string)": "381eeac1",
					"changeOwnership(string,string)": "9130f38c",
					"landOwner(string)": "48c24e11"
				}
			},
			"storageLayout": {
				"storage": [
					{
						"astId": 3,
						"contract": "solidity-fundamentals/contracts/GhanaAsaase.sol:GhanaAsaase",
						"label": "admin",
						"offset": 0,
						"slot": "0",
						"type": "t_address"
					},
					{
						"astId": 7,
						"contract": "solidity-fundamentals/contracts/GhanaAsaase.sol:GhanaAsaase",
						"label": "landOwner",
						"offset": 0,
						"slot": "1",
						"type": "t_mapping(t_string_memory_ptr,t_string_storage)"
					}
				],
				"types": {
					"t_address": {
						"encoding": "inplace",
						"label": "address",
						"numberOfBytes": "20"
					},
					"t_mapping(t_string_memory_ptr,t_string_storage)": {
						"encoding": "mapping",
						"key": "t_string_memory_ptr",
						"label": "mapping(string => string)",
						"numberOfBytes": "32",
						"value": "t_string_storage"
					},
					"t_string_memory_ptr": {
						"encoding": "bytes",
						"label": "string",
						"numberOfBytes": "32"
					},
					"t_string_storage": {
						"encoding": "bytes",
						"label": "string",
						"numberOfBytes": "32"
					}
				}
			},
			"userdoc": {
				"kind": "user",
				"methods": {
					"assignOwnership(string,string)": {
						"notice": "Assign a land to an owner can only be called by admin"
					},
					"changeOwnership(string,string)": {
						"notice": "change owner of land to new owner can only be called by admin"
					}
				},
				"version": 1
			}
		}
	}
}