{
	"data": {
		"bytecode": {
			"linkReferences": {},
			"object": "60806040526040518060400160405280600f81526020017f6861636b2074686520706c616e65740000000000000000000000000000000000815250600290816200004a9190620002c2565b5034801562000057575f80fd5b50620003a6565b5f81519050919050565b7f4e487b71000000000000000000000000000000000000000000000000000000005f52604160045260245ffd5b7f4e487b71000000000000000000000000000000000000000000000000000000005f52602260045260245ffd5b5f6002820490506001821680620000da57607f821691505b602082108103620000f057620000ef62000095565b5b50919050565b5f819050815f5260205f209050919050565b5f6020601f8301049050919050565b5f82821b905092915050565b5f60088302620001547fffffffffffffffffffffffffffffffffffffffffffffffffffffffffffffffff8262000117565b62000160868362000117565b95508019841693508086168417925050509392505050565b5f819050919050565b5f819050919050565b5f620001aa620001a46200019e8462000178565b62000181565b62000178565b9050919050565b5f819050919050565b620001c5836200018a565b620001dd620001d482620001b1565b84845462000123565b825550505050565b5f90565b620001f3620001e5565b62000200818484620001ba565b505050565b5b8181101562000227576200021b5f82620001e9565b60018101905062000206565b5050565b601f82111562000276576200024081620000f6565b6200024b8462000108565b810160208510156200025b578190505b620002736200026a8562000108565b83018262000205565b50505b505050565b5f82821c905092915050565b5f620002985f19846008026200027b565b1980831691505092915050565b5f620002b2838362000287565b9150826002028217905092915050565b620002cd826200005e565b67ffffffffffffffff811115620002e957620002e862000068565b5b620002f58254620000c2565b620003028282856200022b565b5f60209050601f83116001811462000338575f841562000323578287015190505b6200032f8582620002a5565b8655506200039e565b601f1984166200034886620000f6565b5f5b8281101562000371578489015182556001820191506020850194506020810190506200034a565b868310156200039157848901516200038d601f89168262000287565b8355505b6001600288020188555050505b505050505050565b610b8e80620003b45f395ff3fe608060405234801561000f575f80fd5b50600436106100b2575f3560e01c8063821805681161006f5780638218056814610156578063da50eaee14610172578063e2a4b2af1461017c578063e30081a01461019a578063e492fd84146101b6578063eb1b30d9146101d2576100b2565b806306540f7e146100b657806314bf43bd146100d457806315502612146100de57806326b85ee1146100fc578063492bfa181461011a5780636deecdbe14610138575b5f80fd5b6100be6101ee565b6040516100cb919061040e565b60405180910390f35b6100dc6101f3565b005b6100e661022c565b6040516100f3919061040e565b60405180910390f35b61010461026c565b6040516101119190610466565b60405180910390f35b610122610292565b60405161012f9190610509565b60405180910390f35b61014061031e565b60405161014d9190610543565b60405180910390f35b610170600480360381019061016b9190610699565b610330565b005b61017a610343565b005b61018461037c565b60405161019191906106fb565b60405180910390f35b6101b460048036038101906101af919061073e565b61038d565b005b6101d060048036038101906101cb9190610793565b6103d1565b005b6101ec60048036038101906101e791906107e8565b6103da565b005b5f5481565b60018081819054906101000a900460ff168092919061021190610840565b91906101000a81548160ff021916908360ff16021790555050565b5f600160029054906101000a900473ffffffffffffffffffffffffffffffffffffffff1673ffffffffffffffffffffffffffffffffffffffff1631905090565b600160029054906101000a900473ffffffffffffffffffffffffffffffffffffffff1681565b6002805461029f90610895565b80601f01602080910402602001604051908101604052809291908181526020018280546102cb90610895565b80156103165780601f106102ed57610100808354040283529160200191610316565b820191905f5260205f20905b8154815290600101906020018083116102f957829003601f168201915b505050505081565b60015f9054906101000a900460ff1681565b806002908161033f9190610a62565b5050565b60018081819054906101000a900460ff168092919061036190610b31565b91906101000a81548160ff021916908360ff16021790555050565b60018054906101000a900460ff1681565b80600160026101000a81548173ffffffffffffffffffffffffffffffffffffffff021916908373ffffffffffffffffffffffffffffffffffffffff16021790555050565b805f8190555050565b8060015f6101000a81548160ff02191690831515021790555050565b5f819050919050565b610408816103f6565b82525050565b5f6020820190506104215f8301846103ff565b92915050565b5f73ffffffffffffffffffffffffffffffffffffffff82169050919050565b5f61045082610427565b9050919050565b61046081610446565b82525050565b5f6020820190506104795f830184610457565b92915050565b5f81519050919050565b5f82825260208201905092915050565b5f5b838110156104b657808201518184015260208101905061049b565b5f8484015250505050565b5f601f19601f8301169050919050565b5f6104db8261047f565b6104e58185610489565b93506104f5818560208601610499565b6104fe816104c1565b840191505092915050565b5f6020820190508181035f83015261052181846104d1565b905092915050565b5f8115159050919050565b61053d81610529565b82525050565b5f6020820190506105565f830184610534565b92915050565b5f604051905090565b5f80fd5b5f80fd5b5f80fd5b5f80fd5b7f4e487b71000000000000000000000000000000000000000000000000000000005f52604160045260245ffd5b6105ab826104c1565b810181811067ffffffffffffffff821117156105ca576105c9610575565b5b80604052505050565b5f6105dc61055c565b90506105e882826105a2565b919050565b5f67ffffffffffffffff82111561060757610606610575565b5b610610826104c1565b9050602081019050919050565b828183375f83830152505050565b5f61063d610638846105ed565b6105d3565b90508281526020810184848401111561065957610658610571565b5b61066484828561061d565b509392505050565b5f82601f8301126106805761067f61056d565b5b813561069084826020860161062b565b91505092915050565b5f602082840312156106ae576106ad610565565b5b5f82013567ffffffffffffffff8111156106cb576106ca610569565b5b6106d78482850161066c565b91505092915050565b5f60ff82169050919050565b6106f5816106e0565b82525050565b5f60208201905061070e5f8301846106ec565b92915050565b61071d81610446565b8114610727575f80fd5b50565b5f8135905061073881610714565b92915050565b5f6020828403121561075357610752610565565b5b5f6107608482850161072a565b91505092915050565b610772816103f6565b811461077c575f80fd5b50565b5f8135905061078d81610769565b92915050565b5f602082840312156107a8576107a7610565565b5b5f6107b58482850161077f565b91505092915050565b6107c781610529565b81146107d1575f80fd5b50565b5f813590506107e2816107be565b92915050565b5f602082840312156107fd576107fc610565565b5b5f61080a848285016107d4565b91505092915050565b7f4e487b71000000000000000000000000000000000000000000000000000000005f52601160045260245ffd5b5f61084a826106e0565b915060ff820361085d5761085c610813565b5b600182019050919050565b7f4e487b71000000000000000000000000000000000000000000000000000000005f52602260045260245ffd5b5f60028204905060018216806108ac57607f821691505b6020821081036108bf576108be610868565b5b50919050565b5f819050815f5260205f209050919050565b5f6020601f8301049050919050565b5f82821b905092915050565b5f600883026109217fffffffffffffffffffffffffffffffffffffffffffffffffffffffffffffffff826108e6565b61092b86836108e6565b95508019841693508086168417925050509392505050565b5f819050919050565b5f61096661096161095c846103f6565b610943565b6103f6565b9050919050565b5f819050919050565b61097f8361094c565b61099361098b8261096d565b8484546108f2565b825550505050565b5f90565b6109a761099b565b6109b2818484610976565b505050565b5b818110156109d5576109ca5f8261099f565b6001810190506109b8565b5050565b601f821115610a1a576109eb816108c5565b6109f4846108d7565b81016020851015610a03578190505b610a17610a0f856108d7565b8301826109b7565b50505b505050565b5f82821c905092915050565b5f610a3a5f1984600802610a1f565b1980831691505092915050565b5f610a528383610a2b565b9150826002028217905092915050565b610a6b8261047f565b67ffffffffffffffff811115610a8457610a83610575565b5b610a8e8254610895565b610a998282856109d9565b5f60209050601f831160018114610aca575f8415610ab8578287015190505b610ac28582610a47565b865550610b29565b601f198416610ad8866108c5565b5f5b82811015610aff57848901518255600182019150602085019450602081019050610ada565b86831015610b1c5784890151610b18601f891682610a2b565b8355505b6001600288020188555050505b505050505050565b5f610b3b826106e0565b91505f8203610b4d57610b4c610813565b5b60018203905091905056fea26469706673582212204c1792a92787a98965256f4316565a5020dff363d2b355c26838d37ffe4ae06c64736f6c63430008160033",
			"opcodes": "PUSH1 0x80 PUSH1 0x40 MSTORE PUSH1 0x40 MLOAD DUP1 PUSH1 0x40 ADD PUSH1 0x40 MSTORE DUP1 PUSH1 0xF DUP2 MSTORE PUSH1 0x20 ADD PUSH32 0x6861636B2074686520706C616E65740000000000000000000000000000000000 DUP2 MSTORE POP PUSH1 0x2 SWAP1 DUP2 PUSH3 0x4A SWAP2 SWAP1 PUSH3 0x2C2 JUMP JUMPDEST POP CALLVALUE DUP1 ISZERO PUSH3 0x57 JUMPI PUSH0 DUP1 REVERT JUMPDEST POP PUSH3 0x3A6 JUMP JUMPDEST PUSH0 DUP2 MLOAD SWAP1 POP SWAP2 SWAP1 POP JUMP JUMPDEST PUSH32 0x4E487B7100000000000000000000000000000000000000000000000000000000 PUSH0 MSTORE PUSH1 0x41 PUSH1 0x4 MSTORE PUSH1 0x24 PUSH0 REVERT JUMPDEST PUSH32 0x4E487B7100000000000000000000000000000000000000000000000000000000 PUSH0 MSTORE PUSH1 0x22 PUSH1 0x4 MSTORE PUSH1 0x24 PUSH0 REVERT JUMPDEST PUSH0 PUSH1 0x2 DUP3 DIV SWAP1 POP PUSH1 0x1 DUP3 AND DUP1 PUSH3 0xDA JUMPI PUSH1 0x7F DUP3 AND SWAP2 POP JUMPDEST PUSH1 0x20 DUP3 LT DUP2 SUB PUSH3 0xF0 JUMPI PUSH3 0xEF PUSH3 0x95 JUMP JUMPDEST JUMPDEST POP SWAP2 SWAP1 POP JUMP JUMPDEST PUSH0 DUP2 SWAP1 POP DUP2 PUSH0 MSTORE PUSH1 0x20 PUSH0 KECCAK256 SWAP1 POP SWAP2 SWAP1 POP JUMP JUMPDEST PUSH0 PUSH1 0x20 PUSH1 0x1F DUP4 ADD DIV SWAP1 POP SWAP2 SWAP1 POP JUMP JUMPDEST PUSH0 DUP3 DUP3 SHL SWAP1 POP SWAP3 SWAP2 POP POP JUMP JUMPDEST PUSH0 PUSH1 0x8 DUP4 MUL PUSH3 0x154 PUSH32 0xFFFFFFFFFFFFFFFFFFFFFFFFFFFFFFFFFFFFFFFFFFFFFFFFFFFFFFFFFFFFFFFF DUP3 PUSH3 0x117 JUMP JUMPDEST PUSH3 0x160 DUP7 DUP4 PUSH3 0x117 JUMP JUMPDEST SWAP6 POP DUP1 NOT DUP5 AND SWAP4 POP DUP1 DUP7 AND DUP5 OR SWAP3 POP POP POP SWAP4 SWAP3 POP POP POP JUMP JUMPDEST PUSH0 DUP2 SWAP1 POP SWAP2 SWAP1 POP JUMP JUMPDEST PUSH0 DUP2 SWAP1 POP SWAP2 SWAP1 POP JUMP JUMPDEST PUSH0 PUSH3 0x1AA PUSH3 0x1A4 PUSH3 0x19E DUP5 PUSH3 0x178 JUMP JUMPDEST PUSH3 0x181 JUMP JUMPDEST PUSH3 0x178 JUMP JUMPDEST SWAP1 POP SWAP2 SWAP1 POP JUMP JUMPDEST PUSH0 DUP2 SWAP1 POP SWAP2 SWAP1 POP JUMP JUMPDEST PUSH3 0x1C5 DUP4 PUSH3 0x18A JUMP JUMPDEST PUSH3 0x1DD PUSH3 0x1D4 DUP3 PUSH3 0x1B1 JUMP JUMPDEST DUP5 DUP5 SLOAD PUSH3 0x123 JUMP JUMPDEST DUP3 SSTORE POP POP POP POP JUMP JUMPDEST PUSH0 SWAP1 JUMP JUMPDEST PUSH3 0x1F3 PUSH3 0x1E5 JUMP JUMPDEST PUSH3 0x200 DUP2 DUP5 DUP5 PUSH3 0x1BA JUMP JUMPDEST POP POP POP JUMP JUMPDEST JUMPDEST DUP2 DUP2 LT ISZERO PUSH3 0x227 JUMPI PUSH3 0x21B PUSH0 DUP3 PUSH3 0x1E9 JUMP JUMPDEST PUSH1 0x1 DUP2 ADD SWAP1 POP PUSH3 0x206 JUMP JUMPDEST POP POP JUMP JUMPDEST PUSH1 0x1F DUP3 GT ISZERO PUSH3 0x276 JUMPI PUSH3 0x240 DUP2 PUSH3 0xF6 JUMP JUMPDEST PUSH3 0x24B DUP5 PUSH3 0x108 JUMP JUMPDEST DUP2 ADD PUSH1 0x20 DUP6 LT ISZERO PUSH3 0x25B JUMPI DUP2 SWAP1 POP JUMPDEST PUSH3 0x273 PUSH3 0x26A DUP6 PUSH3 0x108 JUMP JUMPDEST DUP4 ADD DUP3 PUSH3 0x205 JUMP JUMPDEST POP POP JUMPDEST POP POP POP JUMP JUMPDEST PUSH0 DUP3 DUP3 SHR SWAP1 POP SWAP3 SWAP2 POP POP JUMP JUMPDEST PUSH0 PUSH3 0x298 PUSH0 NOT DUP5 PUSH1 0x8 MUL PUSH3 0x27B JUMP JUMPDEST NOT DUP1 DUP4 AND SWAP2 POP POP SWAP3 SWAP2 POP POP JUMP JUMPDEST PUSH0 PUSH3 0x2B2 DUP4 DUP4 PUSH3 0x287 JUMP JUMPDEST SWAP2 POP DUP3 PUSH1 0x2 MUL DUP3 OR SWAP1 POP SWAP3 SWAP2 POP POP JUMP JUMPDEST PUSH3 0x2CD DUP3 PUSH3 0x5E JUMP JUMPDEST PUSH8 0xFFFFFFFFFFFFFFFF DUP2 GT ISZERO PUSH3 0x2E9 JUMPI PUSH3 0x2E8 PUSH3 0x68 JUMP JUMPDEST JUMPDEST PUSH3 0x2F5 DUP3 SLOAD PUSH3 0xC2 JUMP JUMPDEST PUSH3 0x302 DUP3 DUP3 DUP6 PUSH3 0x22B JUMP JUMPDEST PUSH0 PUSH1 0x20 SWAP1 POP PUSH1 0x1F DUP4 GT PUSH1 0x1 DUP2 EQ PUSH3 0x338 JUMPI PUSH0 DUP5 ISZERO PUSH3 0x323 JUMPI DUP3 DUP8 ADD MLOAD SWAP1 POP JUMPDEST PUSH3 0x32F DUP6 DUP3 PUSH3 0x2A5 JUMP JUMPDEST DUP7 SSTORE POP PUSH3 0x39E JUMP JUMPDEST PUSH1 0x1F NOT DUP5 AND PUSH3 0x348 DUP7 PUSH3 0xF6 JUMP JUMPDEST PUSH0 JUMPDEST DUP3 DUP2 LT ISZERO PUSH3 0x371 JUMPI DUP5 DUP10 ADD MLOAD DUP3 SSTORE PUSH1 0x1 DUP3 ADD SWAP2 POP PUSH1 0x20 DUP6 ADD SWAP5 POP PUSH1 0x20 DUP2 ADD SWAP1 POP PUSH3 0x34A JUMP JUMPDEST DUP7 DUP4 LT ISZERO PUSH3 0x391 JUMPI DUP5 DUP10 ADD MLOAD PUSH3 0x38D PUSH1 0x1F DUP10 AND DUP3 PUSH3 0x287 JUMP JUMPDEST DUP4 SSTORE POP JUMPDEST PUSH1 0x1 PUSH1 0x2 DUP9 MUL ADD DUP9 SSTORE POP POP POP JUMPDEST POP POP POP POP POP POP JUMP JUMPDEST PUSH2 0xB8E DUP1 PUSH3 0x3B4 PUSH0 CODECOPY PUSH0 RETURN INVALID PUSH1 0x80 PUSH1 0x40 MSTORE CALLVALUE DUP1 ISZERO PUSH2 0xF JUMPI PUSH0 DUP1 REVERT JUMPDEST POP PUSH1 0x4 CALLDATASIZE LT PUSH2 0xB2 JUMPI PUSH0 CALLDATALOAD PUSH1 0xE0 SHR DUP1 PUSH4 0x82180568 GT PUSH2 0x6F JUMPI DUP1 PUSH4 0x82180568 EQ PUSH2 0x156 JUMPI DUP1 PUSH4 0xDA50EAEE EQ PUSH2 0x172 JUMPI DUP1 PUSH4 0xE2A4B2AF EQ PUSH2 0x17C JUMPI DUP1 PUSH4 0xE30081A0 EQ PUSH2 0x19A JUMPI DUP1 PUSH4 0xE492FD84 EQ PUSH2 0x1B6 JUMPI DUP1 PUSH4 0xEB1B30D9 EQ PUSH2 0x1D2 JUMPI PUSH2 0xB2 JUMP JUMPDEST DUP1 PUSH4 0x6540F7E EQ PUSH2 0xB6 JUMPI DUP1 PUSH4 0x14BF43BD EQ PUSH2 0xD4 JUMPI DUP1 PUSH4 0x15502612 EQ PUSH2 0xDE JUMPI DUP1 PUSH4 0x26B85EE1 EQ PUSH2 0xFC JUMPI DUP1 PUSH4 0x492BFA18 EQ PUSH2 0x11A JUMPI DUP1 PUSH4 0x6DEECDBE EQ PUSH2 0x138 JUMPI JUMPDEST PUSH0 DUP1 REVERT JUMPDEST PUSH2 0xBE PUSH2 0x1EE JUMP JUMPDEST PUSH1 0x40 MLOAD PUSH2 0xCB SWAP2 SWAP1 PUSH2 0x40E JUMP JUMPDEST PUSH1 0x40 MLOAD DUP1 SWAP2 SUB SWAP1 RETURN JUMPDEST PUSH2 0xDC PUSH2 0x1F3 JUMP JUMPDEST STOP JUMPDEST PUSH2 0xE6 PUSH2 0x22C JUMP JUMPDEST PUSH1 0x40 MLOAD PUSH2 0xF3 SWAP2 SWAP1 PUSH2 0x40E JUMP JUMPDEST PUSH1 0x40 MLOAD DUP1 SWAP2 SUB SWAP1 RETURN JUMPDEST PUSH2 0x104 PUSH2 0x26C JUMP JUMPDEST PUSH1 0x40 MLOAD PUSH2 0x111 SWAP2 SWAP1 PUSH2 0x466 JUMP JUMPDEST PUSH1 0x40 MLOAD DUP1 SWAP2 SUB SWAP1 RETURN JUMPDEST PUSH2 0x122 PUSH2 0x292 JUMP JUMPDEST PUSH1 0x40 MLOAD PUSH2 0x12F SWAP2 SWAP1 PUSH2 0x509 JUMP JUMPDEST PUSH1 0x40 MLOAD DUP1 SWAP2 SUB SWAP1 RETURN JUMPDEST PUSH2 0x140 PUSH2 0x31E JUMP JUMPDEST PUSH1 0x40 MLOAD PUSH2 0x14D SWAP2 SWAP1 PUSH2 0x543 JUMP JUMPDEST PUSH1 0x40 MLOAD DUP1 SWAP2 SUB SWAP1 RETURN JUMPDEST PUSH2 0x170 PUSH1 0x4 DUP1 CALLDATASIZE SUB DUP2 ADD SWAP1 PUSH2 0x16B SWAP2 SWAP1 PUSH2 0x699 JUMP JUMPDEST PUSH2 0x330 JUMP JUMPDEST STOP JUMPDEST PUSH2 0x17A PUSH2 0x343 JUMP JUMPDEST STOP JUMPDEST PUSH2 0x184 PUSH2 0x37C JUMP JUMPDEST PUSH1 0x40 MLOAD PUSH2 0x191 SWAP2 SWAP1 PUSH2 0x6FB JUMP JUMPDEST PUSH1 0x40 MLOAD DUP1 SWAP2 SUB SWAP1 RETURN JUMPDEST PUSH2 0x1B4 PUSH1 0x4 DUP1 CALLDATASIZE SUB DUP2 ADD SWAP1 PUSH2 0x1AF SWAP2 SWAP1 PUSH2 0x73E JUMP JUMPDEST PUSH2 0x38D JUMP JUMPDEST STOP JUMPDEST PUSH2 0x1D0 PUSH1 0x4 DUP1 CALLDATASIZE SUB DUP2 ADD SWAP1 PUSH2 0x1CB SWAP2 SWAP1 PUSH2 0x793 JUMP JUMPDEST PUSH2 0x3D1 JUMP JUMPDEST STOP JUMPDEST PUSH2 0x1EC PUSH1 0x4 DUP1 CALLDATASIZE SUB DUP2 ADD SWAP1 PUSH2 0x1E7 SWAP2 SWAP1 PUSH2 0x7E8 JUMP JUMPDEST PUSH2 0x3DA JUMP JUMPDEST STOP JUMPDEST PUSH0 SLOAD DUP2 JUMP JUMPDEST PUSH1 0x1 DUP1 DUP2 DUP2 SWAP1 SLOAD SWAP1 PUSH2 0x100 EXP SWAP1 DIV PUSH1 0xFF AND DUP1 SWAP3 SWAP2 SWAP1 PUSH2 0x211 SWAP1 PUSH2 0x840 JUMP JUMPDEST SWAP2 SWAP1 PUSH2 0x100 EXP DUP2 SLOAD DUP2 PUSH1 0xFF MUL NOT AND SWAP1 DUP4 PUSH1 0xFF AND MUL OR SWAP1 SSTORE POP POP JUMP JUMPDEST PUSH0 PUSH1 0x1 PUSH1 0x2 SWAP1 SLOAD SWAP1 PUSH2 0x100 EXP SWAP1 DIV PUSH20 0xFFFFFFFFFFFFFFFFFFFFFFFFFFFFFFFFFFFFFFFF AND PUSH20 0xFFFFFFFFFFFFFFFFFFFFFFFFFFFFFFFFFFFFFFFF AND BALANCE SWAP1 POP SWAP1 JUMP JUMPDEST PUSH1 0x1 PUSH1 0x2 SWAP1 SLOAD SWAP1 PUSH2 0x100 EXP SWAP1 DIV PUSH20 0xFFFFFFFFFFFFFFFFFFFFFFFFFFFFFFFFFFFFFFFF AND DUP2 JUMP JUMPDEST PUSH1 0x2 DUP1 SLOAD PUSH2 0x29F SWAP1 PUSH2 0x895 JUMP JUMPDEST DUP1 PUSH1 0x1F ADD PUSH1 0x20 DUP1 SWAP2 DIV MUL PUSH1 0x20 ADD PUSH1 0x40 MLOAD SWAP1 DUP2 ADD PUSH1 0x40 MSTORE DUP1 SWAP3 SWAP2 SWAP1 DUP2 DUP2 MSTORE PUSH1 0x20 ADD DUP3 DUP1 SLOAD PUSH2 0x2CB SWAP1 PUSH2 0x895 JUMP JUMPDEST DUP1 ISZERO PUSH2 0x316 JUMPI DUP1 PUSH1 0x1F LT PUSH2 0x2ED JUMPI PUSH2 0x100 DUP1 DUP4 SLOAD DIV MUL DUP4 MSTORE SWAP2 PUSH1 0x20 ADD SWAP2 PUSH2 0x316 JUMP JUMPDEST DUP3 ADD SWAP2 SWAP1 PUSH0 MSTORE PUSH1 0x20 PUSH0 KECCAK256 SWAP1 JUMPDEST DUP2 SLOAD DUP2 MSTORE SWAP1 PUSH1 0x1 ADD SWAP1 PUSH1 0x20 ADD DUP1 DUP4 GT PUSH2 0x2F9 JUMPI DUP3 SWAP1 SUB PUSH1 0x1F AND DUP3 ADD SWAP2 JUMPDEST POP POP POP POP POP DUP2 JUMP JUMPDEST PUSH1 0x1 PUSH0 SWAP1 SLOAD SWAP1 PUSH2 0x100 EXP SWAP1 DIV PUSH1 0xFF AND DUP2 JUMP JUMPDEST DUP1 PUSH1 0x2 SWAP1 DUP2 PUSH2 0x33F SWAP2 SWAP1 PUSH2 0xA62 JUMP JUMPDEST POP POP JUMP JUMPDEST PUSH1 0x1 DUP1 DUP2 DUP2 SWAP1 SLOAD SWAP1 PUSH2 0x100 EXP SWAP1 DIV PUSH1 0xFF AND DUP1 SWAP3 SWAP2 SWAP1 PUSH2 0x361 SWAP1 PUSH2 0xB31 JUMP JUMPDEST SWAP2 SWAP1 PUSH2 0x100 EXP DUP2 SLOAD DUP2 PUSH1 0xFF MUL NOT AND SWAP1 DUP4 PUSH1 0xFF AND MUL OR SWAP1 SSTORE POP POP JUMP JUMPDEST PUSH1 0x1 DUP1 SLOAD SWAP1 PUSH2 0x100 EXP SWAP1 DIV PUSH1 0xFF AND DUP2 JUMP JUMPDEST DUP1 PUSH1 0x1 PUSH1 0x2 PUSH2 0x100 EXP DUP2 SLOAD DUP2 PUSH20 0xFFFFFFFFFFFFFFFFFFFFFFFFFFFFFFFFFFFFFFFF MUL NOT AND SWAP1 DUP4 PUSH20 0xFFFFFFFFFFFFFFFFFFFFFFFFFFFFFFFFFFFFFFFF AND MUL OR SWAP1 SSTORE POP POP JUMP JUMPDEST DUP1 PUSH0 DUP2 SWAP1 SSTORE POP POP JUMP JUMPDEST DUP1 PUSH1 0x1 PUSH0 PUSH2 0x100 EXP DUP2 SLOAD DUP2 PUSH1 0xFF MUL NOT AND SWAP1 DUP4 ISZERO ISZERO MUL OR SWAP1 SSTORE POP POP JUMP JUMPDEST PUSH0 DUP2 SWAP1 POP SWAP2 SWAP1 POP JUMP JUMPDEST PUSH2 0x408 DUP2 PUSH2 0x3F6 JUMP JUMPDEST DUP3 MSTORE POP POP JUMP JUMPDEST PUSH0 PUSH1 0x20 DUP3 ADD SWAP1 POP PUSH2 0x421 PUSH0 DUP4 ADD DUP5 PUSH2 0x3FF JUMP JUMPDEST SWAP3 SWAP2 POP POP JUMP JUMPDEST PUSH0 PUSH20 0xFFFFFFFFFFFFFFFFFFFFFFFFFFFFFFFFFFFFFFFF DUP3 AND SWAP1 POP SWAP2 SWAP1 POP JUMP JUMPDEST PUSH0 PUSH2 0x450 DUP3 PUSH2 0x427 JUMP JUMPDEST SWAP1 POP SWAP2 SWAP1 POP JUMP JUMPDEST PUSH2 0x460 DUP2 PUSH2 0x446 JUMP JUMPDEST DUP3 MSTORE POP POP JUMP JUMPDEST PUSH0 PUSH1 0x20 DUP3 ADD SWAP1 POP PUSH2 0x479 PUSH0 DUP4 ADD DUP5 PUSH2 0x457 JUMP JUMPDEST SWAP3 SWAP2 POP POP JUMP JUMPDEST PUSH0 DUP2 MLOAD SWAP1 POP SWAP2 SWAP1 POP JUMP JUMPDEST PUSH0 DUP3 DUP3 MSTORE PUSH1 0x20 DUP3 ADD SWAP1 POP SWAP3 SWAP2 POP POP JUMP JUMPDEST PUSH0 JUMPDEST DUP4 DUP2 LT ISZERO PUSH2 0x4B6 JUMPI DUP1 DUP3 ADD MLOAD DUP2 DUP5 ADD MSTORE PUSH1 0x20 DUP2 ADD SWAP1 POP PUSH2 0x49B JUMP JUMPDEST PUSH0 DUP5 DUP5 ADD MSTORE POP POP POP POP JUMP JUMPDEST PUSH0 PUSH1 0x1F NOT PUSH1 0x1F DUP4 ADD AND SWAP1 POP SWAP2 SWAP1 POP JUMP JUMPDEST PUSH0 PUSH2 0x4DB DUP3 PUSH2 0x47F JUMP JUMPDEST PUSH2 0x4E5 DUP2 DUP6 PUSH2 0x489 JUMP JUMPDEST SWAP4 POP PUSH2 0x4F5 DUP2 DUP6 PUSH1 0x20 DUP7 ADD PUSH2 0x499 JUMP JUMPDEST PUSH2 0x4FE DUP2 PUSH2 0x4C1 JUMP JUMPDEST DUP5 ADD SWAP2 POP POP SWAP3 SWAP2 POP POP JUMP JUMPDEST PUSH0 PUSH1 0x20 DUP3 ADD SWAP1 POP DUP2 DUP2 SUB PUSH0 DUP4 ADD MSTORE PUSH2 0x521 DUP2 DUP5 PUSH2 0x4D1 JUMP JUMPDEST SWAP1 POP SWAP3 SWAP2 POP POP JUMP JUMPDEST PUSH0 DUP2 ISZERO ISZERO SWAP1 POP SWAP2 SWAP1 POP JUMP JUMPDEST PUSH2 0x53D DUP2 PUSH2 0x529 JUMP JUMPDEST DUP3 MSTORE POP POP JUMP JUMPDEST PUSH0 PUSH1 0x20 DUP3 ADD SWAP1 POP PUSH2 0x556 PUSH0 DUP4 ADD DUP5 PUSH2 0x534 JUMP JUMPDEST SWAP3 SWAP2 POP POP JUMP JUMPDEST PUSH0 PUSH1 0x40 MLOAD SWAP1 POP SWAP1 JUMP JUMPDEST PUSH0 DUP1 REVERT JUMPDEST PUSH0 DUP1 REVERT JUMPDEST PUSH0 DUP1 REVERT JUMPDEST PUSH0 DUP1 REVERT JUMPDEST PUSH32 0x4E487B7100000000000000000000000000000000000000000000000000000000 PUSH0 MSTORE PUSH1 0x41 PUSH1 0x4 MSTORE PUSH1 0x24 PUSH0 REVERT JUMPDEST PUSH2 0x5AB DUP3 PUSH2 0x4C1 JUMP JUMPDEST DUP2 ADD DUP2 DUP2 LT PUSH8 0xFFFFFFFFFFFFFFFF DUP3 GT OR ISZERO PUSH2 0x5CA JUMPI PUSH2 0x5C9 PUSH2 0x575 JUMP JUMPDEST JUMPDEST DUP1 PUSH1 0x40 MSTORE POP POP POP JUMP JUMPDEST PUSH0 PUSH2 0x5DC PUSH2 0x55C JUMP JUMPDEST SWAP1 POP PUSH2 0x5E8 DUP3 DUP3 PUSH2 0x5A2 JUMP JUMPDEST SWAP2 SWAP1 POP JUMP JUMPDEST PUSH0 PUSH8 0xFFFFFFFFFFFFFFFF DUP3 GT ISZERO PUSH2 0x607 JUMPI PUSH2 0x606 PUSH2 0x575 JUMP JUMPDEST JUMPDEST PUSH2 0x610 DUP3 PUSH2 0x4C1 JUMP JUMPDEST SWAP1 POP PUSH1 0x20 DUP2 ADD SWAP1 POP SWAP2 SWAP1 POP JUMP JUMPDEST DUP3 DUP2 DUP4 CALLDATACOPY PUSH0 DUP4 DUP4 ADD MSTORE POP POP POP JUMP JUMPDEST PUSH0 PUSH2 0x63D PUSH2 0x638 DUP5 PUSH2 0x5ED JUMP JUMPDEST PUSH2 0x5D3 JUMP JUMPDEST SWAP1 POP DUP3 DUP2 MSTORE PUSH1 0x20 DUP2 ADD DUP5 DUP5 DUP5 ADD GT ISZERO PUSH2 0x659 JUMPI PUSH2 0x658 PUSH2 0x571 JUMP JUMPDEST JUMPDEST PUSH2 0x664 DUP5 DUP3 DUP6 PUSH2 0x61D JUMP JUMPDEST POP SWAP4 SWAP3 POP POP POP JUMP JUMPDEST PUSH0 DUP3 PUSH1 0x1F DUP4 ADD SLT PUSH2 0x680 JUMPI PUSH2 0x67F PUSH2 0x56D JUMP JUMPDEST JUMPDEST DUP2 CALLDATALOAD PUSH2 0x690 DUP5 DUP3 PUSH1 0x20 DUP7 ADD PUSH2 0x62B JUMP JUMPDEST SWAP2 POP POP SWAP3 SWAP2 POP POP JUMP JUMPDEST PUSH0 PUSH1 0x20 DUP3 DUP5 SUB SLT ISZERO PUSH2 0x6AE JUMPI PUSH2 0x6AD PUSH2 0x565 JUMP JUMPDEST JUMPDEST PUSH0 DUP3 ADD CALLDATALOAD PUSH8 0xFFFFFFFFFFFFFFFF DUP2 GT ISZERO PUSH2 0x6CB JUMPI PUSH2 0x6CA PUSH2 0x569 JUMP JUMPDEST JUMPDEST PUSH2 0x6D7 DUP5 DUP3 DUP6 ADD PUSH2 0x66C JUMP JUMPDEST SWAP2 POP POP SWAP3 SWAP2 POP POP JUMP JUMPDEST PUSH0 PUSH1 0xFF DUP3 AND SWAP1 POP SWAP2 SWAP1 POP JUMP JUMPDEST PUSH2 0x6F5 DUP2 PUSH2 0x6E0 JUMP JUMPDEST DUP3 MSTORE POP POP JUMP JUMPDEST PUSH0 PUSH1 0x20 DUP3 ADD SWAP1 POP PUSH2 0x70E PUSH0 DUP4 ADD DUP5 PUSH2 0x6EC JUMP JUMPDEST SWAP3 SWAP2 POP POP JUMP JUMPDEST PUSH2 0x71D DUP2 PUSH2 0x446 JUMP JUMPDEST DUP2 EQ PUSH2 0x727 JUMPI PUSH0 DUP1 REVERT JUMPDEST POP JUMP JUMPDEST PUSH0 DUP2 CALLDATALOAD SWAP1 POP PUSH2 0x738 DUP2 PUSH2 0x714 JUMP JUMPDEST SWAP3 SWAP2 POP POP JUMP JUMPDEST PUSH0 PUSH1 0x20 DUP3 DUP5 SUB SLT ISZERO PUSH2 0x753 JUMPI PUSH2 0x752 PUSH2 0x565 JUMP JUMPDEST JUMPDEST PUSH0 PUSH2 0x760 DUP5 DUP3 DUP6 ADD PUSH2 0x72A JUMP JUMPDEST SWAP2 POP POP SWAP3 SWAP2 POP POP JUMP JUMPDEST PUSH2 0x772 DUP2 PUSH2 0x3F6 JUMP JUMPDEST DUP2 EQ PUSH2 0x77C JUMPI PUSH0 DUP1 REVERT JUMPDEST POP JUMP JUMPDEST PUSH0 DUP2 CALLDATALOAD SWAP1 POP PUSH2 0x78D DUP2 PUSH2 0x769 JUMP JUMPDEST SWAP3 SWAP2 POP POP JUMP JUMPDEST PUSH0 PUSH1 0x20 DUP3 DUP5 SUB SLT ISZERO PUSH2 0x7A8 JUMPI PUSH2 0x7A7 PUSH2 0x565 JUMP JUMPDEST JUMPDEST PUSH0 PUSH2 0x7B5 DUP5 DUP3 DUP6 ADD PUSH2 0x77F JUMP JUMPDEST SWAP2 POP POP SWAP3 SWAP2 POP POP JUMP JUMPDEST PUSH2 0x7C7 DUP2 PUSH2 0x529 JUMP JUMPDEST DUP2 EQ PUSH2 0x7D1 JUMPI PUSH0 DUP1 REVERT JUMPDEST POP JUMP JUMPDEST PUSH0 DUP2 CALLDATALOAD SWAP1 POP PUSH2 0x7E2 DUP2 PUSH2 0x7BE JUMP JUMPDEST SWAP3 SWAP2 POP POP JUMP JUMPDEST PUSH0 PUSH1 0x20 DUP3 DUP5 SUB SLT ISZERO PUSH2 0x7FD JUMPI PUSH2 0x7FC PUSH2 0x565 JUMP JUMPDEST JUMPDEST PUSH0 PUSH2 0x80A DUP5 DUP3 DUP6 ADD PUSH2 0x7D4 JUMP JUMPDEST SWAP2 POP POP SWAP3 SWAP2 POP POP JUMP JUMPDEST PUSH32 0x4E487B7100000000000000000000000000000000000000000000000000000000 PUSH0 MSTORE PUSH1 0x11 PUSH1 0x4 MSTORE PUSH1 0x24 PUSH0 REVERT JUMPDEST PUSH0 PUSH2 0x84A DUP3 PUSH2 0x6E0 JUMP JUMPDEST SWAP2 POP PUSH1 0xFF DUP3 SUB PUSH2 0x85D JUMPI PUSH2 0x85C PUSH2 0x813 JUMP JUMPDEST JUMPDEST PUSH1 0x1 DUP3 ADD SWAP1 POP SWAP2 SWAP1 POP JUMP JUMPDEST PUSH32 0x4E487B7100000000000000000000000000000000000000000000000000000000 PUSH0 MSTORE PUSH1 0x22 PUSH1 0x4 MSTORE PUSH1 0x24 PUSH0 REVERT JUMPDEST PUSH0 PUSH1 0x2 DUP3 DIV SWAP1 POP PUSH1 0x1 DUP3 AND DUP1 PUSH2 0x8AC JUMPI PUSH1 0x7F DUP3 AND SWAP2 POP JUMPDEST PUSH1 0x20 DUP3 LT DUP2 SUB PUSH2 0x8BF JUMPI PUSH2 0x8BE PUSH2 0x868 JUMP JUMPDEST JUMPDEST POP SWAP2 SWAP1 POP JUMP JUMPDEST PUSH0 DUP2 SWAP1 POP DUP2 PUSH0 MSTORE PUSH1 0x20 PUSH0 KECCAK256 SWAP1 POP SWAP2 SWAP1 POP JUMP JUMPDEST PUSH0 PUSH1 0x20 PUSH1 0x1F DUP4 ADD DIV SWAP1 POP SWAP2 SWAP1 POP JUMP JUMPDEST PUSH0 DUP3 DUP3 SHL SWAP1 POP SWAP3 SWAP2 POP POP JUMP JUMPDEST PUSH0 PUSH1 0x8 DUP4 MUL PUSH2 0x921 PUSH32 0xFFFFFFFFFFFFFFFFFFFFFFFFFFFFFFFFFFFFFFFFFFFFFFFFFFFFFFFFFFFFFFFF DUP3 PUSH2 0x8E6 JUMP JUMPDEST PUSH2 0x92B DUP7 DUP4 PUSH2 0x8E6 JUMP JUMPDEST SWAP6 POP DUP1 NOT DUP5 AND SWAP4 POP DUP1 DUP7 AND DUP5 OR SWAP3 POP POP POP SWAP4 SWAP3 POP POP POP JUMP JUMPDEST PUSH0 DUP2 SWAP1 POP SWAP2 SWAP1 POP JUMP JUMPDEST PUSH0 PUSH2 0x966 PUSH2 0x961 PUSH2 0x95C DUP5 PUSH2 0x3F6 JUMP JUMPDEST PUSH2 0x943 JUMP JUMPDEST PUSH2 0x3F6 JUMP JUMPDEST SWAP1 POP SWAP2 SWAP1 POP JUMP JUMPDEST PUSH0 DUP2 SWAP1 POP SWAP2 SWAP1 POP JUMP JUMPDEST PUSH2 0x97F DUP4 PUSH2 0x94C JUMP JUMPDEST PUSH2 0x993 PUSH2 0x98B DUP3 PUSH2 0x96D JUMP JUMPDEST DUP5 DUP5 SLOAD PUSH2 0x8F2 JUMP JUMPDEST DUP3 SSTORE POP POP POP POP JUMP JUMPDEST PUSH0 SWAP1 JUMP JUMPDEST PUSH2 0x9A7 PUSH2 0x99B JUMP JUMPDEST PUSH2 0x9B2 DUP2 DUP5 DUP5 PUSH2 0x976 JUMP JUMPDEST POP POP POP JUMP JUMPDEST JUMPDEST DUP2 DUP2 LT ISZERO PUSH2 0x9D5 JUMPI PUSH2 0x9CA PUSH0 DUP3 PUSH2 0x99F JUMP JUMPDEST PUSH1 0x1 DUP2 ADD SWAP1 POP PUSH2 0x9B8 JUMP JUMPDEST POP POP JUMP JUMPDEST PUSH1 0x1F DUP3 GT ISZERO PUSH2 0xA1A JUMPI PUSH2 0x9EB DUP2 PUSH2 0x8C5 JUMP JUMPDEST PUSH2 0x9F4 DUP5 PUSH2 0x8D7 JUMP JUMPDEST DUP2 ADD PUSH1 0x20 DUP6 LT ISZERO PUSH2 0xA03 JUMPI DUP2 SWAP1 POP JUMPDEST PUSH2 0xA17 PUSH2 0xA0F DUP6 PUSH2 0x8D7 JUMP JUMPDEST DUP4 ADD DUP3 PUSH2 0x9B7 JUMP JUMPDEST POP POP JUMPDEST POP POP POP JUMP JUMPDEST PUSH0 DUP3 DUP3 SHR SWAP1 POP SWAP3 SWAP2 POP POP JUMP JUMPDEST PUSH0 PUSH2 0xA3A PUSH0 NOT DUP5 PUSH1 0x8 MUL PUSH2 0xA1F JUMP JUMPDEST NOT DUP1 DUP4 AND SWAP2 POP POP SWAP3 SWAP2 POP POP JUMP JUMPDEST PUSH0 PUSH2 0xA52 DUP4 DUP4 PUSH2 0xA2B JUMP JUMPDEST SWAP2 POP DUP3 PUSH1 0x2 MUL DUP3 OR SWAP1 POP SWAP3 SWAP2 POP POP JUMP JUMPDEST PUSH2 0xA6B DUP3 PUSH2 0x47F JUMP JUMPDEST PUSH8 0xFFFFFFFFFFFFFFFF DUP2 GT ISZERO PUSH2 0xA84 JUMPI PUSH2 0xA83 PUSH2 0x575 JUMP JUMPDEST JUMPDEST PUSH2 0xA8E DUP3 SLOAD PUSH2 0x895 JUMP JUMPDEST PUSH2 0xA99 DUP3 DUP3 DUP6 PUSH2 0x9D9 JUMP JUMPDEST PUSH0 PUSH1 0x20 SWAP1 POP PUSH1 0x1F DUP4 GT PUSH1 0x1 DUP2 EQ PUSH2 0xACA JUMPI PUSH0 DUP5 ISZERO PUSH2 0xAB8 JUMPI DUP3 DUP8 ADD MLOAD SWAP1 POP JUMPDEST PUSH2 0xAC2 DUP6 DUP3 PUSH2 0xA47 JUMP JUMPDEST DUP7 SSTORE POP PUSH2 0xB29 JUMP JUMPDEST PUSH1 0x1F NOT DUP5 AND PUSH2 0xAD8 DUP7 PUSH2 0x8C5 JUMP JUMPDEST PUSH0 JUMPDEST DUP3 DUP2 LT ISZERO PUSH2 0xAFF JUMPI DUP5 DUP10 ADD MLOAD DUP3 SSTORE PUSH1 0x1 DUP3 ADD SWAP2 POP PUSH1 0x20 DUP6 ADD SWAP5 POP PUSH1 0x20 DUP2 ADD SWAP1 POP PUSH2 0xADA JUMP JUMPDEST DUP7 DUP4 LT ISZERO PUSH2 0xB1C JUMPI DUP5 DUP10 ADD MLOAD PUSH2 0xB18 PUSH1 0x1F DUP10 AND DUP3 PUSH2 0xA2B JUMP JUMPDEST DUP4 SSTORE POP JUMPDEST PUSH1 0x1 PUSH1 0x2 DUP9 MUL ADD DUP9 SSTORE POP POP POP JUMPDEST POP POP POP POP POP POP JUMP JUMPDEST PUSH0 PUSH2 0xB3B DUP3 PUSH2 0x6E0 JUMP JUMPDEST SWAP2 POP PUSH0 DUP3 SUB PUSH2 0xB4D JUMPI PUSH2 0xB4C PUSH2 0x813 JUMP JUMPDEST JUMPDEST PUSH1 0x1 DUP3 SUB SWAP1 POP SWAP2 SWAP1 POP JUMP INVALID LOG2 PUSH5 0x6970667358 0x22 SLT KECCAK256 0x4C OR SWAP3 0xA9 0x27 DUP8 0xA9 DUP10 PUSH6 0x256F4316565A POP KECCAK256 0xDF RETURN PUSH4 0xD2B355C2 PUSH9 0x38D37FFE4AE06C6473 PUSH16 0x6C634300081600330000000000000000 "
		},
		"gasEstimates": {
			"creation": {
				"codeDepositCost": "591600",
				"executionCost": "infinite",
				"totalCost": "infinite"
			},
			"external": {
				"decrementUint()": "26817",
				"getBalanceOfAddress()": "5169",
				"incrementUint()": "26819",
				"myAddress()": "2626",
				"myBool()": "2577",
				"myString()": "infinite",
				"myUint()": "2425",
				"myUint8()": "2558",
				"setAddress(address)": "24832",
				"setMyBool(bool)": "24783",
				"setMyString(string)": "infinite",
				"setMyUint(uint256)": "22602"
			}
		},
		"methodIdentifiers": {
			"decrementUint()": "da50eaee",
			"getBalanceOfAddress()": "15502612",
			"incrementUint()": "14bf43bd",
			"myAddress()": "26b85ee1",
			"myBool()": "6deecdbe",
			"myString()": "492bfa18",
			"myUint()": "06540f7e",
			"myUint8()": "e2a4b2af",
			"setAddress(address)": "e30081a0",
			"setMyBool(bool)": "eb1b30d9",
			"setMyString(string)": "82180568",
			"setMyUint(uint256)": "e492fd84"
		}
	},
	"abi": [
		{
			"inputs": [],
			"name": "decrementUint",
			"outputs": [],
			"stateMutability": "nonpayable",
			"type": "function"
		},
		{
			"inputs": [],
			"name": "getBalanceOfAddress",
			"outputs": [
				{
					"internalType": "uint256",
					"name": "",
					"type": "uint256"
				}
			],
			"stateMutability": "view",
			"type": "function"
		},
		{
			"inputs": [],
			"name": "incrementUint",
			"outputs": [],
			"stateMutability": "nonpayable",
			"type": "function"
		},
		{
			"inputs": [],
			"name": "myAddress",
			"outputs": [
				{
					"internalType": "address",
					"name": "",
					"type": "address"
				}
			],
			"stateMutability": "view",
			"type": "function"
		},
		{
			"inputs": [],
			"name": "myBool",
			"outputs": [
				{
					"internalType": "bool",
					"name": "",
					"type": "bool"
				}
			],
			"stateMutability": "view",
			"type": "function"
		},
		{
			"inputs": [],
			"name": "myString",
			"outputs": [
				{
					"internalType": "string",
					"name": "",
					"type": "string"
				}
			],
			"stateMutability": "view",
			"type": "function"
		},
		{
			"inputs": [],
			"name": "myUint",
			"outputs": [
				{
					"internalType": "uint256",
					"name": "",
					"type": "uint256"
				}
			],
			"stateMutability": "view",
			"type": "function"
		},
		{
			"inputs": [],
			"name": "myUint8",
			"outputs": [
				{
					"internalType": "uint8",
					"name": "",
					"type": "uint8"
				}
			],
			"stateMutability": "view",
			"type": "function"
		},
		{
			"inputs": [
				{
					"internalType": "address",
					"name": "_address",
					"type": "address"
				}
			],
			"name": "setAddress",
			"outputs": [],
			"stateMutability": "nonpayable",
			"type": "function"
		},
		{
			"inputs": [
				{
					"internalType": "bool",
					"name": "_myBool",
					"type": "bool"
				}
			],
			"name": "setMyBool",
			"outputs": [],
			"stateMutability": "nonpayable",
			"type": "function"
		},
		{
			"inputs": [
				{
					"internalType": "string",
					"name": "_mystring",
					"type": "string"
				}
			],
			"name": "setMyString",
			"outputs": [],
			"stateMutability": "nonpayable",
			"type": "function"
		},
		{
			"inputs": [
				{
					"internalType": "uint256",
					"name": "_myUint",
					"type": "uint256"
				}
			],
			"name": "setMyUint",
			"outputs": [],
			"stateMutability": "nonpayable",
			"type": "function"
		}
	]
}